{
  "abi": [
    {
      "inputs": [
        {
          "internalType": "address[]",
          "name": "_priceFeeds",
          "type": "address[]"
        },
        {
          "internalType": "address",
          "name": "_baseToken",
          "type": "address"
        }
      ],
      "name": "calculateNAV",
      "outputs": [
        {
          "internalType": "int256",
          "name": "nav",
          "type": "int256"
        }
      ],
      "stateMutability": "view",
      "type": "function"
    },
    {
      "inputs": [
        {
          "internalType": "address",
          "name": "priceFeed",
          "type": "address"
        }
      ],
      "name": "getV2Price",
      "outputs": [
        {
          "internalType": "int256",
          "name": "price",
          "type": "int256"
        }
      ],
      "stateMutability": "view",
      "type": "function"
    },
    {
      "inputs": [
        {
          "internalType": "address",
          "name": "priceFeed",
          "type": "address"
        }
      ],
      "name": "getV3Price",
      "outputs": [
        {
          "internalType": "int256",
          "name": "price",
          "type": "int256"
        }
      ],
      "stateMutability": "view",
      "type": "function"
    },
    {
      "inputs": [
        {
          "internalType": "address",
          "name": "_priceFeed",
          "type": "address"
        },
        {
          "internalType": "bool",
          "name": "_isV3",
          "type": "bool"
        }
      ],
      "name": "registerPriceFeed",
      "outputs": [],
      "stateMutability": "nonpayable",
      "type": "function"
    }
  ],
  "bytecode": {
    "object": "0x608060405234801561001057600080fd5b50610526806100206000396000f3fe608060405234801561001057600080fd5b506004361061004c5760003560e01c8063663f8f4f1461005157806373fc2f1b14610076578063b52f665714610089578063c75373c9146100c4575b600080fd5b61006461005f3660046102b2565b6100d7565b60405190815260200160405180910390f35b610064610084366004610336565b6101ac565b6100c2610097366004610358565b6001600160a01b03919091166000908152602081905260409020805460ff1916911515919091179055565b005b6100646100d2366004610336565b610216565b60008060005b8481101561012d5761010f8686838181106100fa576100fa610394565b90506020020160208101906100d29190610336565b61011990836103c0565b915080610125816103e8565b9150506100dd565b50826001600160a01b03166318160ddd6040518163ffffffff1660e01b8152600401602060405180830381865afa15801561016c573d6000803e3d6000fd5b505050506040513d601f19601f820116820180604052508101906101909190610401565b61019982610285565b6101a3919061041a565b95945050505050565b6000816001600160a01b03166350d25bcd6040518163ffffffff1660e01b8152600401602060405180830381865afa1580156101ec573d6000803e3d6000fd5b505050506040513d601f19601f820116820180604052508101906102109190610401565b92915050565b6000816001600160a01b031663feaf968c6040518163ffffffff1660e01b815260040160a060405180830381865afa158015610256573d6000803e3d6000fd5b505050506040513d601f19601f8201168201806040525081019061027a9190610470565b509195945050505050565b6000610210826402540be4006104c0565b80356001600160a01b03811681146102ad57600080fd5b919050565b6000806000604084860312156102c757600080fd5b833567ffffffffffffffff808211156102df57600080fd5b818601915086601f8301126102f357600080fd5b81358181111561030257600080fd5b8760208260051b850101111561031757600080fd5b60209283019550935061032d9186019050610296565b90509250925092565b60006020828403121561034857600080fd5b61035182610296565b9392505050565b6000806040838503121561036b57600080fd5b61037483610296565b91506020830135801515811461038957600080fd5b809150509250929050565b634e487b7160e01b600052603260045260246000fd5b634e487b7160e01b600052601160045260246000fd5b80820182811260008312801582168215821617156103e0576103e06103aa565b505092915050565b6000600182016103fa576103fa6103aa565b5060010190565b60006020828403121561041357600080fd5b5051919050565b60008261043757634e487b7160e01b600052601260045260246000fd5b600160ff1b821460001984141615610451576104516103aa565b500590565b805169ffffffffffffffffffff811681146102ad57600080fd5b600080600080600060a0868803121561048857600080fd5b61049186610456565b94506020860151935060408601519250606086015191506104b460808701610456565b90509295509295909350565b80820260008212600160ff1b841416156104dc576104dc6103aa565b8181058314821517610210576102106103aa56fea26469706673582212208c1be4a2e23c01f07263ba4961a48f77dfe612ae54cfef6719db27cbf9082d4264736f6c63430008110033",
    "linkReferences": {}
  },
  "methodIdentifiers": {
    "calculateNAV(address[],address)": "663f8f4f",
    "getV2Price(address)": "73fc2f1b",
    "getV3Price(address)": "c75373c9",
    "registerPriceFeed(address,bool)": "b52f6657"
  },
  "id": 23
}