{
  "abi": [
    {
      "inputs": [],
      "stateMutability": "nonpayable",
      "type": "constructor"
    },
    {
      "anonymous": false,
      "inputs": [
        {
          "indexed": true,
          "internalType": "address",
          "name": "previousOwner",
          "type": "address"
        },
        {
          "indexed": true,
          "internalType": "address",
          "name": "newOwner",
          "type": "address"
        }
      ],
      "name": "OwnershipTransferred",
      "type": "event"
    },
    {
      "anonymous": false,
      "inputs": [
        {
          "indexed": false,
          "internalType": "uint256",
          "name": "supply",
          "type": "uint256"
        }
      ],
      "name": "SupplyChange",
      "type": "event"
    },
    {
      "anonymous": false,
      "inputs": [
        {
          "indexed": false,
          "internalType": "address",
          "name": "recipient",
          "type": "address"
        },
        {
          "indexed": false,
          "internalType": "uint256",
          "name": "amount",
          "type": "uint256"
        }
      ],
      "name": "Transfer",
      "type": "event"
    },
    {
      "inputs": [
        {
          "internalType": "address",
          "name": "_target",
          "type": "address"
        }
      ],
      "name": "getBalance",
      "outputs": [
        {
          "internalType": "uint256",
          "name": "",
          "type": "uint256"
        }
      ],
      "stateMutability": "view",
      "type": "function"
    },
    {
      "inputs": [],
      "name": "getSupply",
      "outputs": [
        {
          "internalType": "uint256",
          "name": "",
          "type": "uint256"
        }
      ],
      "stateMutability": "view",
      "type": "function"
    },
    {
      "inputs": [],
      "name": "increaseTotalSupply",
      "outputs": [],
      "stateMutability": "nonpayable",
      "type": "function"
    },
    {
      "inputs": [],
      "name": "owner",
      "outputs": [
        {
          "internalType": "address",
          "name": "",
          "type": "address"
        }
      ],
      "stateMutability": "view",
      "type": "function"
    },
    {
      "inputs": [
        {
          "internalType": "address",
          "name": "_sender",
          "type": "address"
        },
        {
          "internalType": "address",
          "name": "_receiver",
          "type": "address"
        },
        {
          "internalType": "uint256",
          "name": "_amount",
          "type": "uint256"
        }
      ],
      "name": "recordPayment",
      "outputs": [],
      "stateMutability": "nonpayable",
      "type": "function"
    },
    {
      "inputs": [],
      "name": "renounceOwnership",
      "outputs": [],
      "stateMutability": "nonpayable",
      "type": "function"
    },
    {
      "inputs": [
        {
          "internalType": "uint256",
          "name": "_amount",
          "type": "uint256"
        },
        {
          "internalType": "address",
          "name": "recipient",
          "type": "address"
        }
      ],
      "name": "transfer",
      "outputs": [],
      "stateMutability": "nonpayable",
      "type": "function"
    },
    {
      "inputs": [
        {
          "internalType": "address",
          "name": "from",
          "type": "address"
        },
        {
          "internalType": "address",
          "name": "to",
          "type": "address"
        },
        {
          "internalType": "uint256",
          "name": "amount",
          "type": "uint256"
        }
      ],
      "name": "transferFrom",
      "outputs": [],
      "stateMutability": "nonpayable",
      "type": "function"
    },
    {
      "inputs": [
        {
          "internalType": "address",
          "name": "newOwner",
          "type": "address"
        }
      ],
      "name": "transferOwnership",
      "outputs": [],
      "stateMutability": "nonpayable",
      "type": "function"
    }
  ],
  "bytecode": {
    "object": "0x608060405261271060015534801561001657600080fd5b5061002033610038565b60015433600090815260026020526040902055610088565b600080546001600160a01b038381166001600160a01b0319831681178455604051919092169283917f8be0079c531659141344cd1fd0a4f28419497f9722a3daafe3b4186f6b6457e09190a35050565b6105be806100976000396000f3fe608060405234801561001057600080fd5b50600436106100935760003560e01c80638da5cb5b116100665780638da5cb5b146100df578063b7760c8f146100fa578063de0f2be11461010d578063f2fde38b14610115578063f8b2cb4f1461012857600080fd5b806323b872dd146100985780634e6ebeb8146100ad5780636c9c2faf146100c0578063715018a6146100d7575b600080fd5b6100ab6100a63660046104b9565b610151565b005b6100ab6100bb3660046104b9565b6101fe565b6001545b6040519081526020015b60405180910390f35b6100ab610265565b6000546040516001600160a01b0390911681526020016100ce565b6100ab6101083660046104f5565b610279565b6100ab61031c565b6100ab610123366004610521565b610375565b6100c4610136366004610521565b6001600160a01b031660009081526002602052604090205490565b6001600160a01b03831660009081526002602052604081208054839290610179908490610559565b90915550506001600160a01b038216600090815260026020526040812080548392906101a6908490610570565b909155506101b790508383836101fe565b604080516001600160a01b0384168152602081018390527f69ca02dd4edd7bf0a4abb9ed3b7af3f14778db5d61921c7dc7cd545266326de2910160405180910390a1505050565b6040805180820182529182526001600160a01b03928316602080840191825294841660009081526003865291822080546001808201835591845295909220925160029095029092019384559051920180546001600160a01b03191692909116919091179055565b61026d6103f3565b610277600061044d565b565b3360009081526002602052604081208054849290610298908490610559565b90915550506001600160a01b038116600090815260026020526040812080548492906102c5908490610570565b909155506102d690503382846101fe565b604080516001600160a01b0383168152602081018490527f69ca02dd4edd7bf0a4abb9ed3b7af3f14778db5d61921c7dc7cd545266326de2910160405180910390a15050565b6103246103f3565b6103e8600160008282546103389190610570565b90915550506001546040519081527fa7c4659c01b6333277cda1f0cba85839c3bce5bad5a027f5f8d49be390e2ff2f9060200160405180910390a1565b61037d6103f3565b6001600160a01b0381166103e75760405162461bcd60e51b815260206004820152602660248201527f4f776e61626c653a206e6577206f776e657220697320746865207a65726f206160448201526564647265737360d01b60648201526084015b60405180910390fd5b6103f08161044d565b50565b6000546001600160a01b031633146102775760405162461bcd60e51b815260206004820181905260248201527f4f776e61626c653a2063616c6c6572206973206e6f7420746865206f776e657260448201526064016103de565b600080546001600160a01b038381166001600160a01b0319831681178455604051919092169283917f8be0079c531659141344cd1fd0a4f28419497f9722a3daafe3b4186f6b6457e09190a35050565b80356001600160a01b03811681146104b457600080fd5b919050565b6000806000606084860312156104ce57600080fd5b6104d78461049d565b92506104e56020850161049d565b9150604084013590509250925092565b6000806040838503121561050857600080fd5b823591506105186020840161049d565b90509250929050565b60006020828403121561053357600080fd5b61053c8261049d565b9392505050565b634e487b7160e01b600052601160045260246000fd5b60008282101561056b5761056b610543565b500390565b6000821982111561058357610583610543565b50019056fea26469706673582212202d8211c820b831e032b9e766085b39813f900e09d48e7ca04737480444890ecc64736f6c634300080d0033",
    "linkReferences": {}
  },
  "methodIdentifiers": {
    "getBalance(address)": "f8b2cb4f",
    "getSupply()": "6c9c2faf",
    "increaseTotalSupply()": "de0f2be1",
    "owner()": "8da5cb5b",
    "recordPayment(address,address,uint256)": "4e6ebeb8",
    "renounceOwnership()": "715018a6",
    "transfer(uint256,address)": "b7760c8f",
    "transferFrom(address,address,uint256)": "23b872dd",
    "transferOwnership(address)": "f2fde38b"
  },
  "id": 32
}