{
  "abi": [
    {
      "inputs": [],
      "stateMutability": "nonpayable",
      "type": "constructor"
    },
    {
      "anonymous": false,
      "inputs": [
        {
          "indexed": true,
          "internalType": "address",
          "name": "previousOwner",
          "type": "address"
        },
        {
          "indexed": true,
          "internalType": "address",
          "name": "newOwner",
          "type": "address"
        }
      ],
      "name": "OwnershipTransferred",
      "type": "event"
    },
    {
      "anonymous": false,
      "inputs": [
        {
          "indexed": false,
          "internalType": "uint256",
          "name": "supply",
          "type": "uint256"
        }
      ],
      "name": "SupplyChange",
      "type": "event"
    },
    {
      "anonymous": false,
      "inputs": [
        {
          "indexed": false,
          "internalType": "address",
          "name": "recipient",
          "type": "address"
        },
        {
          "indexed": false,
          "internalType": "uint256",
          "name": "amount",
          "type": "uint256"
        }
      ],
      "name": "Transfer",
      "type": "event"
    },
    {
      "inputs": [
        {
          "internalType": "address",
          "name": "_target",
          "type": "address"
        }
      ],
      "name": "getBalance",
      "outputs": [
        {
          "internalType": "uint256",
          "name": "",
          "type": "uint256"
        }
      ],
      "stateMutability": "view",
      "type": "function"
    },
    {
      "inputs": [],
      "name": "getSupply",
      "outputs": [
        {
          "internalType": "uint256",
          "name": "",
          "type": "uint256"
        }
      ],
      "stateMutability": "view",
      "type": "function"
    },
    {
      "inputs": [],
      "name": "increaseTotalSupply",
      "outputs": [],
      "stateMutability": "nonpayable",
      "type": "function"
    },
    {
      "inputs": [],
      "name": "owner",
      "outputs": [
        {
          "internalType": "address",
          "name": "",
          "type": "address"
        }
      ],
      "stateMutability": "view",
      "type": "function"
    },
    {
      "inputs": [
        {
          "internalType": "address",
          "name": "_sender",
          "type": "address"
        },
        {
          "internalType": "address",
          "name": "_receiver",
          "type": "address"
        },
        {
          "internalType": "uint256",
          "name": "_amount",
          "type": "uint256"
        }
      ],
      "name": "recordPayment",
      "outputs": [],
      "stateMutability": "nonpayable",
      "type": "function"
    },
    {
      "inputs": [],
      "name": "renounceOwnership",
      "outputs": [],
      "stateMutability": "nonpayable",
      "type": "function"
    },
    {
      "inputs": [
        {
          "internalType": "uint256",
          "name": "_amount",
          "type": "uint256"
        },
        {
          "internalType": "address",
          "name": "recipient",
          "type": "address"
        }
      ],
      "name": "transfer",
      "outputs": [],
      "stateMutability": "nonpayable",
      "type": "function"
    },
    {
      "inputs": [
        {
          "internalType": "address",
          "name": "newOwner",
          "type": "address"
        }
      ],
      "name": "transferOwnership",
      "outputs": [],
      "stateMutability": "nonpayable",
      "type": "function"
    }
  ],
  "bytecode": {
    "object": "0x608060405261271060015534801561001657600080fd5b5061002033610038565b60015433600090815260026020526040902055610088565b600080546001600160a01b038381166001600160a01b0319831681178455604051919092169283917f8be0079c531659141344cd1fd0a4f28419497f9722a3daafe3b4186f6b6457e09190a35050565b610482806100976000396000f3fe608060405234801561001057600080fd5b50600436106100885760003560e01c8063b7760c8f1161005b578063b7760c8f146100dc578063de0f2be1146100ef578063f2fde38b146100f7578063f8b2cb4f1461010a57600080fd5b80634e6ebeb81461008d5780636c9c2faf146100a2578063715018a6146100b95780638da5cb5b146100c1575b600080fd5b6100a061009b36600461039c565b610133565b005b6001545b6040519081526020015b60405180910390f35b6100a061019a565b6000546040516001600160a01b0390911681526020016100b0565b6100a06100ea3660046103d8565b6101ae565b6100a06101ff565b6100a0610105366004610404565b610258565b6100a6610118366004610404565b6001600160a01b031660009081526002602052604090205490565b6040805180820182529182526001600160a01b03928316602080840191825294841660009081526003865291822080546001808201835591845295909220925160029095029092019384559051920180546001600160a01b03191692909116919091179055565b6101a26102d6565b6101ac6000610330565b565b6101b9338284610133565b604080516001600160a01b0383168152602081018490527f69ca02dd4edd7bf0a4abb9ed3b7af3f14778db5d61921c7dc7cd545266326de2910160405180910390a15050565b6102076102d6565b6103e86001600082825461021b9190610426565b90915550506001546040519081527fa7c4659c01b6333277cda1f0cba85839c3bce5bad5a027f5f8d49be390e2ff2f9060200160405180910390a1565b6102606102d6565b6001600160a01b0381166102ca5760405162461bcd60e51b815260206004820152602660248201527f4f776e61626c653a206e6577206f776e657220697320746865207a65726f206160448201526564647265737360d01b60648201526084015b60405180910390fd5b6102d381610330565b50565b6000546001600160a01b031633146101ac5760405162461bcd60e51b815260206004820181905260248201527f4f776e61626c653a2063616c6c6572206973206e6f7420746865206f776e657260448201526064016102c1565b600080546001600160a01b038381166001600160a01b0319831681178455604051919092169283917f8be0079c531659141344cd1fd0a4f28419497f9722a3daafe3b4186f6b6457e09190a35050565b80356001600160a01b038116811461039757600080fd5b919050565b6000806000606084860312156103b157600080fd5b6103ba84610380565b92506103c860208501610380565b9150604084013590509250925092565b600080604083850312156103eb57600080fd5b823591506103fb60208401610380565b90509250929050565b60006020828403121561041657600080fd5b61041f82610380565b9392505050565b6000821982111561044757634e487b7160e01b600052601160045260246000fd5b50019056fea2646970667358221220d4751b505ddc77a61195dcdcd11f6bbbd51d622e26e6c19791dab8b84c1205c364736f6c634300080d0033",
    "linkReferences": {}
  }
}