{
  "abi": [
    {
      "inputs": [],
      "stateMutability": "nonpayable",
      "type": "constructor"
    },
    {
      "anonymous": false,
      "inputs": [
        {
          "indexed": true,
          "internalType": "address",
          "name": "previousOwner",
          "type": "address"
        },
        {
          "indexed": true,
          "internalType": "address",
          "name": "newOwner",
          "type": "address"
        }
      ],
      "name": "OwnershipTransferred",
      "type": "event"
    },
    {
      "anonymous": false,
      "inputs": [
        {
          "indexed": false,
          "internalType": "uint256",
          "name": "supply",
          "type": "uint256"
        }
      ],
      "name": "SupplyChange",
      "type": "event"
    },
    {
      "anonymous": false,
      "inputs": [
        {
          "indexed": false,
          "internalType": "address",
          "name": "recipient",
          "type": "address"
        },
        {
          "indexed": false,
          "internalType": "uint256",
          "name": "amount",
          "type": "uint256"
        }
      ],
      "name": "Transfer",
      "type": "event"
    },
    {
      "inputs": [
        {
          "internalType": "address",
          "name": "_target",
          "type": "address"
        }
      ],
      "name": "getBalance",
      "outputs": [
        {
          "internalType": "uint256",
          "name": "",
          "type": "uint256"
        }
      ],
      "stateMutability": "view",
      "type": "function"
    },
    {
      "inputs": [],
      "name": "getSupply",
      "outputs": [
        {
          "internalType": "uint256",
          "name": "",
          "type": "uint256"
        }
      ],
      "stateMutability": "view",
      "type": "function"
    },
    {
      "inputs": [],
      "name": "increaseTotalSupply",
      "outputs": [],
      "stateMutability": "nonpayable",
      "type": "function"
    },
    {
      "inputs": [],
      "name": "owner",
      "outputs": [
        {
          "internalType": "address",
          "name": "",
          "type": "address"
        }
      ],
      "stateMutability": "view",
      "type": "function"
    },
    {
      "inputs": [
        {
          "internalType": "address",
          "name": "_sender",
          "type": "address"
        },
        {
          "internalType": "address",
          "name": "_receiver",
          "type": "address"
        },
        {
          "internalType": "uint256",
          "name": "_amount",
          "type": "uint256"
        }
      ],
      "name": "recordPayment",
      "outputs": [],
      "stateMutability": "nonpayable",
      "type": "function"
    },
    {
      "inputs": [],
      "name": "renounceOwnership",
      "outputs": [],
      "stateMutability": "nonpayable",
      "type": "function"
    },
    {
      "inputs": [
        {
          "internalType": "uint256",
          "name": "_amount",
          "type": "uint256"
        },
        {
          "internalType": "address",
          "name": "recipient",
          "type": "address"
        }
      ],
      "name": "transfer",
      "outputs": [],
      "stateMutability": "nonpayable",
      "type": "function"
    },
    {
      "inputs": [
        {
          "internalType": "address",
          "name": "from",
          "type": "address"
        },
        {
          "internalType": "address",
          "name": "to",
          "type": "address"
        },
        {
          "internalType": "uint256",
          "name": "amount",
          "type": "uint256"
        }
      ],
      "name": "transferFrom",
      "outputs": [],
      "stateMutability": "nonpayable",
      "type": "function"
    },
    {
      "inputs": [
        {
          "internalType": "address",
          "name": "newOwner",
          "type": "address"
        }
      ],
      "name": "transferOwnership",
      "outputs": [],
      "stateMutability": "nonpayable",
      "type": "function"
    }
  ],
  "bytecode": {
    "object": "0x608060405261271060015534801561001657600080fd5b5061002761002261003f565b610043565b60015433600090815260026020526040902055610093565b3390565b600080546001600160a01b038381166001600160a01b0319831681178455604051919092169283917f8be0079c531659141344cd1fd0a4f28419497f9722a3daafe3b4186f6b6457e09190a35050565b61063b806100a26000396000f3fe608060405234801561001057600080fd5b50600436106100935760003560e01c80638da5cb5b116100665780638da5cb5b146100e6578063b7760c8f146100fb578063de0f2be11461010e578063f2fde38b14610116578063f8b2cb4f1461012957610093565b806323b872dd146100985780634e6ebeb8146100ad5780636c9c2faf146100c0578063715018a6146100de575b600080fd5b6100ab6100a63660046104a9565b61013c565b005b6100ab6100bb3660046104a9565b6101e0565b6100c8610246565b6040516100d591906105b7565b60405180910390f35b6100ab61024c565b6100ee610260565b6040516100d5919061050f565b6100ab6101093660046104e4565b61026f565b6100ab610309565b6100ab610124366004610488565b610365565b6100c8610137366004610488565b6103a8565b6001600160a01b038316600090815260026020526040812080548392906101649084906105d8565b90915550506001600160a01b038216600090815260026020526040812080548392906101919084906105c0565b909155506101a290508383836101e0565b7f69ca02dd4edd7bf0a4abb9ed3b7af3f14778db5d61921c7dc7cd545266326de282826040516101d3929190610523565b60405180910390a1505050565b6101e861045a565b9081526001600160a01b03918216602080830191825293831660009081526003855260408120805460018082018355918352959091209251600290950290920193845551920180546001600160a01b03191692909116919091179055565b60015490565b6102546103c7565b61025e6000610406565b565b6000546001600160a01b031690565b336000908152600260205260408120805484929061028e9084906105d8565b90915550506001600160a01b038116600090815260026020526040812080548492906102bb9084906105c0565b909155506102cc90503382846101e0565b7f69ca02dd4edd7bf0a4abb9ed3b7af3f14778db5d61921c7dc7cd545266326de281836040516102fd929190610523565b60405180910390a15050565b6103116103c7565b6103e86001600082825461032591906105c0565b90915550506001546040517fa7c4659c01b6333277cda1f0cba85839c3bce5bad5a027f5f8d49be390e2ff2f9161035b916105b7565b60405180910390a1565b61036d6103c7565b6001600160a01b03811661039c5760405162461bcd60e51b81526004016103939061053c565b60405180910390fd5b6103a581610406565b50565b6001600160a01b0381166000908152600260205260409020545b919050565b6103cf610456565b6001600160a01b03166103e0610260565b6001600160a01b03161461025e5760405162461bcd60e51b815260040161039390610582565b600080546001600160a01b038381166001600160a01b0319831681178455604051919092169283917f8be0079c531659141344cd1fd0a4f28419497f9722a3daafe3b4186f6b6457e09190a35050565b3390565b604080518082019091526000808252602082015290565b80356001600160a01b03811681146103c257600080fd5b600060208284031215610499578081fd5b6104a282610471565b9392505050565b6000806000606084860312156104bd578182fd5b6104c684610471565b92506104d460208501610471565b9150604084013590509250925092565b600080604083850312156104f6578182fd5b8235915061050660208401610471565b90509250929050565b6001600160a01b0391909116815260200190565b6001600160a01b03929092168252602082015260400190565b60208082526026908201527f4f776e61626c653a206e6577206f776e657220697320746865207a65726f206160408201526564647265737360d01b606082015260800190565b6020808252818101527f4f776e61626c653a2063616c6c6572206973206e6f7420746865206f776e6572604082015260600190565b90815260200190565b600082198211156105d3576105d36105ef565b500190565b6000828210156105ea576105ea6105ef565b500390565b634e487b7160e01b600052601160045260246000fdfea2646970667358221220354c80c2996a28e9ac7bd6632a0c5d4f9d7d8829c2708f8d5aec2692459ccae664736f6c63430008000033",
    "linkReferences": {}
  }
}