{
  "abi": [
    {
      "inputs": [],
      "stateMutability": "nonpayable",
      "type": "constructor"
    },
    {
      "anonymous": false,
      "inputs": [
        {
          "indexed": true,
          "internalType": "address",
          "name": "owner",
          "type": "address"
        },
        {
          "indexed": true,
          "internalType": "address",
          "name": "spender",
          "type": "address"
        },
        {
          "indexed": true,
          "internalType": "uint256",
          "name": "id",
          "type": "uint256"
        }
      ],
      "name": "Approval",
      "type": "event"
    },
    {
      "anonymous": false,
      "inputs": [
        {
          "indexed": true,
          "internalType": "address",
          "name": "owner",
          "type": "address"
        },
        {
          "indexed": true,
          "internalType": "address",
          "name": "operator",
          "type": "address"
        },
        {
          "indexed": false,
          "internalType": "bool",
          "name": "approved",
          "type": "bool"
        }
      ],
      "name": "ApprovalForAll",
      "type": "event"
    },
    {
      "anonymous": false,
      "inputs": [
        {
          "indexed": true,
          "internalType": "address",
          "name": "user",
          "type": "address"
        },
        {
          "indexed": true,
          "internalType": "address",
          "name": "newOwner",
          "type": "address"
        }
      ],
      "name": "OwnershipTransferred",
      "type": "event"
    },
    {
      "anonymous": false,
      "inputs": [
        {
          "indexed": true,
          "internalType": "address",
          "name": "from",
          "type": "address"
        },
        {
          "indexed": true,
          "internalType": "address",
          "name": "to",
          "type": "address"
        },
        {
          "indexed": true,
          "internalType": "uint256",
          "name": "id",
          "type": "uint256"
        }
      ],
      "name": "Transfer",
      "type": "event"
    },
    {
      "inputs": [],
      "name": "MAX_SUPPLY",
      "outputs": [
        {
          "internalType": "uint256",
          "name": "",
          "type": "uint256"
        }
      ],
      "stateMutability": "view",
      "type": "function"
    },
    {
      "inputs": [],
      "name": "PRICE",
      "outputs": [
        {
          "internalType": "uint256",
          "name": "",
          "type": "uint256"
        }
      ],
      "stateMutability": "view",
      "type": "function"
    },
    {
      "inputs": [
        {
          "internalType": "address",
          "name": "_approved",
          "type": "address"
        },
        {
          "internalType": "uint256",
          "name": "_tokenId",
          "type": "uint256"
        }
      ],
      "name": "approve",
      "outputs": [],
      "stateMutability": "nonpayable",
      "type": "function"
    },
    {
      "inputs": [
        {
          "internalType": "address",
          "name": "owner",
          "type": "address"
        }
      ],
      "name": "balanceOf",
      "outputs": [
        {
          "internalType": "uint256",
          "name": "",
          "type": "uint256"
        }
      ],
      "stateMutability": "view",
      "type": "function"
    },
    {
      "inputs": [
        {
          "internalType": "uint256",
          "name": "",
          "type": "uint256"
        }
      ],
      "name": "canvases",
      "outputs": [
        {
          "internalType": "address",
          "name": "",
          "type": "address"
        }
      ],
      "stateMutability": "view",
      "type": "function"
    },
    {
      "inputs": [
        {
          "internalType": "uint256",
          "name": "",
          "type": "uint256"
        }
      ],
      "name": "getApproved",
      "outputs": [
        {
          "internalType": "address",
          "name": "",
          "type": "address"
        }
      ],
      "stateMutability": "view",
      "type": "function"
    },
    {
      "inputs": [
        {
          "internalType": "address",
          "name": "",
          "type": "address"
        },
        {
          "internalType": "address",
          "name": "",
          "type": "address"
        }
      ],
      "name": "isApprovedForAll",
      "outputs": [
        {
          "internalType": "bool",
          "name": "",
          "type": "bool"
        }
      ],
      "stateMutability": "view",
      "type": "function"
    },
    {
      "inputs": [],
      "name": "mintWithEth",
      "outputs": [],
      "stateMutability": "payable",
      "type": "function"
    },
    {
      "inputs": [],
      "name": "name",
      "outputs": [
        {
          "internalType": "string",
          "name": "",
          "type": "string"
        }
      ],
      "stateMutability": "view",
      "type": "function"
    },
    {
      "inputs": [],
      "name": "owner",
      "outputs": [
        {
          "internalType": "address",
          "name": "",
          "type": "address"
        }
      ],
      "stateMutability": "view",
      "type": "function"
    },
    {
      "inputs": [
        {
          "internalType": "uint256",
          "name": "_tokenId",
          "type": "uint256"
        }
      ],
      "name": "ownerOf",
      "outputs": [
        {
          "internalType": "address",
          "name": "",
          "type": "address"
        }
      ],
      "stateMutability": "view",
      "type": "function"
    },
    {
      "inputs": [
        {
          "internalType": "address",
          "name": "from",
          "type": "address"
        },
        {
          "internalType": "address",
          "name": "to",
          "type": "address"
        },
        {
          "internalType": "uint256",
          "name": "id",
          "type": "uint256"
        }
      ],
      "name": "safeTransferFrom",
      "outputs": [],
      "stateMutability": "nonpayable",
      "type": "function"
    },
    {
      "inputs": [
        {
          "internalType": "address",
          "name": "from",
          "type": "address"
        },
        {
          "internalType": "address",
          "name": "to",
          "type": "address"
        },
        {
          "internalType": "uint256",
          "name": "id",
          "type": "uint256"
        },
        {
          "internalType": "bytes",
          "name": "data",
          "type": "bytes"
        }
      ],
      "name": "safeTransferFrom",
      "outputs": [],
      "stateMutability": "nonpayable",
      "type": "function"
    },
    {
      "inputs": [
        {
          "internalType": "address",
          "name": "operator",
          "type": "address"
        },
        {
          "internalType": "bool",
          "name": "approved",
          "type": "bool"
        }
      ],
      "name": "setApprovalForAll",
      "outputs": [],
      "stateMutability": "nonpayable",
      "type": "function"
    },
    {
      "inputs": [
        {
          "internalType": "bytes4",
          "name": "interfaceId",
          "type": "bytes4"
        }
      ],
      "name": "supportsInterface",
      "outputs": [
        {
          "internalType": "bool",
          "name": "",
          "type": "bool"
        }
      ],
      "stateMutability": "view",
      "type": "function"
    },
    {
      "inputs": [],
      "name": "symbol",
      "outputs": [
        {
          "internalType": "string",
          "name": "",
          "type": "string"
        }
      ],
      "stateMutability": "view",
      "type": "function"
    },
    {
      "inputs": [
        {
          "internalType": "uint256",
          "name": "id",
          "type": "uint256"
        }
      ],
      "name": "tokenURI",
      "outputs": [
        {
          "internalType": "string",
          "name": "",
          "type": "string"
        }
      ],
      "stateMutability": "view",
      "type": "function"
    },
    {
      "inputs": [],
      "name": "totalSupply",
      "outputs": [
        {
          "internalType": "uint256",
          "name": "",
          "type": "uint256"
        }
      ],
      "stateMutability": "view",
      "type": "function"
    },
    {
      "inputs": [
        {
          "internalType": "address",
          "name": "from",
          "type": "address"
        },
        {
          "internalType": "address",
          "name": "to",
          "type": "address"
        },
        {
          "internalType": "uint256",
          "name": "id",
          "type": "uint256"
        }
      ],
      "name": "transferFrom",
      "outputs": [],
      "stateMutability": "nonpayable",
      "type": "function"
    },
    {
      "inputs": [
        {
          "internalType": "address",
          "name": "newOwner",
          "type": "address"
        }
      ],
      "name": "transferOwnership",
      "outputs": [],
      "stateMutability": "nonpayable",
      "type": "function"
    }
  ],
  "bytecode": {
    "object": "0x60806040523480156200001157600080fd5b50336040518060400160405280600681526020016543616e76617360d01b8152506040518060400160405280600381526020016221a0a760e91b81525081600090816200005f919062000168565b5060016200006e828262000168565b5050600680546001600160a01b0319166001600160a01b0384169081179091556040519091506000907f8be0079c531659141344cd1fd0a4f28419497f9722a3daafe3b4186f6b6457e0908290a35062000234565b634e487b7160e01b600052604160045260246000fd5b600181811c90821680620000ee57607f821691505b6020821081036200010f57634e487b7160e01b600052602260045260246000fd5b50919050565b601f8211156200016357600081815260208120601f850160051c810160208610156200013e5750805b601f850160051c820191505b818110156200015f578281556001016200014a565b5050505b505050565b81516001600160401b03811115620001845762000184620000c3565b6200019c81620001958454620000d9565b8462000115565b602080601f831160018114620001d45760008415620001bb5750858301515b600019600386901b1c1916600185901b1785556200015f565b600085815260208120601f198616915b828110156200020557888601518255948401946001909101908401620001e4565b5085821015620002245787850151600019600388901b60f8161c191681555b5050505050600190811b01905550565b61293180620002446000396000f3fe608060405260043610620001375760003560e01c806370a0823111620000ad578063b88d4fde116200006c578063b88d4fde1462000370578063c87b56dd1462000395578063d9d197a614620003ba578063e985e9c514620003f4578063f2fde38b146200043357600080fd5b806370a0823114620002cf5780638d859f3e14620002f45780638da5cb5b146200031157806395d89b411462000333578063a22cb465146200034b57600080fd5b806318160ddd11620000fa57806318160ddd146200022157806323b872dd146200024857806332cb6b0c146200026d57806342842e0e14620002855780636352211e14620002aa57600080fd5b806301ffc9a7146200013c57806306fdde031462000176578063081812fc146200019d578063095ea7b314620001f05780630ad641f11462000217575b600080fd5b3480156200014957600080fd5b50620001616200015b36600462000fa3565b62000458565b60405190151581526020015b60405180910390f35b3480156200018357600080fd5b506200018e6200046b565b6040516200016d919062000ff0565b348015620001aa57600080fd5b50620001d7620001bc36600462001025565b6004602052600090815260409020546001600160a01b031681565b6040516001600160a01b0390911681526020016200016d565b348015620001fd57600080fd5b50620002156200020f36600462001055565b62000501565b005b620002156200059d565b3480156200022e57600080fd5b506200023960075481565b6040519081526020016200016d565b3480156200025557600080fd5b50620002156200026736600462001084565b620005f2565b3480156200027a57600080fd5b506200023961080081565b3480156200029257600080fd5b5062000215620002a436600462001084565b62000604565b348015620002b757600080fd5b50620001d7620002c936600462001025565b62000611565b348015620002dc57600080fd5b5062000239620002ee366004620010ca565b62000690565b3480156200030157600080fd5b506200023966470de4df82000081565b3480156200031e57600080fd5b50600654620001d7906001600160a01b031681565b3480156200034057600080fd5b506200018e6200069d565b3480156200035857600080fd5b50620002156200036a366004620010ea565b620006ac565b3480156200037d57600080fd5b50620002156200038f3660046200112c565b620006bc565b348015620003a257600080fd5b506200018e620003b436600462001025565b620006d2565b348015620003c757600080fd5b50620001d7620003d936600462001025565b6008602052600090815260409020546001600160a01b031681565b3480156200040157600080fd5b506200016162000413366004620011d4565b600560209081526000928352604080842090915290825290205460ff1681565b3480156200044057600080fd5b506200021562000452366004620010ca565b620007a7565b600062000465826200083e565b50919050565b600080546200047a9062001207565b80601f0160208091040260200160405190810160405280929190818152602001828054620004a89062001207565b8015620004f95780601f10620004cd57610100808354040283529160200191620004f9565b820191906000526020600020905b815481529060010190602001808311620004db57829003601f168201915b505050505081565b6000818152600860205260409020546001600160a01b031633146200056f576200052c33826200088e565b6200056f5760405162461bcd60e51b815260206004820152600e60248201526d1393d517d055551213d49256915160921b60448201526064015b60405180910390fd5b600090815260046020526040902080546001600160a01b0319166001600160a01b0392909216919091179055565b66470de4df8200003414620005e65760405162461bcd60e51b815260206004820152600e60248201526d09c9ea8be8a9c9eaa8e90be8aa8960931b604482015260640162000566565b620005f062000910565b565b620005ff838383620009e6565b505050565b620005ff83838362000bb5565b6000818152600860209081526040808320548151630605062f60e01b815291516001600160a01b0390911692630605062f92600480820193918290030181865afa15801562000664573d6000803e3d6000fd5b505050506040513d601f19601f820116820180604052508101906200068a91906200123d565b92915050565b6000620004658262000cb0565b600180546200047a9062001207565b620006b8828262000d15565b5050565b620006cb858585858562000d81565b5050505050565b6000818152600860205260409020546060906001600160a01b03166200072c5760405162461bcd60e51b815260206004820152600e60248201526d1113d154d7d393d517d1561254d560921b604482015260640162000566565b6000828152600860205260408082205481516303c130d960e41b815291516001600160a01b0390911692633c130d9092600480820193918290030181865afa1580156200077d573d6000803e3d6000fd5b505050506040513d6000823e601f3d908101601f191682016040526200068a919081019062001273565b6006546001600160a01b03163314620007f25760405162461bcd60e51b815260206004820152600c60248201526b15539055551213d49256915160a21b604482015260640162000566565b600680546001600160a01b0319166001600160a01b03831690811790915560405133907f8be0079c531659141344cd1fd0a4f28419497f9722a3daafe3b4186f6b6457e090600090a350565b60006301ffc9a760e01b6001600160e01b0319831614806200087057506380ac58cd60e01b6001600160e01b03198316145b806200068a5750506001600160e01b031916635b5e139f60e01b1490565b6000818152600260205260408120546001600160a01b03908116908416811480620008e357506001600160a01b0380821660009081526005602090815260408083209388168352929052205460ff1615156001145b806200090857506000838152600460205260409020546001600160a01b038581169116145b949350505050565b600060076000815462000923906200132c565b9182905550905061080081106200096c5760405162461bcd60e51b815260206004820152600c60248201526b4f55545f4f465f53544f434b60a01b604482015260640162000566565b600033826040516200097e9062000f7b565b6001600160a01b0390921682526020820152604001604051809103906000f080158015620009b0573d6000803e3d6000fd5b50600083815260086020526040902080546001600160a01b0319166001600160a01b0383161790559050620006b8338362000e6c565b6000818152600260205260409020546001600160a01b0384811691161462000a3e5760405162461bcd60e51b815260206004820152600a60248201526957524f4e475f46524f4d60b01b604482015260640162000566565b6001600160a01b03821662000a8a5760405162461bcd60e51b81526020600482015260116024820152701253959053125117d49150d25412515395607a1b604482015260640162000566565b336001600160a01b038416148062000ac557506001600160a01b038316600090815260056020908152604080832033845290915290205460ff165b8062000ae757506000818152600460205260409020546001600160a01b031633145b62000b265760405162461bcd60e51b815260206004820152600e60248201526d1393d517d055551213d49256915160921b604482015260640162000566565b6001600160a01b0380841660008181526003602090815260408083208054600019019055938616808352848320805460010190558583526002825284832080546001600160a01b03199081168317909155600490925284832080549092169091559251849392917fddf252ad1be2c89b69c2b068fc378daa952ba7f163c4a11628f55a4df523b3ef91a4505050565b62000bc2838383620005f2565b6001600160a01b0382163b158062000c6f5750604051630a85bd0160e11b8082523360048301526001600160a01b03858116602484015260448301849052608060648401526000608484015290919084169063150b7a029060a4016020604051808303816000875af115801562000c3d573d6000803e3d6000fd5b505050506040513d601f19601f8201168201806040525081019062000c63919062001354565b6001600160e01b031916145b620005ff5760405162461bcd60e51b815260206004820152601060248201526f155394d0519157d49150d2541251539560821b604482015260640162000566565b60006001600160a01b03821662000cf95760405162461bcd60e51b815260206004820152600c60248201526b5a45524f5f4144445245535360a01b604482015260640162000566565b506001600160a01b031660009081526003602052604090205490565b3360008181526005602090815260408083206001600160a01b03871680855290835292819020805460ff191686151590811790915590519081529192917f17307eab39ab6107e8899845ad3d59bd9653f200f220920489ca2b5937696c31910160405180910390a35050565b62000d8e858585620005f2565b6001600160a01b0384163b158062000e2b5750604051630a85bd0160e11b808252906001600160a01b0386169063150b7a029062000dd99033908a9089908990899060040162001374565b6020604051808303816000875af115801562000df9573d6000803e3d6000fd5b505050506040513d601f19601f8201168201806040525081019062000e1f919062001354565b6001600160e01b031916145b620006cb5760405162461bcd60e51b815260206004820152601060248201526f155394d0519157d49150d2541251539560821b604482015260640162000566565b6001600160a01b03821662000eb85760405162461bcd60e51b81526020600482015260116024820152701253959053125117d49150d25412515395607a1b604482015260640162000566565b6000818152600260205260409020546001600160a01b03161562000f105760405162461bcd60e51b815260206004820152600e60248201526d1053149150511657d3525395115160921b604482015260640162000566565b6001600160a01b038216600081815260036020908152604080832080546001019055848352600290915280822080546001600160a01b0319168417905551839291907fddf252ad1be2c89b69c2b068fc378daa952ba7f163c4a11628f55a4df523b3ef908290a45050565b61153380620013c983390190565b6001600160e01b03198116811462000fa057600080fd5b50565b60006020828403121562000fb657600080fd5b813562000fc38162000f89565b9392505050565b60005b8381101562000fe757818101518382015260200162000fcd565b50506000910152565b60208152600082518060208401526200101181604085016020870162000fca565b601f01601f19169190910160400192915050565b6000602082840312156200103857600080fd5b5035919050565b6001600160a01b038116811462000fa057600080fd5b600080604083850312156200106957600080fd5b823562001076816200103f565b946020939093013593505050565b6000806000606084860312156200109a57600080fd5b8335620010a7816200103f565b92506020840135620010b9816200103f565b929592945050506040919091013590565b600060208284031215620010dd57600080fd5b813562000fc3816200103f565b60008060408385031215620010fe57600080fd5b82356200110b816200103f565b9150602083013580151581146200112157600080fd5b809150509250929050565b6000806000806000608086880312156200114557600080fd5b853562001152816200103f565b9450602086013562001164816200103f565b935060408601359250606086013567ffffffffffffffff808211156200118957600080fd5b818801915088601f8301126200119e57600080fd5b813581811115620011ae57600080fd5b896020828501011115620011c157600080fd5b9699959850939650602001949392505050565b60008060408385031215620011e857600080fd5b8235620011f5816200103f565b9150602083013562001121816200103f565b600181811c908216806200121c57607f821691505b6020821081036200046557634e487b7160e01b600052602260045260246000fd5b6000602082840312156200125057600080fd5b815162000fc3816200103f565b634e487b7160e01b600052604160045260246000fd5b6000602082840312156200128657600080fd5b815167ffffffffffffffff808211156200129f57600080fd5b818401915084601f830112620012b457600080fd5b815181811115620012c957620012c96200125d565b604051601f8201601f19908116603f01168101908382118183101715620012f457620012f46200125d565b816040528281528760208487010111156200130e57600080fd5b6200132183602083016020880162000fca565b979650505050505050565b6000600182016200134d57634e487b7160e01b600052601160045260246000fd5b5060010190565b6000602082840312156200136757600080fd5b815162000fc38162000f89565b6001600160a01b038681168252851660208201526040810184905260806060820181905281018290526000828460a0840137600060a0848401015260a0601f19601f8501168301019050969550505050505056fe60a06040523480156200001157600080fd5b5060405162001533380380620015338339810160408190526200003491620000fa565b600180546001600160a01b03199081166001600160a01b038516179091556080829052600080543392169190911790556200007b81620000b5602090811b62000a2617901c565b6040516020016200008d919062000136565b60405160208183030381529060405260039081620000ac919062000220565b505050620002ec565b606060a06040510180604052602081039150506000815280825b600183039250600a81066030018353600a900480620000cf5750819003601f19909101908152919050565b600080604083850312156200010e57600080fd5b82516001600160a01b03811681146200012657600080fd5b6020939093015192949293505050565b6743616e766173202360c01b81526000825160005b818110156200016a57602081860181015160088684010152016200014b565b506000920160080191825250919050565b634e487b7160e01b600052604160045260246000fd5b600181811c90821680620001a657607f821691505b602082108103620001c757634e487b7160e01b600052602260045260246000fd5b50919050565b601f8211156200021b57600081815260208120601f850160051c81016020861015620001f65750805b601f850160051c820191505b81811015620002175782815560010162000202565b5050505b505050565b81516001600160401b038111156200023c576200023c6200017b565b62000254816200024d845462000191565b84620001cd565b602080601f8311600181146200028c5760008415620002735750858301515b600019600386901b1c1916600185901b17855562000217565b600085815260208120601f198616915b82811015620002bd578886015182559484019460019091019084016200029c565b5085821015620002dc5787850151600019600388901b60f8161c191681555b5050505050600190811b01905550565b6080516112246200030f600039600081816101c6015261055801526112246000f3fe608060405234801561001057600080fd5b506004361061012c5760003560e01c806370a08231116100ad578063a22cb46511610071578063a22cb465146102ae578063c45a0155146102c1578063d07b77b5146102d4578063d1e8b8cc146102e7578063fd38b21a146102ef57600080fd5b806370a082311461025b5780637e8cb7fe1461022857806382dc97ab1461026e5780638da7f2321461028157806395d89b41146102a657600080fd5b806317d70f7c116100f457806317d70f7c146101c157806323b872dd146101f65780633c130d90146102095780634fa01134146102285780635849dbf81461023b57600080fd5b806301ffc9a71461013157806305bddeb8146101595780630605062f1461016e57806306fdde0314610199578063095ea7b3146101ae575b600080fd5b61014461013f366004610d17565b6102f7565b60405190151581526020015b60405180910390f35b61016c610167366004610d48565b610349565b005b600154610181906001600160a01b031681565b6040516001600160a01b039091168152602001610150565b6101a16103d0565b6040516101509190610d98565b61016c6101bc366004610de7565b61045e565b6101e87f000000000000000000000000000000000000000000000000000000000000000081565b604051908152602001610150565b61016c610204366004610e11565b61050c565b60408051808201909152600381526207769760ec1b60208201526101a1565b61016c610236366004610d48565b6105e0565b61024e610249366004610e4d565b61061c565b6040516101509190610e6f565b6101e8610269366004610ea3565b6106df565b61016c61027c366004610d48565b61074c565b61029461028f366004610ebe565b6107c5565b60405160ff9091168152602001610150565b6101a16107f0565b61016c6102bc366004610ee8565b6107fd565b600054610181906001600160a01b031681565b600254610181906001600160a01b031681565b6101a16108aa565b6101a1610a15565b60006301ffc9a760e01b6001600160e01b03198316148061032857506380ac58cd60e01b6001600160e01b03198316145b806103435750635b5e139f60e01b6001600160e01b03198316145b92915050565b6001546001600160a01b0316331461037c5760405162461bcd60e51b815260040161037390610f1f565b60405180910390fd5b6000805b60488110156103cb57600060405260005b60208110156103ba57604080516004602086020135600884021b01905260019283019201610391565b506040516005820155600101610380565b505050565b600380546103dd90610f42565b80601f016020809104026020016040519081016040528092919081815260200182805461040990610f42565b80156104565780601f1061042b57610100808354040283529160200191610456565b820191906000526020600020905b81548152906001019060200180831161043957829003601f168201915b505050505081565b6000546001600160a01b031633146104e95761047933610a6a565b61048257600080fd5b60005460405163095ea7b360e01b81526001600160a01b038481166004830152602482018490529091169063095ea7b390604401600060405180830381600087803b1580156104d057600080fd5b505af11580156104e4573d6000803e3d6000fd5b505050505b50600280546001600160a01b0319166001600160a01b0392909216919091179055565b61051533610a6a565b61051e57600080fd5b600280546001600160a01b03191690556000546040516323b872dd60e01b81526001600160a01b03858116600483015284811660248301527f00000000000000000000000000000000000000000000000000000000000000006044830152909116906323b872dd90606401600060405180830381600087803b1580156105a357600080fd5b505af11580156105b7573d6000803e3d6000fd5b5050600180546001600160a01b0319166001600160a01b03959095169490941790935550505050565b6001546001600160a01b0316331461060a5760405162461bcd60e51b815260040161037390610f1f565b610618600582610900610c4e565b5050565b610624610ce4565b61062c610ce4565b6000610639600486610f92565b6004610646601887610f92565b6106509190610f92565b61065a9190610fa9565b905060005b60048160ff1610156106d557600561067a60ff831684610fa9565b610900811061068b5761068b610fbc565b602091828204019190069054906101000a900460ff16838260ff16600481106106b6576106b6610fbc565b60ff9092166020929092020152806106cd81610fd2565b91505061065f565b5090949350505050565b600080546040516370a0823160e01b81523360048201526001600160a01b03909116906370a0823190602401602060405180830381865afa158015610728573d6000803e3d6000fd5b505050506040513d601f19601f820116820180604052508101906103439190610ff1565b6001546001600160a01b031633146107765760405162461bcd60e51b815260040161037390610f1f565b6000805b60488110156103cb57600060405260005b60208110156107b457604080516020850260040135600884021b0190526001928301920161078b565b50604051600582015560010161077a565b60058161090081106107d657600080fd5b60209182820401919006915054906101000a900460ff1681565b600480546103dd90610f42565b60008054604080516001600160a01b03868116602483015285151560448084019190915283518084039091018152606490920183526020820180516001600160e01b031663a22cb46560e01b1790529151919092169161085c9161100a565b600060405180830381855af49150503d8060008114610897576040519150601f19603f3d011682016040523d82523d6000602084013e61089c565b606091505b50509050806103cb57600080fd5b606060006040518060800160405280604c81526020016111a3604c9139905060005b60108160ff1610156109ed5760005b60108160ff1610156109e4576040805180820190915260098152683c7265637420783d2760b81b6020820152839061091f610917600885611026565b60ff16610a26565b6040805180820190915260058152642720793d2760d81b6020820152610949610917600888611026565b6040518060400160405280601d81526020017f272077696474683d273827206865696768743d2738272066696c6c3d270000008152506109976109928860ff168a60ff1661061c565b610b13565b6040518060400160405280600381526020016213979f60e91b8152506040516020016109ca989796959493929190611049565b60408051601f1981840301815291905292506001016108db565b506001016108cc565b50806040516020016109ff91906110ee565b60408051601f1981840301815291905292915050565b6060610a2160ff610b73565b905090565b606060a06040510180604052602081039150506000815280825b600183039250600a81066030018353600a900480610a405750819003601f19909101908152919050565b6001546000906001600160a01b0316331480610af9575060005460015460405163e985e9c560e01b81526001600160a01b039182166004820152848216602482015291169063e985e9c590604401602060405180830381865afa158015610ad5573d6000803e3d6000fd5b505050506040513d601f19601f82011682018060405250810190610af99190611118565b806103435750506002546001600160a01b03163314919050565b6060610b298260005b602002015160ff16610b73565b610b34836001610b1c565b610b3f846002610b1c565b610b4a856003610b1c565b604051602001610b5d9493929190611135565b6040516020818303038152906040529050919050565b604080516002808252818301909252606091600091906020820181803683370190505090506f181899199a1a9b1b9c1cb0b131b232b360811b83600f1660108110610bc057610bc0610fbc565b1a60f81b81600181518110610bd757610bd7610fbc565b60200101906001600160f81b031916908160001a9053506f181899199a1a9b1b9c1cb0b131b232b360811b600484901c600f1660108110610c1a57610c1a610fbc565b1a60f81b81600081518110610c3157610c31610fbc565b60200101906001600160f81b031916908160001a90535092915050565b604883019183908215610cd45791602002820160005b83821115610ca557833560ff1683826101000a81548160ff021916908360ff1602179055509260200192600101602081600001049283019260010302610c64565b8015610cd25782816101000a81549060ff0219169055600101602081600001049283019260010302610ca5565b505b50610ce0929150610d02565b5090565b60405180608001604052806004906020820280368337509192915050565b5b80821115610ce05760008155600101610d03565b600060208284031215610d2957600080fd5b81356001600160e01b031981168114610d4157600080fd5b9392505050565b600062012000808385031215610d5d57600080fd5b838184011115610d6c57600080fd5b509092915050565b60005b83811015610d8f578181015183820152602001610d77565b50506000910152565b6020815260008251806020840152610db7816040850160208701610d74565b601f01601f19169190910160400192915050565b80356001600160a01b0381168114610de257600080fd5b919050565b60008060408385031215610dfa57600080fd5b610e0383610dcb565b946020939093013593505050565b600080600060608486031215610e2657600080fd5b610e2f84610dcb565b9250610e3d60208501610dcb565b9150604084013590509250925092565b60008060408385031215610e6057600080fd5b50508035926020909101359150565b60808101818360005b6004811015610e9a57815160ff16835260209283019290910190600101610e78565b50505092915050565b600060208284031215610eb557600080fd5b610d4182610dcb565b600060208284031215610ed057600080fd5b5035919050565b8015158114610ee557600080fd5b50565b60008060408385031215610efb57600080fd5b610f0483610dcb565b91506020830135610f1481610ed7565b809150509250929050565b6020808252600990820152682727aa2fa7aba722a960b91b604082015260600190565b600181811c90821680610f5657607f821691505b602082108103610f7657634e487b7160e01b600052602260045260246000fd5b50919050565b634e487b7160e01b600052601160045260246000fd5b808202811582820484141761034357610343610f7c565b8082018082111561034357610343610f7c565b634e487b7160e01b600052603260045260246000fd5b600060ff821660ff8103610fe857610fe8610f7c565b60010192915050565b60006020828403121561100357600080fd5b5051919050565b6000825161101c818460208701610d74565b9190910192915050565b60ff818116838216029081169081811461104257611042610f7c565b5092915050565b60008951602061105c8285838f01610d74565b8a519184019161106f8184848f01610d74565b8a519201916110818184848e01610d74565b89519201916110938184848d01610d74565b88519201916110a58184848c01610d74565b87519201916110b78184848b01610d74565b86519201916110c98184848a01610d74565b85519201916110db8184848901610d74565b919091019b9a5050505050505050505050565b60008251611100818460208701610d74565b651e17b9bb339f60d11b920191825250600601919050565b60006020828403121561112a57600080fd5b8151610d4181610ed7565b602360f81b815260008551611151816001850160208a01610d74565b855190830190611168816001840160208a01610d74565b855191019061117e816001840160208901610d74565b8451910190611194816001840160208801610d74565b01600101969550505050505056fe3c73766720786d6c6e733d22687474703a2f2f7777772e77332e6f72672f323030302f737667222076657273696f6e3d22312e32222076696577426f783d223020302031323820313238223ea2646970667358221220968062df073fc71cf560ea2ad563239a6df7d884b50b24e1534ab2cf5bb16c1c64736f6c63430008110033a2646970667358221220877a1ec713f9b26b211c886911edb2b86c125d91b2823f942ff29d1a8023a9fa64736f6c63430008110033",
    "linkReferences": {}
  },
  "methodIdentifiers": {
    "MAX_SUPPLY()": "32cb6b0c",
    "PRICE()": "8d859f3e",
    "approve(address,uint256)": "095ea7b3",
    "balanceOf(address)": "70a08231",
    "canvases(uint256)": "d9d197a6",
    "getApproved(uint256)": "081812fc",
    "isApprovedForAll(address,address)": "e985e9c5",
    "mintWithEth()": "0ad641f1",
    "name()": "06fdde03",
    "owner()": "8da5cb5b",
    "ownerOf(uint256)": "6352211e",
    "safeTransferFrom(address,address,uint256)": "42842e0e",
    "safeTransferFrom(address,address,uint256,bytes)": "b88d4fde",
    "setApprovalForAll(address,bool)": "a22cb465",
    "supportsInterface(bytes4)": "01ffc9a7",
    "symbol()": "95d89b41",
    "tokenURI(uint256)": "c87b56dd",
    "totalSupply()": "18160ddd",
    "transferFrom(address,address,uint256)": "23b872dd",
    "transferOwnership(address)": "f2fde38b"
  },
  "id": 46
}