{
  "abi": [
    {
      "inputs": [
        {
          "internalType": "string",
          "name": "_name",
          "type": "string"
        },
        {
          "internalType": "string",
          "name": "_symbol",
          "type": "string"
        }
      ],
      "stateMutability": "nonpayable",
      "type": "constructor"
    },
    {
      "anonymous": false,
      "inputs": [
        {
          "indexed": true,
          "internalType": "address",
          "name": "owner",
          "type": "address"
        },
        {
          "indexed": true,
          "internalType": "address",
          "name": "spender",
          "type": "address"
        },
        {
          "indexed": true,
          "internalType": "uint256",
          "name": "id",
          "type": "uint256"
        }
      ],
      "name": "Approval",
      "type": "event"
    },
    {
      "anonymous": false,
      "inputs": [
        {
          "indexed": true,
          "internalType": "address",
          "name": "owner",
          "type": "address"
        },
        {
          "indexed": true,
          "internalType": "address",
          "name": "operator",
          "type": "address"
        },
        {
          "indexed": false,
          "internalType": "bool",
          "name": "approved",
          "type": "bool"
        }
      ],
      "name": "ApprovalForAll",
      "type": "event"
    },
    {
      "anonymous": false,
      "inputs": [
        {
          "indexed": true,
          "internalType": "address",
          "name": "user",
          "type": "address"
        },
        {
          "indexed": true,
          "internalType": "address",
          "name": "newOwner",
          "type": "address"
        }
      ],
      "name": "OwnershipTransferred",
      "type": "event"
    },
    {
      "anonymous": false,
      "inputs": [
        {
          "indexed": true,
          "internalType": "address",
          "name": "from",
          "type": "address"
        },
        {
          "indexed": true,
          "internalType": "address",
          "name": "to",
          "type": "address"
        },
        {
          "indexed": true,
          "internalType": "uint256",
          "name": "id",
          "type": "uint256"
        }
      ],
      "name": "Transfer",
      "type": "event"
    },
    {
      "inputs": [
        {
          "internalType": "uint8[2304]",
          "name": "_pixels",
          "type": "uint8[2304]"
        }
      ],
      "name": "SetPixels",
      "outputs": [],
      "stateMutability": "nonpayable",
      "type": "function"
    },
    {
      "inputs": [
        {
          "internalType": "uint8[2304]",
          "name": "_pixels",
          "type": "uint8[2304]"
        }
      ],
      "name": "SetPixels2",
      "outputs": [],
      "stateMutability": "nonpayable",
      "type": "function"
    },
    {
      "inputs": [],
      "name": "SetPixelsAssembly",
      "outputs": [],
      "stateMutability": "nonpayable",
      "type": "function"
    },
    {
      "inputs": [],
      "name": "SetPixelsAssembly2",
      "outputs": [],
      "stateMutability": "nonpayable",
      "type": "function"
    },
    {
      "inputs": [
        {
          "internalType": "address",
          "name": "spender",
          "type": "address"
        },
        {
          "internalType": "uint256",
          "name": "id",
          "type": "uint256"
        }
      ],
      "name": "approve",
      "outputs": [],
      "stateMutability": "nonpayable",
      "type": "function"
    },
    {
      "inputs": [
        {
          "internalType": "address",
          "name": "owner",
          "type": "address"
        }
      ],
      "name": "balanceOf",
      "outputs": [
        {
          "internalType": "uint256",
          "name": "",
          "type": "uint256"
        }
      ],
      "stateMutability": "view",
      "type": "function"
    },
    {
      "inputs": [],
      "name": "garbage",
      "outputs": [
        {
          "internalType": "string",
          "name": "",
          "type": "string"
        }
      ],
      "stateMutability": "pure",
      "type": "function"
    },
    {
      "inputs": [],
      "name": "generateSvg",
      "outputs": [
        {
          "internalType": "string",
          "name": "",
          "type": "string"
        }
      ],
      "stateMutability": "view",
      "type": "function"
    },
    {
      "inputs": [
        {
          "internalType": "uint256",
          "name": "",
          "type": "uint256"
        }
      ],
      "name": "getApproved",
      "outputs": [
        {
          "internalType": "address",
          "name": "",
          "type": "address"
        }
      ],
      "stateMutability": "view",
      "type": "function"
    },
    {
      "inputs": [
        {
          "internalType": "uint256",
          "name": "x",
          "type": "uint256"
        },
        {
          "internalType": "uint256",
          "name": "y",
          "type": "uint256"
        }
      ],
      "name": "getPixelFromCoords",
      "outputs": [
        {
          "internalType": "uint8[4]",
          "name": "",
          "type": "uint8[4]"
        }
      ],
      "stateMutability": "view",
      "type": "function"
    },
    {
      "inputs": [
        {
          "internalType": "address",
          "name": "",
          "type": "address"
        },
        {
          "internalType": "address",
          "name": "",
          "type": "address"
        }
      ],
      "name": "isApprovedForAll",
      "outputs": [
        {
          "internalType": "bool",
          "name": "",
          "type": "bool"
        }
      ],
      "stateMutability": "view",
      "type": "function"
    },
    {
      "inputs": [],
      "name": "name",
      "outputs": [
        {
          "internalType": "string",
          "name": "",
          "type": "string"
        }
      ],
      "stateMutability": "view",
      "type": "function"
    },
    {
      "inputs": [],
      "name": "owner",
      "outputs": [
        {
          "internalType": "address",
          "name": "",
          "type": "address"
        }
      ],
      "stateMutability": "view",
      "type": "function"
    },
    {
      "inputs": [
        {
          "internalType": "uint256",
          "name": "id",
          "type": "uint256"
        }
      ],
      "name": "ownerOf",
      "outputs": [
        {
          "internalType": "address",
          "name": "owner",
          "type": "address"
        }
      ],
      "stateMutability": "view",
      "type": "function"
    },
    {
      "inputs": [
        {
          "internalType": "uint256",
          "name": "",
          "type": "uint256"
        }
      ],
      "name": "pixels",
      "outputs": [
        {
          "internalType": "uint8",
          "name": "",
          "type": "uint8"
        }
      ],
      "stateMutability": "view",
      "type": "function"
    },
    {
      "inputs": [
        {
          "internalType": "address",
          "name": "from",
          "type": "address"
        },
        {
          "internalType": "address",
          "name": "to",
          "type": "address"
        },
        {
          "internalType": "uint256",
          "name": "id",
          "type": "uint256"
        }
      ],
      "name": "safeTransferFrom",
      "outputs": [],
      "stateMutability": "nonpayable",
      "type": "function"
    },
    {
      "inputs": [
        {
          "internalType": "address",
          "name": "from",
          "type": "address"
        },
        {
          "internalType": "address",
          "name": "to",
          "type": "address"
        },
        {
          "internalType": "uint256",
          "name": "id",
          "type": "uint256"
        },
        {
          "internalType": "bytes",
          "name": "data",
          "type": "bytes"
        }
      ],
      "name": "safeTransferFrom",
      "outputs": [],
      "stateMutability": "nonpayable",
      "type": "function"
    },
    {
      "inputs": [
        {
          "internalType": "address",
          "name": "operator",
          "type": "address"
        },
        {
          "internalType": "bool",
          "name": "approved",
          "type": "bool"
        }
      ],
      "name": "setApprovalForAll",
      "outputs": [],
      "stateMutability": "nonpayable",
      "type": "function"
    },
    {
      "inputs": [
        {
          "internalType": "bytes4",
          "name": "interfaceId",
          "type": "bytes4"
        }
      ],
      "name": "supportsInterface",
      "outputs": [
        {
          "internalType": "bool",
          "name": "",
          "type": "bool"
        }
      ],
      "stateMutability": "view",
      "type": "function"
    },
    {
      "inputs": [],
      "name": "symbol",
      "outputs": [
        {
          "internalType": "string",
          "name": "",
          "type": "string"
        }
      ],
      "stateMutability": "view",
      "type": "function"
    },
    {
      "inputs": [
        {
          "internalType": "uint256",
          "name": "id",
          "type": "uint256"
        }
      ],
      "name": "tokenURI",
      "outputs": [
        {
          "internalType": "string",
          "name": "",
          "type": "string"
        }
      ],
      "stateMutability": "view",
      "type": "function"
    },
    {
      "inputs": [
        {
          "internalType": "address",
          "name": "from",
          "type": "address"
        },
        {
          "internalType": "address",
          "name": "to",
          "type": "address"
        },
        {
          "internalType": "uint256",
          "name": "id",
          "type": "uint256"
        }
      ],
      "name": "transferFrom",
      "outputs": [],
      "stateMutability": "nonpayable",
      "type": "function"
    },
    {
      "inputs": [
        {
          "internalType": "address",
          "name": "newOwner",
          "type": "address"
        }
      ],
      "name": "transferOwnership",
      "outputs": [],
      "stateMutability": "nonpayable",
      "type": "function"
    }
  ],
  "bytecode": {
    "object": "0x60806040523480156200001157600080fd5b50604051620019a7380380620019a7833981016040819052620000349162000174565b818133828260006200004783826200026d565b5060016200005682826200026d565b5050600680546001600160a01b0319166001600160a01b0384169081179091556040519091506000907f8be0079c531659141344cd1fd0a4f28419497f9722a3daafe3b4186f6b6457e0908290a3505050505062000339565b634e487b7160e01b600052604160045260246000fd5b600082601f830112620000d757600080fd5b81516001600160401b0380821115620000f457620000f4620000af565b604051601f8301601f19908116603f011681019082821181831017156200011f576200011f620000af565b816040528381526020925086838588010111156200013c57600080fd5b600091505b8382101562000160578582018301518183018401529082019062000141565b600093810190920192909252949350505050565b600080604083850312156200018857600080fd5b82516001600160401b0380821115620001a057600080fd5b620001ae86838701620000c5565b93506020850151915080821115620001c557600080fd5b50620001d485828601620000c5565b9150509250929050565b600181811c90821680620001f357607f821691505b6020821081036200021457634e487b7160e01b600052602260045260246000fd5b50919050565b601f8211156200026857600081815260208120601f850160051c81016020861015620002435750805b601f850160051c820191505b8181101562000264578281556001016200024f565b5050505b505050565b81516001600160401b03811115620002895762000289620000af565b620002a1816200029a8454620001de565b846200021a565b602080601f831160018114620002d95760008415620002c05750858301515b600019600386901b1c1916600185901b17855562000264565b600085815260208120601f198616915b828110156200030a57888601518255948401946001909101908401620002e9565b5085821015620003295787850151600019600388901b60f8161c191681555b5050505050600190811b01905550565b61165e80620003496000396000f3fe608060405234801561001057600080fd5b506004361061014d5760003560e01c806370a08231116100c3578063b88d4fde1161007c578063b88d4fde146102d5578063c87b56dd146102e8578063d1e8b8cc146102fb578063e985e9c514610303578063f2fde38b14610331578063fd38b21a1461034457600080fd5b806370a08231146102595780638da5cb5b1461027a5780638da7f2321461028d57806395d89b41146102b257806399fcd427146102ba578063a22cb465146102c257600080fd5b806323b872dd1161011557806323b872dd146101f857806324ac00ac146101e557806342842e0e1461020b5780635849dbf81461021e5780635dd2489f1461023e5780636352211e1461024657600080fd5b806301ffc9a71461015257806306fdde031461017a578063081812fc1461018f578063095ea7b3146101d0578063111bc937146101e5575b600080fd5b61016561016036600461107f565b61034c565b60405190151581526020015b60405180910390f35b61018261039e565b60405161017191906110c7565b6101b861019d3660046110fa565b6004602052600090815260409020546001600160a01b031681565b6040516001600160a01b039091168152602001610171565b6101e36101de36600461112a565b61042c565b005b6101e36101f3366004611154565b610513565b6101e3610206366004611180565b610549565b6101e3610219366004611180565b610710565b61023161022c3660046111bc565b610808565b60405161017191906111de565b6101e36108cb565b6101b86102543660046110fa565b6108ff565b61026c610267366004611212565b610956565b604051908152602001610171565b6006546101b8906001600160a01b031681565b6102a061029b3660046110fa565b6109b9565b60405160ff9091168152602001610171565b6101826109e4565b6101e36109f1565b6101e36102d036600461122d565b610a23565b6101e36102e3366004611269565b610a8f565b6101826102f63660046110fa565b610b77565b610182610b7f565b610165610311366004611304565b600560209081526000928352604080842090915290825290205460ff1681565b6101e361033f366004611212565b610cea565b610182610d60565b60006301ffc9a760e01b6001600160e01b03198316148061037d57506380ac58cd60e01b6001600160e01b03198316145b806103985750635b5e139f60e01b6001600160e01b03198316145b92915050565b600080546103ab90611337565b80601f01602080910402602001604051908101604052809291908181526020018280546103d790611337565b80156104245780601f106103f957610100808354040283529160200191610424565b820191906000526020600020905b81548152906001019060200180831161040757829003601f168201915b505050505081565b6000818152600260205260409020546001600160a01b03163381148061047557506001600160a01b038116600090815260056020908152604080832033845290915290205460ff165b6104b75760405162461bcd60e51b815260206004820152600e60248201526d1393d517d055551213d49256915160921b60448201526064015b60405180910390fd5b60008281526004602052604080822080546001600160a01b0319166001600160a01b0387811691821790925591518593918516917f8c5be1e5ebec7d5bd14f71427d1e84f3dd0314c0f7b2291e5b200ac8c7c3b92591a4505050565b6006546001600160a01b0316331461053d5760405162461bcd60e51b81526004016104ae90611371565b61054681610d71565b50565b6000818152600260205260409020546001600160a01b0384811691161461059f5760405162461bcd60e51b815260206004820152600a60248201526957524f4e475f46524f4d60b01b60448201526064016104ae565b6001600160a01b0382166105e95760405162461bcd60e51b81526020600482015260116024820152701253959053125117d49150d25412515395607a1b60448201526064016104ae565b336001600160a01b038416148061062357506001600160a01b038316600090815260056020908152604080832033845290915290205460ff165b8061064457506000818152600460205260409020546001600160a01b031633145b6106815760405162461bcd60e51b815260206004820152600e60248201526d1393d517d055551213d49256915160921b60448201526064016104ae565b6001600160a01b0380841660008181526003602090815260408083208054600019019055938616808352848320805460010190558583526002825284832080546001600160a01b03199081168317909155600490925284832080549092169091559251849392917fddf252ad1be2c89b69c2b068fc378daa952ba7f163c4a11628f55a4df523b3ef91a4505050565b61071b838383610549565b6001600160a01b0382163b15806107c45750604051630a85bd0160e11b8082523360048301526001600160a01b03858116602484015260448301849052608060648401526000608484015290919084169063150b7a029060a4016020604051808303816000875af1158015610794573d6000803e3d6000fd5b505050506040513d601f19601f820116820180604052508101906107b89190611397565b6001600160e01b031916145b6108035760405162461bcd60e51b815260206004820152601060248201526f155394d0519157d49150d2541251539560821b60448201526064016104ae565b505050565b610810610fa0565b610818610fa0565b60006108256004866113ca565b60046108326018876113ca565b61083c91906113ca565b61084691906113e1565b905060005b60048160ff1610156108c157600761086660ff8316846113e1565b6109008110610877576108776113f4565b602091828204019190069054906101000a900460ff16838260ff16600481106108a2576108a26113f4565b60ff9092166020929092020152806108b98161140a565b91505061084b565b5090949350505050565b6006546001600160a01b031633146108f55760405162461bcd60e51b81526004016104ae90611371565b6108fd610d83565b565b6000818152600260205260409020546001600160a01b0316806109515760405162461bcd60e51b815260206004820152600a6024820152691393d517d3525395115160b21b60448201526064016104ae565b919050565b60006001600160a01b03821661099d5760405162461bcd60e51b815260206004820152600c60248201526b5a45524f5f4144445245535360a01b60448201526064016104ae565b506001600160a01b031660009081526003602052604090205490565b60078161090081106109ca57600080fd5b60209182820401919006915054906101000a900460ff1681565b600180546103ab90611337565b6006546001600160a01b03163314610a1b5760405162461bcd60e51b81526004016104ae90611371565b6108fd610dd2565b3360008181526005602090815260408083206001600160a01b03871680855290835292819020805460ff191686151590811790915590519081529192917f17307eab39ab6107e8899845ad3d59bd9653f200f220920489ca2b5937696c31910160405180910390a35050565b610a9a858585610549565b6001600160a01b0384163b1580610b315750604051630a85bd0160e11b808252906001600160a01b0386169063150b7a0290610ae29033908a90899089908990600401611429565b6020604051808303816000875af1158015610b01573d6000803e3d6000fd5b505050506040513d601f19601f82011682018060405250810190610b259190611397565b6001600160e01b031916145b610b705760405162461bcd60e51b815260206004820152601060248201526f155394d0519157d49150d2541251539560821b60448201526064016104ae565b5050505050565b606080610398565b606060006040518060800160405280604c81526020016115dd604c9139905060005b60108160ff161015610cc25760005b60108160ff161015610cb9576040805180820190915260098152683c7265637420783d2760b81b60208201528390610bf4610bec60088561147d565b60ff16610e21565b6040805180820190915260058152642720793d2760d81b6020820152610c1e610bec60088861147d565b6040518060400160405280601d81526020017f272077696474683d273827206865696768743d2738272066696c6c3d27000000815250610c6c610c678860ff168a60ff16610808565b610e65565b6040518060400160405280600381526020016213979f60e91b815250604051602001610c9f9897969594939291906114a0565b60408051601f198184030181529190529250600101610bb0565b50600101610ba1565b5080604051602001610cd49190611545565b60408051601f1981840301815291905292915050565b6006546001600160a01b03163314610d145760405162461bcd60e51b81526004016104ae90611371565b600680546001600160a01b0319166001600160a01b03831690811790915560405133907f8be0079c531659141344cd1fd0a4f28419497f9722a3daafe3b4186f6b6457e090600090a350565b6060610d6c60ff610ec5565b905090565b610d7f600782610900610fbe565b5050565b6000805b6048811015610d7f57600060405260005b6020811015610dc157604080516020850260040135600884021b01905260019283019201610d98565b506040516007820155600101610d87565b6000805b6048811015610d7f57600060405260005b6020811015610e1057604080516004602086020135600884021b01905260019283019201610de7565b506040516007820155600101610dd6565b606060a06040510180604052602081039150506000815280825b600183039250600a81066030018353600a900480610e3b5750819003601f19909101908152919050565b6060610e7b8260005b602002015160ff16610ec5565b610e86836001610e6e565b610e91846002610e6e565b610e9c856003610e6e565b604051602001610eaf949392919061156f565b6040516020818303038152906040529050919050565b604080516002808252818301909252606091600091906020820181803683370190505090506f181899199a1a9b1b9c1cb0b131b232b360811b83600f1660108110610f1257610f126113f4565b1a60f81b81600181518110610f2957610f296113f4565b60200101906001600160f81b031916908160001a9053506f181899199a1a9b1b9c1cb0b131b232b360811b600484901c600f1660108110610f6c57610f6c6113f4565b1a60f81b81600081518110610f8357610f836113f4565b60200101906001600160f81b031916908160001a90535092915050565b60405180608001604052806004906020820280368337509192915050565b6048830191839082156110445791602002820160005b8382111561101557833560ff1683826101000a81548160ff021916908360ff1602179055509260200192600101602081600001049283019260010302610fd4565b80156110425782816101000a81549060ff0219169055600101602081600001049283019260010302611015565b505b50611050929150611054565b5090565b5b808211156110505760008155600101611055565b6001600160e01b03198116811461054657600080fd5b60006020828403121561109157600080fd5b813561109c81611069565b9392505050565b60005b838110156110be5781810151838201526020016110a6565b50506000910152565b60208152600082518060208401526110e68160408501602087016110a3565b601f01601f19169190910160400192915050565b60006020828403121561110c57600080fd5b5035919050565b80356001600160a01b038116811461095157600080fd5b6000806040838503121561113d57600080fd5b61114683611113565b946020939093013593505050565b60006201200080838503121561116957600080fd5b83818401111561117857600080fd5b509092915050565b60008060006060848603121561119557600080fd5b61119e84611113565b92506111ac60208501611113565b9150604084013590509250925092565b600080604083850312156111cf57600080fd5b50508035926020909101359150565b60808101818360005b600481101561120957815160ff168352602092830192909101906001016111e7565b50505092915050565b60006020828403121561122457600080fd5b61109c82611113565b6000806040838503121561124057600080fd5b61124983611113565b91506020830135801515811461125e57600080fd5b809150509250929050565b60008060008060006080868803121561128157600080fd5b61128a86611113565b945061129860208701611113565b935060408601359250606086013567ffffffffffffffff808211156112bc57600080fd5b818801915088601f8301126112d057600080fd5b8135818111156112df57600080fd5b8960208285010111156112f157600080fd5b9699959850939650602001949392505050565b6000806040838503121561131757600080fd5b61132083611113565b915061132e60208401611113565b90509250929050565b600181811c9082168061134b57607f821691505b60208210810361136b57634e487b7160e01b600052602260045260246000fd5b50919050565b6020808252600c908201526b15539055551213d49256915160a21b604082015260600190565b6000602082840312156113a957600080fd5b815161109c81611069565b634e487b7160e01b600052601160045260246000fd5b8082028115828204841417610398576103986113b4565b80820180821115610398576103986113b4565b634e487b7160e01b600052603260045260246000fd5b600060ff821660ff8103611420576114206113b4565b60010192915050565b6001600160a01b038681168252851660208201526040810184905260806060820181905281018290526000828460a0840137600060a0848401015260a0601f19601f85011683010190509695505050505050565b60ff8181168382160290811690818114611499576114996113b4565b5092915050565b6000895160206114b38285838f016110a3565b8a51918401916114c68184848f016110a3565b8a519201916114d88184848e016110a3565b89519201916114ea8184848d016110a3565b88519201916114fc8184848c016110a3565b875192019161150e8184848b016110a3565b86519201916115208184848a016110a3565b855192019161153281848489016110a3565b919091019b9a5050505050505050505050565b600082516115578184602087016110a3565b651e17b9bb339f60d11b920191825250600601919050565b602360f81b81526000855161158b816001850160208a016110a3565b8551908301906115a2816001840160208a016110a3565b85519101906115b88160018401602089016110a3565b84519101906115ce8160018401602088016110a3565b01600101969550505050505056fe3c73766720786d6c6e733d22687474703a2f2f7777772e77332e6f72672f323030302f737667222076657273696f6e3d22312e32222076696577426f783d223020302031323820313238223ea2646970667358221220372005caf522e9a4265ee94f823a2afdda9603486a9846de07aa43be3c63e0aa64736f6c63430008110033",
    "linkReferences": {}
  },
  "methodIdentifiers": {
    "SetPixels(uint8[2304])": "111bc937",
    "SetPixels2(uint8[2304])": "24ac00ac",
    "SetPixelsAssembly()": "5dd2489f",
    "SetPixelsAssembly2()": "99fcd427",
    "approve(address,uint256)": "095ea7b3",
    "balanceOf(address)": "70a08231",
    "garbage()": "fd38b21a",
    "generateSvg()": "d1e8b8cc",
    "getApproved(uint256)": "081812fc",
    "getPixelFromCoords(uint256,uint256)": "5849dbf8",
    "isApprovedForAll(address,address)": "e985e9c5",
    "name()": "06fdde03",
    "owner()": "8da5cb5b",
    "ownerOf(uint256)": "6352211e",
    "pixels(uint256)": "8da7f232",
    "safeTransferFrom(address,address,uint256)": "42842e0e",
    "safeTransferFrom(address,address,uint256,bytes)": "b88d4fde",
    "setApprovalForAll(address,bool)": "a22cb465",
    "supportsInterface(bytes4)": "01ffc9a7",
    "symbol()": "95d89b41",
    "tokenURI(uint256)": "c87b56dd",
    "transferFrom(address,address,uint256)": "23b872dd",
    "transferOwnership(address)": "f2fde38b"
  },
  "id": 8
}