{
  "abi": [
    {
      "anonymous": false,
      "inputs": [
        {
          "indexed": false,
          "internalType": "address",
          "name": "accountBalance",
          "type": "address"
        }
      ],
      "name": "AccountBalanceChanged",
      "type": "event"
    },
    {
      "anonymous": false,
      "inputs": [
        {
          "indexed": true,
          "internalType": "address",
          "name": "baseToken",
          "type": "address"
        },
        {
          "indexed": false,
          "internalType": "uint256",
          "name": "markTwap",
          "type": "uint256"
        },
        {
          "indexed": false,
          "internalType": "uint256",
          "name": "indexTwap",
          "type": "uint256"
        }
      ],
      "name": "FundingUpdated",
      "type": "event"
    },
    {
      "anonymous": false,
      "inputs": [
        {
          "indexed": true,
          "internalType": "address",
          "name": "baseToken",
          "type": "address"
        },
        {
          "indexed": false,
          "internalType": "uint24",
          "name": "maxTickCrossedWithinBlock",
          "type": "uint24"
        }
      ],
      "name": "MaxTickCrossedWithinBlockChanged",
      "type": "event"
    },
    {
      "inputs": [
        {
          "internalType": "uint256",
          "name": "_mktPrice",
          "type": "uint256"
        },
        {
          "internalType": "uint256",
          "name": "_idxPrice",
          "type": "uint256"
        }
      ],
      "name": "emitFundingUpdated",
      "outputs": [],
      "stateMutability": "nonpayable",
      "type": "function"
    },
    {
      "inputs": [],
      "name": "getAccountBalance",
      "outputs": [
        {
          "internalType": "address",
          "name": "accountBalance",
          "type": "address"
        }
      ],
      "stateMutability": "view",
      "type": "function"
    },
    {
      "inputs": [
        {
          "internalType": "address",
          "name": "trader",
          "type": "address"
        }
      ],
      "name": "getAllPendingFundingPayment",
      "outputs": [
        {
          "internalType": "int256",
          "name": "pendingFundingPayment",
          "type": "int256"
        }
      ],
      "stateMutability": "view",
      "type": "function"
    },
    {
      "inputs": [],
      "name": "getClearingHouseConfig",
      "outputs": [
        {
          "internalType": "address",
          "name": "clearingHouse",
          "type": "address"
        }
      ],
      "stateMutability": "view",
      "type": "function"
    },
    {
      "inputs": [
        {
          "internalType": "address",
          "name": "baseToken",
          "type": "address"
        }
      ],
      "name": "getMaxTickCrossedWithinBlock",
      "outputs": [
        {
          "internalType": "uint24",
          "name": "maxTickCrossedWithinBlock",
          "type": "uint24"
        }
      ],
      "stateMutability": "view",
      "type": "function"
    },
    {
      "inputs": [],
      "name": "getOrderBook",
      "outputs": [
        {
          "internalType": "address",
          "name": "orderBook",
          "type": "address"
        }
      ],
      "stateMutability": "view",
      "type": "function"
    },
    {
      "inputs": [
        {
          "internalType": "address",
          "name": "trader",
          "type": "address"
        },
        {
          "internalType": "address",
          "name": "baseToken",
          "type": "address"
        }
      ],
      "name": "getPendingFundingPayment",
      "outputs": [
        {
          "internalType": "int256",
          "name": "pendingFundingPayment",
          "type": "int256"
        }
      ],
      "stateMutability": "view",
      "type": "function"
    },
    {
      "inputs": [
        {
          "internalType": "address",
          "name": "baseToken",
          "type": "address"
        },
        {
          "internalType": "uint32",
          "name": "twapInterval",
          "type": "uint32"
        }
      ],
      "name": "getSqrtMarkTwapX96",
      "outputs": [
        {
          "internalType": "uint160",
          "name": "sqrtMarkTwapX96",
          "type": "uint160"
        }
      ],
      "stateMutability": "view",
      "type": "function"
    },
    {
      "inputs": [
        {
          "internalType": "address",
          "name": "baseToken",
          "type": "address"
        }
      ],
      "name": "isOverPriceSpread",
      "outputs": [
        {
          "internalType": "bool",
          "name": "",
          "type": "bool"
        }
      ],
      "stateMutability": "view",
      "type": "function"
    }
  ],
  "bytecode": {
    "object": "0x608060405234801561001057600080fd5b506102e6806100206000396000f3fe608060405234801561001057600080fd5b50600436106100935760003560e01c806399e4a7711161006657806399e4a77114610106578063aa2a8294146100c1578063b248c4ef146100c1578063cb379aa214610119578063ff8180111461012757610093565b806329386b7b146100985780636896fabf146100c15780637a50364b146100d657806380f57f11146100eb575b600080fd5b6100ab6100a63660046101b8565b610142565b6040516100b89190610292565b60405180910390f35b6100c9610148565b6040516100b8919061026a565b6100e96100e4366004610249565b61014d565b005b6100f96100a63660046101b8565b6040516100b89190610289565b6100c961011436600461020b565b610194565b6100f96101143660046101d9565b6101356100a63660046101b8565b6040516100b8919061027e565b50600090565b600090565b336001600160a01b03167f54e4482fe1d38392effe5d53f0e9e72f60221a75a10cea7abbb684bfb03519bf83836040516101889291906102a2565b60405180910390a25050565b600092915050565b80356001600160a01b03811681146101b357600080fd5b919050565b6000602082840312156101c9578081fd5b6101d28261019c565b9392505050565b600080604083850312156101eb578081fd5b6101f48361019c565b91506102026020840161019c565b90509250929050565b6000806040838503121561021d578182fd5b6102268361019c565b9150602083013563ffffffff8116811461023e578182fd5b809150509250929050565b6000806040838503121561025b578182fd5b50508035926020909101359150565b6001600160a01b0391909116815260200190565b901515815260200190565b90815260200190565b62ffffff91909116815260200190565b91825260208201526040019056fea2646970667358221220f226ff8dc2978727eb39d1c5063815b613854fab612a27dc96faa60f342dd33464736f6c63430007060033",
    "linkReferences": {}
  }
}