{
  "abi": [
    {
      "inputs": [
        {
          "internalType": "address[]",
          "name": "_priceFeeds",
          "type": "address[]"
        },
        {
          "internalType": "address",
          "name": "_baseToken",
          "type": "address"
        }
      ],
      "name": "calculateNAV",
      "outputs": [
        {
          "internalType": "int256",
          "name": "nav",
          "type": "int256"
        }
      ],
      "stateMutability": "view",
      "type": "function"
    },
    {
      "inputs": [
        {
          "internalType": "address",
          "name": "priceFeed",
          "type": "address"
        }
      ],
      "name": "getV2Price",
      "outputs": [
        {
          "internalType": "int256",
          "name": "price",
          "type": "int256"
        }
      ],
      "stateMutability": "view",
      "type": "function"
    },
    {
      "inputs": [
        {
          "internalType": "address",
          "name": "priceFeed",
          "type": "address"
        }
      ],
      "name": "getV3Price",
      "outputs": [
        {
          "internalType": "int256",
          "name": "price",
          "type": "int256"
        }
      ],
      "stateMutability": "view",
      "type": "function"
    },
    {
      "inputs": [
        {
          "internalType": "address",
          "name": "_priceFeed",
          "type": "address"
        },
        {
          "internalType": "bool",
          "name": "_isV3",
          "type": "bool"
        }
      ],
      "name": "registerPriceFeed",
      "outputs": [],
      "stateMutability": "nonpayable",
      "type": "function"
    }
  ],
  "bytecode": {
    "object": "0x608060405234801561001057600080fd5b5061069d806100206000396000f3fe608060405234801561001057600080fd5b506004361061004c5760003560e01c8063663f8f4f1461005157806373fc2f1b14610076578063b52f665714610089578063c75373c9146100c4575b600080fd5b61006461005f36600461040b565b6100d7565b60405190815260200160405180910390f35b61006461008436600461048f565b610316565b6100c26100973660046104b1565b6001600160a01b03919091166000908152602081905260409020805460ff1916911515919091179055565b005b6100646100d236600461048f565b610380565b60008060005b848110156102a0576000808787848181106100fa576100fa6104ed565b905060200201602081019061010f919061048f565b6001600160a01b0316815260208101919091526040016000205460ff16156101685761015b868683818110610146576101466104ed565b90506020020160208101906100d2919061048f565b6101659083610519565b91505b60008087878481811061017d5761017d6104ed565b9050602002016020810190610192919061048f565b6001600160a01b0316815260208101919091526040016000205460ff166101ee576101dd8686838181106101c8576101c86104ed565b9050602002016020810190610084919061048f565b6101e79083610519565b915061028e565b858582818110610200576102006104ed565b9050602002016020810190610215919061048f565b6040805160208101829052601860608201527f4e6f6e2d7265676973746572656420616464726573733a20000000000000000060808201526001600160a01b039092169082015260a00160408051601f198184030181529082905262461bcd60e51b825261028591600401610541565b60405180910390fd5b806102988161058f565b9150506100dd565b50826001600160a01b03166318160ddd6040518163ffffffff1660e01b8152600401602060405180830381865afa1580156102df573d6000803e3d6000fd5b505050506040513d601f19601f8201168201806040525081019061030391906105a8565b61030d90826105c1565b95945050505050565b6000816001600160a01b03166350d25bcd6040518163ffffffff1660e01b8152600401602060405180830381865afa158015610356573d6000803e3d6000fd5b505050506040513d601f19601f8201168201806040525081019061037a91906105a8565b92915050565b6000816001600160a01b031663feaf968c6040518163ffffffff1660e01b815260040160a060405180830381865afa1580156103c0573d6000803e3d6000fd5b505050506040513d601f19601f820116820180604052508101906103e49190610617565b509195945050505050565b80356001600160a01b038116811461040657600080fd5b919050565b60008060006040848603121561042057600080fd5b833567ffffffffffffffff8082111561043857600080fd5b818601915086601f83011261044c57600080fd5b81358181111561045b57600080fd5b8760208260051b850101111561047057600080fd5b60209283019550935061048691860190506103ef565b90509250925092565b6000602082840312156104a157600080fd5b6104aa826103ef565b9392505050565b600080604083850312156104c457600080fd5b6104cd836103ef565b9150602083013580151581146104e257600080fd5b809150509250929050565b634e487b7160e01b600052603260045260246000fd5b634e487b7160e01b600052601160045260246000fd5b808201828112600083128015821682158216171561053957610539610503565b505092915050565b600060208083528351808285015260005b8181101561056e57858101830151858201604001528201610552565b506000604082860101526040601f19601f8301168501019250505092915050565b6000600182016105a1576105a1610503565b5060010190565b6000602082840312156105ba57600080fd5b5051919050565b6000826105de57634e487b7160e01b600052601260045260246000fd5b600160ff1b8214600019841416156105f8576105f8610503565b500590565b805169ffffffffffffffffffff8116811461040657600080fd5b600080600080600060a0868803121561062f57600080fd5b610638866105fd565b945060208601519350604086015192506060860151915061065b608087016105fd565b9050929550929590935056fea264697066735822122001f01481645d8637d9e9bc9dab72092156e36d2033a12e706fc50577bb844de064736f6c63430008110033",
    "linkReferences": {}
  },
  "methodIdentifiers": {
    "calculateNAV(address[],address)": "663f8f4f",
    "getV2Price(address)": "73fc2f1b",
    "getV3Price(address)": "c75373c9",
    "registerPriceFeed(address,bool)": "b52f6657"
  },
  "id": 23
}