{
  "abi": [
    {
      "inputs": [],
      "stateMutability": "nonpayable",
      "type": "constructor"
    },
    {
      "inputs": [],
      "name": "retrieve",
      "outputs": [
        {
          "internalType": "uint256",
          "name": "",
          "type": "uint256"
        }
      ],
      "stateMutability": "view",
      "type": "function"
    },
    {
      "inputs": [
        {
          "internalType": "uint256",
          "name": "num",
          "type": "uint256"
        }
      ],
      "name": "store",
      "outputs": [],
      "stateMutability": "nonpayable",
      "type": "function"
    },
    {
      "inputs": [],
      "name": "trueOwnerAddress",
      "outputs": [
        {
          "internalType": "address",
          "name": "",
          "type": "address"
        }
      ],
      "stateMutability": "view",
      "type": "function"
    }
  ],
  "bytecode": {
    "object": "0x608060405234801561001057600080fd5b50600180546001600160a01b0319163317905560ff806100316000396000f3fe6080604052348015600f57600080fd5b5060043610603c5760003560e01c80632e64cec11460415780636057361d146057578063d9236580146069575b600080fd5b6000546040519081526020015b60405180910390f35b6067606236600460b1565b600055565b005b606f6086565b6040516001600160a01b039091168152602001604e565b6001546000906001600160a01b0316330360a1575061dead90565b506001546001600160a01b031690565b60006020828403121560c257600080fd5b503591905056fea26469706673582212200831a33d98ee89ada232b88f7da3cd700b1be5a27a2e97fe2dd1fb5bc344096664736f6c63430008110033",
    "linkReferences": {}
  },
  "methodIdentifiers": {
    "retrieve()": "2e64cec1",
    "store(uint256)": "6057361d",
    "trueOwnerAddress()": "d9236580"
  },
  "id": 41
}