{
  "abi": [
    {
      "inputs": [
        {
          "internalType": "string",
          "name": "_name",
          "type": "string"
        },
        {
          "internalType": "string",
          "name": "_symbol",
          "type": "string"
        },
        {
          "internalType": "address",
          "name": "_admin",
          "type": "address"
        }
      ],
      "stateMutability": "nonpayable",
      "type": "constructor"
    },
    {
      "anonymous": false,
      "inputs": [
        {
          "indexed": true,
          "internalType": "address",
          "name": "owner",
          "type": "address"
        },
        {
          "indexed": true,
          "internalType": "address",
          "name": "spender",
          "type": "address"
        },
        {
          "indexed": false,
          "internalType": "uint256",
          "name": "value",
          "type": "uint256"
        }
      ],
      "name": "Approval",
      "type": "event"
    },
    {
      "anonymous": false,
      "inputs": [
        {
          "indexed": true,
          "internalType": "address",
          "name": "previousOwner",
          "type": "address"
        },
        {
          "indexed": true,
          "internalType": "address",
          "name": "newOwner",
          "type": "address"
        }
      ],
      "name": "OwnershipTransferred",
      "type": "event"
    },
    {
      "anonymous": false,
      "inputs": [
        {
          "indexed": true,
          "internalType": "address",
          "name": "from",
          "type": "address"
        },
        {
          "indexed": true,
          "internalType": "address",
          "name": "to",
          "type": "address"
        },
        {
          "indexed": false,
          "internalType": "uint256",
          "name": "value",
          "type": "uint256"
        }
      ],
      "name": "Transfer",
      "type": "event"
    },
    {
      "inputs": [],
      "name": "allowAdminBurn",
      "outputs": [],
      "stateMutability": "nonpayable",
      "type": "function"
    },
    {
      "inputs": [],
      "name": "allowAdminTransfer",
      "outputs": [],
      "stateMutability": "nonpayable",
      "type": "function"
    },
    {
      "inputs": [
        {
          "internalType": "address",
          "name": "owner",
          "type": "address"
        },
        {
          "internalType": "address",
          "name": "spender",
          "type": "address"
        }
      ],
      "name": "allowance",
      "outputs": [
        {
          "internalType": "uint256",
          "name": "",
          "type": "uint256"
        }
      ],
      "stateMutability": "view",
      "type": "function"
    },
    {
      "inputs": [
        {
          "internalType": "address",
          "name": "spender",
          "type": "address"
        },
        {
          "internalType": "uint256",
          "name": "amount",
          "type": "uint256"
        }
      ],
      "name": "approve",
      "outputs": [
        {
          "internalType": "bool",
          "name": "",
          "type": "bool"
        }
      ],
      "stateMutability": "nonpayable",
      "type": "function"
    },
    {
      "inputs": [
        {
          "internalType": "address",
          "name": "account",
          "type": "address"
        }
      ],
      "name": "balanceOf",
      "outputs": [
        {
          "internalType": "uint256",
          "name": "",
          "type": "uint256"
        }
      ],
      "stateMutability": "view",
      "type": "function"
    },
    {
      "inputs": [
        {
          "internalType": "address",
          "name": "target",
          "type": "address"
        }
      ],
      "name": "burn",
      "outputs": [],
      "stateMutability": "nonpayable",
      "type": "function"
    },
    {
      "inputs": [
        {
          "internalType": "address",
          "name": "",
          "type": "address"
        }
      ],
      "name": "canAdminBurn",
      "outputs": [
        {
          "internalType": "bool",
          "name": "",
          "type": "bool"
        }
      ],
      "stateMutability": "view",
      "type": "function"
    },
    {
      "inputs": [
        {
          "internalType": "address",
          "name": "",
          "type": "address"
        }
      ],
      "name": "canAdminTransfer",
      "outputs": [
        {
          "internalType": "bool",
          "name": "",
          "type": "bool"
        }
      ],
      "stateMutability": "view",
      "type": "function"
    },
    {
      "inputs": [],
      "name": "decimals",
      "outputs": [
        {
          "internalType": "uint8",
          "name": "",
          "type": "uint8"
        }
      ],
      "stateMutability": "view",
      "type": "function"
    },
    {
      "inputs": [
        {
          "internalType": "address",
          "name": "spender",
          "type": "address"
        },
        {
          "internalType": "uint256",
          "name": "subtractedValue",
          "type": "uint256"
        }
      ],
      "name": "decreaseAllowance",
      "outputs": [
        {
          "internalType": "bool",
          "name": "",
          "type": "bool"
        }
      ],
      "stateMutability": "nonpayable",
      "type": "function"
    },
    {
      "inputs": [
        {
          "internalType": "address",
          "name": "spender",
          "type": "address"
        },
        {
          "internalType": "uint256",
          "name": "addedValue",
          "type": "uint256"
        }
      ],
      "name": "increaseAllowance",
      "outputs": [
        {
          "internalType": "bool",
          "name": "",
          "type": "bool"
        }
      ],
      "stateMutability": "nonpayable",
      "type": "function"
    },
    {
      "inputs": [
        {
          "internalType": "address",
          "name": "",
          "type": "address"
        }
      ],
      "name": "isMinting",
      "outputs": [
        {
          "internalType": "bool",
          "name": "",
          "type": "bool"
        }
      ],
      "stateMutability": "view",
      "type": "function"
    },
    {
      "inputs": [
        {
          "internalType": "address",
          "name": "target",
          "type": "address"
        }
      ],
      "name": "mint",
      "outputs": [],
      "stateMutability": "nonpayable",
      "type": "function"
    },
    {
      "inputs": [],
      "name": "name",
      "outputs": [
        {
          "internalType": "string",
          "name": "",
          "type": "string"
        }
      ],
      "stateMutability": "view",
      "type": "function"
    },
    {
      "inputs": [],
      "name": "owner",
      "outputs": [
        {
          "internalType": "address",
          "name": "",
          "type": "address"
        }
      ],
      "stateMutability": "view",
      "type": "function"
    },
    {
      "inputs": [],
      "name": "renounceOwnership",
      "outputs": [],
      "stateMutability": "nonpayable",
      "type": "function"
    },
    {
      "inputs": [],
      "name": "symbol",
      "outputs": [
        {
          "internalType": "string",
          "name": "",
          "type": "string"
        }
      ],
      "stateMutability": "view",
      "type": "function"
    },
    {
      "inputs": [],
      "name": "totalSupply",
      "outputs": [
        {
          "internalType": "uint256",
          "name": "",
          "type": "uint256"
        }
      ],
      "stateMutability": "view",
      "type": "function"
    },
    {
      "inputs": [
        {
          "internalType": "address",
          "name": "to",
          "type": "address"
        },
        {
          "internalType": "uint256",
          "name": "amount",
          "type": "uint256"
        }
      ],
      "name": "transfer",
      "outputs": [
        {
          "internalType": "bool",
          "name": "",
          "type": "bool"
        }
      ],
      "stateMutability": "nonpayable",
      "type": "function"
    },
    {
      "inputs": [
        {
          "internalType": "address",
          "name": "from",
          "type": "address"
        },
        {
          "internalType": "address",
          "name": "to",
          "type": "address"
        },
        {
          "internalType": "uint256",
          "name": "amount",
          "type": "uint256"
        }
      ],
      "name": "transferFrom",
      "outputs": [
        {
          "internalType": "bool",
          "name": "",
          "type": "bool"
        }
      ],
      "stateMutability": "nonpayable",
      "type": "function"
    },
    {
      "inputs": [
        {
          "internalType": "address",
          "name": "newOwner",
          "type": "address"
        }
      ],
      "name": "transferOwnership",
      "outputs": [],
      "stateMutability": "nonpayable",
      "type": "function"
    }
  ],
  "bytecode": {
    "object": "0x60806040523480156200001157600080fd5b50604051620013893803806200138983398101604081905262000034916200033e565b8251839083906200004d906003906020850190620001cb565b50805162000063906004906020840190620001cb565b505050620000806200007a6200009460201b60201c565b62000098565b6200008b81620000ea565b50505062000407565b3390565b600580546001600160a01b038381166001600160a01b0319831681179093556040519116919082907f8be0079c531659141344cd1fd0a4f28419497f9722a3daafe3b4186f6b6457e090600090a35050565b620000f46200016d565b6001600160a01b0381166200015f5760405162461bcd60e51b815260206004820152602660248201527f4f776e61626c653a206e6577206f776e657220697320746865207a65726f206160448201526564647265737360d01b60648201526084015b60405180910390fd5b6200016a8162000098565b50565b6005546001600160a01b03163314620001c95760405162461bcd60e51b815260206004820181905260248201527f4f776e61626c653a2063616c6c6572206973206e6f7420746865206f776e6572604482015260640162000156565b565b828054620001d990620003cb565b90600052602060002090601f016020900481019282620001fd576000855562000248565b82601f106200021857805160ff191683800117855562000248565b8280016001018555821562000248579182015b82811115620002485782518255916020019190600101906200022b565b50620002569291506200025a565b5090565b5b808211156200025657600081556001016200025b565b634e487b7160e01b600052604160045260246000fd5b600082601f8301126200029957600080fd5b81516001600160401b0380821115620002b657620002b662000271565b604051601f8301601f19908116603f01168101908282118183101715620002e157620002e162000271565b81604052838152602092508683858801011115620002fe57600080fd5b600091505b8382101562000322578582018301518183018401529082019062000303565b83821115620003345760008385830101525b9695505050505050565b6000806000606084860312156200035457600080fd5b83516001600160401b03808211156200036c57600080fd5b6200037a8783880162000287565b945060208601519150808211156200039157600080fd5b50620003a08682870162000287565b604086015190935090506001600160a01b0381168114620003c057600080fd5b809150509250925092565b600181811c90821680620003e057607f821691505b6020821081036200040157634e487b7160e01b600052602260045260246000fd5b50919050565b610f7280620004176000396000f3fe608060405234801561001057600080fd5b50600436106101375760003560e01c806389afcb44116100b8578063bb6648f51161007c578063bb6648f514610285578063c2302e5e146102a8578063cbd9574e146102cb578063d6374101146102ea578063dd62ed3e1461030d578063f2fde38b1461032057600080fd5b806389afcb44146102295780638da5cb5b1461023c57806395d89b4114610257578063a457c2d71461025f578063a9059cbb1461027257600080fd5b806339509351116100ff57806339509351146101b15780633e38eeaf146101c45780636a627842146101e557806370a08231146101f8578063715018a61461022157600080fd5b806306fdde031461013c578063095ea7b31461015a57806318160ddd1461017d57806323b872dd1461018f578063313ce567146101a2575b600080fd5b610144610333565b6040516101519190610db0565b60405180910390f35b61016d610168366004610e21565b6103c5565b6040519015158152602001610151565b6002545b604051908152602001610151565b61016d61019d366004610e4b565b6103dd565b60405160008152602001610151565b61016d6101bf366004610e21565b61048b565b6101e3336000908152600660205260409020805460ff19166001179055565b005b6101e36101f3366004610e87565b6104ad565b610181610206366004610e87565b6001600160a01b031660009081526020819052604090205490565b6101e36104e9565b6101e3610237366004610e87565b6104fd565b6005546040516001600160a01b039091168152602001610151565b61014461058e565b61016d61026d366004610e21565b61059d565b61016d610280366004610e21565b610623565b61016d610293366004610e87565b60066020526000908152604090205460ff1681565b61016d6102b6366004610e87565b60086020526000908152604090205460ff1681565b6101e3336000908152600760205260409020805460ff19166001179055565b61016d6102f8366004610e87565b60076020526000908152604090205460ff1681565b61018161031b366004610ea9565b61064f565b6101e361032e366004610e87565b61067a565b60606003805461034290610edc565b80601f016020809104026020016040519081016040528092919081815260200182805461036e90610edc565b80156103bb5780601f10610390576101008083540402835291602001916103bb565b820191906000526020600020905b81548152906001019060200180831161039e57829003601f168201915b5050505050905090565b6000336103d38185856106f0565b5060019392505050565b60006103e7610815565b6001600160a01b03841660009081526006602052604090205460ff166104545760405162461bcd60e51b815260206004820152601760248201527f4e6f7420616c6c6f77656420746f207472616e7366657200000000000000000060448201526064015b60405180910390fd5b6001600160a01b0384166000908152600660205260409020805460ff191690556001915061048384848461086f565b949350505050565b6000336103d381858561049e838361064f565b6104a89190610f16565b6106f0565b6104b5610815565b6001600160a01b0381166000908152600860205260409020805460ff191660019081179091556104e6908290610888565b50565b6104f1610815565b6104fb6000610953565b565b610505610815565b6001600160a01b03811660009081526007602052604090205460ff166105635760405162461bcd60e51b81526020600482015260136024820152722737ba1030b63637bbb2b2103a3790313ab93760691b604482015260640161044b565b6001600160a01b0381166000908152600760205260409020805460ff191690556104e68160016109a5565b60606004805461034290610edc565b600033816105ab828661064f565b90508381101561060b5760405162461bcd60e51b815260206004820152602560248201527f45524332303a2064656372656173656420616c6c6f77616e63652062656c6f77604482015264207a65726f60d81b606482015260840161044b565b61061882868684036106f0565b506001949350505050565b50600160003361063281610ae0565b610645576106408184610b1c565b610483565b6104838484610b1c565b6001600160a01b03918216600090815260016020908152604080832093909416825291909152205490565b610682610815565b6001600160a01b0381166106e75760405162461bcd60e51b815260206004820152602660248201527f4f776e61626c653a206e6577206f776e657220697320746865207a65726f206160448201526564647265737360d01b606482015260840161044b565b6104e681610953565b6001600160a01b0383166107525760405162461bcd60e51b8152602060048201526024808201527f45524332303a20617070726f76652066726f6d20746865207a65726f206164646044820152637265737360e01b606482015260840161044b565b6001600160a01b0382166107b35760405162461bcd60e51b815260206004820152602260248201527f45524332303a20617070726f766520746f20746865207a65726f206164647265604482015261737360f01b606482015260840161044b565b6001600160a01b0383811660008181526001602090815260408083209487168084529482529182902085905590518481527f8c5be1e5ebec7d5bd14f71427d1e84f3dd0314c0f7b2291e5b200ac8c7c3b92591015b60405180910390a3505050565b6005546001600160a01b031633146104fb5760405162461bcd60e51b815260206004820181905260248201527f4f776e61626c653a2063616c6c6572206973206e6f7420746865206f776e6572604482015260640161044b565b60003361087d858285610b2a565b610618858585610ba4565b6001600160a01b0382166108de5760405162461bcd60e51b815260206004820152601f60248201527f45524332303a206d696e7420746f20746865207a65726f206164647265737300604482015260640161044b565b6108ea60008383610d53565b80600260008282546108fc9190610f16565b90915550506001600160a01b038216600081815260208181526040808320805486019055518481527fddf252ad1be2c89b69c2b068fc378daa952ba7f163c4a11628f55a4df523b3ef910160405180910390a35050565b600580546001600160a01b038381166001600160a01b0319831681179093556040519116919082907f8be0079c531659141344cd1fd0a4f28419497f9722a3daafe3b4186f6b6457e090600090a35050565b6001600160a01b038216610a055760405162461bcd60e51b815260206004820152602160248201527f45524332303a206275726e2066726f6d20746865207a65726f206164647265736044820152607360f81b606482015260840161044b565b610a1182600083610d53565b6001600160a01b03821660009081526020819052604090205481811015610a855760405162461bcd60e51b815260206004820152602260248201527f45524332303a206275726e20616d6f756e7420657863656564732062616c616e604482015261636560f01b606482015260840161044b565b6001600160a01b0383166000818152602081815260408083208686039055600280548790039055518581529192917fddf252ad1be2c89b69c2b068fc378daa952ba7f163c4a11628f55a4df523b3ef9101610808565b505050565b6000610af46005546001600160a01b031690565b6001600160a01b0316826001600160a01b031614610b13576000610b16565b60015b92915050565b6000336103d3818585610ba4565b6000610b36848461064f565b90506000198114610b9e5781811015610b915760405162461bcd60e51b815260206004820152601d60248201527f45524332303a20696e73756666696369656e7420616c6c6f77616e6365000000604482015260640161044b565b610b9e84848484036106f0565b50505050565b6001600160a01b038316610c085760405162461bcd60e51b815260206004820152602560248201527f45524332303a207472616e736665722066726f6d20746865207a65726f206164604482015264647265737360d81b606482015260840161044b565b6001600160a01b038216610c6a5760405162461bcd60e51b815260206004820152602360248201527f45524332303a207472616e7366657220746f20746865207a65726f206164647260448201526265737360e81b606482015260840161044b565b610c75838383610d53565b6001600160a01b03831660009081526020819052604090205481811015610ced5760405162461bcd60e51b815260206004820152602660248201527f45524332303a207472616e7366657220616d6f756e7420657863656564732062604482015265616c616e636560d01b606482015260840161044b565b6001600160a01b03848116600081815260208181526040808320878703905593871680835291849020805487019055925185815290927fddf252ad1be2c89b69c2b068fc378daa952ba7f163c4a11628f55a4df523b3ef910160405180910390a3610b9e565b610d5c33610ae0565b158015610d8157506001600160a01b03821660009081526008602052604090205460ff165b15610adb576001600160a01b0382166000908152600860205260409020805460ff19169055610adb8282610888565b600060208083528351808285015260005b81811015610ddd57858101830151858201604001528201610dc1565b81811115610def576000604083870101525b50601f01601f1916929092016040019392505050565b80356001600160a01b0381168114610e1c57600080fd5b919050565b60008060408385031215610e3457600080fd5b610e3d83610e05565b946020939093013593505050565b600080600060608486031215610e6057600080fd5b610e6984610e05565b9250610e7760208501610e05565b9150604084013590509250925092565b600060208284031215610e9957600080fd5b610ea282610e05565b9392505050565b60008060408385031215610ebc57600080fd5b610ec583610e05565b9150610ed360208401610e05565b90509250929050565b600181811c90821680610ef057607f821691505b602082108103610f1057634e487b7160e01b600052602260045260246000fd5b50919050565b60008219821115610f3757634e487b7160e01b600052601160045260246000fd5b50019056fea2646970667358221220084082b7995f85c52c4101dd99111e0aeef442cc1692543026219815e18e010064736f6c634300080d0033",
    "linkReferences": {}
  },
  "methodIdentifiers": {
    "allowAdminBurn()": "cbd9574e",
    "allowAdminTransfer()": "3e38eeaf",
    "allowance(address,address)": "dd62ed3e",
    "approve(address,uint256)": "095ea7b3",
    "balanceOf(address)": "70a08231",
    "burn(address)": "89afcb44",
    "canAdminBurn(address)": "d6374101",
    "canAdminTransfer(address)": "bb6648f5",
    "decimals()": "313ce567",
    "decreaseAllowance(address,uint256)": "a457c2d7",
    "increaseAllowance(address,uint256)": "39509351",
    "isMinting(address)": "c2302e5e",
    "mint(address)": "6a627842",
    "name()": "06fdde03",
    "owner()": "8da5cb5b",
    "renounceOwnership()": "715018a6",
    "symbol()": "95d89b41",
    "totalSupply()": "18160ddd",
    "transfer(address,uint256)": "a9059cbb",
    "transferFrom(address,address,uint256)": "23b872dd",
    "transferOwnership(address)": "f2fde38b"
  },
  "id": 21
}