{
  "abi": [
    {
      "inputs": [
        {
          "internalType": "string",
          "name": "_name",
          "type": "string"
        },
        {
          "internalType": "string",
          "name": "_symbol",
          "type": "string"
        },
        {
          "internalType": "address",
          "name": "_admin",
          "type": "address"
        }
      ],
      "stateMutability": "nonpayable",
      "type": "constructor"
    },
    {
      "anonymous": false,
      "inputs": [
        {
          "indexed": true,
          "internalType": "address",
          "name": "owner",
          "type": "address"
        },
        {
          "indexed": true,
          "internalType": "address",
          "name": "spender",
          "type": "address"
        },
        {
          "indexed": false,
          "internalType": "uint256",
          "name": "value",
          "type": "uint256"
        }
      ],
      "name": "Approval",
      "type": "event"
    },
    {
      "anonymous": false,
      "inputs": [
        {
          "indexed": true,
          "internalType": "address",
          "name": "previousOwner",
          "type": "address"
        },
        {
          "indexed": true,
          "internalType": "address",
          "name": "newOwner",
          "type": "address"
        }
      ],
      "name": "OwnershipTransferred",
      "type": "event"
    },
    {
      "anonymous": false,
      "inputs": [
        {
          "indexed": true,
          "internalType": "address",
          "name": "from",
          "type": "address"
        },
        {
          "indexed": true,
          "internalType": "address",
          "name": "to",
          "type": "address"
        },
        {
          "indexed": false,
          "internalType": "uint256",
          "name": "value",
          "type": "uint256"
        }
      ],
      "name": "Transfer",
      "type": "event"
    },
    {
      "inputs": [],
      "name": "allowAdminBurn",
      "outputs": [],
      "stateMutability": "nonpayable",
      "type": "function"
    },
    {
      "inputs": [],
      "name": "allowAdminTransfer",
      "outputs": [],
      "stateMutability": "nonpayable",
      "type": "function"
    },
    {
      "inputs": [
        {
          "internalType": "address",
          "name": "owner",
          "type": "address"
        },
        {
          "internalType": "address",
          "name": "spender",
          "type": "address"
        }
      ],
      "name": "allowance",
      "outputs": [
        {
          "internalType": "uint256",
          "name": "",
          "type": "uint256"
        }
      ],
      "stateMutability": "view",
      "type": "function"
    },
    {
      "inputs": [
        {
          "internalType": "address",
          "name": "spender",
          "type": "address"
        },
        {
          "internalType": "uint256",
          "name": "amount",
          "type": "uint256"
        }
      ],
      "name": "approve",
      "outputs": [
        {
          "internalType": "bool",
          "name": "",
          "type": "bool"
        }
      ],
      "stateMutability": "nonpayable",
      "type": "function"
    },
    {
      "inputs": [
        {
          "internalType": "address",
          "name": "account",
          "type": "address"
        }
      ],
      "name": "balanceOf",
      "outputs": [
        {
          "internalType": "uint256",
          "name": "",
          "type": "uint256"
        }
      ],
      "stateMutability": "view",
      "type": "function"
    },
    {
      "inputs": [
        {
          "internalType": "address",
          "name": "target",
          "type": "address"
        }
      ],
      "name": "burn",
      "outputs": [],
      "stateMutability": "nonpayable",
      "type": "function"
    },
    {
      "inputs": [],
      "name": "decimals",
      "outputs": [
        {
          "internalType": "uint8",
          "name": "",
          "type": "uint8"
        }
      ],
      "stateMutability": "view",
      "type": "function"
    },
    {
      "inputs": [
        {
          "internalType": "address",
          "name": "spender",
          "type": "address"
        },
        {
          "internalType": "uint256",
          "name": "subtractedValue",
          "type": "uint256"
        }
      ],
      "name": "decreaseAllowance",
      "outputs": [
        {
          "internalType": "bool",
          "name": "",
          "type": "bool"
        }
      ],
      "stateMutability": "nonpayable",
      "type": "function"
    },
    {
      "inputs": [
        {
          "internalType": "address",
          "name": "spender",
          "type": "address"
        },
        {
          "internalType": "uint256",
          "name": "addedValue",
          "type": "uint256"
        }
      ],
      "name": "increaseAllowance",
      "outputs": [
        {
          "internalType": "bool",
          "name": "",
          "type": "bool"
        }
      ],
      "stateMutability": "nonpayable",
      "type": "function"
    },
    {
      "inputs": [
        {
          "internalType": "address",
          "name": "target",
          "type": "address"
        }
      ],
      "name": "mint",
      "outputs": [],
      "stateMutability": "nonpayable",
      "type": "function"
    },
    {
      "inputs": [],
      "name": "name",
      "outputs": [
        {
          "internalType": "string",
          "name": "",
          "type": "string"
        }
      ],
      "stateMutability": "view",
      "type": "function"
    },
    {
      "inputs": [],
      "name": "owner",
      "outputs": [
        {
          "internalType": "address",
          "name": "",
          "type": "address"
        }
      ],
      "stateMutability": "view",
      "type": "function"
    },
    {
      "inputs": [],
      "name": "renounceOwnership",
      "outputs": [],
      "stateMutability": "nonpayable",
      "type": "function"
    },
    {
      "inputs": [],
      "name": "symbol",
      "outputs": [
        {
          "internalType": "string",
          "name": "",
          "type": "string"
        }
      ],
      "stateMutability": "view",
      "type": "function"
    },
    {
      "inputs": [],
      "name": "totalSupply",
      "outputs": [
        {
          "internalType": "uint256",
          "name": "",
          "type": "uint256"
        }
      ],
      "stateMutability": "view",
      "type": "function"
    },
    {
      "inputs": [
        {
          "internalType": "address",
          "name": "to",
          "type": "address"
        },
        {
          "internalType": "uint256",
          "name": "amount",
          "type": "uint256"
        }
      ],
      "name": "transfer",
      "outputs": [
        {
          "internalType": "bool",
          "name": "",
          "type": "bool"
        }
      ],
      "stateMutability": "nonpayable",
      "type": "function"
    },
    {
      "inputs": [
        {
          "internalType": "address",
          "name": "from",
          "type": "address"
        },
        {
          "internalType": "address",
          "name": "to",
          "type": "address"
        },
        {
          "internalType": "uint256",
          "name": "amount",
          "type": "uint256"
        }
      ],
      "name": "transferFrom",
      "outputs": [
        {
          "internalType": "bool",
          "name": "",
          "type": "bool"
        }
      ],
      "stateMutability": "nonpayable",
      "type": "function"
    },
    {
      "inputs": [
        {
          "internalType": "address",
          "name": "newOwner",
          "type": "address"
        }
      ],
      "name": "transferOwnership",
      "outputs": [],
      "stateMutability": "nonpayable",
      "type": "function"
    }
  ],
  "bytecode": {
    "object": "0x60806040523480156200001157600080fd5b50604051620012933803806200129383398101604081905262000034916200033e565b8251839083906200004d906003906020850190620001cb565b50805162000063906004906020840190620001cb565b505050620000806200007a6200009460201b60201c565b62000098565b6200008b81620000ea565b50505062000407565b3390565b600580546001600160a01b038381166001600160a01b0319831681179093556040519116919082907f8be0079c531659141344cd1fd0a4f28419497f9722a3daafe3b4186f6b6457e090600090a35050565b620000f46200016d565b6001600160a01b0381166200015f5760405162461bcd60e51b815260206004820152602660248201527f4f776e61626c653a206e6577206f776e657220697320746865207a65726f206160448201526564647265737360d01b60648201526084015b60405180910390fd5b6200016a8162000098565b50565b6005546001600160a01b03163314620001c95760405162461bcd60e51b815260206004820181905260248201527f4f776e61626c653a2063616c6c6572206973206e6f7420746865206f776e6572604482015260640162000156565b565b828054620001d990620003cb565b90600052602060002090601f016020900481019282620001fd576000855562000248565b82601f106200021857805160ff191683800117855562000248565b8280016001018555821562000248579182015b82811115620002485782518255916020019190600101906200022b565b50620002569291506200025a565b5090565b5b808211156200025657600081556001016200025b565b634e487b7160e01b600052604160045260246000fd5b600082601f8301126200029957600080fd5b81516001600160401b0380821115620002b657620002b662000271565b604051601f8301601f19908116603f01168101908282118183101715620002e157620002e162000271565b81604052838152602092508683858801011115620002fe57600080fd5b600091505b8382101562000322578582018301518183018401529082019062000303565b83821115620003345760008385830101525b9695505050505050565b6000806000606084860312156200035457600080fd5b83516001600160401b03808211156200036c57600080fd5b6200037a8783880162000287565b945060208601519150808211156200039157600080fd5b50620003a08682870162000287565b604086015190935090506001600160a01b0381168114620003c057600080fd5b809150509250925092565b600181811c90821680620003e057607f821691505b6020821081036200040157634e487b7160e01b600052602260045260246000fd5b50919050565b610e7c80620004176000396000f3fe608060405234801561001057600080fd5b50600436106101165760003560e01c8063715018a6116100a2578063a457c2d711610071578063a457c2d71461023e578063a9059cbb14610251578063cbd9574e14610264578063dd62ed3e14610283578063f2fde38b1461029657600080fd5b8063715018a61461020057806389afcb44146102085780638da5cb5b1461021b57806395d89b411461023657600080fd5b8063313ce567116100e9578063313ce5671461018157806339509351146101905780633e38eeaf146101a35780636a627842146101c457806370a08231146101d757600080fd5b806306fdde031461011b578063095ea7b31461013957806318160ddd1461015c57806323b872dd1461016e575b600080fd5b6101236102a9565b6040516101309190610cba565b60405180910390f35b61014c610147366004610d2b565b61033b565b6040519015158152602001610130565b6002545b604051908152602001610130565b61014c61017c366004610d55565b610353565b60405160008152602001610130565b61014c61019e366004610d2b565b610401565b6101c2336000908152600660205260409020805460ff19166001179055565b005b6101c26101d2366004610d91565b610423565b6101606101e5366004610d91565b6001600160a01b031660009081526020819052604090205490565b6101c2610439565b6101c2610216366004610d91565b61044d565b6005546040516001600160a01b039091168152602001610130565b6101236104de565b61014c61024c366004610d2b565b6104ed565b61014c61025f366004610d2b565b610573565b6101c2336000908152600760205260409020805460ff19166001179055565b610160610291366004610db3565b61059f565b6101c26102a4366004610d91565b6105ca565b6060600380546102b890610de6565b80601f01602080910402602001604051908101604052809291908181526020018280546102e490610de6565b80156103315780601f1061030657610100808354040283529160200191610331565b820191906000526020600020905b81548152906001019060200180831161031457829003601f168201915b5050505050905090565b600033610349818585610640565b5060019392505050565b600061035d610765565b6001600160a01b03841660009081526006602052604090205460ff166103ca5760405162461bcd60e51b815260206004820152601760248201527f4e6f7420616c6c6f77656420746f207472616e7366657200000000000000000060448201526064015b60405180910390fd5b6001600160a01b0384166000908152600660205260409020805460ff19169055600191506103f98484846107bf565b949350505050565b600033610349818585610414838361059f565b61041e9190610e20565b610640565b61042b610765565b6104368160016107d8565b50565b610441610765565b61044b60006108a3565b565b610455610765565b6001600160a01b03811660009081526007602052604090205460ff166104b35760405162461bcd60e51b81526020600482015260136024820152722737ba1030b63637bbb2b2103a3790313ab93760691b60448201526064016103c1565b6001600160a01b0381166000908152600760205260409020805460ff191690556104368160016108f5565b6060600480546102b890610de6565b600033816104fb828661059f565b90508381101561055b5760405162461bcd60e51b815260206004820152602560248201527f45524332303a2064656372656173656420616c6c6f77616e63652062656c6f77604482015264207a65726f60d81b60648201526084016103c1565b6105688286868403610640565b506001949350505050565b50600160003361058281610a30565b610595576105908184610a6c565b6103f9565b6103f98484610a6c565b6001600160a01b03918216600090815260016020908152604080832093909416825291909152205490565b6105d2610765565b6001600160a01b0381166106375760405162461bcd60e51b815260206004820152602660248201527f4f776e61626c653a206e6577206f776e657220697320746865207a65726f206160448201526564647265737360d01b60648201526084016103c1565b610436816108a3565b6001600160a01b0383166106a25760405162461bcd60e51b8152602060048201526024808201527f45524332303a20617070726f76652066726f6d20746865207a65726f206164646044820152637265737360e01b60648201526084016103c1565b6001600160a01b0382166107035760405162461bcd60e51b815260206004820152602260248201527f45524332303a20617070726f766520746f20746865207a65726f206164647265604482015261737360f01b60648201526084016103c1565b6001600160a01b0383811660008181526001602090815260408083209487168084529482529182902085905590518481527f8c5be1e5ebec7d5bd14f71427d1e84f3dd0314c0f7b2291e5b200ac8c7c3b92591015b60405180910390a3505050565b6005546001600160a01b0316331461044b5760405162461bcd60e51b815260206004820181905260248201527f4f776e61626c653a2063616c6c6572206973206e6f7420746865206f776e657260448201526064016103c1565b6000336107cd858285610a7a565b610568858585610af4565b6001600160a01b03821661082e5760405162461bcd60e51b815260206004820152601f60248201527f45524332303a206d696e7420746f20746865207a65726f20616464726573730060448201526064016103c1565b61083a60008383610ca3565b806002600082825461084c9190610e20565b90915550506001600160a01b038216600081815260208181526040808320805486019055518481527fddf252ad1be2c89b69c2b068fc378daa952ba7f163c4a11628f55a4df523b3ef910160405180910390a35050565b600580546001600160a01b038381166001600160a01b0319831681179093556040519116919082907f8be0079c531659141344cd1fd0a4f28419497f9722a3daafe3b4186f6b6457e090600090a35050565b6001600160a01b0382166109555760405162461bcd60e51b815260206004820152602160248201527f45524332303a206275726e2066726f6d20746865207a65726f206164647265736044820152607360f81b60648201526084016103c1565b61096182600083610ca3565b6001600160a01b038216600090815260208190526040902054818110156109d55760405162461bcd60e51b815260206004820152602260248201527f45524332303a206275726e20616d6f756e7420657863656564732062616c616e604482015261636560f01b60648201526084016103c1565b6001600160a01b0383166000818152602081815260408083208686039055600280548790039055518581529192917fddf252ad1be2c89b69c2b068fc378daa952ba7f163c4a11628f55a4df523b3ef9101610758565b505050565b6000610a446005546001600160a01b031690565b6001600160a01b0316826001600160a01b031614610a63576000610a66565b60015b92915050565b600033610349818585610af4565b6000610a86848461059f565b90506000198114610aee5781811015610ae15760405162461bcd60e51b815260206004820152601d60248201527f45524332303a20696e73756666696369656e7420616c6c6f77616e636500000060448201526064016103c1565b610aee8484848403610640565b50505050565b6001600160a01b038316610b585760405162461bcd60e51b815260206004820152602560248201527f45524332303a207472616e736665722066726f6d20746865207a65726f206164604482015264647265737360d81b60648201526084016103c1565b6001600160a01b038216610bba5760405162461bcd60e51b815260206004820152602360248201527f45524332303a207472616e7366657220746f20746865207a65726f206164647260448201526265737360e81b60648201526084016103c1565b610bc5838383610ca3565b6001600160a01b03831660009081526020819052604090205481811015610c3d5760405162461bcd60e51b815260206004820152602660248201527f45524332303a207472616e7366657220616d6f756e7420657863656564732062604482015265616c616e636560d01b60648201526084016103c1565b6001600160a01b03848116600081815260208181526040808320878703905593871680835291849020805487019055925185815290927fddf252ad1be2c89b69c2b068fc378daa952ba7f163c4a11628f55a4df523b3ef910160405180910390a3610aee565b610cac83610a30565b610a2b57610a2b82826107d8565b600060208083528351808285015260005b81811015610ce757858101830151858201604001528201610ccb565b81811115610cf9576000604083870101525b50601f01601f1916929092016040019392505050565b80356001600160a01b0381168114610d2657600080fd5b919050565b60008060408385031215610d3e57600080fd5b610d4783610d0f565b946020939093013593505050565b600080600060608486031215610d6a57600080fd5b610d7384610d0f565b9250610d8160208501610d0f565b9150604084013590509250925092565b600060208284031215610da357600080fd5b610dac82610d0f565b9392505050565b60008060408385031215610dc657600080fd5b610dcf83610d0f565b9150610ddd60208401610d0f565b90509250929050565b600181811c90821680610dfa57607f821691505b602082108103610e1a57634e487b7160e01b600052602260045260246000fd5b50919050565b60008219821115610e4157634e487b7160e01b600052601160045260246000fd5b50019056fea2646970667358221220de379f1ec611d76cf81bf0be134ede8301d82780615da6e83e96f33885afd00a64736f6c634300080d0033",
    "linkReferences": {}
  },
  "methodIdentifiers": {
    "allowAdminBurn()": "cbd9574e",
    "allowAdminTransfer()": "3e38eeaf",
    "allowance(address,address)": "dd62ed3e",
    "approve(address,uint256)": "095ea7b3",
    "balanceOf(address)": "70a08231",
    "burn(address)": "89afcb44",
    "decimals()": "313ce567",
    "decreaseAllowance(address,uint256)": "a457c2d7",
    "increaseAllowance(address,uint256)": "39509351",
    "mint(address)": "6a627842",
    "name()": "06fdde03",
    "owner()": "8da5cb5b",
    "renounceOwnership()": "715018a6",
    "symbol()": "95d89b41",
    "totalSupply()": "18160ddd",
    "transfer(address,uint256)": "a9059cbb",
    "transferFrom(address,address,uint256)": "23b872dd",
    "transferOwnership(address)": "f2fde38b"
  },
  "id": 19
}