{
  "abi": [
    {
      "inputs": [
        {
          "internalType": "address[]",
          "name": "_admins",
          "type": "address[]"
        },
        {
          "internalType": "uint256",
          "name": "_totalSupply",
          "type": "uint256"
        }
      ],
      "stateMutability": "nonpayable",
      "type": "constructor"
    },
    {
      "anonymous": false,
      "inputs": [
        {
          "indexed": false,
          "internalType": "address",
          "name": "userAddress",
          "type": "address"
        },
        {
          "indexed": false,
          "internalType": "uint256",
          "name": "tier",
          "type": "uint256"
        }
      ],
      "name": "AddedToWhitelist",
      "type": "event"
    },
    {
      "anonymous": false,
      "inputs": [
        {
          "indexed": true,
          "internalType": "address",
          "name": "previousOwner",
          "type": "address"
        },
        {
          "indexed": true,
          "internalType": "address",
          "name": "newOwner",
          "type": "address"
        }
      ],
      "name": "OwnershipTransferred",
      "type": "event"
    },
    {
      "anonymous": false,
      "inputs": [
        {
          "indexed": false,
          "internalType": "address",
          "name": "admin",
          "type": "address"
        },
        {
          "indexed": false,
          "internalType": "uint256",
          "name": "ID",
          "type": "uint256"
        },
        {
          "indexed": false,
          "internalType": "uint256",
          "name": "amount",
          "type": "uint256"
        }
      ],
      "name": "PaymentUpdated",
      "type": "event"
    },
    {
      "anonymous": false,
      "inputs": [
        {
          "indexed": false,
          "internalType": "address",
          "name": "recipient",
          "type": "address"
        },
        {
          "indexed": false,
          "internalType": "uint256",
          "name": "amount",
          "type": "uint256"
        }
      ],
      "name": "Transfer",
      "type": "event"
    },
    {
      "anonymous": false,
      "inputs": [
        {
          "indexed": true,
          "internalType": "address",
          "name": "",
          "type": "address"
        }
      ],
      "name": "WhiteListTransfer",
      "type": "event"
    },
    {
      "inputs": [
        {
          "internalType": "address",
          "name": "_userAddrs",
          "type": "address"
        },
        {
          "internalType": "uint8",
          "name": "_tier",
          "type": "uint8"
        }
      ],
      "name": "addToWhitelist",
      "outputs": [],
      "stateMutability": "nonpayable",
      "type": "function"
    },
    {
      "inputs": [
        {
          "internalType": "uint256",
          "name": "",
          "type": "uint256"
        }
      ],
      "name": "administrators",
      "outputs": [
        {
          "internalType": "address",
          "name": "",
          "type": "address"
        }
      ],
      "stateMutability": "view",
      "type": "function"
    },
    {
      "inputs": [
        {
          "internalType": "address",
          "name": "_user",
          "type": "address"
        }
      ],
      "name": "balanceOf",
      "outputs": [
        {
          "internalType": "uint256",
          "name": "balance_",
          "type": "uint256"
        }
      ],
      "stateMutability": "view",
      "type": "function"
    },
    {
      "inputs": [
        {
          "internalType": "address",
          "name": "_user",
          "type": "address"
        }
      ],
      "name": "checkForAdmin",
      "outputs": [
        {
          "internalType": "bool",
          "name": "admin_",
          "type": "bool"
        }
      ],
      "stateMutability": "view",
      "type": "function"
    },
    {
      "inputs": [
        {
          "internalType": "address",
          "name": "_user",
          "type": "address"
        }
      ],
      "name": "getPayments",
      "outputs": [
        {
          "components": [
            {
              "internalType": "enum GasContract.PaymentType",
              "name": "paymentType",
              "type": "uint8"
            },
            {
              "internalType": "uint256",
              "name": "paymentID",
              "type": "uint256"
            },
            {
              "internalType": "address",
              "name": "recipient",
              "type": "address"
            },
            {
              "internalType": "uint256",
              "name": "amount",
              "type": "uint256"
            }
          ],
          "internalType": "struct GasContract.Payment[]",
          "name": "payments_",
          "type": "tuple[]"
        }
      ],
      "stateMutability": "view",
      "type": "function"
    },
    {
      "inputs": [],
      "name": "getTradingMode",
      "outputs": [
        {
          "internalType": "bool",
          "name": "mode_",
          "type": "bool"
        }
      ],
      "stateMutability": "pure",
      "type": "function"
    },
    {
      "inputs": [],
      "name": "owner",
      "outputs": [
        {
          "internalType": "address",
          "name": "",
          "type": "address"
        }
      ],
      "stateMutability": "view",
      "type": "function"
    },
    {
      "inputs": [],
      "name": "totalSupply",
      "outputs": [
        {
          "internalType": "uint256",
          "name": "",
          "type": "uint256"
        }
      ],
      "stateMutability": "view",
      "type": "function"
    },
    {
      "inputs": [
        {
          "internalType": "address",
          "name": "_recipient",
          "type": "address"
        },
        {
          "internalType": "uint256",
          "name": "_amount",
          "type": "uint256"
        },
        {
          "internalType": "string",
          "name": "_name",
          "type": "string"
        }
      ],
      "name": "transfer",
      "outputs": [],
      "stateMutability": "nonpayable",
      "type": "function"
    },
    {
      "inputs": [
        {
          "internalType": "address",
          "name": "_user",
          "type": "address"
        },
        {
          "internalType": "uint256",
          "name": "_ID",
          "type": "uint256"
        },
        {
          "internalType": "uint256",
          "name": "_amount",
          "type": "uint256"
        },
        {
          "internalType": "enum GasContract.PaymentType",
          "name": "_type",
          "type": "uint8"
        }
      ],
      "name": "updatePayment",
      "outputs": [],
      "stateMutability": "nonpayable",
      "type": "function"
    },
    {
      "inputs": [
        {
          "internalType": "address",
          "name": "",
          "type": "address"
        }
      ],
      "name": "whiteListStruct",
      "outputs": [
        {
          "internalType": "uint256",
          "name": "valueA",
          "type": "uint256"
        },
        {
          "internalType": "uint256",
          "name": "bigValue",
          "type": "uint256"
        },
        {
          "internalType": "uint256",
          "name": "valueB",
          "type": "uint256"
        }
      ],
      "stateMutability": "view",
      "type": "function"
    },
    {
      "inputs": [
        {
          "internalType": "address",
          "name": "_recipient",
          "type": "address"
        },
        {
          "internalType": "uint256",
          "name": "_amount",
          "type": "uint256"
        },
        {
          "components": [
            {
              "internalType": "uint256",
              "name": "valueA",
              "type": "uint256"
            },
            {
              "internalType": "uint256",
              "name": "bigValue",
              "type": "uint256"
            },
            {
              "internalType": "uint256",
              "name": "valueB",
              "type": "uint256"
            }
          ],
          "internalType": "struct GasContract.ImportantStruct",
          "name": "_struct",
          "type": "tuple"
        }
      ],
      "name": "whiteTransfer",
      "outputs": [],
      "stateMutability": "nonpayable",
      "type": "function"
    },
    {
      "inputs": [
        {
          "internalType": "address",
          "name": "",
          "type": "address"
        }
      ],
      "name": "whitelist",
      "outputs": [
        {
          "internalType": "uint8",
          "name": "",
          "type": "uint8"
        }
      ],
      "stateMutability": "view",
      "type": "function"
    }
  ],
  "bytecode": {
    "object": "0x60806040526000600955612710600a553480156200001c57600080fd5b5060405162001008380380620010088339810160408190526200003f9162000237565b620000536200004d620001b7565b620001bb565b60005b6005811015620001ae578281815181106200008157634e487b7160e01b600052603260045260246000fd5b602002602001015160048260058110620000ab57634e487b7160e01b600052603260045260246000fd5b0180546001600160a01b0319166001600160a01b0392909216919091179055620000d46200020b565b6001600160a01b0316838281518110620000fe57634e487b7160e01b600052603260045260246000fd5b60200260200101516001600160a01b0316141562000145578160036000620001256200020b565b6001600160a01b0316815260208101919091526040016000205562000199565b6000600360008584815181106200016c57634e487b7160e01b600052603260045260246000fd5b60200260200101516001600160a01b03166001600160a01b03168152602001908152602001600020819055505b80620001a5816200030d565b91505062000056565b5050506200034b565b3390565b600080546001600160a01b038381166001600160a01b0319831681178455604051919092169283917f8be0079c531659141344cd1fd0a4f28419497f9722a3daafe3b4186f6b6457e09190a35050565b6000546001600160a01b031690565b80516001600160a01b03811681146200023257600080fd5b919050565b600080604083850312156200024a578182fd5b82516001600160401b038082111562000261578384fd5b818501915085601f83011262000275578384fd5b81516020828211156200028c576200028c62000335565b80820260405182828201018181108682111715620002ae57620002ae62000335565b604052838152828101945085830182870184018b1015620002cd578889fd5b8896505b84871015620002fa57620002e5816200021a565b865260019690960195948301948301620002d1565b5097909101519698969750505050505050565b60006000198214156200032e57634e487b7160e01b81526011600452602481fd5b5060010190565b634e487b7160e01b600052604160045260246000fd5b610cad806200035b6000396000f3fe608060405234801561001057600080fd5b50600436106100cf5760003560e01c80635de458131161008c5780639a9f8383116100665780639a9f8383146101aa5780639b19251a146101bf578063b52d15e2146101df578063d89d1510146101f2576100cf565b80635de458131461016057806370a08231146101825780638da5cb5b14610195576100cf565b80630263b858146100d457806318160ddd146100e95780631d6a17111461010757806327df565a146101275780634e86eb161461013a57806356b8c7241461014d575b600080fd5b6100e76100e2366004610a99565b610205565b005b6100f16102d9565b6040516100fe9190610bea565b60405180910390f35b61011a610115366004610919565b6102df565b6040516100fe9190610b56565b6100e76101353660046109bc565b6103d6565b6100e7610148366004610a4f565b6104c6565b6100e761015b36600461093a565b61069e565b61017361016e366004610919565b610810565b6040516100fe93929190610bf3565b6100f1610190366004610919565b610831565b61019d61084c565b6040516100fe9190610aec565b6101b261085b565b6040516100fe9190610bdf565b6101d26101cd366004610919565b610860565b6040516100fe9190610c09565b6101b26101ed366004610919565b610875565b61019d610200366004610ad4565b6108de565b61020d61084c565b6001600160a01b031661021e6108fe565b6001600160a01b0316148061023957506102396101ed6108fe565b61024257600080fd5b60038160ff161115610276576001600160a01b0382166000908152600260205260409020805460ff1916600317905561029c565b6001600160a01b0382166000908152600260205260409020805460ff191660ff83161790555b7f62c1e066774519db9fe35767c15fc33df2f016675b7cc0c330ed185f286a2d5282826040516102cd929190610b3a565b60405180910390a15050565b600a5481565b6001600160a01b0381166000908152600160209081526040808320805482518185028101850190935280835260609492939192909184015b828210156103ca57838290600052602060002090600402016040518060800160405290816000820160009054906101000a900460ff16600481111561036c57634e487b7160e01b600052602160045260246000fd5b600481111561038b57634e487b7160e01b600052602160045260246000fd5b815260018281015460208084019190915260028401546001600160a01b0316604084015260039093015460609092019190915291835292019101610317565b5050505090505b919050565b336000908152600260205260408120546103f39060ff1684610c2f565b33600090815260036020526040812080549293508392909190610417908490610c2f565b90915550506001600160a01b03841660009081526003602052604081208054839290610444908490610c17565b9091555050604080516060810182528351815260208085015181830190815285840151838501908152336000908152600b90935284832093518455905160018401555160029092019190915590516001600160a01b038616917f98eaee7299e9cbfa56cf530fd3a0c6dfa0ccddf4f837b8f025651ad9594647b391a250505050565b6104ce61084c565b6001600160a01b03166104df6108fe565b6001600160a01b031614806104fa57506104fa6101ed6108fe565b61050357600080fd5b60005b6001600160a01b038516600090815260016020526040902054811015610697576001600160a01b038516600090815260016020526040902080548591908390811061056157634e487b7160e01b600052603260045260246000fd5b9060005260206000209060040201600101541415610685576001600160a01b03851660009081526001602052604090208054839190839081106105b457634e487b7160e01b600052603260045260246000fd5b906000526020600020906004020160000160006101000a81548160ff021916908360048111156105f457634e487b7160e01b600052602160045260246000fd5b02179055506001600160a01b038516600090815260016020526040902080548491908390811061063457634e487b7160e01b600052603260045260246000fd5b9060005260206000209060040201600301819055507fae1997e8e915082c17693d6b139ad136b33496f726f767e24865dcaa4e1f453b33858560405161067c93929190610b19565b60405180910390a15b8061068f81610c46565b915050610506565b5050505050565b33600090815260036020526040812080548592906106bd908490610c2f565b90915550506001600160a01b038416600090815260036020526040812080548592906106ea908490610c17565b90915550506040517f69ca02dd4edd7bf0a4abb9ed3b7af3f14778db5d61921c7dc7cd545266326de2906107219086908690610b00565b60405180910390a13360009081526001602081905260409182902082516080810190935291908190815260200160096000815461075d90610c46565b918290555081526001600160a01b0387166020808301919091526040909101869052825460018181018555600094855291909320825160049485029091018054939490939192849260ff19169184908111156107c957634e487b7160e01b600052602160045260246000fd5b02179055506020820151600182015560408201516002820180546001600160a01b0319166001600160a01b0390921691909117905560609091015160039091015550505050565b600b6020526000908152604090208054600182015460029092015490919083565b6001600160a01b031660009081526003602052604090205490565b6000546001600160a01b031690565b600190565b60026020526000908152604090205460ff1681565b6000805b60058110156108d557826001600160a01b0316600482600581106108ad57634e487b7160e01b600052603260045260246000fd5b01546001600160a01b031614156108c357600191505b806108cd81610c46565b915050610879565b50600092915050565b600481600581106108ee57600080fd5b01546001600160a01b0316905081565b3390565b80356001600160a01b03811681146103d157600080fd5b60006020828403121561092a578081fd5b61093382610902565b9392505050565b6000806000806060858703121561094f578283fd5b61095885610902565b935060208501359250604085013567ffffffffffffffff8082111561097b578384fd5b818701915087601f83011261098e578384fd5b81358181111561099c578485fd5b8860208285010111156109ad578485fd5b95989497505060200194505050565b600080600083850360a08112156109d1578384fd5b6109da85610902565b9350602085013592506060603f19820112156109f4578182fd5b506040516060810181811067ffffffffffffffff82111715610a2457634e487b7160e01b83526041600452602483fd5b8060405250604085013581526060850135602082015260808501356040820152809150509250925092565b60008060008060808587031215610a64578384fd5b610a6d85610902565b93506020850135925060408501359150606085013560058110610a8e578182fd5b939692955090935050565b60008060408385031215610aab578182fd5b610ab483610902565b9150602083013560ff81168114610ac9578182fd5b809150509250929050565b600060208284031215610ae5578081fd5b5035919050565b6001600160a01b0391909116815260200190565b6001600160a01b03929092168252602082015260400190565b6001600160a01b039390931683526020830191909152604082015260600190565b6001600160a01b0392909216825260ff16602082015260400190565b602080825282518282018190526000919060409081850190868401855b82811015610bd2578151805160058110610b9b57634e487b7160e01b89526021600452602489fd5b85528087015187860152858101516001600160a01b0316868601526060908101519085015260809093019290850190600101610b73565b5091979650505050505050565b901515815260200190565b90815260200190565b9283526020830191909152604082015260600190565b60ff91909116815260200190565b60008219821115610c2a57610c2a610c61565b500190565b600082821015610c4157610c41610c61565b500390565b6000600019821415610c5a57610c5a610c61565b5060010190565b634e487b7160e01b600052601160045260246000fdfea2646970667358221220f4c359d76bc873fab34bcb9047e35def9fd542706d848dcf976626887c1543bb64736f6c63430008000033",
    "linkReferences": {}
  },
  "methodIdentifiers": {
    "addToWhitelist(address,uint8)": "0263b858",
    "administrators(uint256)": "d89d1510",
    "balanceOf(address)": "70a08231",
    "checkForAdmin(address)": "b52d15e2",
    "getPayments(address)": "1d6a1711",
    "getTradingMode()": "9a9f8383",
    "owner()": "8da5cb5b",
    "totalSupply()": "18160ddd",
    "transfer(address,uint256,string)": "56b8c724",
    "updatePayment(address,uint256,uint256,uint8)": "4e86eb16",
    "whiteListStruct(address)": "5de45813",
    "whiteTransfer(address,uint256,(uint256,uint256,uint256))": "27df565a",
    "whitelist(address)": "9b19251a"
  },
  "id": 0
}