{
  "abi": [
    {
      "inputs": [
        {
          "internalType": "address[]",
          "name": "priceFeeds",
          "type": "address[]"
        },
        {
          "internalType": "address[]",
          "name": "tokens",
          "type": "address[]"
        },
        {
          "internalType": "address",
          "name": "baseToken",
          "type": "address"
        }
      ],
      "name": "calculateNAV",
      "outputs": [
        {
          "internalType": "int256",
          "name": "nav",
          "type": "int256"
        }
      ],
      "stateMutability": "view",
      "type": "function"
    },
    {
      "inputs": [
        {
          "internalType": "address",
          "name": "priceFeed",
          "type": "address"
        }
      ],
      "name": "getV3Price",
      "outputs": [
        {
          "internalType": "int256",
          "name": "price",
          "type": "int256"
        }
      ],
      "stateMutability": "view",
      "type": "function"
    }
  ],
  "bytecode": {
    "object": "0x608060405234801561001057600080fd5b50610556806100206000396000f3fe608060405234801561001057600080fd5b50600436106100365760003560e01c8063c75373c91461003b578063e4ffaa4a14610060575b600080fd5b61004e6100493660046102ce565b610073565b60405190815260200160405180910390f35b61004e61006e36600461033c565b6100e2565b6000816001600160a01b031663feaf968c6040518163ffffffff1660e01b815260040160a060405180830381865afa1580156100b3573d6000803e3d6000fd5b505050506040513d601f19601f820116820180604052508101906100d791906103d7565b509195945050505050565b60008060005b86811015610223578060000361014757333161012c6101278a8a858181106101125761011261041b565b905060200201602081019061004991906102ce565b61029b565b6101369190610447565b6101409083610477565b9150610211565b858561015460018461049f565b8181106101635761016361041b565b905060200201602081019061017891906102ce565b6040516370a0823160e01b81523360048201526001600160a01b0391909116906370a0823190602401602060405180830381865afa1580156101be573d6000803e3d6000fd5b505050506040513d601f19601f820116820180604052508101906101e291906104b2565b6101fa6101278a8a858181106101125761011261041b565b6102049190610447565b61020e9083610477565b91505b8061021b816104cb565b9150506100e8565b50826001600160a01b03166318160ddd6040518163ffffffff1660e01b8152600401602060405180830381865afa158015610262573d6000803e3d6000fd5b505050506040513d601f19601f8201168201806040525081019061028691906104b2565b61029090826104e4565b979650505050505050565b60006102ac826402540be400610447565b92915050565b80356001600160a01b03811681146102c957600080fd5b919050565b6000602082840312156102e057600080fd5b6102e9826102b2565b9392505050565b60008083601f84011261030257600080fd5b50813567ffffffffffffffff81111561031a57600080fd5b6020830191508360208260051b850101111561033557600080fd5b9250929050565b60008060008060006060868803121561035457600080fd5b853567ffffffffffffffff8082111561036c57600080fd5b61037889838a016102f0565b9097509550602088013591508082111561039157600080fd5b5061039e888289016102f0565b90945092506103b19050604087016102b2565b90509295509295909350565b805169ffffffffffffffffffff811681146102c957600080fd5b600080600080600060a086880312156103ef57600080fd5b6103f8866103bd565b94506020860151935060408601519250606086015191506103b1608087016103bd565b634e487b7160e01b600052603260045260246000fd5b634e487b7160e01b600052601160045260246000fd5b80820260008212600160ff1b8414161561046357610463610431565b81810583148215176102ac576102ac610431565b808201828112600083128015821682158216171561049757610497610431565b505092915050565b818103818111156102ac576102ac610431565b6000602082840312156104c457600080fd5b5051919050565b6000600182016104dd576104dd610431565b5060010190565b60008261050157634e487b7160e01b600052601260045260246000fd5b600160ff1b82146000198414161561051b5761051b610431565b50059056fea26469706673582212204c9997f75ff13489eaee5c44add457a0238d6abc974977aa2e3a300ec73b85ad64736f6c63430008110033",
    "linkReferences": {}
  },
  "methodIdentifiers": {
    "calculateNAV(address[],address[],address)": "e4ffaa4a",
    "getV3Price(address)": "c75373c9"
  },
  "id": 21
}