{
  "abi": [
    {
      "anonymous": false,
      "inputs": [
        {
          "indexed": true,
          "internalType": "address",
          "name": "user",
          "type": "address"
        },
        {
          "indexed": true,
          "internalType": "address",
          "name": "newOwner",
          "type": "address"
        }
      ],
      "name": "OwnershipTransferred",
      "type": "event"
    },
    {
      "inputs": [
        {
          "internalType": "address[]",
          "name": "_priceFeeds",
          "type": "address[]"
        },
        {
          "internalType": "address",
          "name": "_baseToken",
          "type": "address"
        }
      ],
      "name": "calculateNAV",
      "outputs": [
        {
          "internalType": "int256",
          "name": "nav",
          "type": "int256"
        }
      ],
      "stateMutability": "view",
      "type": "function"
    },
    {
      "inputs": [
        {
          "internalType": "address",
          "name": "priceFeed",
          "type": "address"
        }
      ],
      "name": "getV2Price",
      "outputs": [
        {
          "internalType": "int256",
          "name": "price",
          "type": "int256"
        }
      ],
      "stateMutability": "view",
      "type": "function"
    },
    {
      "inputs": [
        {
          "internalType": "address",
          "name": "priceFeed",
          "type": "address"
        }
      ],
      "name": "getV3Price",
      "outputs": [
        {
          "internalType": "int256",
          "name": "price",
          "type": "int256"
        }
      ],
      "stateMutability": "view",
      "type": "function"
    },
    {
      "inputs": [],
      "name": "owner",
      "outputs": [
        {
          "internalType": "address",
          "name": "",
          "type": "address"
        }
      ],
      "stateMutability": "view",
      "type": "function"
    },
    {
      "inputs": [
        {
          "internalType": "address",
          "name": "_priceFeed",
          "type": "address"
        },
        {
          "internalType": "bool",
          "name": "_isV3",
          "type": "bool"
        }
      ],
      "name": "registerPriceFeed",
      "outputs": [],
      "stateMutability": "nonpayable",
      "type": "function"
    },
    {
      "inputs": [
        {
          "internalType": "address",
          "name": "newOwner",
          "type": "address"
        }
      ],
      "name": "transferOwnership",
      "outputs": [],
      "stateMutability": "nonpayable",
      "type": "function"
    }
  ],
  "bytecode": {
    "object": "0x608060405234801561001057600080fd5b50600080546001600160a01b031916339081178255604051909182917f8be0079c531659141344cd1fd0a4f28419497f9722a3daafe3b4186f6b6457e0908290a3506107d6806100616000396000f3fe608060405234801561001057600080fd5b50600436106100625760003560e01c8063663f8f4f1461006757806373fc2f1b1461008d5780638da5cb5b146100a0578063b52f6657146100cb578063c75373c9146100e0578063f2fde38b146100f3575b600080fd5b61007a610075366004610544565b610106565b6040519081526020015b60405180910390f35b61007a61009b3660046105c8565b610347565b6000546100b3906001600160a01b031681565b6040516001600160a01b039091168152602001610084565b6100de6100d93660046105ea565b6103b1565b005b61007a6100ee3660046105c8565b610425565b6100de6101013660046105c8565b610494565b60008060005b848110156102d1576001600087878481811061012a5761012a610626565b905060200201602081019061013f91906105c8565b6001600160a01b0316815260208101919091526040016000205460ff16156101985761018b86868381811061017657610176610626565b90506020020160208101906100ee91906105c8565b6101959083610652565b91505b600160008787848181106101ae576101ae610626565b90506020020160208101906101c391906105c8565b6001600160a01b0316815260208101919091526040016000205460ff1661021f5761020e8686838181106101f9576101f9610626565b905060200201602081019061009b91906105c8565b6102189083610652565b91506102bf565b85858281811061023157610231610626565b905060200201602081019061024691906105c8565b6040805160208101829052601860608201527f4e6f6e2d7265676973746572656420616464726573733a20000000000000000060808201526001600160a01b039092169082015260a00160408051601f198184030181529082905262461bcd60e51b82526102b69160040161067a565b60405180910390fd5b806102c9816106c8565b91505061010c565b50826001600160a01b03166318160ddd6040518163ffffffff1660e01b8152600401602060405180830381865afa158015610310573d6000803e3d6000fd5b505050506040513d601f19601f8201168201806040525081019061033491906106e1565b61033e90826106fa565b95945050505050565b6000816001600160a01b03166350d25bcd6040518163ffffffff1660e01b8152600401602060405180830381865afa158015610387573d6000803e3d6000fd5b505050506040513d601f19601f820116820180604052508101906103ab91906106e1565b92915050565b6000546001600160a01b031633146103fa5760405162461bcd60e51b815260206004820152600c60248201526b15539055551213d49256915160a21b60448201526064016102b6565b6001600160a01b03919091166000908152600160205260409020805460ff1916911515919091179055565b6000816001600160a01b031663feaf968c6040518163ffffffff1660e01b815260040160a060405180830381865afa158015610465573d6000803e3d6000fd5b505050506040513d601f19601f820116820180604052508101906104899190610750565b509195945050505050565b6000546001600160a01b031633146104dd5760405162461bcd60e51b815260206004820152600c60248201526b15539055551213d49256915160a21b60448201526064016102b6565b600080546001600160a01b0319166001600160a01b0383169081178255604051909133917f8be0079c531659141344cd1fd0a4f28419497f9722a3daafe3b4186f6b6457e09190a350565b80356001600160a01b038116811461053f57600080fd5b919050565b60008060006040848603121561055957600080fd5b833567ffffffffffffffff8082111561057157600080fd5b818601915086601f83011261058557600080fd5b81358181111561059457600080fd5b8760208260051b85010111156105a957600080fd5b6020928301955093506105bf9186019050610528565b90509250925092565b6000602082840312156105da57600080fd5b6105e382610528565b9392505050565b600080604083850312156105fd57600080fd5b61060683610528565b91506020830135801515811461061b57600080fd5b809150509250929050565b634e487b7160e01b600052603260045260246000fd5b634e487b7160e01b600052601160045260246000fd5b80820182811260008312801582168215821617156106725761067261063c565b505092915050565b600060208083528351808285015260005b818110156106a75785810183015185820160400152820161068b565b506000604082860101526040601f19601f8301168501019250505092915050565b6000600182016106da576106da61063c565b5060010190565b6000602082840312156106f357600080fd5b5051919050565b60008261071757634e487b7160e01b600052601260045260246000fd5b600160ff1b8214600019841416156107315761073161063c565b500590565b805169ffffffffffffffffffff8116811461053f57600080fd5b600080600080600060a0868803121561076857600080fd5b61077186610736565b945060208601519350604086015192506060860151915061079460808701610736565b9050929550929590935056fea2646970667358221220b7c58ab57dae8fe4322a6f5e3cf90c4afb1578c3ca4663ddf324adf2bd608b1864736f6c63430008110033",
    "linkReferences": {}
  },
  "methodIdentifiers": {
    "calculateNAV(address[],address)": "663f8f4f",
    "getV2Price(address)": "73fc2f1b",
    "getV3Price(address)": "c75373c9",
    "owner()": "8da5cb5b",
    "registerPriceFeed(address,bool)": "b52f6657",
    "transferOwnership(address)": "f2fde38b"
  },
  "id": 23
}