{
  "abi": [
    {
      "inputs": [
        {
          "internalType": "string",
          "name": "_name",
          "type": "string"
        },
        {
          "internalType": "string",
          "name": "_symbol",
          "type": "string"
        }
      ],
      "stateMutability": "nonpayable",
      "type": "constructor"
    },
    {
      "anonymous": false,
      "inputs": [
        {
          "indexed": true,
          "internalType": "address",
          "name": "owner",
          "type": "address"
        },
        {
          "indexed": true,
          "internalType": "address",
          "name": "spender",
          "type": "address"
        },
        {
          "indexed": true,
          "internalType": "uint256",
          "name": "id",
          "type": "uint256"
        }
      ],
      "name": "Approval",
      "type": "event"
    },
    {
      "anonymous": false,
      "inputs": [
        {
          "indexed": true,
          "internalType": "address",
          "name": "owner",
          "type": "address"
        },
        {
          "indexed": true,
          "internalType": "address",
          "name": "operator",
          "type": "address"
        },
        {
          "indexed": false,
          "internalType": "bool",
          "name": "approved",
          "type": "bool"
        }
      ],
      "name": "ApprovalForAll",
      "type": "event"
    },
    {
      "anonymous": false,
      "inputs": [
        {
          "indexed": true,
          "internalType": "address",
          "name": "from",
          "type": "address"
        },
        {
          "indexed": true,
          "internalType": "address",
          "name": "to",
          "type": "address"
        },
        {
          "indexed": true,
          "internalType": "uint256",
          "name": "id",
          "type": "uint256"
        }
      ],
      "name": "Transfer",
      "type": "event"
    },
    {
      "inputs": [],
      "name": "MAX_SUPPLY",
      "outputs": [
        {
          "internalType": "uint256",
          "name": "",
          "type": "uint256"
        }
      ],
      "stateMutability": "view",
      "type": "function"
    },
    {
      "inputs": [],
      "name": "PRICE",
      "outputs": [
        {
          "internalType": "uint256",
          "name": "",
          "type": "uint256"
        }
      ],
      "stateMutability": "view",
      "type": "function"
    },
    {
      "inputs": [
        {
          "internalType": "address",
          "name": "spender",
          "type": "address"
        },
        {
          "internalType": "uint256",
          "name": "id",
          "type": "uint256"
        }
      ],
      "name": "approve",
      "outputs": [],
      "stateMutability": "nonpayable",
      "type": "function"
    },
    {
      "inputs": [
        {
          "internalType": "address",
          "name": "owner",
          "type": "address"
        }
      ],
      "name": "balanceOf",
      "outputs": [
        {
          "internalType": "uint256",
          "name": "",
          "type": "uint256"
        }
      ],
      "stateMutability": "view",
      "type": "function"
    },
    {
      "inputs": [
        {
          "internalType": "uint256",
          "name": "",
          "type": "uint256"
        }
      ],
      "name": "getApproved",
      "outputs": [
        {
          "internalType": "address",
          "name": "",
          "type": "address"
        }
      ],
      "stateMutability": "view",
      "type": "function"
    },
    {
      "inputs": [
        {
          "internalType": "address",
          "name": "",
          "type": "address"
        },
        {
          "internalType": "address",
          "name": "",
          "type": "address"
        }
      ],
      "name": "isApprovedForAll",
      "outputs": [
        {
          "internalType": "bool",
          "name": "",
          "type": "bool"
        }
      ],
      "stateMutability": "view",
      "type": "function"
    },
    {
      "inputs": [
        {
          "internalType": "address",
          "name": "_calcNav",
          "type": "address"
        }
      ],
      "name": "mintWithEth",
      "outputs": [],
      "stateMutability": "payable",
      "type": "function"
    },
    {
      "inputs": [],
      "name": "name",
      "outputs": [
        {
          "internalType": "string",
          "name": "",
          "type": "string"
        }
      ],
      "stateMutability": "view",
      "type": "function"
    },
    {
      "inputs": [
        {
          "internalType": "uint256",
          "name": "id",
          "type": "uint256"
        }
      ],
      "name": "ownerOf",
      "outputs": [
        {
          "internalType": "address",
          "name": "owner",
          "type": "address"
        }
      ],
      "stateMutability": "view",
      "type": "function"
    },
    {
      "inputs": [
        {
          "internalType": "address",
          "name": "from",
          "type": "address"
        },
        {
          "internalType": "address",
          "name": "to",
          "type": "address"
        },
        {
          "internalType": "uint256",
          "name": "id",
          "type": "uint256"
        }
      ],
      "name": "safeTransferFrom",
      "outputs": [],
      "stateMutability": "nonpayable",
      "type": "function"
    },
    {
      "inputs": [
        {
          "internalType": "address",
          "name": "from",
          "type": "address"
        },
        {
          "internalType": "address",
          "name": "to",
          "type": "address"
        },
        {
          "internalType": "uint256",
          "name": "id",
          "type": "uint256"
        },
        {
          "internalType": "bytes",
          "name": "data",
          "type": "bytes"
        }
      ],
      "name": "safeTransferFrom",
      "outputs": [],
      "stateMutability": "nonpayable",
      "type": "function"
    },
    {
      "inputs": [
        {
          "internalType": "address",
          "name": "operator",
          "type": "address"
        },
        {
          "internalType": "bool",
          "name": "approved",
          "type": "bool"
        }
      ],
      "name": "setApprovalForAll",
      "outputs": [],
      "stateMutability": "nonpayable",
      "type": "function"
    },
    {
      "inputs": [
        {
          "internalType": "uint256",
          "name": "",
          "type": "uint256"
        }
      ],
      "name": "spokes",
      "outputs": [
        {
          "internalType": "address",
          "name": "",
          "type": "address"
        }
      ],
      "stateMutability": "view",
      "type": "function"
    },
    {
      "inputs": [
        {
          "internalType": "bytes4",
          "name": "interfaceId",
          "type": "bytes4"
        }
      ],
      "name": "supportsInterface",
      "outputs": [
        {
          "internalType": "bool",
          "name": "",
          "type": "bool"
        }
      ],
      "stateMutability": "view",
      "type": "function"
    },
    {
      "inputs": [],
      "name": "symbol",
      "outputs": [
        {
          "internalType": "string",
          "name": "",
          "type": "string"
        }
      ],
      "stateMutability": "view",
      "type": "function"
    },
    {
      "inputs": [
        {
          "internalType": "uint256",
          "name": "id",
          "type": "uint256"
        }
      ],
      "name": "tokenURI",
      "outputs": [
        {
          "internalType": "string",
          "name": "",
          "type": "string"
        }
      ],
      "stateMutability": "view",
      "type": "function"
    },
    {
      "inputs": [],
      "name": "totalSupply",
      "outputs": [
        {
          "internalType": "uint256",
          "name": "",
          "type": "uint256"
        }
      ],
      "stateMutability": "view",
      "type": "function"
    },
    {
      "inputs": [
        {
          "internalType": "address",
          "name": "from",
          "type": "address"
        },
        {
          "internalType": "address",
          "name": "to",
          "type": "address"
        },
        {
          "internalType": "uint256",
          "name": "id",
          "type": "uint256"
        }
      ],
      "name": "transferFrom",
      "outputs": [],
      "stateMutability": "nonpayable",
      "type": "function"
    }
  ],
  "bytecode": {
    "object": "0x60806040523480156200001157600080fd5b506040516200318a3803806200318a833981016040819052620000349162000127565b81818181600062000046838262000220565b50600162000055828262000220565b50505050505050620002ec565b634e487b7160e01b600052604160045260246000fd5b600082601f8301126200008a57600080fd5b81516001600160401b0380821115620000a757620000a762000062565b604051601f8301601f19908116603f01168101908282118183101715620000d257620000d262000062565b81604052838152602092508683858801011115620000ef57600080fd5b600091505b83821015620001135785820183015181830184015290820190620000f4565b600093810190920192909252949350505050565b600080604083850312156200013b57600080fd5b82516001600160401b03808211156200015357600080fd5b620001618683870162000078565b935060208501519150808211156200017857600080fd5b50620001878582860162000078565b9150509250929050565b600181811c90821680620001a657607f821691505b602082108103620001c757634e487b7160e01b600052602260045260246000fd5b50919050565b601f8211156200021b57600081815260208120601f850160051c81016020861015620001f65750805b601f850160051c820191505b81811015620002175782815560010162000202565b5050505b505050565b81516001600160401b038111156200023c576200023c62000062565b62000254816200024d845462000191565b84620001cd565b602080601f8311600181146200028c5760008415620002735750858301515b600019600386901b1c1916600185901b17855562000217565b600085815260208120601f198616915b82811015620002bd578886015182559484019460019091019084016200029c565b5085821015620002dc5787850151600019600388901b60f8161c191681555b5050505050600190811b01905550565b612e8e80620002fc6000396000f3fe6080604052600436106200011f5760003560e01c806370a0823111620000a1578063a22cb465116200006c578063a22cb465146200031e578063b88d4fde1462000343578063c87b56dd1462000368578063e985e9c5146200038d578063ea6ced1914620003cc57600080fd5b806370a0823114620002ad57806376e98d3314620002d25780638d859f3e14620002e957806395d89b41146200030657600080fd5b806318160ddd11620000ee57806318160ddd14620001ff57806323b872dd146200022657806332cb6b0c146200024b57806342842e0e14620002635780636352211e146200028857600080fd5b806301ffc9a7146200012457806306fdde03146200015e578063081812fc1462000185578063095ea7b314620001d8575b600080fd5b3480156200013157600080fd5b50620001496200014336600462000f20565b62000406565b60405190151581526020015b60405180910390f35b3480156200016b57600080fd5b50620001766200045a565b60405162000155919062000f6d565b3480156200019257600080fd5b50620001bf620001a436600462000fa2565b6004602052600090815260409020546001600160a01b031681565b6040516001600160a01b03909116815260200162000155565b348015620001e557600080fd5b50620001fd620001f736600462000fd4565b620004f0565b005b3480156200020c57600080fd5b506200021760075481565b60405190815260200162000155565b3480156200023357600080fd5b50620001fd6200024536600462001001565b620005d9565b3480156200025857600080fd5b506200021761080081565b3480156200027057600080fd5b50620001fd6200028236600462001001565b62000659565b3480156200029557600080fd5b50620001bf620002a736600462000fa2565b62000759565b348015620002ba57600080fd5b5062000217620002cc36600462001042565b620007b2565b620001fd620002e336600462001042565b62000817565b348015620002f657600080fd5b506200021766470de4df82000081565b3480156200031357600080fd5b5062000176620008e7565b3480156200032b57600080fd5b50620001fd6200033d36600462001060565b620008f6565b3480156200035057600080fd5b50620001fd62000362366004620010a0565b62000962565b3480156200037557600080fd5b50620001766200038736600462000fa2565b62000a54565b3480156200039a57600080fd5b5062000149620003ac36600462001144565b600560209081526000928352604080842090915290825290205460ff1681565b348015620003d957600080fd5b50620001bf620003eb36600462000fa2565b6006602052600090815260409020546001600160a01b031681565b60006301ffc9a760e01b6001600160e01b0319831614806200043857506380ac58cd60e01b6001600160e01b03198316145b80620004545750635b5e139f60e01b6001600160e01b03198316145b92915050565b6000805462000469906200117c565b80601f016020809104026020016040519081016040528092919081815260200182805462000497906200117c565b8015620004e85780601f10620004bc57610100808354040283529160200191620004e8565b820191906000526020600020905b815481529060010190602001808311620004ca57829003601f168201915b505050505081565b6000818152600260205260409020546001600160a01b0316338114806200053a57506001600160a01b038116600090815260056020908152604080832033845290915290205460ff165b6200057d5760405162461bcd60e51b815260206004820152600e60248201526d1393d517d055551213d49256915160921b60448201526064015b60405180910390fd5b60008281526004602052604080822080546001600160a01b0319166001600160a01b0387811691821790925591518593918516917f8c5be1e5ebec7d5bd14f71427d1e84f3dd0314c0f7b2291e5b200ac8c7c3b92591a4505050565b620005e683838362000b29565b600081815260066020526040908190205490516313af403560e01b81526001600160a01b038481166004830152909116906313af403590602401600060405180830381600087803b1580156200063b57600080fd5b505af115801562000650573d6000803e3d6000fd5b50505050505050565b62000666838383620005d9565b6001600160a01b0382163b1580620007135750604051630a85bd0160e11b8082523360048301526001600160a01b03858116602484015260448301849052608060648401526000608484015290919084169063150b7a029060a4016020604051808303816000875af1158015620006e1573d6000803e3d6000fd5b505050506040513d601f19601f82011682018060405250810190620007079190620011b8565b6001600160e01b031916145b620007545760405162461bcd60e51b815260206004820152601060248201526f155394d0519157d49150d2541251539560821b604482015260640162000574565b505050565b6000818152600260205260409020546001600160a01b031680620007ad5760405162461bcd60e51b815260206004820152600a6024820152691393d517d3525395115160b21b604482015260640162000574565b919050565b60006001600160a01b038216620007fb5760405162461bcd60e51b815260206004820152600c60248201526b5a45524f5f4144445245535360a01b604482015260640162000574565b506001600160a01b031660009081526003602052604090205490565b60006007600081546200082a90620011d8565b918290555090503466470de4df820000146200087a5760405162461bcd60e51b815260206004820152600e60248201526d09c9ea8be8a9c9eaa8e90be8aa8960931b604482015260640162000574565b6108008110620008bc5760405162461bcd60e51b815260206004820152600c60248201526b4f55545f4f465f53544f434b60a01b604482015260640162000574565b600880546001600160a01b0319166001600160a01b038416179055620008e3338262000cf8565b5050565b6001805462000469906200117c565b3360008181526005602090815260408083206001600160a01b03871680855290835292819020805460ff191686151590811790915590519081529192917f17307eab39ab6107e8899845ad3d59bd9653f200f220920489ca2b5937696c31910160405180910390a35050565b6200096f858585620005d9565b6001600160a01b0384163b158062000a0c5750604051630a85bd0160e11b808252906001600160a01b0386169063150b7a0290620009ba9033908a9089908990899060040162001200565b6020604051808303816000875af1158015620009da573d6000803e3d6000fd5b505050506040513d601f19601f8201168201806040525081019062000a009190620011b8565b6001600160e01b031916145b62000a4d5760405162461bcd60e51b815260206004820152601060248201526f155394d0519157d49150d2541251539560821b604482015260640162000574565b5050505050565b6000818152600660205260409020546060906001600160a01b031662000aae5760405162461bcd60e51b815260206004820152600e60248201526d1113d154d7d393d517d1561254d560921b604482015260640162000574565b6000828152600660205260408082205481516303c130d960e41b815291516001600160a01b0390911692633c130d9092600480820193918290030181865afa15801562000aff573d6000803e3d6000fd5b505050506040513d6000823e601f3d908101601f191682016040526200045491908101906200126a565b6000818152600260205260409020546001600160a01b0384811691161462000b815760405162461bcd60e51b815260206004820152600a60248201526957524f4e475f46524f4d60b01b604482015260640162000574565b6001600160a01b03821662000bcd5760405162461bcd60e51b81526020600482015260116024820152701253959053125117d49150d25412515395607a1b604482015260640162000574565b336001600160a01b038416148062000c0857506001600160a01b038316600090815260056020908152604080832033845290915290205460ff165b8062000c2a57506000818152600460205260409020546001600160a01b031633145b62000c695760405162461bcd60e51b815260206004820152600e60248201526d1393d517d055551213d49256915160921b604482015260640162000574565b6001600160a01b0380841660008181526003602090815260408083208054600019019055938616808352848320805460010190558583526002825284832080546001600160a01b03199081168317909155600490925284832080549092169091559251849392917fddf252ad1be2c89b69c2b068fc378daa952ba7f163c4a11628f55a4df523b3ef91a4505050565b62000d04828262000de9565b6008546040513491601291600191859133916001600160a01b03169062000d2b9062000ef8565b60e0808252600a908201526929ba30b93a32b922aa2360b11b610100820152610120602082018190526003908201526222aa2360e91b61014082015260ff9095166040860152606085019390935260808401919091526001600160a01b0390811660a08401521660c0820152610160016040518091039082f090508015801562000db9573d6000803e3d6000fd5b5060009182526006602052604090912080546001600160a01b0319166001600160a01b0390921691909117905550565b6001600160a01b03821662000e355760405162461bcd60e51b81526020600482015260116024820152701253959053125117d49150d25412515395607a1b604482015260640162000574565b6000818152600260205260409020546001600160a01b03161562000e8d5760405162461bcd60e51b815260206004820152600e60248201526d1053149150511657d3525395115160921b604482015260640162000574565b6001600160a01b038216600081815260036020908152604080832080546001019055848352600290915280822080546001600160a01b0319168417905551839291907fddf252ad1be2c89b69c2b068fc378daa952ba7f163c4a11628f55a4df523b3ef908290a45050565b611b35806200132483390190565b6001600160e01b03198116811462000f1d57600080fd5b50565b60006020828403121562000f3357600080fd5b813562000f408162000f06565b9392505050565b60005b8381101562000f6457818101518382015260200162000f4a565b50506000910152565b602081526000825180602084015262000f8e81604085016020870162000f47565b601f01601f19169190910160400192915050565b60006020828403121562000fb557600080fd5b5035919050565b80356001600160a01b0381168114620007ad57600080fd5b6000806040838503121562000fe857600080fd5b62000ff38362000fbc565b946020939093013593505050565b6000806000606084860312156200101757600080fd5b620010228462000fbc565b9250620010326020850162000fbc565b9150604084013590509250925092565b6000602082840312156200105557600080fd5b62000f408262000fbc565b600080604083850312156200107457600080fd5b6200107f8362000fbc565b9150602083013580151581146200109557600080fd5b809150509250929050565b600080600080600060808688031215620010b957600080fd5b620010c48662000fbc565b9450620010d46020870162000fbc565b935060408601359250606086013567ffffffffffffffff80821115620010f957600080fd5b818801915088601f8301126200110e57600080fd5b8135818111156200111e57600080fd5b8960208285010111156200113157600080fd5b9699959850939650602001949392505050565b600080604083850312156200115857600080fd5b620011638362000fbc565b9150620011736020840162000fbc565b90509250929050565b600181811c908216806200119157607f821691505b602082108103620011b257634e487b7160e01b600052602260045260246000fd5b50919050565b600060208284031215620011cb57600080fd5b815162000f408162000f06565b600060018201620011f957634e487b7160e01b600052601160045260246000fd5b5060010190565b6001600160a01b038681168252851660208201526040810184905260806060820181905281018290526000828460a0840137600060a0848401015260a0601f19601f85011683010190509695505050505050565b634e487b7160e01b600052604160045260246000fd5b6000602082840312156200127d57600080fd5b815167ffffffffffffffff808211156200129657600080fd5b818401915084601f830112620012ab57600080fd5b815181811115620012c057620012c062001254565b604051601f8201601f19908116603f01168101908382118183101715620012eb57620012eb62001254565b816040528281528760208487010111156200130557600080fd5b6200131883602083016020880162000f47565b97965050505050505056fe61010060405260405162001b3538038062001b35833981016040819052620000279162000300565b81838189898960006200003b84826200044c565b5060016200004a83826200044c565b5060ff81166080524660a0526200006062000115565b60c0525050600680546001600160a01b0319166001600160a01b0384169081179091556040519091506000907f8be0079c531659141344cd1fd0a4f28419497f9722a3daafe3b4186f6b6457e0908290a35060e05250600780546001600160a01b0319163317905534620000d357600080fd5b60008411620000e157600080fd5b600a80546001600160a01b0319166001600160a01b038316179055620001088285620001b1565b50505050505050620005be565b60007f8b73c3c69bb8fe3d512ecc4cf759cc79239f7b179b0ffacaa9a75d522b39400f600060405162000149919062000518565b6040805191829003822060208301939093528101919091527fc89efdaa54c0f20c7adf612882df0950f5a951637e0307cdcb4c672f298b8bc660608201524660808201523060a082015260c00160405160208183030381529060405280519060200120905090565b8060026000828254620001c5919062000596565b90915550506001600160a01b0382166000818152600360209081526040808320805486019055518481527fddf252ad1be2c89b69c2b068fc378daa952ba7f163c4a11628f55a4df523b3ef910160405180910390a35050565b634e487b7160e01b600052604160045260246000fd5b600082601f8301126200024657600080fd5b81516001600160401b03808211156200026357620002636200021e565b604051601f8301601f19908116603f011681019082821181831017156200028e576200028e6200021e565b81604052838152602092508683858801011115620002ab57600080fd5b600091505b83821015620002cf5785820183015181830184015290820190620002b0565b600093810190920192909252949350505050565b80516001600160a01b0381168114620002fb57600080fd5b919050565b600080600080600080600060e0888a0312156200031c57600080fd5b87516001600160401b03808211156200033457600080fd5b620003428b838c0162000234565b985060208a01519150808211156200035957600080fd5b50620003688a828b0162000234565b965050604088015160ff811681146200038057600080fd5b606089015160808a0151919650945092506200039f60a08901620002e3565b9150620003af60c08901620002e3565b905092959891949750929550565b600181811c90821680620003d257607f821691505b602082108103620003f357634e487b7160e01b600052602260045260246000fd5b50919050565b601f8211156200044757600081815260208120601f850160051c81016020861015620004225750805b601f850160051c820191505b8181101562000443578281556001016200042e565b5050505b505050565b81516001600160401b038111156200046857620004686200021e565b6200048081620004798454620003bd565b84620003f9565b602080601f831160018114620004b857600084156200049f5750858301515b600019600386901b1c1916600185901b17855562000443565b600085815260208120601f198616915b82811015620004e957888601518255948401946001909101908401620004c8565b5085821015620005085787850151600019600388901b60f8161c191681555b5050505050600190811b01905550565b60008083546200052881620003bd565b6001828116801562000543576001811462000559576200058a565b60ff19841687528215158302870194506200058a565b8760005260208060002060005b85811015620005815781548a82015290840190820162000566565b50505082870194505b50929695505050505050565b80820180821115620005b857634e487b7160e01b600052601160045260246000fd5b92915050565b60805160a05160c05160e05161153d620005f8600039600061027e0152600061096e015260006109390152600061032e015261153d6000f3fe6080604052600436106101b75760003560e01c806370a08231116100ec578063ba9f712b1161008a578063dd62ed3e11610064578063dd62ed3e14610510578063e0df5b6f14610548578063e3f9ba0e14610568578063f2fde38b1461057057600080fd5b8063ba9f712b146104b0578063c47f0027146104d0578063d505accf146104f057600080fd5b8063926c5c19116100c6578063926c5c191461044657806395d89b411461045b578063a9059cbb14610470578063af8c32d41461049057600080fd5b806370a08231146103cc5780637ecebe00146103f95780638da5cb5b1461042657600080fd5b806323b872dd116101595780633644e515116101335780633644e51514610362578063365a86fc146103775780633c130d90146103975780634f64b2be146103ac57600080fd5b806323b872dd146102c45780632acf179b146102e4578063313ce5671461031c57600080fd5b80630df10da9116101955780630df10da91461023957806313af40351461024c57806317d70f7c1461026c57806318160ddd146102ae57600080fd5b80630133838a146101bc57806306fdde03146101de578063095ea7b314610209575b600080fd5b3480156101c857600080fd5b506101dc6101d7366004610fd3565b610590565b005b3480156101ea57600080fd5b506101f361064b565b6040516102009190611006565b60405180910390f35b34801561021557600080fd5b50610229610224366004611054565b6106d9565b6040519015158152602001610200565b6101dc61024736600461107e565b610746565b34801561025857600080fd5b506101dc610267366004611097565b6107e0565b34801561027857600080fd5b506102a07f000000000000000000000000000000000000000000000000000000000000000081565b604051908152602001610200565b3480156102ba57600080fd5b506102a060025481565b3480156102d057600080fd5b506102296102df3660046110b9565b610843565b3480156102f057600080fd5b50600a54610304906001600160a01b031681565b6040516001600160a01b039091168152602001610200565b34801561032857600080fd5b506103507f000000000000000000000000000000000000000000000000000000000000000081565b60405160ff9091168152602001610200565b34801561036e57600080fd5b506102a0610935565b34801561038357600080fd5b50600754610304906001600160a01b031681565b3480156103a357600080fd5b506101f3610990565b3480156103b857600080fd5b506103046103c736600461107e565b61099d565b3480156103d857600080fd5b506102a06103e7366004611097565b60036020526000908152604090205481565b34801561040557600080fd5b506102a0610414366004611097565b60056020526000908152604090205481565b34801561043257600080fd5b50600654610304906001600160a01b031681565b34801561045257600080fd5b506102a06109c7565b34801561046757600080fd5b506101f3610a3f565b34801561047c57600080fd5b5061022961048b366004611054565b610a4c565b34801561049c57600080fd5b506101dc6104ab366004611097565b610ac4565b3480156104bc57600080fd5b506103046104cb36600461107e565b610b40565b3480156104dc57600080fd5b506101dc6104eb36600461110b565b610b50565b3480156104fc57600080fd5b506101dc61050b3660046111bc565b610ba1565b34801561051c57600080fd5b506102a061052b366004610fd3565b600460209081526000928352604080842090915290825290205481565b34801561055457600080fd5b506101dc61056336600461110b565b610de5565b6101dc610e32565b34801561057c57600080fd5b506101dc61058b366004611097565b610e88565b6006546001600160a01b031633146105c35760405162461bcd60e51b81526004016105ba9061122f565b60405180910390fd5b6008805460018181019092557ff3f7a9fe364faab93b216da50a3214154f22a0a2b415b23a84c8169e8b636ee30180546001600160a01b039485166001600160a01b0319918216179091556009805492830181556000527f6e1540171b6c0c960b71a7020d9f60077f6af931a8bbf590da0223dacf75c7af9091018054929093169116179055565b6000805461065890611255565b80601f016020809104026020016040519081016040528092919081815260200182805461068490611255565b80156106d15780601f106106a6576101008083540402835291602001916106d1565b820191906000526020600020905b8154815290600101906020018083116106b457829003601f168201915b505050505081565b3360008181526004602090815260408083206001600160a01b038716808552925280832085905551919290917f8c5be1e5ebec7d5bd14f71427d1e84f3dd0314c0f7b2291e5b200ac8c7c3b925906107349086815260200190565b60405180910390a35060015b92915050565b600a5460405163727fd52560e11b81526001600160a01b039091169063e4ffaa4a9061077c9060089060099030906004016112d8565b602060405180830381865afa158015610799573d6000803e3d6000fd5b505050506040513d601f19601f820116820180604052508101906107bd9190611316565b6107c79082611345565b3410156107d357600080fd5b6107dd3382610eb2565b50565b6007546001600160a01b031633146107f757600080fd5b600680546001600160a01b0319166001600160a01b03831690811790915560405133907f8be0079c531659141344cd1fd0a4f28419497f9722a3daafe3b4186f6b6457e090600090a350565b6001600160a01b0383166000908152600460209081526040808320338452909152812054600019811461089f5761087a838261135c565b6001600160a01b03861660009081526004602090815260408083203384529091529020555b6001600160a01b038516600090815260036020526040812080548592906108c790849061135c565b90915550506001600160a01b03808516600081815260036020526040908190208054870190555190918716907fddf252ad1be2c89b69c2b068fc378daa952ba7f163c4a11628f55a4df523b3ef906109229087815260200190565b60405180910390a3506001949350505050565b60007f0000000000000000000000000000000000000000000000000000000000000000461461096b57610966610f1d565b905090565b507f000000000000000000000000000000000000000000000000000000000000000090565b600b805461065890611255565b600981815481106109ad57600080fd5b6000918252602090912001546001600160a01b0316905081565b600a5460405163727fd52560e11b81526000916001600160a01b03169063e4ffaa4a906109fe9060089060099030906004016112d8565b602060405180830381865afa158015610a1b573d6000803e3d6000fd5b505050506040513d601f19601f820116820180604052508101906109669190611316565b6001805461065890611255565b33600090815260036020526040812080548391908390610a6d90849061135c565b90915550506001600160a01b038316600081815260036020526040908190208054850190555133907fddf252ad1be2c89b69c2b068fc378daa952ba7f163c4a11628f55a4df523b3ef906107349086815260200190565b6006546001600160a01b03163314610aee5760405162461bcd60e51b81526004016105ba9061122f565b600880546001810182556000919091527ff3f7a9fe364faab93b216da50a3214154f22a0a2b415b23a84c8169e8b636ee30180546001600160a01b0319166001600160a01b0392909216919091179055565b600881815481106109ad57600080fd5b6006546001600160a01b03163314610b7a5760405162461bcd60e51b81526004016105ba9061122f565b6006546001600160a01b03163314610b9157600080fd5b6000610b9d82826113be565b5050565b42841015610bf15760405162461bcd60e51b815260206004820152601760248201527f5045524d49545f444541444c494e455f4558504952454400000000000000000060448201526064016105ba565b60006001610bfd610935565b6001600160a01b038a811660008181526005602090815260409182902080546001810190915582517f6e71edae12b1b97f4d1f60370fef10105fa2faae0126114a169c64845d6126c98184015280840194909452938d166060840152608083018c905260a083019390935260c08083018b90528151808403909101815260e08301909152805192019190912061190160f01b6101008301526101028201929092526101228101919091526101420160408051601f198184030181528282528051602091820120600084529083018083525260ff871690820152606081018590526080810184905260a0016020604051602081039080840390855afa158015610d09573d6000803e3d6000fd5b5050604051601f1901519150506001600160a01b03811615801590610d3f5750876001600160a01b0316816001600160a01b0316145b610d7c5760405162461bcd60e51b815260206004820152600e60248201526d24a72b20a624a22fa9a4a3a722a960911b60448201526064016105ba565b6001600160a01b0390811660009081526004602090815260408083208a8516808552908352928190208990555188815291928a16917f8c5be1e5ebec7d5bd14f71427d1e84f3dd0314c0f7b2291e5b200ac8c7c3b925910160405180910390a350505050505050565b6006546001600160a01b03163314610e0f5760405162461bcd60e51b81526004016105ba9061122f565b6006546001600160a01b03163314610e2657600080fd5b600b610b9d82826113be565b6006546001600160a01b03163314610e5c5760405162461bcd60e51b81526004016105ba9061122f565b60405133904780156108fc02916000818181858888f193505050501580156107dd573d6000803e3d6000fd5b6006546001600160a01b031633146107f75760405162461bcd60e51b81526004016105ba9061122f565b8060026000828254610ec4919061147e565b90915550506001600160a01b0382166000818152600360209081526040808320805486019055518481527fddf252ad1be2c89b69c2b068fc378daa952ba7f163c4a11628f55a4df523b3ef910160405180910390a35050565b60007f8b73c3c69bb8fe3d512ecc4cf759cc79239f7b179b0ffacaa9a75d522b39400f6000604051610f4f9190611491565b6040805191829003822060208301939093528101919091527fc89efdaa54c0f20c7adf612882df0950f5a951637e0307cdcb4c672f298b8bc660608201524660808201523060a082015260c00160405160208183030381529060405280519060200120905090565b80356001600160a01b0381168114610fce57600080fd5b919050565b60008060408385031215610fe657600080fd5b610fef83610fb7565b9150610ffd60208401610fb7565b90509250929050565b600060208083528351808285015260005b8181101561103357858101830151858201604001528201611017565b506000604082860101526040601f19601f8301168501019250505092915050565b6000806040838503121561106757600080fd5b61107083610fb7565b946020939093013593505050565b60006020828403121561109057600080fd5b5035919050565b6000602082840312156110a957600080fd5b6110b282610fb7565b9392505050565b6000806000606084860312156110ce57600080fd5b6110d784610fb7565b92506110e560208501610fb7565b9150604084013590509250925092565b634e487b7160e01b600052604160045260246000fd5b60006020828403121561111d57600080fd5b813567ffffffffffffffff8082111561113557600080fd5b818401915084601f83011261114957600080fd5b81358181111561115b5761115b6110f5565b604051601f8201601f19908116603f01168101908382118183101715611183576111836110f5565b8160405282815287602084870101111561119c57600080fd5b826020860160208301376000928101602001929092525095945050505050565b600080600080600080600060e0888a0312156111d757600080fd5b6111e088610fb7565b96506111ee60208901610fb7565b95506040880135945060608801359350608088013560ff8116811461121257600080fd5b9699959850939692959460a0840135945060c09093013592915050565b6020808252600c908201526b15539055551213d49256915160a21b604082015260600190565b600181811c9082168061126957607f821691505b60208210810361128957634e487b7160e01b600052602260045260246000fd5b50919050565b6000815480845260208085019450836000528060002060005b838110156112cd5781546001600160a01b0316875295820195600191820191016112a8565b509495945050505050565b6060815260006112eb606083018661128f565b82810360208401526112fd818661128f565b91505060018060a01b0383166040830152949350505050565b60006020828403121561132857600080fd5b5051919050565b634e487b7160e01b600052601160045260246000fd5b80820281158282048414176107405761074061132f565b818103818111156107405761074061132f565b601f8211156113b957600081815260208120601f850160051c810160208610156113965750805b601f850160051c820191505b818110156113b5578281556001016113a2565b5050505b505050565b815167ffffffffffffffff8111156113d8576113d86110f5565b6113ec816113e68454611255565b8461136f565b602080601f83116001811461142157600084156114095750858301515b600019600386901b1c1916600185901b1785556113b5565b600085815260208120601f198616915b8281101561145057888601518255948401946001909101908401611431565b508582101561146e5787850151600019600388901b60f8161c191681555b5050505050600190811b01905550565b808201808211156107405761074061132f565b600080835461149f81611255565b600182811680156114b757600181146114cc576114fb565b60ff19841687528215158302870194506114fb565b8760005260208060002060005b858110156114f25781548a8201529084019082016114d9565b50505082870194505b5092969550505050505056fea264697066735822122094b560baba48fbf839681ccd5507967422673f49a39bdf9da59e326077c3d55d64736f6c63430008110033a26469706673582212201ef70021e72e98215f8e274dea37904e51c50644ece3ab76c364b00dad27940e64736f6c63430008110033",
    "linkReferences": {}
  },
  "methodIdentifiers": {
    "MAX_SUPPLY()": "32cb6b0c",
    "PRICE()": "8d859f3e",
    "approve(address,uint256)": "095ea7b3",
    "balanceOf(address)": "70a08231",
    "getApproved(uint256)": "081812fc",
    "isApprovedForAll(address,address)": "e985e9c5",
    "mintWithEth(address)": "76e98d33",
    "name()": "06fdde03",
    "ownerOf(uint256)": "6352211e",
    "safeTransferFrom(address,address,uint256)": "42842e0e",
    "safeTransferFrom(address,address,uint256,bytes)": "b88d4fde",
    "setApprovalForAll(address,bool)": "a22cb465",
    "spokes(uint256)": "ea6ced19",
    "supportsInterface(bytes4)": "01ffc9a7",
    "symbol()": "95d89b41",
    "tokenURI(uint256)": "c87b56dd",
    "totalSupply()": "18160ddd",
    "transferFrom(address,address,uint256)": "23b872dd"
  },
  "id": 30
}