{
  "abi": [
    {
      "inputs": [
        {
          "internalType": "address[]",
          "name": "priceFeeds",
          "type": "address[]"
        },
        {
          "internalType": "address[]",
          "name": "tokens",
          "type": "address[]"
        },
        {
          "internalType": "address",
          "name": "baseToken",
          "type": "address"
        }
      ],
      "name": "calculateNAV",
      "outputs": [
        {
          "internalType": "int256",
          "name": "nav",
          "type": "int256"
        }
      ],
      "stateMutability": "view",
      "type": "function"
    },
    {
      "inputs": [
        {
          "internalType": "address",
          "name": "priceFeed",
          "type": "address"
        }
      ],
      "name": "getV2Price",
      "outputs": [
        {
          "internalType": "int256",
          "name": "price",
          "type": "int256"
        }
      ],
      "stateMutability": "view",
      "type": "function"
    },
    {
      "inputs": [
        {
          "internalType": "address",
          "name": "priceFeed",
          "type": "address"
        }
      ],
      "name": "getV3Price",
      "outputs": [
        {
          "internalType": "int256",
          "name": "price",
          "type": "int256"
        }
      ],
      "stateMutability": "view",
      "type": "function"
    }
  ],
  "bytecode": {
    "object": "0x608060405234801561001057600080fd5b506105d8806100206000396000f3fe608060405234801561001057600080fd5b50600436106100415760003560e01c806373fc2f1b14610046578063c75373c91461006b578063e4ffaa4a1461007e575b600080fd5b610059610054366004610350565b610091565b60405190815260200160405180910390f35b610059610079366004610350565b6100fb565b61005961008c3660046103be565b61016a565b6000816001600160a01b03166350d25bcd6040518163ffffffff1660e01b8152600401602060405180830381865afa1580156100d1573d6000803e3d6000fd5b505050506040513d601f19601f820116820180604052508101906100f5919061043f565b92915050565b6000816001600160a01b031663feaf968c6040518163ffffffff1660e01b815260040160a060405180830381865afa15801561013b573d6000803e3d6000fd5b505050506040513d601f19601f8201168201806040525081019061015f9190610472565b509195945050505050565b60008060005b868110156102ab57806000036101cf5733316101b46101af8a8a8581811061019a5761019a6104b6565b90506020020160208101906100799190610350565b610323565b6101be91906104e2565b6101c89083610512565b9150610299565b85856101dc60018461053a565b8181106101eb576101eb6104b6565b90506020020160208101906102009190610350565b6040516370a0823160e01b81523360048201526001600160a01b0391909116906370a0823190602401602060405180830381865afa158015610246573d6000803e3d6000fd5b505050506040513d601f19601f8201168201806040525081019061026a919061043f565b6102826101af8a8a8581811061019a5761019a6104b6565b61028c91906104e2565b6102969083610512565b91505b806102a38161054d565b915050610170565b50826001600160a01b03166318160ddd6040518163ffffffff1660e01b8152600401602060405180830381865afa1580156102ea573d6000803e3d6000fd5b505050506040513d601f19601f8201168201806040525081019061030e919061043f565b6103189082610566565b979650505050505050565b60006100f5826402540be4006104e2565b80356001600160a01b038116811461034b57600080fd5b919050565b60006020828403121561036257600080fd5b61036b82610334565b9392505050565b60008083601f84011261038457600080fd5b50813567ffffffffffffffff81111561039c57600080fd5b6020830191508360208260051b85010111156103b757600080fd5b9250929050565b6000806000806000606086880312156103d657600080fd5b853567ffffffffffffffff808211156103ee57600080fd5b6103fa89838a01610372565b9097509550602088013591508082111561041357600080fd5b5061042088828901610372565b9094509250610433905060408701610334565b90509295509295909350565b60006020828403121561045157600080fd5b5051919050565b805169ffffffffffffffffffff8116811461034b57600080fd5b600080600080600060a0868803121561048a57600080fd5b61049386610458565b945060208601519350604086015192506060860151915061043360808701610458565b634e487b7160e01b600052603260045260246000fd5b634e487b7160e01b600052601160045260246000fd5b80820260008212600160ff1b841416156104fe576104fe6104cc565b81810583148215176100f5576100f56104cc565b8082018281126000831280158216821582161715610532576105326104cc565b505092915050565b818103818111156100f5576100f56104cc565b60006001820161055f5761055f6104cc565b5060010190565b60008261058357634e487b7160e01b600052601260045260246000fd5b600160ff1b82146000198414161561059d5761059d6104cc565b50059056fea2646970667358221220edcdc805f0afa307acdbc0d27944a1ab4392b07b9bc33b29e2e58bf7eee4fc9c64736f6c63430008110033",
    "linkReferences": {}
  },
  "methodIdentifiers": {
    "calculateNAV(address[],address[],address)": "e4ffaa4a",
    "getV2Price(address)": "73fc2f1b",
    "getV3Price(address)": "c75373c9"
  },
  "id": 23
}