{
  "abi": [
    {
      "inputs": [
        {
          "internalType": "address",
          "name": "_volcanoCoin",
          "type": "address"
        }
      ],
      "stateMutability": "nonpayable",
      "type": "constructor"
    },
    {
      "anonymous": false,
      "inputs": [
        {
          "indexed": true,
          "internalType": "address",
          "name": "owner",
          "type": "address"
        },
        {
          "indexed": true,
          "internalType": "address",
          "name": "approved",
          "type": "address"
        },
        {
          "indexed": true,
          "internalType": "uint256",
          "name": "tokenId",
          "type": "uint256"
        }
      ],
      "name": "Approval",
      "type": "event"
    },
    {
      "anonymous": false,
      "inputs": [
        {
          "indexed": true,
          "internalType": "address",
          "name": "owner",
          "type": "address"
        },
        {
          "indexed": true,
          "internalType": "address",
          "name": "operator",
          "type": "address"
        },
        {
          "indexed": false,
          "internalType": "bool",
          "name": "approved",
          "type": "bool"
        }
      ],
      "name": "ApprovalForAll",
      "type": "event"
    },
    {
      "anonymous": false,
      "inputs": [
        {
          "indexed": true,
          "internalType": "address",
          "name": "previousOwner",
          "type": "address"
        },
        {
          "indexed": true,
          "internalType": "address",
          "name": "newOwner",
          "type": "address"
        }
      ],
      "name": "OwnershipTransferred",
      "type": "event"
    },
    {
      "anonymous": false,
      "inputs": [
        {
          "indexed": true,
          "internalType": "address",
          "name": "from",
          "type": "address"
        },
        {
          "indexed": true,
          "internalType": "address",
          "name": "to",
          "type": "address"
        },
        {
          "indexed": true,
          "internalType": "uint256",
          "name": "tokenId",
          "type": "uint256"
        }
      ],
      "name": "Transfer",
      "type": "event"
    },
    {
      "inputs": [
        {
          "internalType": "address",
          "name": "to",
          "type": "address"
        },
        {
          "internalType": "uint256",
          "name": "tokenId",
          "type": "uint256"
        }
      ],
      "name": "approve",
      "outputs": [],
      "stateMutability": "nonpayable",
      "type": "function"
    },
    {
      "inputs": [
        {
          "internalType": "address",
          "name": "owner",
          "type": "address"
        }
      ],
      "name": "balanceOf",
      "outputs": [
        {
          "internalType": "uint256",
          "name": "",
          "type": "uint256"
        }
      ],
      "stateMutability": "view",
      "type": "function"
    },
    {
      "inputs": [
        {
          "internalType": "uint256",
          "name": "tokenId",
          "type": "uint256"
        }
      ],
      "name": "getApproved",
      "outputs": [
        {
          "internalType": "address",
          "name": "",
          "type": "address"
        }
      ],
      "stateMutability": "view",
      "type": "function"
    },
    {
      "inputs": [
        {
          "internalType": "address",
          "name": "owner",
          "type": "address"
        },
        {
          "internalType": "address",
          "name": "operator",
          "type": "address"
        }
      ],
      "name": "isApprovedForAll",
      "outputs": [
        {
          "internalType": "bool",
          "name": "",
          "type": "bool"
        }
      ],
      "stateMutability": "view",
      "type": "function"
    },
    {
      "inputs": [],
      "name": "name",
      "outputs": [
        {
          "internalType": "string",
          "name": "",
          "type": "string"
        }
      ],
      "stateMutability": "view",
      "type": "function"
    },
    {
      "inputs": [],
      "name": "owner",
      "outputs": [
        {
          "internalType": "address",
          "name": "",
          "type": "address"
        }
      ],
      "stateMutability": "view",
      "type": "function"
    },
    {
      "inputs": [
        {
          "internalType": "uint256",
          "name": "tokenId",
          "type": "uint256"
        }
      ],
      "name": "ownerOf",
      "outputs": [
        {
          "internalType": "address",
          "name": "",
          "type": "address"
        }
      ],
      "stateMutability": "view",
      "type": "function"
    },
    {
      "inputs": [],
      "name": "renounceOwnership",
      "outputs": [],
      "stateMutability": "nonpayable",
      "type": "function"
    },
    {
      "inputs": [],
      "name": "returnWei",
      "outputs": [],
      "stateMutability": "payable",
      "type": "function"
    },
    {
      "inputs": [],
      "name": "safeMintFree",
      "outputs": [],
      "stateMutability": "nonpayable",
      "type": "function"
    },
    {
      "inputs": [
        {
          "internalType": "uint256",
          "name": "_amount",
          "type": "uint256"
        }
      ],
      "name": "safeMintNotFree",
      "outputs": [],
      "stateMutability": "payable",
      "type": "function"
    },
    {
      "inputs": [
        {
          "internalType": "address",
          "name": "from",
          "type": "address"
        },
        {
          "internalType": "address",
          "name": "to",
          "type": "address"
        },
        {
          "internalType": "uint256",
          "name": "tokenId",
          "type": "uint256"
        }
      ],
      "name": "safeTransferFrom",
      "outputs": [],
      "stateMutability": "nonpayable",
      "type": "function"
    },
    {
      "inputs": [
        {
          "internalType": "address",
          "name": "from",
          "type": "address"
        },
        {
          "internalType": "address",
          "name": "to",
          "type": "address"
        },
        {
          "internalType": "uint256",
          "name": "tokenId",
          "type": "uint256"
        },
        {
          "internalType": "bytes",
          "name": "data",
          "type": "bytes"
        }
      ],
      "name": "safeTransferFrom",
      "outputs": [],
      "stateMutability": "nonpayable",
      "type": "function"
    },
    {
      "inputs": [
        {
          "internalType": "address",
          "name": "operator",
          "type": "address"
        },
        {
          "internalType": "bool",
          "name": "approved",
          "type": "bool"
        }
      ],
      "name": "setApprovalForAll",
      "outputs": [],
      "stateMutability": "nonpayable",
      "type": "function"
    },
    {
      "inputs": [
        {
          "internalType": "bytes4",
          "name": "interfaceId",
          "type": "bytes4"
        }
      ],
      "name": "supportsInterface",
      "outputs": [
        {
          "internalType": "bool",
          "name": "",
          "type": "bool"
        }
      ],
      "stateMutability": "view",
      "type": "function"
    },
    {
      "inputs": [],
      "name": "symbol",
      "outputs": [
        {
          "internalType": "string",
          "name": "",
          "type": "string"
        }
      ],
      "stateMutability": "view",
      "type": "function"
    },
    {
      "inputs": [
        {
          "internalType": "uint256",
          "name": "tokenId",
          "type": "uint256"
        }
      ],
      "name": "tokenURI",
      "outputs": [
        {
          "internalType": "string",
          "name": "",
          "type": "string"
        }
      ],
      "stateMutability": "view",
      "type": "function"
    },
    {
      "inputs": [
        {
          "internalType": "address",
          "name": "from",
          "type": "address"
        },
        {
          "internalType": "address",
          "name": "to",
          "type": "address"
        },
        {
          "internalType": "uint256",
          "name": "tokenId",
          "type": "uint256"
        }
      ],
      "name": "transferFrom",
      "outputs": [],
      "stateMutability": "nonpayable",
      "type": "function"
    },
    {
      "inputs": [
        {
          "internalType": "address",
          "name": "newOwner",
          "type": "address"
        }
      ],
      "name": "transferOwnership",
      "outputs": [],
      "stateMutability": "nonpayable",
      "type": "function"
    }
  ],
  "bytecode": {
    "object": "0x608060405260006007553480156200001657600080fd5b5060405162001ae138038062001ae18339810160408190526200003991620001d8565b604080518082018252600781526617da511a59125d60ca1b60208083019182528351808501909452600384526249444960e81b908401528151919291620000839160009162000132565b5080516200009990600190602084019062000132565b505050620000b6620000b0620000dc60201b60201c565b620000e0565b600880546001600160a01b0319166001600160a01b039290921691909117905562000246565b3390565b600680546001600160a01b038381166001600160a01b0319831681179093556040519116919082907f8be0079c531659141344cd1fd0a4f28419497f9722a3daafe3b4186f6b6457e090600090a35050565b82805462000140906200020a565b90600052602060002090601f016020900481019282620001645760008555620001af565b82601f106200017f57805160ff1916838001178555620001af565b82800160010185558215620001af579182015b82811115620001af57825182559160200191906001019062000192565b50620001bd929150620001c1565b5090565b5b80821115620001bd5760008155600101620001c2565b600060208284031215620001eb57600080fd5b81516001600160a01b03811681146200020357600080fd5b9392505050565b600181811c908216806200021f57607f821691505b6020821081036200024057634e487b7160e01b600052602260045260246000fd5b50919050565b61188b80620002566000396000f3fe6080604052600436106101145760003560e01c8063715018a6116100a0578063a469cb9611610064578063a469cb96146102dd578063b88d4fde146102f0578063c87b56dd14610310578063e985e9c514610330578063f2fde38b1461037957600080fd5b8063715018a6146102605780638da5cb5b146102755780638e202ab01461029357806395d89b41146102a8578063a22cb465146102bd57600080fd5b806323b872dd116100e757806323b872dd146101ca5780633f5cbdb6146101ea57806342842e0e146101f25780636352211e1461021257806370a082311461023257600080fd5b806301ffc9a71461011957806306fdde031461014e578063081812fc14610170578063095ea7b3146101a8575b600080fd5b34801561012557600080fd5b50610139610134366004611398565b610399565b60405190151581526020015b60405180910390f35b34801561015a57600080fd5b506101636103eb565b604051610145919061140d565b34801561017c57600080fd5b5061019061018b366004611420565b61047d565b6040516001600160a01b039091168152602001610145565b3480156101b457600080fd5b506101c86101c3366004611455565b6104a4565b005b3480156101d657600080fd5b506101c86101e536600461147f565b6105be565b6101c86105ef565b3480156101fe57600080fd5b506101c861020d36600461147f565b610626565b34801561021e57600080fd5b5061019061022d366004611420565b610641565b34801561023e57600080fd5b5061025261024d3660046114bb565b6106a1565b604051908152602001610145565b34801561026c57600080fd5b506101c8610727565b34801561028157600080fd5b506006546001600160a01b0316610190565b34801561029f57600080fd5b506101c861073b565b3480156102b457600080fd5b5061016361075e565b3480156102c957600080fd5b506101c86102d83660046114d6565b61076d565b6101c86102eb366004611420565b61077c565b3480156102fc57600080fd5b506101c861030b366004611528565b61091c565b34801561031c57600080fd5b5061016361032b366004611420565b610954565b34801561033c57600080fd5b5061013961034b366004611604565b6001600160a01b03918216600090815260056020908152604080832093909416825291909152205460ff1690565b34801561038557600080fd5b506101c86103943660046114bb565b6109c8565b60006001600160e01b031982166380ac58cd60e01b14806103ca57506001600160e01b03198216635b5e139f60e01b145b806103e557506301ffc9a760e01b6001600160e01b03198316145b92915050565b6060600080546103fa90611637565b80601f016020809104026020016040519081016040528092919081815260200182805461042690611637565b80156104735780601f1061044857610100808354040283529160200191610473565b820191906000526020600020905b81548152906001019060200180831161045657829003601f168201915b5050505050905090565b600061048882610a3e565b506000908152600460205260409020546001600160a01b031690565b60006104af82610641565b9050806001600160a01b0316836001600160a01b0316036105215760405162461bcd60e51b815260206004820152602160248201527f4552433732313a20617070726f76616c20746f2063757272656e74206f776e656044820152603960f91b60648201526084015b60405180910390fd5b336001600160a01b038216148061053d575061053d813361034b565b6105af5760405162461bcd60e51b815260206004820152603d60248201527f4552433732313a20617070726f76652063616c6c6572206973206e6f7420746f60448201527f6b656e206f776e6572206f7220617070726f76656420666f7220616c6c0000006064820152608401610518565b6105b98383610a9d565b505050565b6105c83382610b0b565b6105e45760405162461bcd60e51b815260040161051890611671565b6105b9838383610b8a565b6105f7610cfb565b60405133904780156108fc02916000818181858888f19350505050158015610623573d6000803e3d6000fd5b50565b6105b98383836040518060200160405280600081525061091c565b6000818152600260205260408120546001600160a01b0316806103e55760405162461bcd60e51b8152602060048201526018602482015277115490cdcc8c4e881a5b9d985b1a59081d1bdad95b88125160421b6044820152606401610518565b60006001600160a01b03821661070b5760405162461bcd60e51b815260206004820152602960248201527f4552433732313a2061646472657373207a65726f206973206e6f7420612076616044820152683634b21037bbb732b960b91b6064820152608401610518565b506001600160a01b031660009081526003602052604090205490565b61072f610cfb565b6107396000610d55565b565b61074733600754610da7565b60078054906000610757836116d4565b9190505550565b6060600180546103fa90611637565b610778338383610dc1565b5050565b60085460405163f8b2cb4f60e01b81523060048201526000916001600160a01b03169063f8b2cb4f90602401602060405180830381865afa1580156107c5573d6000803e3d6000fd5b505050506040513d601f19601f820116820180604052508101906107e991906116ed565b9050662386f26fc10000341015610865576008546040516323b872dd60e01b8152336004820152306024820152604481018490526001600160a01b03909116906323b872dd90606401600060405180830381600087803b15801561084c57600080fd5b505af1158015610860573d6000803e3d6000fd5b505050505b662386f26fc10000341015806108ee57506108808282611706565b60085460405163f8b2cb4f60e01b81523060048201526001600160a01b039091169063f8b2cb4f90602401602060405180830381865afa1580156108c8573d6000803e3d6000fd5b505050506040513d601f19601f820116820180604052508101906108ec91906116ed565b145b6108f757600080fd5b61090333600754610da7565b60078054906000610913836116d4565b91905055505050565b6109263383610b0b565b6109425760405162461bcd60e51b815260040161051890611671565b61094e84848484610e8f565b50505050565b606061095f82610a3e565b600061097660408051602081019091526000815290565b9050600081511161099657604051806020016040528060008152506109c1565b806109a084610ec2565b6040516020016109b192919061171e565b6040516020818303038152906040525b9392505050565b6109d0610cfb565b6001600160a01b038116610a355760405162461bcd60e51b815260206004820152602660248201527f4f776e61626c653a206e6577206f776e657220697320746865207a65726f206160448201526564647265737360d01b6064820152608401610518565b61062381610d55565b6000818152600260205260409020546001600160a01b03166106235760405162461bcd60e51b8152602060048201526018602482015277115490cdcc8c4e881a5b9d985b1a59081d1bdad95b88125160421b6044820152606401610518565b600081815260046020526040902080546001600160a01b0319166001600160a01b0384169081179091558190610ad282610641565b6001600160a01b03167f8c5be1e5ebec7d5bd14f71427d1e84f3dd0314c0f7b2291e5b200ac8c7c3b92560405160405180910390a45050565b600080610b1783610641565b9050806001600160a01b0316846001600160a01b03161480610b5e57506001600160a01b0380821660009081526005602090815260408083209388168352929052205460ff165b80610b825750836001600160a01b0316610b778461047d565b6001600160a01b0316145b949350505050565b826001600160a01b0316610b9d82610641565b6001600160a01b031614610bc35760405162461bcd60e51b81526004016105189061174d565b6001600160a01b038216610c255760405162461bcd60e51b8152602060048201526024808201527f4552433732313a207472616e7366657220746f20746865207a65726f206164646044820152637265737360e01b6064820152608401610518565b610c328383836001610f55565b826001600160a01b0316610c4582610641565b6001600160a01b031614610c6b5760405162461bcd60e51b81526004016105189061174d565b600081815260046020908152604080832080546001600160a01b03199081169091556001600160a01b0387811680865260038552838620805460001901905590871680865283862080546001019055868652600290945282852080549092168417909155905184937fddf252ad1be2c89b69c2b068fc378daa952ba7f163c4a11628f55a4df523b3ef91a4505050565b6006546001600160a01b031633146107395760405162461bcd60e51b815260206004820181905260248201527f4f776e61626c653a2063616c6c6572206973206e6f7420746865206f776e65726044820152606401610518565b600680546001600160a01b038381166001600160a01b0319831681179093556040519116919082907f8be0079c531659141344cd1fd0a4f28419497f9722a3daafe3b4186f6b6457e090600090a35050565b610778828260405180602001604052806000815250610fdd565b816001600160a01b0316836001600160a01b031603610e225760405162461bcd60e51b815260206004820152601960248201527f4552433732313a20617070726f766520746f2063616c6c6572000000000000006044820152606401610518565b6001600160a01b03838116600081815260056020908152604080832094871680845294825291829020805460ff191686151590811790915591519182527f17307eab39ab6107e8899845ad3d59bd9653f200f220920489ca2b5937696c31910160405180910390a3505050565b610e9a848484610b8a565b610ea684848484611010565b61094e5760405162461bcd60e51b815260040161051890611792565b60606000610ecf83611111565b600101905060008167ffffffffffffffff811115610eef57610eef611512565b6040519080825280601f01601f191660200182016040528015610f19576020820181803683370190505b5090508181016020015b600019016f181899199a1a9b1b9c1cb0b131b232b360811b600a86061a8153600a8504945084610f2357509392505050565b600181111561094e576001600160a01b03841615610f9b576001600160a01b03841660009081526003602052604081208054839290610f959084906117e4565b90915550505b6001600160a01b0383161561094e576001600160a01b03831660009081526003602052604081208054839290610fd2908490611706565b909155505050505050565b610fe783836111e9565b610ff46000848484611010565b6105b95760405162461bcd60e51b815260040161051890611792565b60006001600160a01b0384163b1561110657604051630a85bd0160e11b81526001600160a01b0385169063150b7a02906110549033908990889088906004016117fb565b6020604051808303816000875af192505050801561108f575060408051601f3d908101601f1916820190925261108c91810190611838565b60015b6110ec573d8080156110bd576040519150601f19603f3d011682016040523d82523d6000602084013e6110c2565b606091505b5080516000036110e45760405162461bcd60e51b815260040161051890611792565b805181602001fd5b6001600160e01b031916630a85bd0160e11b149050610b82565b506001949350505050565b60008072184f03e93ff9f4daa797ed6e38ed64bf6a1f0160401b83106111505772184f03e93ff9f4daa797ed6e38ed64bf6a1f0160401b830492506040015b6d04ee2d6d415b85acef8100000000831061117c576d04ee2d6d415b85acef8100000000830492506020015b662386f26fc10000831061119a57662386f26fc10000830492506010015b6305f5e10083106111b2576305f5e100830492506008015b61271083106111c657612710830492506004015b606483106111d8576064830492506002015b600a83106103e55760010192915050565b6001600160a01b03821661123f5760405162461bcd60e51b815260206004820181905260248201527f4552433732313a206d696e7420746f20746865207a65726f20616464726573736044820152606401610518565b6000818152600260205260409020546001600160a01b0316156112a45760405162461bcd60e51b815260206004820152601c60248201527f4552433732313a20746f6b656e20616c7265616479206d696e746564000000006044820152606401610518565b6112b2600083836001610f55565b6000818152600260205260409020546001600160a01b0316156113175760405162461bcd60e51b815260206004820152601c60248201527f4552433732313a20746f6b656e20616c7265616479206d696e746564000000006044820152606401610518565b6001600160a01b038216600081815260036020908152604080832080546001019055848352600290915280822080546001600160a01b0319168417905551839291907fddf252ad1be2c89b69c2b068fc378daa952ba7f163c4a11628f55a4df523b3ef908290a45050565b6001600160e01b03198116811461062357600080fd5b6000602082840312156113aa57600080fd5b81356109c181611382565b60005b838110156113d05781810151838201526020016113b8565b8381111561094e5750506000910152565b600081518084526113f98160208601602086016113b5565b601f01601f19169290920160200192915050565b6020815260006109c160208301846113e1565b60006020828403121561143257600080fd5b5035919050565b80356001600160a01b038116811461145057600080fd5b919050565b6000806040838503121561146857600080fd5b61147183611439565b946020939093013593505050565b60008060006060848603121561149457600080fd5b61149d84611439565b92506114ab60208501611439565b9150604084013590509250925092565b6000602082840312156114cd57600080fd5b6109c182611439565b600080604083850312156114e957600080fd5b6114f283611439565b91506020830135801515811461150757600080fd5b809150509250929050565b634e487b7160e01b600052604160045260246000fd5b6000806000806080858703121561153e57600080fd5b61154785611439565b935061155560208601611439565b925060408501359150606085013567ffffffffffffffff8082111561157957600080fd5b818701915087601f83011261158d57600080fd5b81358181111561159f5761159f611512565b604051601f8201601f19908116603f011681019083821181831017156115c7576115c7611512565b816040528281528a60208487010111156115e057600080fd5b82602086016020830137600060208483010152809550505050505092959194509250565b6000806040838503121561161757600080fd5b61162083611439565b915061162e60208401611439565b90509250929050565b600181811c9082168061164b57607f821691505b60208210810361166b57634e487b7160e01b600052602260045260246000fd5b50919050565b6020808252602d908201527f4552433732313a2063616c6c6572206973206e6f7420746f6b656e206f776e6560408201526c1c881bdc88185c1c1c9bdd9959609a1b606082015260800190565b634e487b7160e01b600052601160045260246000fd5b6000600182016116e6576116e66116be565b5060010190565b6000602082840312156116ff57600080fd5b5051919050565b60008219821115611719576117196116be565b500190565b600083516117308184602088016113b5565b8351908301906117448183602088016113b5565b01949350505050565b60208082526025908201527f4552433732313a207472616e736665722066726f6d20696e636f72726563742060408201526437bbb732b960d91b606082015260800190565b60208082526032908201527f4552433732313a207472616e7366657220746f206e6f6e20455243373231526560408201527131b2b4bb32b91034b6b83632b6b2b73a32b960711b606082015260800190565b6000828210156117f6576117f66116be565b500390565b6001600160a01b038581168252841660208201526040810183905260806060820181905260009061182e908301846113e1565b9695505050505050565b60006020828403121561184a57600080fd5b81516109c18161138256fea2646970667358221220fa432f4a8f9564375fdd28acefa874f5fa1bbab0f84ed804d9e39dc20651ea6164736f6c634300080d0033",
    "linkReferences": {}
  },
  "methodIdentifiers": {
    "approve(address,uint256)": "095ea7b3",
    "balanceOf(address)": "70a08231",
    "getApproved(uint256)": "081812fc",
    "isApprovedForAll(address,address)": "e985e9c5",
    "name()": "06fdde03",
    "owner()": "8da5cb5b",
    "ownerOf(uint256)": "6352211e",
    "renounceOwnership()": "715018a6",
    "returnWei()": "3f5cbdb6",
    "safeMintFree()": "8e202ab0",
    "safeMintNotFree(uint256)": "a469cb96",
    "safeTransferFrom(address,address,uint256)": "42842e0e",
    "safeTransferFrom(address,address,uint256,bytes)": "b88d4fde",
    "setApprovalForAll(address,bool)": "a22cb465",
    "supportsInterface(bytes4)": "01ffc9a7",
    "symbol()": "95d89b41",
    "tokenURI(uint256)": "c87b56dd",
    "transferFrom(address,address,uint256)": "23b872dd",
    "transferOwnership(address)": "f2fde38b"
  },
  "id": 28
}