{
  "abi": [
    {
      "inputs": [
        {
          "internalType": "address",
          "name": "_volcanoCoin",
          "type": "address"
        }
      ],
      "stateMutability": "nonpayable",
      "type": "constructor"
    },
    {
      "anonymous": false,
      "inputs": [
        {
          "indexed": true,
          "internalType": "address",
          "name": "owner",
          "type": "address"
        },
        {
          "indexed": true,
          "internalType": "address",
          "name": "approved",
          "type": "address"
        },
        {
          "indexed": true,
          "internalType": "uint256",
          "name": "tokenId",
          "type": "uint256"
        }
      ],
      "name": "Approval",
      "type": "event"
    },
    {
      "anonymous": false,
      "inputs": [
        {
          "indexed": true,
          "internalType": "address",
          "name": "owner",
          "type": "address"
        },
        {
          "indexed": true,
          "internalType": "address",
          "name": "operator",
          "type": "address"
        },
        {
          "indexed": false,
          "internalType": "bool",
          "name": "approved",
          "type": "bool"
        }
      ],
      "name": "ApprovalForAll",
      "type": "event"
    },
    {
      "anonymous": false,
      "inputs": [
        {
          "indexed": true,
          "internalType": "address",
          "name": "previousOwner",
          "type": "address"
        },
        {
          "indexed": true,
          "internalType": "address",
          "name": "newOwner",
          "type": "address"
        }
      ],
      "name": "OwnershipTransferred",
      "type": "event"
    },
    {
      "anonymous": false,
      "inputs": [
        {
          "indexed": true,
          "internalType": "address",
          "name": "from",
          "type": "address"
        },
        {
          "indexed": true,
          "internalType": "address",
          "name": "to",
          "type": "address"
        },
        {
          "indexed": true,
          "internalType": "uint256",
          "name": "tokenId",
          "type": "uint256"
        }
      ],
      "name": "Transfer",
      "type": "event"
    },
    {
      "inputs": [
        {
          "internalType": "address",
          "name": "to",
          "type": "address"
        },
        {
          "internalType": "uint256",
          "name": "tokenId",
          "type": "uint256"
        }
      ],
      "name": "approve",
      "outputs": [],
      "stateMutability": "nonpayable",
      "type": "function"
    },
    {
      "inputs": [
        {
          "internalType": "address",
          "name": "owner",
          "type": "address"
        }
      ],
      "name": "balanceOf",
      "outputs": [
        {
          "internalType": "uint256",
          "name": "",
          "type": "uint256"
        }
      ],
      "stateMutability": "view",
      "type": "function"
    },
    {
      "inputs": [
        {
          "internalType": "uint256",
          "name": "tokenId",
          "type": "uint256"
        }
      ],
      "name": "getApproved",
      "outputs": [
        {
          "internalType": "address",
          "name": "",
          "type": "address"
        }
      ],
      "stateMutability": "view",
      "type": "function"
    },
    {
      "inputs": [
        {
          "internalType": "address",
          "name": "owner",
          "type": "address"
        },
        {
          "internalType": "address",
          "name": "operator",
          "type": "address"
        }
      ],
      "name": "isApprovedForAll",
      "outputs": [
        {
          "internalType": "bool",
          "name": "",
          "type": "bool"
        }
      ],
      "stateMutability": "view",
      "type": "function"
    },
    {
      "inputs": [],
      "name": "name",
      "outputs": [
        {
          "internalType": "string",
          "name": "",
          "type": "string"
        }
      ],
      "stateMutability": "view",
      "type": "function"
    },
    {
      "inputs": [],
      "name": "owner",
      "outputs": [
        {
          "internalType": "address",
          "name": "",
          "type": "address"
        }
      ],
      "stateMutability": "view",
      "type": "function"
    },
    {
      "inputs": [
        {
          "internalType": "uint256",
          "name": "tokenId",
          "type": "uint256"
        }
      ],
      "name": "ownerOf",
      "outputs": [
        {
          "internalType": "address",
          "name": "",
          "type": "address"
        }
      ],
      "stateMutability": "view",
      "type": "function"
    },
    {
      "inputs": [],
      "name": "renounceOwnership",
      "outputs": [],
      "stateMutability": "nonpayable",
      "type": "function"
    },
    {
      "inputs": [],
      "name": "returnWei",
      "outputs": [],
      "stateMutability": "payable",
      "type": "function"
    },
    {
      "inputs": [],
      "name": "safeMintFree",
      "outputs": [],
      "stateMutability": "nonpayable",
      "type": "function"
    },
    {
      "inputs": [
        {
          "internalType": "uint256",
          "name": "_amount",
          "type": "uint256"
        }
      ],
      "name": "safeMintNotFree",
      "outputs": [],
      "stateMutability": "payable",
      "type": "function"
    },
    {
      "inputs": [
        {
          "internalType": "address",
          "name": "from",
          "type": "address"
        },
        {
          "internalType": "address",
          "name": "to",
          "type": "address"
        },
        {
          "internalType": "uint256",
          "name": "tokenId",
          "type": "uint256"
        }
      ],
      "name": "safeTransferFrom",
      "outputs": [],
      "stateMutability": "nonpayable",
      "type": "function"
    },
    {
      "inputs": [
        {
          "internalType": "address",
          "name": "from",
          "type": "address"
        },
        {
          "internalType": "address",
          "name": "to",
          "type": "address"
        },
        {
          "internalType": "uint256",
          "name": "tokenId",
          "type": "uint256"
        },
        {
          "internalType": "bytes",
          "name": "data",
          "type": "bytes"
        }
      ],
      "name": "safeTransferFrom",
      "outputs": [],
      "stateMutability": "nonpayable",
      "type": "function"
    },
    {
      "inputs": [
        {
          "internalType": "address",
          "name": "operator",
          "type": "address"
        },
        {
          "internalType": "bool",
          "name": "approved",
          "type": "bool"
        }
      ],
      "name": "setApprovalForAll",
      "outputs": [],
      "stateMutability": "nonpayable",
      "type": "function"
    },
    {
      "inputs": [
        {
          "internalType": "bytes4",
          "name": "interfaceId",
          "type": "bytes4"
        }
      ],
      "name": "supportsInterface",
      "outputs": [
        {
          "internalType": "bool",
          "name": "",
          "type": "bool"
        }
      ],
      "stateMutability": "view",
      "type": "function"
    },
    {
      "inputs": [],
      "name": "symbol",
      "outputs": [
        {
          "internalType": "string",
          "name": "",
          "type": "string"
        }
      ],
      "stateMutability": "view",
      "type": "function"
    },
    {
      "inputs": [
        {
          "internalType": "uint256",
          "name": "tokenId",
          "type": "uint256"
        }
      ],
      "name": "tokenURI",
      "outputs": [
        {
          "internalType": "string",
          "name": "",
          "type": "string"
        }
      ],
      "stateMutability": "view",
      "type": "function"
    },
    {
      "inputs": [
        {
          "internalType": "address",
          "name": "from",
          "type": "address"
        },
        {
          "internalType": "address",
          "name": "to",
          "type": "address"
        },
        {
          "internalType": "uint256",
          "name": "tokenId",
          "type": "uint256"
        }
      ],
      "name": "transferFrom",
      "outputs": [],
      "stateMutability": "nonpayable",
      "type": "function"
    },
    {
      "inputs": [
        {
          "internalType": "address",
          "name": "newOwner",
          "type": "address"
        }
      ],
      "name": "transferOwnership",
      "outputs": [],
      "stateMutability": "nonpayable",
      "type": "function"
    }
  ],
  "bytecode": {
    "object": "0x608060405260006007553480156200001657600080fd5b5060405162001b4038038062001b4083398101604081905262000039916200012e565b6040518060400160405280600781526020016617da511a59125d60ca1b8152506040518060400160405280600381526020016249444960e81b815250816000908162000086919062000205565b50600162000095828262000205565b505050620000b2620000ac620000d860201b60201c565b620000dc565b600880546001600160a01b0319166001600160a01b0392909216919091179055620002d1565b3390565b600680546001600160a01b038381166001600160a01b0319831681179093556040519116919082907f8be0079c531659141344cd1fd0a4f28419497f9722a3daafe3b4186f6b6457e090600090a35050565b6000602082840312156200014157600080fd5b81516001600160a01b03811681146200015957600080fd5b9392505050565b634e487b7160e01b600052604160045260246000fd5b600181811c908216806200018b57607f821691505b602082108103620001ac57634e487b7160e01b600052602260045260246000fd5b50919050565b601f8211156200020057600081815260208120601f850160051c81016020861015620001db5750805b601f850160051c820191505b81811015620001fc57828155600101620001e7565b5050505b505050565b81516001600160401b0381111562000221576200022162000160565b620002398162000232845462000176565b84620001b2565b602080601f831160018114620002715760008415620002585750858301515b600019600386901b1c1916600185901b178555620001fc565b600085815260208120601f198616915b82811015620002a25788860151825594840194600190910190840162000281565b5085821015620002c15787850151600019600388901b60f8161c191681555b5050505050600190811b01905550565b61185f80620002e16000396000f3fe6080604052600436106101145760003560e01c8063715018a6116100a0578063a469cb9611610064578063a469cb96146102dd578063b88d4fde146102f0578063c87b56dd14610310578063e985e9c514610330578063f2fde38b1461035057600080fd5b8063715018a6146102605780638da5cb5b146102755780638e202ab01461029357806395d89b41146102a8578063a22cb465146102bd57600080fd5b806323b872dd116100e757806323b872dd146101ca5780633f5cbdb6146101ea57806342842e0e146101f25780636352211e1461021257806370a082311461023257600080fd5b806301ffc9a71461011957806306fdde031461014e578063081812fc14610170578063095ea7b3146101a8575b600080fd5b34801561012557600080fd5b5061013961013436600461137d565b610370565b60405190151581526020015b60405180910390f35b34801561015a57600080fd5b506101636103c2565b60405161014591906113ea565b34801561017c57600080fd5b5061019061018b3660046113fd565b610454565b6040516001600160a01b039091168152602001610145565b3480156101b457600080fd5b506101c86101c3366004611432565b61047b565b005b3480156101d657600080fd5b506101c86101e536600461145c565b610595565b6101c86105c6565b3480156101fe57600080fd5b506101c861020d36600461145c565b6105fd565b34801561021e57600080fd5b5061019061022d3660046113fd565b610618565b34801561023e57600080fd5b5061025261024d366004611498565b610678565b604051908152602001610145565b34801561026c57600080fd5b506101c86106fe565b34801561028157600080fd5b506006546001600160a01b0316610190565b34801561029f57600080fd5b506101c8610712565b3480156102b457600080fd5b50610163610735565b3480156102c957600080fd5b506101c86102d83660046114b3565b610744565b6101c86102eb3660046113fd565b610753565b3480156102fc57600080fd5b506101c861030b366004611505565b6108f3565b34801561031c57600080fd5b5061016361032b3660046113fd565b61092b565b34801561033c57600080fd5b5061013961034b3660046115e1565b61099f565b34801561035c57600080fd5b506101c861036b366004611498565b6109cd565b60006001600160e01b031982166380ac58cd60e01b14806103a157506001600160e01b03198216635b5e139f60e01b145b806103bc57506301ffc9a760e01b6001600160e01b03198316145b92915050565b6060600080546103d190611614565b80601f01602080910402602001604051908101604052809291908181526020018280546103fd90611614565b801561044a5780601f1061041f5761010080835404028352916020019161044a565b820191906000526020600020905b81548152906001019060200180831161042d57829003601f168201915b5050505050905090565b600061045f82610a43565b506000908152600460205260409020546001600160a01b031690565b600061048682610618565b9050806001600160a01b0316836001600160a01b0316036104f85760405162461bcd60e51b815260206004820152602160248201527f4552433732313a20617070726f76616c20746f2063757272656e74206f776e656044820152603960f91b60648201526084015b60405180910390fd5b336001600160a01b03821614806105145750610514813361099f565b6105865760405162461bcd60e51b815260206004820152603d60248201527f4552433732313a20617070726f76652063616c6c6572206973206e6f7420746f60448201527f6b656e206f776e6572206f7220617070726f76656420666f7220616c6c00000060648201526084016104ef565b6105908383610aa2565b505050565b61059f3382610b10565b6105bb5760405162461bcd60e51b81526004016104ef9061164e565b610590838383610b6f565b6105ce610ce0565b60405133904780156108fc02916000818181858888f193505050501580156105fa573d6000803e3d6000fd5b50565b610590838383604051806020016040528060008152506108f3565b6000818152600260205260408120546001600160a01b0316806103bc5760405162461bcd60e51b8152602060048201526018602482015277115490cdcc8c4e881a5b9d985b1a59081d1bdad95b88125160421b60448201526064016104ef565b60006001600160a01b0382166106e25760405162461bcd60e51b815260206004820152602960248201527f4552433732313a2061646472657373207a65726f206973206e6f7420612076616044820152683634b21037bbb732b960b91b60648201526084016104ef565b506001600160a01b031660009081526003602052604090205490565b610706610ce0565b6107106000610d3a565b565b61071e33600754610d8c565b6007805490600061072e836116b1565b9190505550565b6060600180546103d190611614565b61074f338383610da6565b5050565b60085460405163f8b2cb4f60e01b81523060048201526000916001600160a01b03169063f8b2cb4f90602401602060405180830381865afa15801561079c573d6000803e3d6000fd5b505050506040513d601f19601f820116820180604052508101906107c091906116ca565b9050662386f26fc1000034101561083c576008546040516323b872dd60e01b8152336004820152306024820152604481018490526001600160a01b03909116906323b872dd90606401600060405180830381600087803b15801561082357600080fd5b505af1158015610837573d6000803e3d6000fd5b505050505b662386f26fc10000341015806108c5575061085782826116e3565b60085460405163f8b2cb4f60e01b81523060048201526001600160a01b039091169063f8b2cb4f90602401602060405180830381865afa15801561089f573d6000803e3d6000fd5b505050506040513d601f19601f820116820180604052508101906108c391906116ca565b145b6108ce57600080fd5b6108da33600754610d8c565b600780549060006108ea836116b1565b91905055505050565b6108fd3383610b10565b6109195760405162461bcd60e51b81526004016104ef9061164e565b61092584848484610e74565b50505050565b606061093682610a43565b600061094d60408051602081019091526000815290565b9050600081511161096d5760405180602001604052806000815250610998565b8061097784610ea7565b6040516020016109889291906116f6565b6040516020818303038152906040525b9392505050565b6001600160a01b03918216600090815260056020908152604080832093909416825291909152205460ff1690565b6109d5610ce0565b6001600160a01b038116610a3a5760405162461bcd60e51b815260206004820152602660248201527f4f776e61626c653a206e6577206f776e657220697320746865207a65726f206160448201526564647265737360d01b60648201526084016104ef565b6105fa81610d3a565b6000818152600260205260409020546001600160a01b03166105fa5760405162461bcd60e51b8152602060048201526018602482015277115490cdcc8c4e881a5b9d985b1a59081d1bdad95b88125160421b60448201526064016104ef565b600081815260046020526040902080546001600160a01b0319166001600160a01b0384169081179091558190610ad782610618565b6001600160a01b03167f8c5be1e5ebec7d5bd14f71427d1e84f3dd0314c0f7b2291e5b200ac8c7c3b92560405160405180910390a45050565b600080610b1c83610618565b9050806001600160a01b0316846001600160a01b03161480610b435750610b43818561099f565b80610b675750836001600160a01b0316610b5c84610454565b6001600160a01b0316145b949350505050565b826001600160a01b0316610b8282610618565b6001600160a01b031614610ba85760405162461bcd60e51b81526004016104ef90611725565b6001600160a01b038216610c0a5760405162461bcd60e51b8152602060048201526024808201527f4552433732313a207472616e7366657220746f20746865207a65726f206164646044820152637265737360e01b60648201526084016104ef565b610c178383836001610f3a565b826001600160a01b0316610c2a82610618565b6001600160a01b031614610c505760405162461bcd60e51b81526004016104ef90611725565b600081815260046020908152604080832080546001600160a01b03199081169091556001600160a01b0387811680865260038552838620805460001901905590871680865283862080546001019055868652600290945282852080549092168417909155905184937fddf252ad1be2c89b69c2b068fc378daa952ba7f163c4a11628f55a4df523b3ef91a4505050565b6006546001600160a01b031633146107105760405162461bcd60e51b815260206004820181905260248201527f4f776e61626c653a2063616c6c6572206973206e6f7420746865206f776e657260448201526064016104ef565b600680546001600160a01b038381166001600160a01b0319831681179093556040519116919082907f8be0079c531659141344cd1fd0a4f28419497f9722a3daafe3b4186f6b6457e090600090a35050565b61074f828260405180602001604052806000815250610fc2565b816001600160a01b0316836001600160a01b031603610e075760405162461bcd60e51b815260206004820152601960248201527f4552433732313a20617070726f766520746f2063616c6c65720000000000000060448201526064016104ef565b6001600160a01b03838116600081815260056020908152604080832094871680845294825291829020805460ff191686151590811790915591519182527f17307eab39ab6107e8899845ad3d59bd9653f200f220920489ca2b5937696c31910160405180910390a3505050565b610e7f848484610b6f565b610e8b84848484610ff5565b6109255760405162461bcd60e51b81526004016104ef9061176a565b60606000610eb4836110f6565b600101905060008167ffffffffffffffff811115610ed457610ed46114ef565b6040519080825280601f01601f191660200182016040528015610efe576020820181803683370190505b5090508181016020015b600019016f181899199a1a9b1b9c1cb0b131b232b360811b600a86061a8153600a8504945084610f0857509392505050565b6001811115610925576001600160a01b03841615610f80576001600160a01b03841660009081526003602052604081208054839290610f7a9084906117bc565b90915550505b6001600160a01b03831615610925576001600160a01b03831660009081526003602052604081208054839290610fb79084906116e3565b909155505050505050565b610fcc83836111ce565b610fd96000848484610ff5565b6105905760405162461bcd60e51b81526004016104ef9061176a565b60006001600160a01b0384163b156110eb57604051630a85bd0160e11b81526001600160a01b0385169063150b7a02906110399033908990889088906004016117cf565b6020604051808303816000875af1925050508015611074575060408051601f3d908101601f191682019092526110719181019061180c565b60015b6110d1573d8080156110a2576040519150601f19603f3d011682016040523d82523d6000602084013e6110a7565b606091505b5080516000036110c95760405162461bcd60e51b81526004016104ef9061176a565b805181602001fd5b6001600160e01b031916630a85bd0160e11b149050610b67565b506001949350505050565b60008072184f03e93ff9f4daa797ed6e38ed64bf6a1f0160401b83106111355772184f03e93ff9f4daa797ed6e38ed64bf6a1f0160401b830492506040015b6d04ee2d6d415b85acef81000000008310611161576d04ee2d6d415b85acef8100000000830492506020015b662386f26fc10000831061117f57662386f26fc10000830492506010015b6305f5e1008310611197576305f5e100830492506008015b61271083106111ab57612710830492506004015b606483106111bd576064830492506002015b600a83106103bc5760010192915050565b6001600160a01b0382166112245760405162461bcd60e51b815260206004820181905260248201527f4552433732313a206d696e7420746f20746865207a65726f206164647265737360448201526064016104ef565b6000818152600260205260409020546001600160a01b0316156112895760405162461bcd60e51b815260206004820152601c60248201527f4552433732313a20746f6b656e20616c7265616479206d696e7465640000000060448201526064016104ef565b611297600083836001610f3a565b6000818152600260205260409020546001600160a01b0316156112fc5760405162461bcd60e51b815260206004820152601c60248201527f4552433732313a20746f6b656e20616c7265616479206d696e7465640000000060448201526064016104ef565b6001600160a01b038216600081815260036020908152604080832080546001019055848352600290915280822080546001600160a01b0319168417905551839291907fddf252ad1be2c89b69c2b068fc378daa952ba7f163c4a11628f55a4df523b3ef908290a45050565b6001600160e01b0319811681146105fa57600080fd5b60006020828403121561138f57600080fd5b813561099881611367565b60005b838110156113b557818101518382015260200161139d565b50506000910152565b600081518084526113d681602086016020860161139a565b601f01601f19169290920160200192915050565b60208152600061099860208301846113be565b60006020828403121561140f57600080fd5b5035919050565b80356001600160a01b038116811461142d57600080fd5b919050565b6000806040838503121561144557600080fd5b61144e83611416565b946020939093013593505050565b60008060006060848603121561147157600080fd5b61147a84611416565b925061148860208501611416565b9150604084013590509250925092565b6000602082840312156114aa57600080fd5b61099882611416565b600080604083850312156114c657600080fd5b6114cf83611416565b9150602083013580151581146114e457600080fd5b809150509250929050565b634e487b7160e01b600052604160045260246000fd5b6000806000806080858703121561151b57600080fd5b61152485611416565b935061153260208601611416565b925060408501359150606085013567ffffffffffffffff8082111561155657600080fd5b818701915087601f83011261156a57600080fd5b81358181111561157c5761157c6114ef565b604051601f8201601f19908116603f011681019083821181831017156115a4576115a46114ef565b816040528281528a60208487010111156115bd57600080fd5b82602086016020830137600060208483010152809550505050505092959194509250565b600080604083850312156115f457600080fd5b6115fd83611416565b915061160b60208401611416565b90509250929050565b600181811c9082168061162857607f821691505b60208210810361164857634e487b7160e01b600052602260045260246000fd5b50919050565b6020808252602d908201527f4552433732313a2063616c6c6572206973206e6f7420746f6b656e206f776e6560408201526c1c881bdc88185c1c1c9bdd9959609a1b606082015260800190565b634e487b7160e01b600052601160045260246000fd5b6000600182016116c3576116c361169b565b5060010190565b6000602082840312156116dc57600080fd5b5051919050565b808201808211156103bc576103bc61169b565b6000835161170881846020880161139a565b83519083019061171c81836020880161139a565b01949350505050565b60208082526025908201527f4552433732313a207472616e736665722066726f6d20696e636f72726563742060408201526437bbb732b960d91b606082015260800190565b60208082526032908201527f4552433732313a207472616e7366657220746f206e6f6e20455243373231526560408201527131b2b4bb32b91034b6b83632b6b2b73a32b960711b606082015260800190565b818103818111156103bc576103bc61169b565b6001600160a01b0385811682528416602082015260408101839052608060608201819052600090611802908301846113be565b9695505050505050565b60006020828403121561181e57600080fd5b81516109988161136756fea2646970667358221220139b542a0de42a316ce4b137ee14aebba5f35602b3ba3e86b97e3af1ec04d6fd64736f6c63430008110033",
    "linkReferences": {}
  },
  "methodIdentifiers": {
    "approve(address,uint256)": "095ea7b3",
    "balanceOf(address)": "70a08231",
    "getApproved(uint256)": "081812fc",
    "isApprovedForAll(address,address)": "e985e9c5",
    "name()": "06fdde03",
    "owner()": "8da5cb5b",
    "ownerOf(uint256)": "6352211e",
    "renounceOwnership()": "715018a6",
    "returnWei()": "3f5cbdb6",
    "safeMintFree()": "8e202ab0",
    "safeMintNotFree(uint256)": "a469cb96",
    "safeTransferFrom(address,address,uint256)": "42842e0e",
    "safeTransferFrom(address,address,uint256,bytes)": "b88d4fde",
    "setApprovalForAll(address,bool)": "a22cb465",
    "supportsInterface(bytes4)": "01ffc9a7",
    "symbol()": "95d89b41",
    "tokenURI(uint256)": "c87b56dd",
    "transferFrom(address,address,uint256)": "23b872dd",
    "transferOwnership(address)": "f2fde38b"
  },
  "id": 37
}