{
  "abi": [
    {
      "inputs": [
        {
          "internalType": "address",
          "name": "_owner",
          "type": "address"
        },
        {
          "internalType": "uint256",
          "name": "_tokenId",
          "type": "uint256"
        }
      ],
      "stateMutability": "nonpayable",
      "type": "constructor"
    },
    {
      "anonymous": false,
      "inputs": [
        {
          "indexed": true,
          "internalType": "address",
          "name": "user",
          "type": "address"
        },
        {
          "indexed": true,
          "internalType": "address",
          "name": "newOwner",
          "type": "address"
        }
      ],
      "name": "OwnershipTransferred",
      "type": "event"
    },
    {
      "inputs": [],
      "name": "hub",
      "outputs": [
        {
          "internalType": "address",
          "name": "",
          "type": "address"
        }
      ],
      "stateMutability": "view",
      "type": "function"
    },
    {
      "inputs": [],
      "name": "name",
      "outputs": [
        {
          "internalType": "string",
          "name": "",
          "type": "string"
        }
      ],
      "stateMutability": "view",
      "type": "function"
    },
    {
      "inputs": [],
      "name": "owner",
      "outputs": [
        {
          "internalType": "address",
          "name": "",
          "type": "address"
        }
      ],
      "stateMutability": "view",
      "type": "function"
    },
    {
      "inputs": [
        {
          "internalType": "string",
          "name": "_name",
          "type": "string"
        }
      ],
      "name": "setName",
      "outputs": [],
      "stateMutability": "nonpayable",
      "type": "function"
    },
    {
      "inputs": [
        {
          "internalType": "address",
          "name": "newOwner",
          "type": "address"
        }
      ],
      "name": "setOwner",
      "outputs": [],
      "stateMutability": "nonpayable",
      "type": "function"
    },
    {
      "inputs": [
        {
          "internalType": "string",
          "name": "_tokenURI",
          "type": "string"
        }
      ],
      "name": "setTokenURI",
      "outputs": [],
      "stateMutability": "nonpayable",
      "type": "function"
    },
    {
      "inputs": [],
      "name": "tokenId",
      "outputs": [
        {
          "internalType": "uint256",
          "name": "",
          "type": "uint256"
        }
      ],
      "stateMutability": "view",
      "type": "function"
    },
    {
      "inputs": [],
      "name": "tokenURI",
      "outputs": [
        {
          "internalType": "string",
          "name": "",
          "type": "string"
        }
      ],
      "stateMutability": "view",
      "type": "function"
    },
    {
      "inputs": [
        {
          "internalType": "address",
          "name": "newOwner",
          "type": "address"
        }
      ],
      "name": "transferOwnership",
      "outputs": [],
      "stateMutability": "nonpayable",
      "type": "function"
    }
  ],
  "bytecode": {
    "object": "0x60a060405234801561001057600080fd5b5060405161076138038061076183398101604081905261002f9161009b565b600080546001600160a01b0319166001600160a01b03841690811782556040518492849284929091907f8be0079c531659141344cd1fd0a4f28419497f9722a3daafe3b4186f6b6457e0908290a3506080525050600180546001600160a01b03191633179055506100d5565b600080604083850312156100ae57600080fd5b82516001600160a01b03811681146100c557600080fd5b6020939093015192949293505050565b6080516106726100ef600039600060d001526106726000f3fe608060405234801561001057600080fd5b50600436106100935760003560e01c80633c130d90116100665780633c130d901461012b5780638da5cb5b14610133578063c47f002714610146578063e0df5b6f14610159578063f2fde38b1461016c57600080fd5b806306fdde031461009857806313af4035146100b657806317d70f7c146100cb578063365a86fc14610100575b600080fd5b6100a061017f565b6040516100ad91906103ae565b60405180910390f35b6100c96100c43660046103fc565b61020d565b005b6100f27f000000000000000000000000000000000000000000000000000000000000000081565b6040519081526020016100ad565b600154610113906001600160a01b031681565b6040516001600160a01b0390911681526020016100ad565b6100a06102a6565b600054610113906001600160a01b031681565b6100c9610154366004610442565b6102b3565b6100c9610167366004610442565b61030e565b6100c961017a3660046103fc565b610365565b6002805461018c906104f3565b80601f01602080910402602001604051908101604052809291908181526020018280546101b8906104f3565b80156102055780601f106101da57610100808354040283529160200191610205565b820191906000526020600020905b8154815290600101906020018083116101e857829003601f168201915b505050505081565b6001546001600160a01b0316331461025b5760405162461bcd60e51b815260206004820152600c60248201526b15539055551213d49256915160a21b60448201526064015b60405180910390fd5b600080546001600160a01b0319166001600160a01b0383169081178255604051909133917f8be0079c531659141344cd1fd0a4f28419497f9722a3daafe3b4186f6b6457e09190a350565b6003805461018c906104f3565b6000546001600160a01b031633146102fe5760405162461bcd60e51b815260206004820152600e60248201526d1393d517d055551213d49256915160921b6044820152606401610252565b600261030a828261057c565b5050565b6000546001600160a01b031633146103595760405162461bcd60e51b815260206004820152600e60248201526d1393d517d055551213d49256915160921b6044820152606401610252565b600361030a828261057c565b6000546001600160a01b0316331461025b5760405162461bcd60e51b815260206004820152600c60248201526b15539055551213d49256915160a21b6044820152606401610252565b600060208083528351808285015260005b818110156103db578581018301518582016040015282016103bf565b506000604082860101526040601f19601f8301168501019250505092915050565b60006020828403121561040e57600080fd5b81356001600160a01b038116811461042557600080fd5b9392505050565b634e487b7160e01b600052604160045260246000fd5b60006020828403121561045457600080fd5b813567ffffffffffffffff8082111561046c57600080fd5b818401915084601f83011261048057600080fd5b8135818111156104925761049261042c565b604051601f8201601f19908116603f011681019083821181831017156104ba576104ba61042c565b816040528281528760208487010111156104d357600080fd5b826020860160208301376000928101602001929092525095945050505050565b600181811c9082168061050757607f821691505b60208210810361052757634e487b7160e01b600052602260045260246000fd5b50919050565b601f82111561057757600081815260208120601f850160051c810160208610156105545750805b601f850160051c820191505b8181101561057357828155600101610560565b5050505b505050565b815167ffffffffffffffff8111156105965761059661042c565b6105aa816105a484546104f3565b8461052d565b602080601f8311600181146105df57600084156105c75750858301515b600019600386901b1c1916600185901b178555610573565b600085815260208120601f198616915b8281101561060e578886015182559484019460019091019084016105ef565b508582101561062c5787850151600019600388901b60f8161c191681555b5050505050600190811b0190555056fea2646970667358221220bfffc636f6a533a5aeb0f837aabed11afe4fe58e5996866bcf3434aec948391964736f6c63430008110033",
    "linkReferences": {}
  },
  "methodIdentifiers": {
    "hub()": "365a86fc",
    "name()": "06fdde03",
    "owner()": "8da5cb5b",
    "setName(string)": "c47f0027",
    "setOwner(address)": "13af4035",
    "setTokenURI(string)": "e0df5b6f",
    "tokenId()": "17d70f7c",
    "tokenURI()": "3c130d90",
    "transferOwnership(address)": "f2fde38b"
  },
  "id": 26
}