{
  "abi": [
    {
      "inputs": [],
      "stateMutability": "nonpayable",
      "type": "constructor"
    },
    {
      "anonymous": false,
      "inputs": [
        {
          "indexed": true,
          "internalType": "address",
          "name": "owner",
          "type": "address"
        },
        {
          "indexed": true,
          "internalType": "address",
          "name": "approved",
          "type": "address"
        },
        {
          "indexed": true,
          "internalType": "uint256",
          "name": "tokenId",
          "type": "uint256"
        }
      ],
      "name": "Approval",
      "type": "event"
    },
    {
      "anonymous": false,
      "inputs": [
        {
          "indexed": true,
          "internalType": "address",
          "name": "owner",
          "type": "address"
        },
        {
          "indexed": true,
          "internalType": "address",
          "name": "operator",
          "type": "address"
        },
        {
          "indexed": false,
          "internalType": "bool",
          "name": "approved",
          "type": "bool"
        }
      ],
      "name": "ApprovalForAll",
      "type": "event"
    },
    {
      "anonymous": false,
      "inputs": [
        {
          "indexed": true,
          "internalType": "address",
          "name": "previousOwner",
          "type": "address"
        },
        {
          "indexed": true,
          "internalType": "address",
          "name": "newOwner",
          "type": "address"
        }
      ],
      "name": "OwnershipTransferred",
      "type": "event"
    },
    {
      "anonymous": false,
      "inputs": [
        {
          "indexed": false,
          "internalType": "uint256",
          "name": "supply",
          "type": "uint256"
        }
      ],
      "name": "SupplyChange",
      "type": "event"
    },
    {
      "anonymous": false,
      "inputs": [
        {
          "indexed": false,
          "internalType": "address",
          "name": "recipient",
          "type": "address"
        },
        {
          "indexed": false,
          "internalType": "uint256",
          "name": "amount",
          "type": "uint256"
        }
      ],
      "name": "Transfer",
      "type": "event"
    },
    {
      "anonymous": false,
      "inputs": [
        {
          "indexed": true,
          "internalType": "address",
          "name": "from",
          "type": "address"
        },
        {
          "indexed": true,
          "internalType": "address",
          "name": "to",
          "type": "address"
        },
        {
          "indexed": true,
          "internalType": "uint256",
          "name": "tokenId",
          "type": "uint256"
        }
      ],
      "name": "Transfer",
      "type": "event"
    },
    {
      "inputs": [
        {
          "internalType": "address",
          "name": "to",
          "type": "address"
        },
        {
          "internalType": "uint256",
          "name": "tokenId",
          "type": "uint256"
        }
      ],
      "name": "approve",
      "outputs": [],
      "stateMutability": "nonpayable",
      "type": "function"
    },
    {
      "inputs": [
        {
          "internalType": "address",
          "name": "owner",
          "type": "address"
        }
      ],
      "name": "balanceOf",
      "outputs": [
        {
          "internalType": "uint256",
          "name": "",
          "type": "uint256"
        }
      ],
      "stateMutability": "view",
      "type": "function"
    },
    {
      "inputs": [
        {
          "internalType": "uint256",
          "name": "tokenId",
          "type": "uint256"
        }
      ],
      "name": "getApproved",
      "outputs": [
        {
          "internalType": "address",
          "name": "",
          "type": "address"
        }
      ],
      "stateMutability": "view",
      "type": "function"
    },
    {
      "inputs": [
        {
          "internalType": "address",
          "name": "_target",
          "type": "address"
        }
      ],
      "name": "getBalance",
      "outputs": [
        {
          "internalType": "uint256",
          "name": "",
          "type": "uint256"
        }
      ],
      "stateMutability": "view",
      "type": "function"
    },
    {
      "inputs": [],
      "name": "getSupply",
      "outputs": [
        {
          "internalType": "uint256",
          "name": "",
          "type": "uint256"
        }
      ],
      "stateMutability": "view",
      "type": "function"
    },
    {
      "inputs": [],
      "name": "increaseTotalSupply",
      "outputs": [],
      "stateMutability": "nonpayable",
      "type": "function"
    },
    {
      "inputs": [
        {
          "internalType": "address",
          "name": "owner",
          "type": "address"
        },
        {
          "internalType": "address",
          "name": "operator",
          "type": "address"
        }
      ],
      "name": "isApprovedForAll",
      "outputs": [
        {
          "internalType": "bool",
          "name": "",
          "type": "bool"
        }
      ],
      "stateMutability": "view",
      "type": "function"
    },
    {
      "inputs": [],
      "name": "name",
      "outputs": [
        {
          "internalType": "string",
          "name": "",
          "type": "string"
        }
      ],
      "stateMutability": "view",
      "type": "function"
    },
    {
      "inputs": [],
      "name": "owner",
      "outputs": [
        {
          "internalType": "address",
          "name": "",
          "type": "address"
        }
      ],
      "stateMutability": "view",
      "type": "function"
    },
    {
      "inputs": [
        {
          "internalType": "uint256",
          "name": "tokenId",
          "type": "uint256"
        }
      ],
      "name": "ownerOf",
      "outputs": [
        {
          "internalType": "address",
          "name": "",
          "type": "address"
        }
      ],
      "stateMutability": "view",
      "type": "function"
    },
    {
      "inputs": [
        {
          "internalType": "address",
          "name": "_sender",
          "type": "address"
        },
        {
          "internalType": "address",
          "name": "_receiver",
          "type": "address"
        },
        {
          "internalType": "uint256",
          "name": "_amount",
          "type": "uint256"
        }
      ],
      "name": "recordPayment",
      "outputs": [],
      "stateMutability": "nonpayable",
      "type": "function"
    },
    {
      "inputs": [],
      "name": "renounceOwnership",
      "outputs": [],
      "stateMutability": "nonpayable",
      "type": "function"
    },
    {
      "inputs": [],
      "name": "safeMint",
      "outputs": [],
      "stateMutability": "nonpayable",
      "type": "function"
    },
    {
      "inputs": [
        {
          "internalType": "address",
          "name": "from",
          "type": "address"
        },
        {
          "internalType": "address",
          "name": "to",
          "type": "address"
        },
        {
          "internalType": "uint256",
          "name": "tokenId",
          "type": "uint256"
        }
      ],
      "name": "safeTransferFrom",
      "outputs": [],
      "stateMutability": "nonpayable",
      "type": "function"
    },
    {
      "inputs": [
        {
          "internalType": "address",
          "name": "from",
          "type": "address"
        },
        {
          "internalType": "address",
          "name": "to",
          "type": "address"
        },
        {
          "internalType": "uint256",
          "name": "tokenId",
          "type": "uint256"
        },
        {
          "internalType": "bytes",
          "name": "data",
          "type": "bytes"
        }
      ],
      "name": "safeTransferFrom",
      "outputs": [],
      "stateMutability": "nonpayable",
      "type": "function"
    },
    {
      "inputs": [
        {
          "internalType": "address",
          "name": "operator",
          "type": "address"
        },
        {
          "internalType": "bool",
          "name": "approved",
          "type": "bool"
        }
      ],
      "name": "setApprovalForAll",
      "outputs": [],
      "stateMutability": "nonpayable",
      "type": "function"
    },
    {
      "inputs": [
        {
          "internalType": "bytes4",
          "name": "interfaceId",
          "type": "bytes4"
        }
      ],
      "name": "supportsInterface",
      "outputs": [
        {
          "internalType": "bool",
          "name": "",
          "type": "bool"
        }
      ],
      "stateMutability": "view",
      "type": "function"
    },
    {
      "inputs": [],
      "name": "symbol",
      "outputs": [
        {
          "internalType": "string",
          "name": "",
          "type": "string"
        }
      ],
      "stateMutability": "view",
      "type": "function"
    },
    {
      "inputs": [
        {
          "internalType": "uint256",
          "name": "tokenId",
          "type": "uint256"
        }
      ],
      "name": "tokenURI",
      "outputs": [
        {
          "internalType": "string",
          "name": "",
          "type": "string"
        }
      ],
      "stateMutability": "view",
      "type": "function"
    },
    {
      "inputs": [
        {
          "internalType": "uint256",
          "name": "_amount",
          "type": "uint256"
        },
        {
          "internalType": "address",
          "name": "recipient",
          "type": "address"
        }
      ],
      "name": "transfer",
      "outputs": [],
      "stateMutability": "nonpayable",
      "type": "function"
    },
    {
      "inputs": [
        {
          "internalType": "address",
          "name": "from",
          "type": "address"
        },
        {
          "internalType": "address",
          "name": "to",
          "type": "address"
        },
        {
          "internalType": "uint256",
          "name": "tokenId",
          "type": "uint256"
        }
      ],
      "name": "transferFrom",
      "outputs": [],
      "stateMutability": "nonpayable",
      "type": "function"
    },
    {
      "inputs": [
        {
          "internalType": "address",
          "name": "newOwner",
          "type": "address"
        }
      ],
      "name": "transferOwnership",
      "outputs": [],
      "stateMutability": "nonpayable",
      "type": "function"
    }
  ],
  "bytecode": {
    "object": "0x608060405261271060075560006008553480156200001c57600080fd5b50604080518082018252600781526617da511a59125d60ca1b60208083019182528351808501909452600384526249444960e81b908401528151919291620000679160009162000109565b5080516200007d90600190602084019062000109565b5050506200009a62000094620000b360201b60201c565b620000b7565b60075433600090815260096020526040902055620001eb565b3390565b600680546001600160a01b038381166001600160a01b0319831681179093556040519116919082907f8be0079c531659141344cd1fd0a4f28419497f9722a3daafe3b4186f6b6457e090600090a35050565b8280546200011790620001af565b90600052602060002090601f0160209004810192826200013b576000855562000186565b82601f106200015657805160ff191683800117855562000186565b8280016001018555821562000186579182015b828111156200018657825182559160200191906001019062000169565b506200019492915062000198565b5090565b5b8082111562000194576000815560010162000199565b600181811c90821680620001c457607f821691505b602082108103620001e557634e487b7160e01b600052602260045260246000fd5b50919050565b61176380620001fb6000396000f3fe608060405234801561001057600080fd5b50600436106101425760003560e01c8063715018a6116100b8578063b88d4fde1161007c578063b88d4fde14610284578063c87b56dd14610297578063de0f2be1146102aa578063e985e9c5146102b2578063f2fde38b146102ee578063f8b2cb4f1461030157600080fd5b8063715018a61461023d5780638da5cb5b1461024557806395d89b4114610256578063a22cb4651461025e578063b7760c8f1461027157600080fd5b806342842e0e1161010a57806342842e0e146101d75780634e6ebeb8146101ea5780636352211e146101fd5780636871ee40146102105780636c9c2faf1461021857806370a082311461022a57600080fd5b806301ffc9a71461014757806306fdde031461016f578063081812fc14610184578063095ea7b3146101af57806323b872dd146101c4575b600080fd5b61015a610155366004611266565b61032a565b60405190151581526020015b60405180910390f35b61017761037c565b60405161016691906112db565b6101976101923660046112ee565b61040e565b6040516001600160a01b039091168152602001610166565b6101c26101bd366004611323565b610435565b005b6101c26101d236600461134d565b61054f565b6101c26101e536600461134d565b610580565b6101c26101f836600461134d565b61059b565b61019761020b3660046112ee565b610602565b6101c2610662565b6007545b604051908152602001610166565b61021c610238366004611389565b610685565b6101c261070b565b6006546001600160a01b0316610197565b61017761071f565b6101c261026c3660046113a4565b61072e565b6101c261027f3660046113e0565b61073d565b6101c2610292366004611422565b61078e565b6101776102a53660046112ee565b6107c6565b6101c261083a565b61015a6102c03660046114fe565b6001600160a01b03918216600090815260056020908152604080832093909416825291909152205460ff1690565b6101c26102fc366004611389565b610893565b61021c61030f366004611389565b6001600160a01b031660009081526009602052604090205490565b60006001600160e01b031982166380ac58cd60e01b148061035b57506001600160e01b03198216635b5e139f60e01b145b8061037657506301ffc9a760e01b6001600160e01b03198316145b92915050565b60606000805461038b90611528565b80601f01602080910402602001604051908101604052809291908181526020018280546103b790611528565b80156104045780601f106103d957610100808354040283529160200191610404565b820191906000526020600020905b8154815290600101906020018083116103e757829003601f168201915b5050505050905090565b60006104198261090c565b506000908152600460205260409020546001600160a01b031690565b600061044082610602565b9050806001600160a01b0316836001600160a01b0316036104b25760405162461bcd60e51b815260206004820152602160248201527f4552433732313a20617070726f76616c20746f2063757272656e74206f776e656044820152603960f91b60648201526084015b60405180910390fd5b336001600160a01b03821614806104ce57506104ce81336102c0565b6105405760405162461bcd60e51b815260206004820152603d60248201527f4552433732313a20617070726f76652063616c6c6572206973206e6f7420746f60448201527f6b656e206f776e6572206f7220617070726f76656420666f7220616c6c00000060648201526084016104a9565b61054a838361096b565b505050565b61055933826109d9565b6105755760405162461bcd60e51b81526004016104a990611562565b61054a838383610a58565b61054a8383836040518060200160405280600081525061078e565b6040805180820182529182526001600160a01b0392831660208084019182529484166000908152600a865291822080546001808201835591845295909220925160029095029092019384559051920180546001600160a01b03191692909116919091179055565b6000818152600260205260408120546001600160a01b0316806103765760405162461bcd60e51b8152602060048201526018602482015277115490cdcc8c4e881a5b9d985b1a59081d1bdad95b88125160421b60448201526064016104a9565b61066e33600854610bc9565b6008805490600061067e836115c5565b9190505550565b60006001600160a01b0382166106ef5760405162461bcd60e51b815260206004820152602960248201527f4552433732313a2061646472657373207a65726f206973206e6f7420612076616044820152683634b21037bbb732b960b91b60648201526084016104a9565b506001600160a01b031660009081526003602052604090205490565b610713610be3565b61071d6000610c3d565b565b60606001805461038b90611528565b610739338383610c8f565b5050565b61074833828461059b565b604080516001600160a01b0383168152602081018490527f69ca02dd4edd7bf0a4abb9ed3b7af3f14778db5d61921c7dc7cd545266326de2910160405180910390a15050565b61079833836109d9565b6107b45760405162461bcd60e51b81526004016104a990611562565b6107c084848484610d5d565b50505050565b60606107d18261090c565b60006107e860408051602081019091526000815290565b905060008151116108085760405180602001604052806000815250610833565b8061081284610d90565b6040516020016108239291906115de565b6040516020818303038152906040525b9392505050565b610842610be3565b6103e860076000828254610856919061160d565b90915550506007546040519081527fa7c4659c01b6333277cda1f0cba85839c3bce5bad5a027f5f8d49be390e2ff2f9060200160405180910390a1565b61089b610be3565b6001600160a01b0381166109005760405162461bcd60e51b815260206004820152602660248201527f4f776e61626c653a206e6577206f776e657220697320746865207a65726f206160448201526564647265737360d01b60648201526084016104a9565b61090981610c3d565b50565b6000818152600260205260409020546001600160a01b03166109095760405162461bcd60e51b8152602060048201526018602482015277115490cdcc8c4e881a5b9d985b1a59081d1bdad95b88125160421b60448201526064016104a9565b600081815260046020526040902080546001600160a01b0319166001600160a01b03841690811790915581906109a082610602565b6001600160a01b03167f8c5be1e5ebec7d5bd14f71427d1e84f3dd0314c0f7b2291e5b200ac8c7c3b92560405160405180910390a45050565b6000806109e583610602565b9050806001600160a01b0316846001600160a01b03161480610a2c57506001600160a01b0380821660009081526005602090815260408083209388168352929052205460ff165b80610a505750836001600160a01b0316610a458461040e565b6001600160a01b0316145b949350505050565b826001600160a01b0316610a6b82610602565b6001600160a01b031614610a915760405162461bcd60e51b81526004016104a990611625565b6001600160a01b038216610af35760405162461bcd60e51b8152602060048201526024808201527f4552433732313a207472616e7366657220746f20746865207a65726f206164646044820152637265737360e01b60648201526084016104a9565b610b008383836001610e23565b826001600160a01b0316610b1382610602565b6001600160a01b031614610b395760405162461bcd60e51b81526004016104a990611625565b600081815260046020908152604080832080546001600160a01b03199081169091556001600160a01b0387811680865260038552838620805460001901905590871680865283862080546001019055868652600290945282852080549092168417909155905184937fddf252ad1be2c89b69c2b068fc378daa952ba7f163c4a11628f55a4df523b3ef91a4505050565b610739828260405180602001604052806000815250610eab565b6006546001600160a01b0316331461071d5760405162461bcd60e51b815260206004820181905260248201527f4f776e61626c653a2063616c6c6572206973206e6f7420746865206f776e657260448201526064016104a9565b600680546001600160a01b038381166001600160a01b0319831681179093556040519116919082907f8be0079c531659141344cd1fd0a4f28419497f9722a3daafe3b4186f6b6457e090600090a35050565b816001600160a01b0316836001600160a01b031603610cf05760405162461bcd60e51b815260206004820152601960248201527f4552433732313a20617070726f766520746f2063616c6c65720000000000000060448201526064016104a9565b6001600160a01b03838116600081815260056020908152604080832094871680845294825291829020805460ff191686151590811790915591519182527f17307eab39ab6107e8899845ad3d59bd9653f200f220920489ca2b5937696c31910160405180910390a3505050565b610d68848484610a58565b610d7484848484610ede565b6107c05760405162461bcd60e51b81526004016104a99061166a565b60606000610d9d83610fdf565b600101905060008167ffffffffffffffff811115610dbd57610dbd61140c565b6040519080825280601f01601f191660200182016040528015610de7576020820181803683370190505b5090508181016020015b600019016f181899199a1a9b1b9c1cb0b131b232b360811b600a86061a8153600a8504945084610df157509392505050565b60018111156107c0576001600160a01b03841615610e69576001600160a01b03841660009081526003602052604081208054839290610e639084906116bc565b90915550505b6001600160a01b038316156107c0576001600160a01b03831660009081526003602052604081208054839290610ea090849061160d565b909155505050505050565b610eb583836110b7565b610ec26000848484610ede565b61054a5760405162461bcd60e51b81526004016104a99061166a565b60006001600160a01b0384163b15610fd457604051630a85bd0160e11b81526001600160a01b0385169063150b7a0290610f229033908990889088906004016116d3565b6020604051808303816000875af1925050508015610f5d575060408051601f3d908101601f19168201909252610f5a91810190611710565b60015b610fba573d808015610f8b576040519150601f19603f3d011682016040523d82523d6000602084013e610f90565b606091505b508051600003610fb25760405162461bcd60e51b81526004016104a99061166a565b805181602001fd5b6001600160e01b031916630a85bd0160e11b149050610a50565b506001949350505050565b60008072184f03e93ff9f4daa797ed6e38ed64bf6a1f0160401b831061101e5772184f03e93ff9f4daa797ed6e38ed64bf6a1f0160401b830492506040015b6d04ee2d6d415b85acef8100000000831061104a576d04ee2d6d415b85acef8100000000830492506020015b662386f26fc10000831061106857662386f26fc10000830492506010015b6305f5e1008310611080576305f5e100830492506008015b612710831061109457612710830492506004015b606483106110a6576064830492506002015b600a83106103765760010192915050565b6001600160a01b03821661110d5760405162461bcd60e51b815260206004820181905260248201527f4552433732313a206d696e7420746f20746865207a65726f206164647265737360448201526064016104a9565b6000818152600260205260409020546001600160a01b0316156111725760405162461bcd60e51b815260206004820152601c60248201527f4552433732313a20746f6b656e20616c7265616479206d696e7465640000000060448201526064016104a9565b611180600083836001610e23565b6000818152600260205260409020546001600160a01b0316156111e55760405162461bcd60e51b815260206004820152601c60248201527f4552433732313a20746f6b656e20616c7265616479206d696e7465640000000060448201526064016104a9565b6001600160a01b038216600081815260036020908152604080832080546001019055848352600290915280822080546001600160a01b0319168417905551839291907fddf252ad1be2c89b69c2b068fc378daa952ba7f163c4a11628f55a4df523b3ef908290a45050565b6001600160e01b03198116811461090957600080fd5b60006020828403121561127857600080fd5b813561083381611250565b60005b8381101561129e578181015183820152602001611286565b838111156107c05750506000910152565b600081518084526112c7816020860160208601611283565b601f01601f19169290920160200192915050565b60208152600061083360208301846112af565b60006020828403121561130057600080fd5b5035919050565b80356001600160a01b038116811461131e57600080fd5b919050565b6000806040838503121561133657600080fd5b61133f83611307565b946020939093013593505050565b60008060006060848603121561136257600080fd5b61136b84611307565b925061137960208501611307565b9150604084013590509250925092565b60006020828403121561139b57600080fd5b61083382611307565b600080604083850312156113b757600080fd5b6113c083611307565b9150602083013580151581146113d557600080fd5b809150509250929050565b600080604083850312156113f357600080fd5b8235915061140360208401611307565b90509250929050565b634e487b7160e01b600052604160045260246000fd5b6000806000806080858703121561143857600080fd5b61144185611307565b935061144f60208601611307565b925060408501359150606085013567ffffffffffffffff8082111561147357600080fd5b818701915087601f83011261148757600080fd5b8135818111156114995761149961140c565b604051601f8201601f19908116603f011681019083821181831017156114c1576114c161140c565b816040528281528a60208487010111156114da57600080fd5b82602086016020830137600060208483010152809550505050505092959194509250565b6000806040838503121561151157600080fd5b61151a83611307565b915061140360208401611307565b600181811c9082168061153c57607f821691505b60208210810361155c57634e487b7160e01b600052602260045260246000fd5b50919050565b6020808252602d908201527f4552433732313a2063616c6c6572206973206e6f7420746f6b656e206f776e6560408201526c1c881bdc88185c1c1c9bdd9959609a1b606082015260800190565b634e487b7160e01b600052601160045260246000fd5b6000600182016115d7576115d76115af565b5060010190565b600083516115f0818460208801611283565b835190830190611604818360208801611283565b01949350505050565b60008219821115611620576116206115af565b500190565b60208082526025908201527f4552433732313a207472616e736665722066726f6d20696e636f72726563742060408201526437bbb732b960d91b606082015260800190565b60208082526032908201527f4552433732313a207472616e7366657220746f206e6f6e20455243373231526560408201527131b2b4bb32b91034b6b83632b6b2b73a32b960711b606082015260800190565b6000828210156116ce576116ce6115af565b500390565b6001600160a01b0385811682528416602082015260408101839052608060608201819052600090611706908301846112af565b9695505050505050565b60006020828403121561172257600080fd5b81516108338161125056fea2646970667358221220d96ec75b7d81452c00e9ba35c5bb4d932e2c2e68c12a3fd863cb9f91fe81943e64736f6c634300080d0033",
    "linkReferences": {}
  }
}