{
  "abi": [
    {
      "inputs": [],
      "stateMutability": "nonpayable",
      "type": "constructor"
    },
    {
      "anonymous": false,
      "inputs": [
        {
          "indexed": true,
          "internalType": "address",
          "name": "owner",
          "type": "address"
        },
        {
          "indexed": true,
          "internalType": "address",
          "name": "approved",
          "type": "address"
        },
        {
          "indexed": true,
          "internalType": "uint256",
          "name": "tokenId",
          "type": "uint256"
        }
      ],
      "name": "Approval",
      "type": "event"
    },
    {
      "anonymous": false,
      "inputs": [
        {
          "indexed": true,
          "internalType": "address",
          "name": "owner",
          "type": "address"
        },
        {
          "indexed": true,
          "internalType": "address",
          "name": "operator",
          "type": "address"
        },
        {
          "indexed": false,
          "internalType": "bool",
          "name": "approved",
          "type": "bool"
        }
      ],
      "name": "ApprovalForAll",
      "type": "event"
    },
    {
      "anonymous": false,
      "inputs": [
        {
          "indexed": true,
          "internalType": "address",
          "name": "previousOwner",
          "type": "address"
        },
        {
          "indexed": true,
          "internalType": "address",
          "name": "newOwner",
          "type": "address"
        }
      ],
      "name": "OwnershipTransferred",
      "type": "event"
    },
    {
      "anonymous": false,
      "inputs": [
        {
          "indexed": false,
          "internalType": "uint256",
          "name": "supply",
          "type": "uint256"
        }
      ],
      "name": "SupplyChange",
      "type": "event"
    },
    {
      "anonymous": false,
      "inputs": [
        {
          "indexed": false,
          "internalType": "address",
          "name": "recipient",
          "type": "address"
        },
        {
          "indexed": false,
          "internalType": "uint256",
          "name": "amount",
          "type": "uint256"
        }
      ],
      "name": "Transfer",
      "type": "event"
    },
    {
      "anonymous": false,
      "inputs": [
        {
          "indexed": true,
          "internalType": "address",
          "name": "from",
          "type": "address"
        },
        {
          "indexed": true,
          "internalType": "address",
          "name": "to",
          "type": "address"
        },
        {
          "indexed": true,
          "internalType": "uint256",
          "name": "tokenId",
          "type": "uint256"
        }
      ],
      "name": "Transfer",
      "type": "event"
    },
    {
      "inputs": [
        {
          "internalType": "address",
          "name": "to",
          "type": "address"
        },
        {
          "internalType": "uint256",
          "name": "tokenId",
          "type": "uint256"
        }
      ],
      "name": "approve",
      "outputs": [],
      "stateMutability": "nonpayable",
      "type": "function"
    },
    {
      "inputs": [
        {
          "internalType": "address",
          "name": "owner",
          "type": "address"
        }
      ],
      "name": "balanceOf",
      "outputs": [
        {
          "internalType": "uint256",
          "name": "",
          "type": "uint256"
        }
      ],
      "stateMutability": "view",
      "type": "function"
    },
    {
      "inputs": [
        {
          "internalType": "uint256",
          "name": "tokenId",
          "type": "uint256"
        }
      ],
      "name": "getApproved",
      "outputs": [
        {
          "internalType": "address",
          "name": "",
          "type": "address"
        }
      ],
      "stateMutability": "view",
      "type": "function"
    },
    {
      "inputs": [
        {
          "internalType": "address",
          "name": "_target",
          "type": "address"
        }
      ],
      "name": "getBalance",
      "outputs": [
        {
          "internalType": "uint256",
          "name": "",
          "type": "uint256"
        }
      ],
      "stateMutability": "view",
      "type": "function"
    },
    {
      "inputs": [],
      "name": "getSupply",
      "outputs": [
        {
          "internalType": "uint256",
          "name": "",
          "type": "uint256"
        }
      ],
      "stateMutability": "view",
      "type": "function"
    },
    {
      "inputs": [],
      "name": "increaseTotalSupply",
      "outputs": [],
      "stateMutability": "nonpayable",
      "type": "function"
    },
    {
      "inputs": [
        {
          "internalType": "address",
          "name": "owner",
          "type": "address"
        },
        {
          "internalType": "address",
          "name": "operator",
          "type": "address"
        }
      ],
      "name": "isApprovedForAll",
      "outputs": [
        {
          "internalType": "bool",
          "name": "",
          "type": "bool"
        }
      ],
      "stateMutability": "view",
      "type": "function"
    },
    {
      "inputs": [],
      "name": "name",
      "outputs": [
        {
          "internalType": "string",
          "name": "",
          "type": "string"
        }
      ],
      "stateMutability": "view",
      "type": "function"
    },
    {
      "inputs": [],
      "name": "owner",
      "outputs": [
        {
          "internalType": "address",
          "name": "",
          "type": "address"
        }
      ],
      "stateMutability": "view",
      "type": "function"
    },
    {
      "inputs": [
        {
          "internalType": "uint256",
          "name": "tokenId",
          "type": "uint256"
        }
      ],
      "name": "ownerOf",
      "outputs": [
        {
          "internalType": "address",
          "name": "",
          "type": "address"
        }
      ],
      "stateMutability": "view",
      "type": "function"
    },
    {
      "inputs": [
        {
          "internalType": "address",
          "name": "_sender",
          "type": "address"
        },
        {
          "internalType": "address",
          "name": "_receiver",
          "type": "address"
        },
        {
          "internalType": "uint256",
          "name": "_amount",
          "type": "uint256"
        }
      ],
      "name": "recordPayment",
      "outputs": [],
      "stateMutability": "nonpayable",
      "type": "function"
    },
    {
      "inputs": [],
      "name": "renounceOwnership",
      "outputs": [],
      "stateMutability": "nonpayable",
      "type": "function"
    },
    {
      "inputs": [
        {
          "internalType": "address",
          "name": "from",
          "type": "address"
        },
        {
          "internalType": "address",
          "name": "to",
          "type": "address"
        },
        {
          "internalType": "uint256",
          "name": "tokenId",
          "type": "uint256"
        }
      ],
      "name": "safeTransferFrom",
      "outputs": [],
      "stateMutability": "nonpayable",
      "type": "function"
    },
    {
      "inputs": [
        {
          "internalType": "address",
          "name": "from",
          "type": "address"
        },
        {
          "internalType": "address",
          "name": "to",
          "type": "address"
        },
        {
          "internalType": "uint256",
          "name": "tokenId",
          "type": "uint256"
        },
        {
          "internalType": "bytes",
          "name": "data",
          "type": "bytes"
        }
      ],
      "name": "safeTransferFrom",
      "outputs": [],
      "stateMutability": "nonpayable",
      "type": "function"
    },
    {
      "inputs": [
        {
          "internalType": "address",
          "name": "operator",
          "type": "address"
        },
        {
          "internalType": "bool",
          "name": "approved",
          "type": "bool"
        }
      ],
      "name": "setApprovalForAll",
      "outputs": [],
      "stateMutability": "nonpayable",
      "type": "function"
    },
    {
      "inputs": [
        {
          "internalType": "bytes4",
          "name": "interfaceId",
          "type": "bytes4"
        }
      ],
      "name": "supportsInterface",
      "outputs": [
        {
          "internalType": "bool",
          "name": "",
          "type": "bool"
        }
      ],
      "stateMutability": "view",
      "type": "function"
    },
    {
      "inputs": [],
      "name": "symbol",
      "outputs": [
        {
          "internalType": "string",
          "name": "",
          "type": "string"
        }
      ],
      "stateMutability": "view",
      "type": "function"
    },
    {
      "inputs": [
        {
          "internalType": "uint256",
          "name": "tokenId",
          "type": "uint256"
        }
      ],
      "name": "tokenURI",
      "outputs": [
        {
          "internalType": "string",
          "name": "",
          "type": "string"
        }
      ],
      "stateMutability": "view",
      "type": "function"
    },
    {
      "inputs": [
        {
          "internalType": "uint256",
          "name": "_amount",
          "type": "uint256"
        },
        {
          "internalType": "address",
          "name": "recipient",
          "type": "address"
        }
      ],
      "name": "transfer",
      "outputs": [],
      "stateMutability": "nonpayable",
      "type": "function"
    },
    {
      "inputs": [
        {
          "internalType": "address",
          "name": "from",
          "type": "address"
        },
        {
          "internalType": "address",
          "name": "to",
          "type": "address"
        },
        {
          "internalType": "uint256",
          "name": "tokenId",
          "type": "uint256"
        }
      ],
      "name": "transferFrom",
      "outputs": [],
      "stateMutability": "nonpayable",
      "type": "function"
    },
    {
      "inputs": [
        {
          "internalType": "address",
          "name": "newOwner",
          "type": "address"
        }
      ],
      "name": "transferOwnership",
      "outputs": [],
      "stateMutability": "nonpayable",
      "type": "function"
    }
  ],
  "bytecode": {
    "object": "0x60806040526127106007553480156200001757600080fd5b50604080518082018252600781526617da511a59125d60ca1b60208083019182528351808501909452600384526249444960e81b908401528151919291620000629160009162000104565b5080516200007890600190602084019062000104565b505050620000956200008f620000ae60201b60201c565b620000b2565b60075433600090815260086020526040902055620001e6565b3390565b600680546001600160a01b038381166001600160a01b0319831681179093556040519116919082907f8be0079c531659141344cd1fd0a4f28419497f9722a3daafe3b4186f6b6457e090600090a35050565b8280546200011290620001aa565b90600052602060002090601f01602090048101928262000136576000855562000181565b82601f106200015157805160ff191683800117855562000181565b8280016001018555821562000181579182015b828111156200018157825182559160200191906001019062000164565b506200018f92915062000193565b5090565b5b808211156200018f576000815560010162000194565b600181811c90821680620001bf57607f821691505b602082108103620001e057634e487b7160e01b600052602260045260246000fd5b50919050565b61152e80620001f66000396000f3fe608060405234801561001057600080fd5b50600436106101375760003560e01c8063715018a6116100b8578063b88d4fde1161007c578063b88d4fde14610271578063c87b56dd14610284578063de0f2be114610297578063e985e9c51461029f578063f2fde38b146102db578063f8b2cb4f146102ee57600080fd5b8063715018a61461022a5780638da5cb5b1461023257806395d89b4114610243578063a22cb4651461024b578063b7760c8f1461025e57600080fd5b806342842e0e116100ff57806342842e0e146101cc5780634e6ebeb8146101df5780636352211e146101f25780636c9c2faf1461020557806370a082311461021757600080fd5b806301ffc9a71461013c57806306fdde0314610164578063081812fc14610179578063095ea7b3146101a457806323b872dd146101b9575b600080fd5b61014f61014a36600461104a565b610317565b60405190151581526020015b60405180910390f35b61016c610369565b60405161015b91906110bf565b61018c6101873660046110d2565b6103fb565b6040516001600160a01b03909116815260200161015b565b6101b76101b2366004611107565b610422565b005b6101b76101c7366004611131565b61053c565b6101b76101da366004611131565b61056d565b6101b76101ed366004611131565b610588565b61018c6102003660046110d2565b6105ef565b6007545b60405190815260200161015b565b61020961022536600461116d565b61064f565b6101b76106d5565b6006546001600160a01b031661018c565b61016c6106e9565b6101b7610259366004611188565b6106f8565b6101b761026c3660046111c4565b610707565b6101b761027f366004611206565b610758565b61016c6102923660046110d2565b610790565b6101b7610804565b61014f6102ad3660046112e2565b6001600160a01b03918216600090815260056020908152604080832093909416825291909152205460ff1690565b6101b76102e936600461116d565b61085d565b6102096102fc36600461116d565b6001600160a01b031660009081526008602052604090205490565b60006001600160e01b031982166380ac58cd60e01b148061034857506001600160e01b03198216635b5e139f60e01b145b8061036357506301ffc9a760e01b6001600160e01b03198316145b92915050565b6060600080546103789061130c565b80601f01602080910402602001604051908101604052809291908181526020018280546103a49061130c565b80156103f15780601f106103c6576101008083540402835291602001916103f1565b820191906000526020600020905b8154815290600101906020018083116103d457829003601f168201915b5050505050905090565b6000610406826108d6565b506000908152600460205260409020546001600160a01b031690565b600061042d826105ef565b9050806001600160a01b0316836001600160a01b03160361049f5760405162461bcd60e51b815260206004820152602160248201527f4552433732313a20617070726f76616c20746f2063757272656e74206f776e656044820152603960f91b60648201526084015b60405180910390fd5b336001600160a01b03821614806104bb57506104bb81336102ad565b61052d5760405162461bcd60e51b815260206004820152603d60248201527f4552433732313a20617070726f76652063616c6c6572206973206e6f7420746f60448201527f6b656e206f776e6572206f7220617070726f76656420666f7220616c6c0000006064820152608401610496565b6105378383610935565b505050565b61054633826109a3565b6105625760405162461bcd60e51b815260040161049690611346565b610537838383610a22565b61053783838360405180602001604052806000815250610758565b6040805180820182529182526001600160a01b03928316602080840191825294841660009081526009865291822080546001808201835591845295909220925160029095029092019384559051920180546001600160a01b03191692909116919091179055565b6000818152600260205260408120546001600160a01b0316806103635760405162461bcd60e51b8152602060048201526018602482015277115490cdcc8c4e881a5b9d985b1a59081d1bdad95b88125160421b6044820152606401610496565b60006001600160a01b0382166106b95760405162461bcd60e51b815260206004820152602960248201527f4552433732313a2061646472657373207a65726f206973206e6f7420612076616044820152683634b21037bbb732b960b91b6064820152608401610496565b506001600160a01b031660009081526003602052604090205490565b6106dd610b93565b6106e76000610bed565b565b6060600180546103789061130c565b610703338383610c3f565b5050565b610712338284610588565b604080516001600160a01b0383168152602081018490527f69ca02dd4edd7bf0a4abb9ed3b7af3f14778db5d61921c7dc7cd545266326de2910160405180910390a15050565b61076233836109a3565b61077e5760405162461bcd60e51b815260040161049690611346565b61078a84848484610d0d565b50505050565b606061079b826108d6565b60006107b260408051602081019091526000815290565b905060008151116107d257604051806020016040528060008152506107fd565b806107dc84610d40565b6040516020016107ed929190611393565b6040516020818303038152906040525b9392505050565b61080c610b93565b6103e86007600082825461082091906113d8565b90915550506007546040519081527fa7c4659c01b6333277cda1f0cba85839c3bce5bad5a027f5f8d49be390e2ff2f9060200160405180910390a1565b610865610b93565b6001600160a01b0381166108ca5760405162461bcd60e51b815260206004820152602660248201527f4f776e61626c653a206e6577206f776e657220697320746865207a65726f206160448201526564647265737360d01b6064820152608401610496565b6108d381610bed565b50565b6000818152600260205260409020546001600160a01b03166108d35760405162461bcd60e51b8152602060048201526018602482015277115490cdcc8c4e881a5b9d985b1a59081d1bdad95b88125160421b6044820152606401610496565b600081815260046020526040902080546001600160a01b0319166001600160a01b038416908117909155819061096a826105ef565b6001600160a01b03167f8c5be1e5ebec7d5bd14f71427d1e84f3dd0314c0f7b2291e5b200ac8c7c3b92560405160405180910390a45050565b6000806109af836105ef565b9050806001600160a01b0316846001600160a01b031614806109f657506001600160a01b0380821660009081526005602090815260408083209388168352929052205460ff165b80610a1a5750836001600160a01b0316610a0f846103fb565b6001600160a01b0316145b949350505050565b826001600160a01b0316610a35826105ef565b6001600160a01b031614610a5b5760405162461bcd60e51b8152600401610496906113f0565b6001600160a01b038216610abd5760405162461bcd60e51b8152602060048201526024808201527f4552433732313a207472616e7366657220746f20746865207a65726f206164646044820152637265737360e01b6064820152608401610496565b610aca8383836001610dd3565b826001600160a01b0316610add826105ef565b6001600160a01b031614610b035760405162461bcd60e51b8152600401610496906113f0565b600081815260046020908152604080832080546001600160a01b03199081169091556001600160a01b0387811680865260038552838620805460001901905590871680865283862080546001019055868652600290945282852080549092168417909155905184937fddf252ad1be2c89b69c2b068fc378daa952ba7f163c4a11628f55a4df523b3ef91a4505050565b6006546001600160a01b031633146106e75760405162461bcd60e51b815260206004820181905260248201527f4f776e61626c653a2063616c6c6572206973206e6f7420746865206f776e65726044820152606401610496565b600680546001600160a01b038381166001600160a01b0319831681179093556040519116919082907f8be0079c531659141344cd1fd0a4f28419497f9722a3daafe3b4186f6b6457e090600090a35050565b816001600160a01b0316836001600160a01b031603610ca05760405162461bcd60e51b815260206004820152601960248201527f4552433732313a20617070726f766520746f2063616c6c6572000000000000006044820152606401610496565b6001600160a01b03838116600081815260056020908152604080832094871680845294825291829020805460ff191686151590811790915591519182527f17307eab39ab6107e8899845ad3d59bd9653f200f220920489ca2b5937696c31910160405180910390a3505050565b610d18848484610a22565b610d2484848484610e5b565b61078a5760405162461bcd60e51b815260040161049690611435565b60606000610d4d83610f5c565b600101905060008167ffffffffffffffff811115610d6d57610d6d6111f0565b6040519080825280601f01601f191660200182016040528015610d97576020820181803683370190505b5090508181016020015b600019016f181899199a1a9b1b9c1cb0b131b232b360811b600a86061a8153600a8504945084610da157509392505050565b600181111561078a576001600160a01b03841615610e19576001600160a01b03841660009081526003602052604081208054839290610e13908490611487565b90915550505b6001600160a01b0383161561078a576001600160a01b03831660009081526003602052604081208054839290610e509084906113d8565b909155505050505050565b60006001600160a01b0384163b15610f5157604051630a85bd0160e11b81526001600160a01b0385169063150b7a0290610e9f90339089908890889060040161149e565b6020604051808303816000875af1925050508015610eda575060408051601f3d908101601f19168201909252610ed7918101906114db565b60015b610f37573d808015610f08576040519150601f19603f3d011682016040523d82523d6000602084013e610f0d565b606091505b508051600003610f2f5760405162461bcd60e51b815260040161049690611435565b805181602001fd5b6001600160e01b031916630a85bd0160e11b149050610a1a565b506001949350505050565b60008072184f03e93ff9f4daa797ed6e38ed64bf6a1f0160401b8310610f9b5772184f03e93ff9f4daa797ed6e38ed64bf6a1f0160401b830492506040015b6d04ee2d6d415b85acef81000000008310610fc7576d04ee2d6d415b85acef8100000000830492506020015b662386f26fc100008310610fe557662386f26fc10000830492506010015b6305f5e1008310610ffd576305f5e100830492506008015b612710831061101157612710830492506004015b60648310611023576064830492506002015b600a83106103635760010192915050565b6001600160e01b0319811681146108d357600080fd5b60006020828403121561105c57600080fd5b81356107fd81611034565b60005b8381101561108257818101518382015260200161106a565b8381111561078a5750506000910152565b600081518084526110ab816020860160208601611067565b601f01601f19169290920160200192915050565b6020815260006107fd6020830184611093565b6000602082840312156110e457600080fd5b5035919050565b80356001600160a01b038116811461110257600080fd5b919050565b6000806040838503121561111a57600080fd5b611123836110eb565b946020939093013593505050565b60008060006060848603121561114657600080fd5b61114f846110eb565b925061115d602085016110eb565b9150604084013590509250925092565b60006020828403121561117f57600080fd5b6107fd826110eb565b6000806040838503121561119b57600080fd5b6111a4836110eb565b9150602083013580151581146111b957600080fd5b809150509250929050565b600080604083850312156111d757600080fd5b823591506111e7602084016110eb565b90509250929050565b634e487b7160e01b600052604160045260246000fd5b6000806000806080858703121561121c57600080fd5b611225856110eb565b9350611233602086016110eb565b925060408501359150606085013567ffffffffffffffff8082111561125757600080fd5b818701915087601f83011261126b57600080fd5b81358181111561127d5761127d6111f0565b604051601f8201601f19908116603f011681019083821181831017156112a5576112a56111f0565b816040528281528a60208487010111156112be57600080fd5b82602086016020830137600060208483010152809550505050505092959194509250565b600080604083850312156112f557600080fd5b6112fe836110eb565b91506111e7602084016110eb565b600181811c9082168061132057607f821691505b60208210810361134057634e487b7160e01b600052602260045260246000fd5b50919050565b6020808252602d908201527f4552433732313a2063616c6c6572206973206e6f7420746f6b656e206f776e6560408201526c1c881bdc88185c1c1c9bdd9959609a1b606082015260800190565b600083516113a5818460208801611067565b8351908301906113b9818360208801611067565b01949350505050565b634e487b7160e01b600052601160045260246000fd5b600082198211156113eb576113eb6113c2565b500190565b60208082526025908201527f4552433732313a207472616e736665722066726f6d20696e636f72726563742060408201526437bbb732b960d91b606082015260800190565b60208082526032908201527f4552433732313a207472616e7366657220746f206e6f6e20455243373231526560408201527131b2b4bb32b91034b6b83632b6b2b73a32b960711b606082015260800190565b600082821015611499576114996113c2565b500390565b6001600160a01b03858116825284166020820152604081018390526080606082018190526000906114d190830184611093565b9695505050505050565b6000602082840312156114ed57600080fd5b81516107fd8161103456fea2646970667358221220dd88f19ce9dc74ead4a114bf5bb378c651f324af523d675e344a9f905541fd0a64736f6c634300080d0033",
    "linkReferences": {}
  }
}