{
  "abi": [
    {
      "inputs": [
        {
          "internalType": "uint8",
          "name": "_seed",
          "type": "uint8"
        }
      ],
      "stateMutability": "nonpayable",
      "type": "constructor"
    },
    {
      "inputs": [
        {
          "internalType": "uint8",
          "name": "_seed",
          "type": "uint8"
        }
      ],
      "name": "changeSeed",
      "outputs": [],
      "stateMutability": "nonpayable",
      "type": "function"
    },
    {
      "inputs": [],
      "name": "getRandomNumber",
      "outputs": [
        {
          "internalType": "uint256",
          "name": "",
          "type": "uint256"
        }
      ],
      "stateMutability": "view",
      "type": "function"
    }
  ],
  "bytecode": {
    "object": "0x608060405234801561001057600080fd5b506040516101863803806101868339818101604052602081101561003357600080fd5b505160008054610100600160a81b03191633610100021760ff191660ff90921691909117815561011d90819061006990396000f3fe6080604052348015600f57600080fd5b506004361060325760003560e01c8063371f407b146037578063dbdff2c1146056575b600080fd5b605460048036036020811015604b57600080fd5b503560ff16606e565b005b605c60d3565b60408051918252519081900360200190f35b60005461010090046001600160a01b0316331460bd576040805162461bcd60e51b81526020600482015260096024820152682737ba1037bbb732b960b91b604482015290519081900360640190fd5b6000805460ff191660ff92909216919091179055565b6000805460ff16438160e157fe5b0690509056fea26469706673582212209851daba3e1d71c94d390fec6974f1d1a18077fbff9dcf153f66900a3921250064736f6c63430006000033",
    "linkReferences": {}
  }
}