{
  "abi": [
    {
      "inputs": [],
      "name": "garbage",
      "outputs": [
        {
          "internalType": "string",
          "name": "",
          "type": "string"
        }
      ],
      "stateMutability": "pure",
      "type": "function"
    },
    {
      "inputs": [],
      "name": "generateSvg",
      "outputs": [
        {
          "internalType": "string",
          "name": "",
          "type": "string"
        }
      ],
      "stateMutability": "view",
      "type": "function"
    },
    {
      "inputs": [
        {
          "internalType": "uint256",
          "name": "x",
          "type": "uint256"
        },
        {
          "internalType": "uint256",
          "name": "y",
          "type": "uint256"
        }
      ],
      "name": "getPixelFromCoords",
      "outputs": [
        {
          "internalType": "uint8[4]",
          "name": "",
          "type": "uint8[4]"
        }
      ],
      "stateMutability": "view",
      "type": "function"
    },
    {
      "inputs": [
        {
          "internalType": "uint256",
          "name": "",
          "type": "uint256"
        }
      ],
      "name": "pixels",
      "outputs": [
        {
          "internalType": "uint8",
          "name": "",
          "type": "uint8"
        }
      ],
      "stateMutability": "view",
      "type": "function"
    }
  ],
  "bytecode": {
    "object": "0x608060405234801561001057600080fd5b506107e1806100206000396000f3fe608060405234801561001057600080fd5b506004361061004c5760003560e01c80635849dbf8146100515780638da7f2321461007a578063d1e8b8cc1461009f578063fd38b21a146100b4575b600080fd5b61006461005f3660046104c5565b6100bc565b60405161007191906104e7565b60405180910390f35b61008d61008836600461051b565b610181565b60405160ff9091168152602001610071565b6100a76101ac565b6040516100719190610558565b6100a7610317565b6100c46104a7565b6100cc6104a7565b60006100d96004866105a1565b60046100e66018876105a1565b6100f091906105a1565b6100fa91906105b8565b905060005b60048160ff16101561017557600061011a60ff8316846105b8565b610900811061012b5761012b6105cb565b602091828204019190069054906101000a900460ff16838260ff1660048110610156576101566105cb565b60ff90921660209290920201528061016d816105e1565b9150506100ff565b50909150505b92915050565b600081610900811061019257600080fd5b60209182820401919006915054906101000a900460ff1681565b606060006040518060800160405280604c8152602001610760604c9139905060005b60108160ff1610156102ef5760005b60108160ff1610156102e6576040805180820190915260098152683c7265637420783d2760b81b60208201528390610221610219600885610600565b60ff16610328565b6040805180820190915260058152642720793d2760d81b602082015261024b610219600888610600565b6040518060400160405280601d81526020017f272077696474683d273827206865696768743d2738272066696c6c3d270000008152506102996102948860ff168a60ff166100bc565b61036c565b6040518060400160405280600381526020016213979f60e91b8152506040516020016102cc989796959493929190610623565b60408051601f1981840301815291905292506001016101dd565b506001016101ce565b508060405160200161030191906106c8565b60408051601f1981840301815291905292915050565b606061032360ff6103cc565b905090565b606060a06040510180604052602081039150506000815280825b600183039250600a81066030018353600a9004806103425750819003601f19909101908152919050565b60606103828260005b602002015160ff166103cc565b61038d836001610375565b610398846002610375565b6103a3856003610375565b6040516020016103b694939291906106f2565b6040516020818303038152906040529050919050565b604080516002808252818301909252606091600091906020820181803683370190505090506f181899199a1a9b1b9c1cb0b131b232b360811b83600f1660108110610419576104196105cb565b1a60f81b81600181518110610430576104306105cb565b60200101906001600160f81b031916908160001a9053506f181899199a1a9b1b9c1cb0b131b232b360811b600484901c600f1660108110610473576104736105cb565b1a60f81b8160008151811061048a5761048a6105cb565b60200101906001600160f81b031916908160001a90535092915050565b60405180608001604052806004906020820280368337509192915050565b600080604083850312156104d857600080fd5b50508035926020909101359150565b60808101818360005b600481101561051257815160ff168352602092830192909101906001016104f0565b50505092915050565b60006020828403121561052d57600080fd5b5035919050565b60005b8381101561054f578181015183820152602001610537565b50506000910152565b6020815260008251806020840152610577816040850160208701610534565b601f01601f19169190910160400192915050565b634e487b7160e01b600052601160045260246000fd5b808202811582820484141761017b5761017b61058b565b8082018082111561017b5761017b61058b565b634e487b7160e01b600052603260045260246000fd5b600060ff821660ff81036105f7576105f761058b565b60010192915050565b60ff818116838216029081169081811461061c5761061c61058b565b5092915050565b6000895160206106368285838f01610534565b8a51918401916106498184848f01610534565b8a5192019161065b8184848e01610534565b895192019161066d8184848d01610534565b885192019161067f8184848c01610534565b87519201916106918184848b01610534565b86519201916106a38184848a01610534565b85519201916106b58184848901610534565b919091019b9a5050505050505050505050565b600082516106da818460208701610534565b651e17b9bb339f60d11b920191825250600601919050565b602360f81b81526000855161070e816001850160208a01610534565b855190830190610725816001840160208a01610534565b855191019061073b816001840160208901610534565b8451910190610751816001840160208801610534565b01600101969550505050505056fe3c73766720786d6c6e733d22687474703a2f2f7777772e77332e6f72672f323030302f737667222076657273696f6e3d22312e32222076696577426f783d223020302031323820313238223ea264697066735822122038a0f01603be31e3333cca23a9f1daa34eb059f6ad497aa5b3c814080daef1dd64736f6c63430008110033",
    "linkReferences": {}
  },
  "methodIdentifiers": {
    "garbage()": "fd38b21a",
    "generateSvg()": "d1e8b8cc",
    "getPixelFromCoords(uint256,uint256)": "5849dbf8",
    "pixels(uint256)": "8da7f232"
  },
  "id": 6
}