{
  "abi": [
    {
      "inputs": [
        {
          "internalType": "string",
          "name": "_name",
          "type": "string"
        },
        {
          "internalType": "string",
          "name": "_symbol",
          "type": "string"
        },
        {
          "internalType": "uint8",
          "name": "_decimals",
          "type": "uint8"
        },
        {
          "internalType": "uint256",
          "name": "_amount",
          "type": "uint256"
        },
        {
          "internalType": "uint256",
          "name": "_tokenId",
          "type": "uint256"
        },
        {
          "internalType": "address",
          "name": "_owner",
          "type": "address"
        },
        {
          "internalType": "address",
          "name": "_calcNav",
          "type": "address"
        }
      ],
      "stateMutability": "payable",
      "type": "constructor"
    },
    {
      "anonymous": false,
      "inputs": [
        {
          "indexed": true,
          "internalType": "address",
          "name": "owner",
          "type": "address"
        },
        {
          "indexed": true,
          "internalType": "address",
          "name": "spender",
          "type": "address"
        },
        {
          "indexed": false,
          "internalType": "uint256",
          "name": "amount",
          "type": "uint256"
        }
      ],
      "name": "Approval",
      "type": "event"
    },
    {
      "anonymous": false,
      "inputs": [
        {
          "indexed": true,
          "internalType": "address",
          "name": "user",
          "type": "address"
        },
        {
          "indexed": true,
          "internalType": "address",
          "name": "newOwner",
          "type": "address"
        }
      ],
      "name": "OwnershipTransferred",
      "type": "event"
    },
    {
      "anonymous": false,
      "inputs": [
        {
          "indexed": true,
          "internalType": "address",
          "name": "from",
          "type": "address"
        },
        {
          "indexed": true,
          "internalType": "address",
          "name": "to",
          "type": "address"
        },
        {
          "indexed": false,
          "internalType": "uint256",
          "name": "amount",
          "type": "uint256"
        }
      ],
      "name": "Transfer",
      "type": "event"
    },
    {
      "inputs": [],
      "name": "DOMAIN_SEPARATOR",
      "outputs": [
        {
          "internalType": "bytes32",
          "name": "",
          "type": "bytes32"
        }
      ],
      "stateMutability": "view",
      "type": "function"
    },
    {
      "inputs": [
        {
          "internalType": "address",
          "name": "priceFeed",
          "type": "address"
        }
      ],
      "name": "addETHPriceFeed",
      "outputs": [],
      "stateMutability": "nonpayable",
      "type": "function"
    },
    {
      "inputs": [
        {
          "internalType": "address",
          "name": "priceFeed",
          "type": "address"
        },
        {
          "internalType": "address",
          "name": "feedToken",
          "type": "address"
        }
      ],
      "name": "addTrackedPriceFeeds",
      "outputs": [],
      "stateMutability": "nonpayable",
      "type": "function"
    },
    {
      "inputs": [
        {
          "internalType": "address",
          "name": "",
          "type": "address"
        },
        {
          "internalType": "address",
          "name": "",
          "type": "address"
        }
      ],
      "name": "allowance",
      "outputs": [
        {
          "internalType": "uint256",
          "name": "",
          "type": "uint256"
        }
      ],
      "stateMutability": "view",
      "type": "function"
    },
    {
      "inputs": [
        {
          "internalType": "address",
          "name": "spender",
          "type": "address"
        },
        {
          "internalType": "uint256",
          "name": "amount",
          "type": "uint256"
        }
      ],
      "name": "approve",
      "outputs": [
        {
          "internalType": "bool",
          "name": "",
          "type": "bool"
        }
      ],
      "stateMutability": "nonpayable",
      "type": "function"
    },
    {
      "inputs": [
        {
          "internalType": "address",
          "name": "",
          "type": "address"
        }
      ],
      "name": "balanceOf",
      "outputs": [
        {
          "internalType": "uint256",
          "name": "",
          "type": "uint256"
        }
      ],
      "stateMutability": "view",
      "type": "function"
    },
    {
      "inputs": [],
      "name": "calcNav",
      "outputs": [
        {
          "internalType": "address",
          "name": "",
          "type": "address"
        }
      ],
      "stateMutability": "view",
      "type": "function"
    },
    {
      "inputs": [],
      "name": "checkNAV",
      "outputs": [
        {
          "internalType": "int256",
          "name": "",
          "type": "int256"
        }
      ],
      "stateMutability": "view",
      "type": "function"
    },
    {
      "inputs": [],
      "name": "decimals",
      "outputs": [
        {
          "internalType": "uint8",
          "name": "",
          "type": "uint8"
        }
      ],
      "stateMutability": "view",
      "type": "function"
    },
    {
      "inputs": [],
      "name": "hub",
      "outputs": [
        {
          "internalType": "address",
          "name": "",
          "type": "address"
        }
      ],
      "stateMutability": "view",
      "type": "function"
    },
    {
      "inputs": [
        {
          "internalType": "uint256",
          "name": "amount",
          "type": "uint256"
        }
      ],
      "name": "mintWithEth",
      "outputs": [],
      "stateMutability": "payable",
      "type": "function"
    },
    {
      "inputs": [],
      "name": "name",
      "outputs": [
        {
          "internalType": "string",
          "name": "",
          "type": "string"
        }
      ],
      "stateMutability": "view",
      "type": "function"
    },
    {
      "inputs": [
        {
          "internalType": "address",
          "name": "",
          "type": "address"
        }
      ],
      "name": "nonces",
      "outputs": [
        {
          "internalType": "uint256",
          "name": "",
          "type": "uint256"
        }
      ],
      "stateMutability": "view",
      "type": "function"
    },
    {
      "inputs": [],
      "name": "owner",
      "outputs": [
        {
          "internalType": "address",
          "name": "",
          "type": "address"
        }
      ],
      "stateMutability": "view",
      "type": "function"
    },
    {
      "inputs": [
        {
          "internalType": "address",
          "name": "owner",
          "type": "address"
        },
        {
          "internalType": "address",
          "name": "spender",
          "type": "address"
        },
        {
          "internalType": "uint256",
          "name": "value",
          "type": "uint256"
        },
        {
          "internalType": "uint256",
          "name": "deadline",
          "type": "uint256"
        },
        {
          "internalType": "uint8",
          "name": "v",
          "type": "uint8"
        },
        {
          "internalType": "bytes32",
          "name": "r",
          "type": "bytes32"
        },
        {
          "internalType": "bytes32",
          "name": "s",
          "type": "bytes32"
        }
      ],
      "name": "permit",
      "outputs": [],
      "stateMutability": "nonpayable",
      "type": "function"
    },
    {
      "inputs": [],
      "name": "returnEth",
      "outputs": [],
      "stateMutability": "payable",
      "type": "function"
    },
    {
      "inputs": [
        {
          "internalType": "string",
          "name": "_name",
          "type": "string"
        }
      ],
      "name": "setName",
      "outputs": [],
      "stateMutability": "nonpayable",
      "type": "function"
    },
    {
      "inputs": [
        {
          "internalType": "address",
          "name": "newOwner",
          "type": "address"
        }
      ],
      "name": "setOwner",
      "outputs": [],
      "stateMutability": "nonpayable",
      "type": "function"
    },
    {
      "inputs": [
        {
          "internalType": "string",
          "name": "_tokenURI",
          "type": "string"
        }
      ],
      "name": "setTokenURI",
      "outputs": [],
      "stateMutability": "nonpayable",
      "type": "function"
    },
    {
      "inputs": [],
      "name": "symbol",
      "outputs": [
        {
          "internalType": "string",
          "name": "",
          "type": "string"
        }
      ],
      "stateMutability": "view",
      "type": "function"
    },
    {
      "inputs": [],
      "name": "tokenId",
      "outputs": [
        {
          "internalType": "uint256",
          "name": "",
          "type": "uint256"
        }
      ],
      "stateMutability": "view",
      "type": "function"
    },
    {
      "inputs": [],
      "name": "tokenURI",
      "outputs": [
        {
          "internalType": "string",
          "name": "",
          "type": "string"
        }
      ],
      "stateMutability": "view",
      "type": "function"
    },
    {
      "inputs": [
        {
          "internalType": "uint256",
          "name": "",
          "type": "uint256"
        }
      ],
      "name": "tokens",
      "outputs": [
        {
          "internalType": "address",
          "name": "",
          "type": "address"
        }
      ],
      "stateMutability": "view",
      "type": "function"
    },
    {
      "inputs": [],
      "name": "totalSupply",
      "outputs": [
        {
          "internalType": "uint256",
          "name": "",
          "type": "uint256"
        }
      ],
      "stateMutability": "view",
      "type": "function"
    },
    {
      "inputs": [
        {
          "internalType": "uint256",
          "name": "",
          "type": "uint256"
        }
      ],
      "name": "trackedPriceFeeds",
      "outputs": [
        {
          "internalType": "address",
          "name": "",
          "type": "address"
        }
      ],
      "stateMutability": "view",
      "type": "function"
    },
    {
      "inputs": [
        {
          "internalType": "address",
          "name": "to",
          "type": "address"
        },
        {
          "internalType": "uint256",
          "name": "amount",
          "type": "uint256"
        }
      ],
      "name": "transfer",
      "outputs": [
        {
          "internalType": "bool",
          "name": "",
          "type": "bool"
        }
      ],
      "stateMutability": "nonpayable",
      "type": "function"
    },
    {
      "inputs": [
        {
          "internalType": "address",
          "name": "from",
          "type": "address"
        },
        {
          "internalType": "address",
          "name": "to",
          "type": "address"
        },
        {
          "internalType": "uint256",
          "name": "amount",
          "type": "uint256"
        }
      ],
      "name": "transferFrom",
      "outputs": [
        {
          "internalType": "bool",
          "name": "",
          "type": "bool"
        }
      ],
      "stateMutability": "nonpayable",
      "type": "function"
    },
    {
      "inputs": [
        {
          "internalType": "address",
          "name": "newOwner",
          "type": "address"
        }
      ],
      "name": "transferOwnership",
      "outputs": [],
      "stateMutability": "nonpayable",
      "type": "function"
    }
  ],
  "bytecode": {
    "object": "0x61010060405260405162001b3538038062001b35833981016040819052620000279162000300565b81838189898960006200003b84826200044c565b5060016200004a83826200044c565b5060ff81166080524660a0526200006062000115565b60c0525050600680546001600160a01b0319166001600160a01b0384169081179091556040519091506000907f8be0079c531659141344cd1fd0a4f28419497f9722a3daafe3b4186f6b6457e0908290a35060e05250600780546001600160a01b0319163317905534620000d357600080fd5b60008411620000e157600080fd5b600a80546001600160a01b0319166001600160a01b038316179055620001088285620001b1565b50505050505050620005be565b60007f8b73c3c69bb8fe3d512ecc4cf759cc79239f7b179b0ffacaa9a75d522b39400f600060405162000149919062000518565b6040805191829003822060208301939093528101919091527fc89efdaa54c0f20c7adf612882df0950f5a951637e0307cdcb4c672f298b8bc660608201524660808201523060a082015260c00160405160208183030381529060405280519060200120905090565b8060026000828254620001c5919062000596565b90915550506001600160a01b0382166000818152600360209081526040808320805486019055518481527fddf252ad1be2c89b69c2b068fc378daa952ba7f163c4a11628f55a4df523b3ef910160405180910390a35050565b634e487b7160e01b600052604160045260246000fd5b600082601f8301126200024657600080fd5b81516001600160401b03808211156200026357620002636200021e565b604051601f8301601f19908116603f011681019082821181831017156200028e576200028e6200021e565b81604052838152602092508683858801011115620002ab57600080fd5b600091505b83821015620002cf5785820183015181830184015290820190620002b0565b600093810190920192909252949350505050565b80516001600160a01b0381168114620002fb57600080fd5b919050565b600080600080600080600060e0888a0312156200031c57600080fd5b87516001600160401b03808211156200033457600080fd5b620003428b838c0162000234565b985060208a01519150808211156200035957600080fd5b50620003688a828b0162000234565b965050604088015160ff811681146200038057600080fd5b606089015160808a0151919650945092506200039f60a08901620002e3565b9150620003af60c08901620002e3565b905092959891949750929550565b600181811c90821680620003d257607f821691505b602082108103620003f357634e487b7160e01b600052602260045260246000fd5b50919050565b601f8211156200044757600081815260208120601f850160051c81016020861015620004225750805b601f850160051c820191505b8181101562000443578281556001016200042e565b5050505b505050565b81516001600160401b038111156200046857620004686200021e565b6200048081620004798454620003bd565b84620003f9565b602080601f831160018114620004b857600084156200049f5750858301515b600019600386901b1c1916600185901b17855562000443565b600085815260208120601f198616915b82811015620004e957888601518255948401946001909101908401620004c8565b5085821015620005085787850151600019600388901b60f8161c191681555b5050505050600190811b01905550565b60008083546200052881620003bd565b6001828116801562000543576001811462000559576200058a565b60ff19841687528215158302870194506200058a565b8760005260208060002060005b85811015620005815781548a82015290840190820162000566565b50505082870194505b50929695505050505050565b80820180821115620005b857634e487b7160e01b600052601160045260246000fd5b92915050565b60805160a05160c05160e05161153d620005f8600039600061027e0152600061096e015260006109390152600061032e015261153d6000f3fe6080604052600436106101b75760003560e01c806370a08231116100ec578063ba9f712b1161008a578063dd62ed3e11610064578063dd62ed3e14610510578063e0df5b6f14610548578063e3f9ba0e14610568578063f2fde38b1461057057600080fd5b8063ba9f712b146104b0578063c47f0027146104d0578063d505accf146104f057600080fd5b8063926c5c19116100c6578063926c5c191461044657806395d89b411461045b578063a9059cbb14610470578063af8c32d41461049057600080fd5b806370a08231146103cc5780637ecebe00146103f95780638da5cb5b1461042657600080fd5b806323b872dd116101595780633644e515116101335780633644e51514610362578063365a86fc146103775780633c130d90146103975780634f64b2be146103ac57600080fd5b806323b872dd146102c45780632acf179b146102e4578063313ce5671461031c57600080fd5b80630df10da9116101955780630df10da91461023957806313af40351461024c57806317d70f7c1461026c57806318160ddd146102ae57600080fd5b80630133838a146101bc57806306fdde03146101de578063095ea7b314610209575b600080fd5b3480156101c857600080fd5b506101dc6101d7366004610fd3565b610590565b005b3480156101ea57600080fd5b506101f361064b565b6040516102009190611006565b60405180910390f35b34801561021557600080fd5b50610229610224366004611054565b6106d9565b6040519015158152602001610200565b6101dc61024736600461107e565b610746565b34801561025857600080fd5b506101dc610267366004611097565b6107e0565b34801561027857600080fd5b506102a07f000000000000000000000000000000000000000000000000000000000000000081565b604051908152602001610200565b3480156102ba57600080fd5b506102a060025481565b3480156102d057600080fd5b506102296102df3660046110b9565b610843565b3480156102f057600080fd5b50600a54610304906001600160a01b031681565b6040516001600160a01b039091168152602001610200565b34801561032857600080fd5b506103507f000000000000000000000000000000000000000000000000000000000000000081565b60405160ff9091168152602001610200565b34801561036e57600080fd5b506102a0610935565b34801561038357600080fd5b50600754610304906001600160a01b031681565b3480156103a357600080fd5b506101f3610990565b3480156103b857600080fd5b506103046103c736600461107e565b61099d565b3480156103d857600080fd5b506102a06103e7366004611097565b60036020526000908152604090205481565b34801561040557600080fd5b506102a0610414366004611097565b60056020526000908152604090205481565b34801561043257600080fd5b50600654610304906001600160a01b031681565b34801561045257600080fd5b506102a06109c7565b34801561046757600080fd5b506101f3610a3f565b34801561047c57600080fd5b5061022961048b366004611054565b610a4c565b34801561049c57600080fd5b506101dc6104ab366004611097565b610ac4565b3480156104bc57600080fd5b506103046104cb36600461107e565b610b40565b3480156104dc57600080fd5b506101dc6104eb36600461110b565b610b50565b3480156104fc57600080fd5b506101dc61050b3660046111bc565b610ba1565b34801561051c57600080fd5b506102a061052b366004610fd3565b600460209081526000928352604080842090915290825290205481565b34801561055457600080fd5b506101dc61056336600461110b565b610de5565b6101dc610e32565b34801561057c57600080fd5b506101dc61058b366004611097565b610e88565b6006546001600160a01b031633146105c35760405162461bcd60e51b81526004016105ba9061122f565b60405180910390fd5b6008805460018181019092557ff3f7a9fe364faab93b216da50a3214154f22a0a2b415b23a84c8169e8b636ee30180546001600160a01b039485166001600160a01b0319918216179091556009805492830181556000527f6e1540171b6c0c960b71a7020d9f60077f6af931a8bbf590da0223dacf75c7af9091018054929093169116179055565b6000805461065890611255565b80601f016020809104026020016040519081016040528092919081815260200182805461068490611255565b80156106d15780601f106106a6576101008083540402835291602001916106d1565b820191906000526020600020905b8154815290600101906020018083116106b457829003601f168201915b505050505081565b3360008181526004602090815260408083206001600160a01b038716808552925280832085905551919290917f8c5be1e5ebec7d5bd14f71427d1e84f3dd0314c0f7b2291e5b200ac8c7c3b925906107349086815260200190565b60405180910390a35060015b92915050565b600a5460405163727fd52560e11b81526001600160a01b039091169063e4ffaa4a9061077c9060089060099030906004016112d8565b602060405180830381865afa158015610799573d6000803e3d6000fd5b505050506040513d601f19601f820116820180604052508101906107bd9190611316565b6107c79082611345565b3410156107d357600080fd5b6107dd3382610eb2565b50565b6007546001600160a01b031633146107f757600080fd5b600680546001600160a01b0319166001600160a01b03831690811790915560405133907f8be0079c531659141344cd1fd0a4f28419497f9722a3daafe3b4186f6b6457e090600090a350565b6001600160a01b0383166000908152600460209081526040808320338452909152812054600019811461089f5761087a838261135c565b6001600160a01b03861660009081526004602090815260408083203384529091529020555b6001600160a01b038516600090815260036020526040812080548592906108c790849061135c565b90915550506001600160a01b03808516600081815260036020526040908190208054870190555190918716907fddf252ad1be2c89b69c2b068fc378daa952ba7f163c4a11628f55a4df523b3ef906109229087815260200190565b60405180910390a3506001949350505050565b60007f0000000000000000000000000000000000000000000000000000000000000000461461096b57610966610f1d565b905090565b507f000000000000000000000000000000000000000000000000000000000000000090565b600b805461065890611255565b600981815481106109ad57600080fd5b6000918252602090912001546001600160a01b0316905081565b600a5460405163727fd52560e11b81526000916001600160a01b03169063e4ffaa4a906109fe9060089060099030906004016112d8565b602060405180830381865afa158015610a1b573d6000803e3d6000fd5b505050506040513d601f19601f820116820180604052508101906109669190611316565b6001805461065890611255565b33600090815260036020526040812080548391908390610a6d90849061135c565b90915550506001600160a01b038316600081815260036020526040908190208054850190555133907fddf252ad1be2c89b69c2b068fc378daa952ba7f163c4a11628f55a4df523b3ef906107349086815260200190565b6006546001600160a01b03163314610aee5760405162461bcd60e51b81526004016105ba9061122f565b600880546001810182556000919091527ff3f7a9fe364faab93b216da50a3214154f22a0a2b415b23a84c8169e8b636ee30180546001600160a01b0319166001600160a01b0392909216919091179055565b600881815481106109ad57600080fd5b6006546001600160a01b03163314610b7a5760405162461bcd60e51b81526004016105ba9061122f565b6006546001600160a01b03163314610b9157600080fd5b6000610b9d82826113be565b5050565b42841015610bf15760405162461bcd60e51b815260206004820152601760248201527f5045524d49545f444541444c494e455f4558504952454400000000000000000060448201526064016105ba565b60006001610bfd610935565b6001600160a01b038a811660008181526005602090815260409182902080546001810190915582517f6e71edae12b1b97f4d1f60370fef10105fa2faae0126114a169c64845d6126c98184015280840194909452938d166060840152608083018c905260a083019390935260c08083018b90528151808403909101815260e08301909152805192019190912061190160f01b6101008301526101028201929092526101228101919091526101420160408051601f198184030181528282528051602091820120600084529083018083525260ff871690820152606081018590526080810184905260a0016020604051602081039080840390855afa158015610d09573d6000803e3d6000fd5b5050604051601f1901519150506001600160a01b03811615801590610d3f5750876001600160a01b0316816001600160a01b0316145b610d7c5760405162461bcd60e51b815260206004820152600e60248201526d24a72b20a624a22fa9a4a3a722a960911b60448201526064016105ba565b6001600160a01b0390811660009081526004602090815260408083208a8516808552908352928190208990555188815291928a16917f8c5be1e5ebec7d5bd14f71427d1e84f3dd0314c0f7b2291e5b200ac8c7c3b925910160405180910390a350505050505050565b6006546001600160a01b03163314610e0f5760405162461bcd60e51b81526004016105ba9061122f565b6006546001600160a01b03163314610e2657600080fd5b600b610b9d82826113be565b6006546001600160a01b03163314610e5c5760405162461bcd60e51b81526004016105ba9061122f565b60405133904780156108fc02916000818181858888f193505050501580156107dd573d6000803e3d6000fd5b6006546001600160a01b031633146107f75760405162461bcd60e51b81526004016105ba9061122f565b8060026000828254610ec4919061147e565b90915550506001600160a01b0382166000818152600360209081526040808320805486019055518481527fddf252ad1be2c89b69c2b068fc378daa952ba7f163c4a11628f55a4df523b3ef910160405180910390a35050565b60007f8b73c3c69bb8fe3d512ecc4cf759cc79239f7b179b0ffacaa9a75d522b39400f6000604051610f4f9190611491565b6040805191829003822060208301939093528101919091527fc89efdaa54c0f20c7adf612882df0950f5a951637e0307cdcb4c672f298b8bc660608201524660808201523060a082015260c00160405160208183030381529060405280519060200120905090565b80356001600160a01b0381168114610fce57600080fd5b919050565b60008060408385031215610fe657600080fd5b610fef83610fb7565b9150610ffd60208401610fb7565b90509250929050565b600060208083528351808285015260005b8181101561103357858101830151858201604001528201611017565b506000604082860101526040601f19601f8301168501019250505092915050565b6000806040838503121561106757600080fd5b61107083610fb7565b946020939093013593505050565b60006020828403121561109057600080fd5b5035919050565b6000602082840312156110a957600080fd5b6110b282610fb7565b9392505050565b6000806000606084860312156110ce57600080fd5b6110d784610fb7565b92506110e560208501610fb7565b9150604084013590509250925092565b634e487b7160e01b600052604160045260246000fd5b60006020828403121561111d57600080fd5b813567ffffffffffffffff8082111561113557600080fd5b818401915084601f83011261114957600080fd5b81358181111561115b5761115b6110f5565b604051601f8201601f19908116603f01168101908382118183101715611183576111836110f5565b8160405282815287602084870101111561119c57600080fd5b826020860160208301376000928101602001929092525095945050505050565b600080600080600080600060e0888a0312156111d757600080fd5b6111e088610fb7565b96506111ee60208901610fb7565b95506040880135945060608801359350608088013560ff8116811461121257600080fd5b9699959850939692959460a0840135945060c09093013592915050565b6020808252600c908201526b15539055551213d49256915160a21b604082015260600190565b600181811c9082168061126957607f821691505b60208210810361128957634e487b7160e01b600052602260045260246000fd5b50919050565b6000815480845260208085019450836000528060002060005b838110156112cd5781546001600160a01b0316875295820195600191820191016112a8565b509495945050505050565b6060815260006112eb606083018661128f565b82810360208401526112fd818661128f565b91505060018060a01b0383166040830152949350505050565b60006020828403121561132857600080fd5b5051919050565b634e487b7160e01b600052601160045260246000fd5b80820281158282048414176107405761074061132f565b818103818111156107405761074061132f565b601f8211156113b957600081815260208120601f850160051c810160208610156113965750805b601f850160051c820191505b818110156113b5578281556001016113a2565b5050505b505050565b815167ffffffffffffffff8111156113d8576113d86110f5565b6113ec816113e68454611255565b8461136f565b602080601f83116001811461142157600084156114095750858301515b600019600386901b1c1916600185901b1785556113b5565b600085815260208120601f198616915b8281101561145057888601518255948401946001909101908401611431565b508582101561146e5787850151600019600388901b60f8161c191681555b5050505050600190811b01905550565b808201808211156107405761074061132f565b600080835461149f81611255565b600182811680156114b757600181146114cc576114fb565b60ff19841687528215158302870194506114fb565b8760005260208060002060005b858110156114f25781548a8201529084019082016114d9565b50505082870194505b5092969550505050505056fea264697066735822122094b560baba48fbf839681ccd5507967422673f49a39bdf9da59e326077c3d55d64736f6c63430008110033",
    "linkReferences": {}
  },
  "methodIdentifiers": {
    "DOMAIN_SEPARATOR()": "3644e515",
    "addETHPriceFeed(address)": "af8c32d4",
    "addTrackedPriceFeeds(address,address)": "0133838a",
    "allowance(address,address)": "dd62ed3e",
    "approve(address,uint256)": "095ea7b3",
    "balanceOf(address)": "70a08231",
    "calcNav()": "2acf179b",
    "checkNAV()": "926c5c19",
    "decimals()": "313ce567",
    "hub()": "365a86fc",
    "mintWithEth(uint256)": "0df10da9",
    "name()": "06fdde03",
    "nonces(address)": "7ecebe00",
    "owner()": "8da5cb5b",
    "permit(address,address,uint256,uint256,uint8,bytes32,bytes32)": "d505accf",
    "returnEth()": "e3f9ba0e",
    "setName(string)": "c47f0027",
    "setOwner(address)": "13af4035",
    "setTokenURI(string)": "e0df5b6f",
    "symbol()": "95d89b41",
    "tokenId()": "17d70f7c",
    "tokenURI()": "3c130d90",
    "tokens(uint256)": "4f64b2be",
    "totalSupply()": "18160ddd",
    "trackedPriceFeeds(uint256)": "ba9f712b",
    "transfer(address,uint256)": "a9059cbb",
    "transferFrom(address,address,uint256)": "23b872dd",
    "transferOwnership(address)": "f2fde38b"
  },
  "id": 28
}