{
  "abi": [
    {
      "inputs": [
        {
          "internalType": "string",
          "name": "_name",
          "type": "string"
        },
        {
          "internalType": "string",
          "name": "_symbol",
          "type": "string"
        },
        {
          "internalType": "uint8",
          "name": "_decimals",
          "type": "uint8"
        },
        {
          "internalType": "uint256",
          "name": "_amount",
          "type": "uint256"
        },
        {
          "internalType": "uint256",
          "name": "_tokenId",
          "type": "uint256"
        },
        {
          "internalType": "address",
          "name": "_owner",
          "type": "address"
        },
        {
          "internalType": "address",
          "name": "_calcNav",
          "type": "address"
        }
      ],
      "stateMutability": "payable",
      "type": "constructor"
    },
    {
      "anonymous": false,
      "inputs": [
        {
          "indexed": true,
          "internalType": "address",
          "name": "owner",
          "type": "address"
        },
        {
          "indexed": true,
          "internalType": "address",
          "name": "spender",
          "type": "address"
        },
        {
          "indexed": false,
          "internalType": "uint256",
          "name": "amount",
          "type": "uint256"
        }
      ],
      "name": "Approval",
      "type": "event"
    },
    {
      "anonymous": false,
      "inputs": [
        {
          "indexed": true,
          "internalType": "address",
          "name": "user",
          "type": "address"
        },
        {
          "indexed": true,
          "internalType": "address",
          "name": "newOwner",
          "type": "address"
        }
      ],
      "name": "OwnershipTransferred",
      "type": "event"
    },
    {
      "anonymous": false,
      "inputs": [
        {
          "indexed": true,
          "internalType": "address",
          "name": "from",
          "type": "address"
        },
        {
          "indexed": true,
          "internalType": "address",
          "name": "to",
          "type": "address"
        },
        {
          "indexed": false,
          "internalType": "uint256",
          "name": "amount",
          "type": "uint256"
        }
      ],
      "name": "Transfer",
      "type": "event"
    },
    {
      "inputs": [],
      "name": "DOMAIN_SEPARATOR",
      "outputs": [
        {
          "internalType": "bytes32",
          "name": "",
          "type": "bytes32"
        }
      ],
      "stateMutability": "view",
      "type": "function"
    },
    {
      "inputs": [
        {
          "internalType": "address",
          "name": "priceFeed",
          "type": "address"
        }
      ],
      "name": "addETHPriceFeed",
      "outputs": [],
      "stateMutability": "nonpayable",
      "type": "function"
    },
    {
      "inputs": [
        {
          "internalType": "address",
          "name": "priceFeed",
          "type": "address"
        },
        {
          "internalType": "address",
          "name": "feedToken",
          "type": "address"
        }
      ],
      "name": "addTrackedPriceFeeds",
      "outputs": [],
      "stateMutability": "nonpayable",
      "type": "function"
    },
    {
      "inputs": [
        {
          "internalType": "address",
          "name": "",
          "type": "address"
        },
        {
          "internalType": "address",
          "name": "",
          "type": "address"
        }
      ],
      "name": "allowance",
      "outputs": [
        {
          "internalType": "uint256",
          "name": "",
          "type": "uint256"
        }
      ],
      "stateMutability": "view",
      "type": "function"
    },
    {
      "inputs": [
        {
          "internalType": "address",
          "name": "spender",
          "type": "address"
        },
        {
          "internalType": "uint256",
          "name": "amount",
          "type": "uint256"
        }
      ],
      "name": "approve",
      "outputs": [
        {
          "internalType": "bool",
          "name": "",
          "type": "bool"
        }
      ],
      "stateMutability": "nonpayable",
      "type": "function"
    },
    {
      "inputs": [
        {
          "internalType": "address",
          "name": "",
          "type": "address"
        }
      ],
      "name": "balanceOf",
      "outputs": [
        {
          "internalType": "uint256",
          "name": "",
          "type": "uint256"
        }
      ],
      "stateMutability": "view",
      "type": "function"
    },
    {
      "inputs": [
        {
          "internalType": "uint256",
          "name": "amount",
          "type": "uint256"
        }
      ],
      "name": "burn",
      "outputs": [],
      "stateMutability": "payable",
      "type": "function"
    },
    {
      "inputs": [],
      "name": "calcNav",
      "outputs": [
        {
          "internalType": "address",
          "name": "",
          "type": "address"
        }
      ],
      "stateMutability": "view",
      "type": "function"
    },
    {
      "inputs": [],
      "name": "checkNAV",
      "outputs": [
        {
          "internalType": "int256",
          "name": "",
          "type": "int256"
        }
      ],
      "stateMutability": "view",
      "type": "function"
    },
    {
      "inputs": [],
      "name": "decimals",
      "outputs": [
        {
          "internalType": "uint8",
          "name": "",
          "type": "uint8"
        }
      ],
      "stateMutability": "view",
      "type": "function"
    },
    {
      "inputs": [],
      "name": "hub",
      "outputs": [
        {
          "internalType": "address",
          "name": "",
          "type": "address"
        }
      ],
      "stateMutability": "view",
      "type": "function"
    },
    {
      "inputs": [
        {
          "internalType": "uint256",
          "name": "amount",
          "type": "uint256"
        }
      ],
      "name": "mintWithEth",
      "outputs": [],
      "stateMutability": "payable",
      "type": "function"
    },
    {
      "inputs": [
        {
          "internalType": "uint256",
          "name": "amount",
          "type": "uint256"
        },
        {
          "internalType": "address",
          "name": "token",
          "type": "address"
        }
      ],
      "name": "mintWithRegisteredToken",
      "outputs": [],
      "stateMutability": "payable",
      "type": "function"
    },
    {
      "inputs": [],
      "name": "name",
      "outputs": [
        {
          "internalType": "string",
          "name": "",
          "type": "string"
        }
      ],
      "stateMutability": "view",
      "type": "function"
    },
    {
      "inputs": [
        {
          "internalType": "address",
          "name": "",
          "type": "address"
        }
      ],
      "name": "nonces",
      "outputs": [
        {
          "internalType": "uint256",
          "name": "",
          "type": "uint256"
        }
      ],
      "stateMutability": "view",
      "type": "function"
    },
    {
      "inputs": [],
      "name": "owner",
      "outputs": [
        {
          "internalType": "address",
          "name": "",
          "type": "address"
        }
      ],
      "stateMutability": "view",
      "type": "function"
    },
    {
      "inputs": [
        {
          "internalType": "address",
          "name": "owner",
          "type": "address"
        },
        {
          "internalType": "address",
          "name": "spender",
          "type": "address"
        },
        {
          "internalType": "uint256",
          "name": "value",
          "type": "uint256"
        },
        {
          "internalType": "uint256",
          "name": "deadline",
          "type": "uint256"
        },
        {
          "internalType": "uint8",
          "name": "v",
          "type": "uint8"
        },
        {
          "internalType": "bytes32",
          "name": "r",
          "type": "bytes32"
        },
        {
          "internalType": "bytes32",
          "name": "s",
          "type": "bytes32"
        }
      ],
      "name": "permit",
      "outputs": [],
      "stateMutability": "nonpayable",
      "type": "function"
    },
    {
      "inputs": [
        {
          "internalType": "string",
          "name": "_name",
          "type": "string"
        }
      ],
      "name": "setName",
      "outputs": [],
      "stateMutability": "nonpayable",
      "type": "function"
    },
    {
      "inputs": [
        {
          "internalType": "address",
          "name": "newOwner",
          "type": "address"
        }
      ],
      "name": "setOwner",
      "outputs": [],
      "stateMutability": "nonpayable",
      "type": "function"
    },
    {
      "inputs": [
        {
          "internalType": "string",
          "name": "_tokenURI",
          "type": "string"
        }
      ],
      "name": "setTokenURI",
      "outputs": [],
      "stateMutability": "nonpayable",
      "type": "function"
    },
    {
      "inputs": [],
      "name": "symbol",
      "outputs": [
        {
          "internalType": "string",
          "name": "",
          "type": "string"
        }
      ],
      "stateMutability": "view",
      "type": "function"
    },
    {
      "inputs": [],
      "name": "tokenId",
      "outputs": [
        {
          "internalType": "uint256",
          "name": "",
          "type": "uint256"
        }
      ],
      "stateMutability": "view",
      "type": "function"
    },
    {
      "inputs": [],
      "name": "tokenURI",
      "outputs": [
        {
          "internalType": "string",
          "name": "",
          "type": "string"
        }
      ],
      "stateMutability": "view",
      "type": "function"
    },
    {
      "inputs": [
        {
          "internalType": "uint256",
          "name": "",
          "type": "uint256"
        }
      ],
      "name": "tokens",
      "outputs": [
        {
          "internalType": "address",
          "name": "",
          "type": "address"
        }
      ],
      "stateMutability": "view",
      "type": "function"
    },
    {
      "inputs": [],
      "name": "totalSupply",
      "outputs": [
        {
          "internalType": "uint256",
          "name": "",
          "type": "uint256"
        }
      ],
      "stateMutability": "view",
      "type": "function"
    },
    {
      "inputs": [
        {
          "internalType": "uint256",
          "name": "",
          "type": "uint256"
        }
      ],
      "name": "trackedPriceFeeds",
      "outputs": [
        {
          "internalType": "address",
          "name": "",
          "type": "address"
        }
      ],
      "stateMutability": "view",
      "type": "function"
    },
    {
      "inputs": [
        {
          "internalType": "address",
          "name": "to",
          "type": "address"
        },
        {
          "internalType": "uint256",
          "name": "amount",
          "type": "uint256"
        }
      ],
      "name": "transfer",
      "outputs": [
        {
          "internalType": "bool",
          "name": "",
          "type": "bool"
        }
      ],
      "stateMutability": "nonpayable",
      "type": "function"
    },
    {
      "inputs": [
        {
          "internalType": "address",
          "name": "from",
          "type": "address"
        },
        {
          "internalType": "address",
          "name": "to",
          "type": "address"
        },
        {
          "internalType": "uint256",
          "name": "amount",
          "type": "uint256"
        }
      ],
      "name": "transferFrom",
      "outputs": [
        {
          "internalType": "bool",
          "name": "",
          "type": "bool"
        }
      ],
      "stateMutability": "nonpayable",
      "type": "function"
    },
    {
      "inputs": [
        {
          "internalType": "address",
          "name": "newOwner",
          "type": "address"
        }
      ],
      "name": "transferOwnership",
      "outputs": [],
      "stateMutability": "nonpayable",
      "type": "function"
    },
    {
      "inputs": [
        {
          "internalType": "address",
          "name": "_calcNav",
          "type": "address"
        }
      ],
      "name": "updateCalcNav",
      "outputs": [],
      "stateMutability": "nonpayable",
      "type": "function"
    }
  ],
  "bytecode": {
    "object": "0x61010060405260405162001d1738038062001d1783398101604081905262000027916200038c565b81838189898960006200003b8482620004d8565b5060016200004a8382620004d8565b5060ff81166080524660a05262000060620001a1565b60c0525050600680546001600160a01b0319166001600160a01b0384169081179091556040519091506000907f8be0079c531659141344cd1fd0a4f28419497f9722a3daafe3b4186f6b6457e0908290a35060e05250600780546001600160a01b03191633179055346200011b5760405162461bcd60e51b815260206004820152601460248201527f526571756972656420746f2073656e642045746800000000000000000000000060448201526064015b60405180910390fd5b600084116200016d5760405162461bcd60e51b815260206004820152601760248201527f526571756972656420746f206d696e7420746f6b656e73000000000000000000604482015260640162000112565b600a80546001600160a01b0319166001600160a01b0383161790556200019482856200023d565b505050505050506200064a565b60007f8b73c3c69bb8fe3d512ecc4cf759cc79239f7b179b0ffacaa9a75d522b39400f6000604051620001d59190620005a4565b6040805191829003822060208301939093528101919091527fc89efdaa54c0f20c7adf612882df0950f5a951637e0307cdcb4c672f298b8bc660608201524660808201523060a082015260c00160405160208183030381529060405280519060200120905090565b806002600082825462000251919062000622565b90915550506001600160a01b0382166000818152600360209081526040808320805486019055518481527fddf252ad1be2c89b69c2b068fc378daa952ba7f163c4a11628f55a4df523b3ef910160405180910390a35050565b634e487b7160e01b600052604160045260246000fd5b600082601f830112620002d257600080fd5b81516001600160401b0380821115620002ef57620002ef620002aa565b604051601f8301601f19908116603f011681019082821181831017156200031a576200031a620002aa565b816040528381526020925086838588010111156200033757600080fd5b600091505b838210156200035b57858201830151818301840152908201906200033c565b600093810190920192909252949350505050565b80516001600160a01b03811681146200038757600080fd5b919050565b600080600080600080600060e0888a031215620003a857600080fd5b87516001600160401b0380821115620003c057600080fd5b620003ce8b838c01620002c0565b985060208a0151915080821115620003e557600080fd5b50620003f48a828b01620002c0565b965050604088015160ff811681146200040c57600080fd5b606089015160808a0151919650945092506200042b60a089016200036f565b91506200043b60c089016200036f565b905092959891949750929550565b600181811c908216806200045e57607f821691505b6020821081036200047f57634e487b7160e01b600052602260045260246000fd5b50919050565b601f821115620004d357600081815260208120601f850160051c81016020861015620004ae5750805b601f850160051c820191505b81811015620004cf57828155600101620004ba565b5050505b505050565b81516001600160401b03811115620004f457620004f4620002aa565b6200050c8162000505845462000449565b8462000485565b602080601f8311600181146200054457600084156200052b5750858301515b600019600386901b1c1916600185901b178555620004cf565b600085815260208120601f198616915b82811015620005755788860151825594840194600190910190840162000554565b5085821015620005945787850151600019600388901b60f8161c191681555b5050505050600190811b01905550565b6000808354620005b48162000449565b60018281168015620005cf5760018114620005e55762000616565b60ff198416875282151583028701945062000616565b8760005260208060002060005b858110156200060d5781548a820152908401908201620005f2565b50505082870194505b50929695505050505050565b808201808211156200064457634e487b7160e01b600052601160045260246000fd5b92915050565b60805160a05160c05160e05161169362000684600039600061029401526000610a0e015260006109d90152600061036401526116936000f3fe6080604052600436106101cd5760003560e01c80634f64b2be116100f7578063a9059cbb11610095578063d505accf11610064578063d505accf1461054b578063dd62ed3e1461056b578063e0df5b6f146105a3578063f2fde38b146105c357600080fd5b8063a9059cbb146104cb578063af8c32d4146104eb578063ba9f712b1461050b578063c47f00271461052b57600080fd5b8063800334bb116100d1578063800334bb1461046f5780638da5cb5b14610481578063926c5c19146104a157806395d89b41146104b657600080fd5b80634f64b2be146103f557806370a08231146104155780637ecebe001461044257600080fd5b80631fb2709a1161016f5780633644e5151161013e5780633644e51514610398578063365a86fc146103ad5780633c130d90146103cd57806342966c68146103e257600080fd5b80631fb2709a146102da57806323b872dd146102fa5780632acf179b1461031a578063313ce5671461035257600080fd5b80630df10da9116101ab5780630df10da91461024f57806313af40351461026257806317d70f7c1461028257806318160ddd146102c457600080fd5b80630133838a146101d257806306fdde03146101f4578063095ea7b31461021f575b600080fd5b3480156101de57600080fd5b506101f26101ed3660046110e6565b6105e3565b005b34801561020057600080fd5b5061020961069e565b6040516102169190611119565b60405180910390f35b34801561022b57600080fd5b5061023f61023a366004611167565b61072c565b6040519015158152602001610216565b6101f261025d366004611191565b610799565b34801561026e57600080fd5b506101f261027d3660046111aa565b610833565b34801561028e57600080fd5b506102b67f000000000000000000000000000000000000000000000000000000000000000081565b604051908152602001610216565b3480156102d057600080fd5b506102b660025481565b3480156102e657600080fd5b506101f26102f53660046111aa565b6108a9565b34801561030657600080fd5b5061023f6103153660046111cc565b6108f5565b34801561032657600080fd5b50600a5461033a906001600160a01b031681565b6040516001600160a01b039091168152602001610216565b34801561035e57600080fd5b506103867f000000000000000000000000000000000000000000000000000000000000000081565b60405160ff9091168152602001610216565b3480156103a457600080fd5b506102b66109d5565b3480156103b957600080fd5b5060075461033a906001600160a01b031681565b3480156103d957600080fd5b50610209610a30565b6101f26103f0366004611191565b610a3d565b34801561040157600080fd5b5061033a610410366004611191565b610a63565b34801561042157600080fd5b506102b66104303660046111aa565b60036020526000908152604090205481565b34801561044e57600080fd5b506102b661045d3660046111aa565b60056020526000908152604090205481565b6101f261047d366004611208565b5050565b34801561048d57600080fd5b5060065461033a906001600160a01b031681565b3480156104ad57600080fd5b506102b6610a8d565b3480156104c257600080fd5b50610209610b05565b3480156104d757600080fd5b5061023f6104e6366004611167565b610b12565b3480156104f757600080fd5b506101f26105063660046111aa565b610b78565b34801561051757600080fd5b5061033a610526366004611191565b610bf4565b34801561053757600080fd5b506101f2610546366004611241565b610c04565b34801561055757600080fd5b506101f26105663660046112f2565b610c85565b34801561057757600080fd5b506102b66105863660046110e6565b600460209081526000928352604080842090915290825290205481565b3480156105af57600080fd5b506101f26105be366004611241565b610ec9565b3480156105cf57600080fd5b506101f26105de3660046111aa565b610f4a565b6006546001600160a01b031633146106165760405162461bcd60e51b815260040161060d90611365565b60405180910390fd5b6008805460018181019092557ff3f7a9fe364faab93b216da50a3214154f22a0a2b415b23a84c8169e8b636ee30180546001600160a01b039485166001600160a01b0319918216179091556009805492830181556000527f6e1540171b6c0c960b71a7020d9f60077f6af931a8bbf590da0223dacf75c7af9091018054929093169116179055565b600080546106ab9061138b565b80601f01602080910402602001604051908101604052809291908181526020018280546106d79061138b565b80156107245780601f106106f957610100808354040283529160200191610724565b820191906000526020600020905b81548152906001019060200180831161070757829003601f168201915b505050505081565b3360008181526004602090815260408083206001600160a01b038716808552925280832085905551919290917f8c5be1e5ebec7d5bd14f71427d1e84f3dd0314c0f7b2291e5b200ac8c7c3b925906107879086815260200190565b60405180910390a35060015b92915050565b600a5460405163727fd52560e11b81526001600160a01b039091169063e4ffaa4a906107cf90600890600990309060040161140e565b602060405180830381865afa1580156107ec573d6000803e3d6000fd5b505050506040513d601f19601f82011682018060405250810190610810919061144c565b61081a908261147b565b34101561082657600080fd5b6108303382610f74565b50565b6007546001600160a01b0316331461085d5760405162461bcd60e51b815260040161060d90611365565b600680546001600160a01b0319166001600160a01b03831690811790915560405133907f8be0079c531659141344cd1fd0a4f28419497f9722a3daafe3b4186f6b6457e090600090a350565b6006546001600160a01b031633146108d35760405162461bcd60e51b815260040161060d90611365565b600a80546001600160a01b0319166001600160a01b0392909216919091179055565b6001600160a01b038316600090815260046020908152604080832033845290915281205460001981146109515761092c8382611492565b6001600160a01b03861660009081526004602090815260408083203384529091529020555b6001600160a01b03851660009081526003602052604081208054859290610979908490611492565b90915550506001600160a01b038085166000818152600360205260409081902080548701905551909187169060008051602061163e833981519152906109c29087815260200190565b60405180910390a3506001949350505050565b60007f00000000000000000000000000000000000000000000000000000000000000004614610a0b57610a06610fce565b905090565b507f000000000000000000000000000000000000000000000000000000000000000090565b600b80546106ab9061138b565b33600090815260036020526040902054811115610a5957600080fd5b6108303382611068565b60098181548110610a7357600080fd5b6000918252602090912001546001600160a01b0316905081565b600a5460405163727fd52560e11b81526000916001600160a01b03169063e4ffaa4a90610ac490600890600990309060040161140e565b602060405180830381865afa158015610ae1573d6000803e3d6000fd5b505050506040513d601f19601f82011682018060405250810190610a06919061144c565b600180546106ab9061138b565b33600090815260036020526040812080548391908390610b33908490611492565b90915550506001600160a01b0383166000818152600360205260409081902080548501905551339060008051602061163e833981519152906107879086815260200190565b6006546001600160a01b03163314610ba25760405162461bcd60e51b815260040161060d90611365565b600880546001810182556000919091527ff3f7a9fe364faab93b216da50a3214154f22a0a2b415b23a84c8169e8b636ee30180546001600160a01b0319166001600160a01b0392909216919091179055565b60088181548110610a7357600080fd5b6006546001600160a01b03163314610c2e5760405162461bcd60e51b815260040161060d90611365565b6006546001600160a01b03163314610c795760405162461bcd60e51b815260206004820152600e60248201526d1393d517d055551213d49256915160921b604482015260640161060d565b600061047d82826114f4565b42841015610cd55760405162461bcd60e51b815260206004820152601760248201527f5045524d49545f444541444c494e455f45585049524544000000000000000000604482015260640161060d565b60006001610ce16109d5565b6001600160a01b038a811660008181526005602090815260409182902080546001810190915582517f6e71edae12b1b97f4d1f60370fef10105fa2faae0126114a169c64845d6126c98184015280840194909452938d166060840152608083018c905260a083019390935260c08083018b90528151808403909101815260e08301909152805192019190912061190160f01b6101008301526101028201929092526101228101919091526101420160408051601f198184030181528282528051602091820120600084529083018083525260ff871690820152606081018590526080810184905260a0016020604051602081039080840390855afa158015610ded573d6000803e3d6000fd5b5050604051601f1901519150506001600160a01b03811615801590610e235750876001600160a01b0316816001600160a01b0316145b610e605760405162461bcd60e51b815260206004820152600e60248201526d24a72b20a624a22fa9a4a3a722a960911b604482015260640161060d565b6001600160a01b0390811660009081526004602090815260408083208a8516808552908352928190208990555188815291928a16917f8c5be1e5ebec7d5bd14f71427d1e84f3dd0314c0f7b2291e5b200ac8c7c3b925910160405180910390a350505050505050565b6006546001600160a01b03163314610ef35760405162461bcd60e51b815260040161060d90611365565b6006546001600160a01b03163314610f3e5760405162461bcd60e51b815260206004820152600e60248201526d1393d517d055551213d49256915160921b604482015260640161060d565b600b61047d82826114f4565b6006546001600160a01b0316331461085d5760405162461bcd60e51b815260040161060d90611365565b8060026000828254610f8691906115b4565b90915550506001600160a01b03821660008181526003602090815260408083208054860190555184815260008051602061163e83398151915291015b60405180910390a35050565b60007f8b73c3c69bb8fe3d512ecc4cf759cc79239f7b179b0ffacaa9a75d522b39400f600060405161100091906115c7565b6040805191829003822060208301939093528101919091527fc89efdaa54c0f20c7adf612882df0950f5a951637e0307cdcb4c672f298b8bc660608201524660808201523060a082015260c00160405160208183030381529060405280519060200120905090565b6001600160a01b03821660009081526003602052604081208054839290611090908490611492565b90915550506002805482900390556040518181526000906001600160a01b0384169060008051602061163e83398151915290602001610fc2565b80356001600160a01b03811681146110e157600080fd5b919050565b600080604083850312156110f957600080fd5b611102836110ca565b9150611110602084016110ca565b90509250929050565b600060208083528351808285015260005b818110156111465785810183015185820160400152820161112a565b506000604082860101526040601f19601f8301168501019250505092915050565b6000806040838503121561117a57600080fd5b611183836110ca565b946020939093013593505050565b6000602082840312156111a357600080fd5b5035919050565b6000602082840312156111bc57600080fd5b6111c5826110ca565b9392505050565b6000806000606084860312156111e157600080fd5b6111ea846110ca565b92506111f8602085016110ca565b9150604084013590509250925092565b6000806040838503121561121b57600080fd5b82359150611110602084016110ca565b634e487b7160e01b600052604160045260246000fd5b60006020828403121561125357600080fd5b813567ffffffffffffffff8082111561126b57600080fd5b818401915084601f83011261127f57600080fd5b8135818111156112915761129161122b565b604051601f8201601f19908116603f011681019083821181831017156112b9576112b961122b565b816040528281528760208487010111156112d257600080fd5b826020860160208301376000928101602001929092525095945050505050565b600080600080600080600060e0888a03121561130d57600080fd5b611316886110ca565b9650611324602089016110ca565b95506040880135945060608801359350608088013560ff8116811461134857600080fd5b9699959850939692959460a0840135945060c09093013592915050565b6020808252600c908201526b15539055551213d49256915160a21b604082015260600190565b600181811c9082168061139f57607f821691505b6020821081036113bf57634e487b7160e01b600052602260045260246000fd5b50919050565b6000815480845260208085019450836000528060002060005b838110156114035781546001600160a01b0316875295820195600191820191016113de565b509495945050505050565b60608152600061142160608301866113c5565b828103602084015261143381866113c5565b91505060018060a01b0383166040830152949350505050565b60006020828403121561145e57600080fd5b5051919050565b634e487b7160e01b600052601160045260246000fd5b808202811582820484141761079357610793611465565b8181038181111561079357610793611465565b601f8211156114ef57600081815260208120601f850160051c810160208610156114cc5750805b601f850160051c820191505b818110156114eb578281556001016114d8565b5050505b505050565b815167ffffffffffffffff81111561150e5761150e61122b565b6115228161151c845461138b565b846114a5565b602080601f831160018114611557576000841561153f5750858301515b600019600386901b1c1916600185901b1785556114eb565b600085815260208120601f198616915b8281101561158657888601518255948401946001909101908401611567565b50858210156115a45787850151600019600388901b60f8161c191681555b5050505050600190811b01905550565b8082018082111561079357610793611465565b60008083546115d58161138b565b600182811680156115ed576001811461160257611631565b60ff1984168752821515830287019450611631565b8760005260208060002060005b858110156116285781548a82015290840190820161160f565b50505082870194505b5092969550505050505056feddf252ad1be2c89b69c2b068fc378daa952ba7f163c4a11628f55a4df523b3efa2646970667358221220009108eca24099b8077ed79687c95da16f6df273beb9a9ee0143ce42ff382e6064736f6c63430008110033",
    "linkReferences": {}
  },
  "methodIdentifiers": {
    "DOMAIN_SEPARATOR()": "3644e515",
    "addETHPriceFeed(address)": "af8c32d4",
    "addTrackedPriceFeeds(address,address)": "0133838a",
    "allowance(address,address)": "dd62ed3e",
    "approve(address,uint256)": "095ea7b3",
    "balanceOf(address)": "70a08231",
    "burn(uint256)": "42966c68",
    "calcNav()": "2acf179b",
    "checkNAV()": "926c5c19",
    "decimals()": "313ce567",
    "hub()": "365a86fc",
    "mintWithEth(uint256)": "0df10da9",
    "mintWithRegisteredToken(uint256,address)": "800334bb",
    "name()": "06fdde03",
    "nonces(address)": "7ecebe00",
    "owner()": "8da5cb5b",
    "permit(address,address,uint256,uint256,uint8,bytes32,bytes32)": "d505accf",
    "setName(string)": "c47f0027",
    "setOwner(address)": "13af4035",
    "setTokenURI(string)": "e0df5b6f",
    "symbol()": "95d89b41",
    "tokenId()": "17d70f7c",
    "tokenURI()": "3c130d90",
    "tokens(uint256)": "4f64b2be",
    "totalSupply()": "18160ddd",
    "trackedPriceFeeds(uint256)": "ba9f712b",
    "transfer(address,uint256)": "a9059cbb",
    "transferFrom(address,address,uint256)": "23b872dd",
    "transferOwnership(address)": "f2fde38b",
    "updateCalcNav(address)": "1fb2709a"
  },
  "id": 24
}