{
  "abi": [
    {
      "inputs": [
        {
          "internalType": "string",
          "name": "_name",
          "type": "string"
        },
        {
          "internalType": "string",
          "name": "_symbol",
          "type": "string"
        },
        {
          "internalType": "uint8",
          "name": "_decimals",
          "type": "uint8"
        },
        {
          "internalType": "uint256",
          "name": "amount",
          "type": "uint256"
        },
        {
          "internalType": "address",
          "name": "_calcNav",
          "type": "address"
        }
      ],
      "stateMutability": "nonpayable",
      "type": "constructor"
    },
    {
      "anonymous": false,
      "inputs": [
        {
          "indexed": true,
          "internalType": "address",
          "name": "owner",
          "type": "address"
        },
        {
          "indexed": true,
          "internalType": "address",
          "name": "spender",
          "type": "address"
        },
        {
          "indexed": false,
          "internalType": "uint256",
          "name": "amount",
          "type": "uint256"
        }
      ],
      "name": "Approval",
      "type": "event"
    },
    {
      "anonymous": false,
      "inputs": [
        {
          "indexed": true,
          "internalType": "address",
          "name": "user",
          "type": "address"
        },
        {
          "indexed": true,
          "internalType": "address",
          "name": "newOwner",
          "type": "address"
        }
      ],
      "name": "OwnershipTransferred",
      "type": "event"
    },
    {
      "anonymous": false,
      "inputs": [
        {
          "indexed": true,
          "internalType": "address",
          "name": "from",
          "type": "address"
        },
        {
          "indexed": true,
          "internalType": "address",
          "name": "to",
          "type": "address"
        },
        {
          "indexed": false,
          "internalType": "uint256",
          "name": "amount",
          "type": "uint256"
        }
      ],
      "name": "Transfer",
      "type": "event"
    },
    {
      "inputs": [],
      "name": "DOMAIN_SEPARATOR",
      "outputs": [
        {
          "internalType": "bytes32",
          "name": "",
          "type": "bytes32"
        }
      ],
      "stateMutability": "view",
      "type": "function"
    },
    {
      "inputs": [
        {
          "internalType": "address",
          "name": "priceFeed",
          "type": "address"
        }
      ],
      "name": "addETHPriceFeed",
      "outputs": [],
      "stateMutability": "nonpayable",
      "type": "function"
    },
    {
      "inputs": [
        {
          "internalType": "address",
          "name": "priceFeed",
          "type": "address"
        },
        {
          "internalType": "address",
          "name": "feedToken",
          "type": "address"
        }
      ],
      "name": "addTrackedPriceFeeds",
      "outputs": [],
      "stateMutability": "nonpayable",
      "type": "function"
    },
    {
      "inputs": [
        {
          "internalType": "address",
          "name": "",
          "type": "address"
        },
        {
          "internalType": "address",
          "name": "",
          "type": "address"
        }
      ],
      "name": "allowance",
      "outputs": [
        {
          "internalType": "uint256",
          "name": "",
          "type": "uint256"
        }
      ],
      "stateMutability": "view",
      "type": "function"
    },
    {
      "inputs": [
        {
          "internalType": "address",
          "name": "spender",
          "type": "address"
        },
        {
          "internalType": "uint256",
          "name": "amount",
          "type": "uint256"
        }
      ],
      "name": "approve",
      "outputs": [
        {
          "internalType": "bool",
          "name": "",
          "type": "bool"
        }
      ],
      "stateMutability": "nonpayable",
      "type": "function"
    },
    {
      "inputs": [
        {
          "internalType": "address",
          "name": "",
          "type": "address"
        }
      ],
      "name": "balanceOf",
      "outputs": [
        {
          "internalType": "uint256",
          "name": "",
          "type": "uint256"
        }
      ],
      "stateMutability": "view",
      "type": "function"
    },
    {
      "inputs": [
        {
          "internalType": "uint256",
          "name": "amount",
          "type": "uint256"
        }
      ],
      "name": "burn",
      "outputs": [],
      "stateMutability": "payable",
      "type": "function"
    },
    {
      "inputs": [],
      "name": "calcNav",
      "outputs": [
        {
          "internalType": "address",
          "name": "",
          "type": "address"
        }
      ],
      "stateMutability": "view",
      "type": "function"
    },
    {
      "inputs": [],
      "name": "checkNAV",
      "outputs": [
        {
          "internalType": "int256",
          "name": "",
          "type": "int256"
        }
      ],
      "stateMutability": "view",
      "type": "function"
    },
    {
      "inputs": [
        {
          "internalType": "address[]",
          "name": "priceFeeds",
          "type": "address[]"
        }
      ],
      "name": "constructArray",
      "outputs": [
        {
          "internalType": "address[]",
          "name": "tokens",
          "type": "address[]"
        }
      ],
      "stateMutability": "view",
      "type": "function"
    },
    {
      "inputs": [],
      "name": "decimals",
      "outputs": [
        {
          "internalType": "uint8",
          "name": "",
          "type": "uint8"
        }
      ],
      "stateMutability": "view",
      "type": "function"
    },
    {
      "inputs": [
        {
          "internalType": "uint256",
          "name": "amount",
          "type": "uint256"
        }
      ],
      "name": "mintWithEth",
      "outputs": [],
      "stateMutability": "payable",
      "type": "function"
    },
    {
      "inputs": [
        {
          "internalType": "uint256",
          "name": "amount",
          "type": "uint256"
        },
        {
          "internalType": "address",
          "name": "token",
          "type": "address"
        }
      ],
      "name": "mintWithRegisterToken",
      "outputs": [],
      "stateMutability": "payable",
      "type": "function"
    },
    {
      "inputs": [],
      "name": "name",
      "outputs": [
        {
          "internalType": "string",
          "name": "",
          "type": "string"
        }
      ],
      "stateMutability": "view",
      "type": "function"
    },
    {
      "inputs": [
        {
          "internalType": "address",
          "name": "",
          "type": "address"
        }
      ],
      "name": "nonces",
      "outputs": [
        {
          "internalType": "uint256",
          "name": "",
          "type": "uint256"
        }
      ],
      "stateMutability": "view",
      "type": "function"
    },
    {
      "inputs": [],
      "name": "owner",
      "outputs": [
        {
          "internalType": "address",
          "name": "",
          "type": "address"
        }
      ],
      "stateMutability": "view",
      "type": "function"
    },
    {
      "inputs": [
        {
          "internalType": "address",
          "name": "owner",
          "type": "address"
        },
        {
          "internalType": "address",
          "name": "spender",
          "type": "address"
        },
        {
          "internalType": "uint256",
          "name": "value",
          "type": "uint256"
        },
        {
          "internalType": "uint256",
          "name": "deadline",
          "type": "uint256"
        },
        {
          "internalType": "uint8",
          "name": "v",
          "type": "uint8"
        },
        {
          "internalType": "bytes32",
          "name": "r",
          "type": "bytes32"
        },
        {
          "internalType": "bytes32",
          "name": "s",
          "type": "bytes32"
        }
      ],
      "name": "permit",
      "outputs": [],
      "stateMutability": "nonpayable",
      "type": "function"
    },
    {
      "inputs": [],
      "name": "symbol",
      "outputs": [
        {
          "internalType": "string",
          "name": "",
          "type": "string"
        }
      ],
      "stateMutability": "view",
      "type": "function"
    },
    {
      "inputs": [],
      "name": "totalSupply",
      "outputs": [
        {
          "internalType": "uint256",
          "name": "",
          "type": "uint256"
        }
      ],
      "stateMutability": "view",
      "type": "function"
    },
    {
      "inputs": [
        {
          "internalType": "uint256",
          "name": "",
          "type": "uint256"
        }
      ],
      "name": "trackedPriceFeeds",
      "outputs": [
        {
          "internalType": "address",
          "name": "",
          "type": "address"
        }
      ],
      "stateMutability": "view",
      "type": "function"
    },
    {
      "inputs": [
        {
          "internalType": "address",
          "name": "to",
          "type": "address"
        },
        {
          "internalType": "uint256",
          "name": "amount",
          "type": "uint256"
        }
      ],
      "name": "transfer",
      "outputs": [
        {
          "internalType": "bool",
          "name": "",
          "type": "bool"
        }
      ],
      "stateMutability": "nonpayable",
      "type": "function"
    },
    {
      "inputs": [
        {
          "internalType": "address",
          "name": "from",
          "type": "address"
        },
        {
          "internalType": "address",
          "name": "to",
          "type": "address"
        },
        {
          "internalType": "uint256",
          "name": "amount",
          "type": "uint256"
        }
      ],
      "name": "transferFrom",
      "outputs": [
        {
          "internalType": "bool",
          "name": "",
          "type": "bool"
        }
      ],
      "stateMutability": "nonpayable",
      "type": "function"
    },
    {
      "inputs": [
        {
          "internalType": "address",
          "name": "newOwner",
          "type": "address"
        }
      ],
      "name": "transferOwnership",
      "outputs": [],
      "stateMutability": "nonpayable",
      "type": "function"
    },
    {
      "inputs": [
        {
          "internalType": "address",
          "name": "_calcNav",
          "type": "address"
        }
      ],
      "name": "updateCalcNav",
      "outputs": [],
      "stateMutability": "nonpayable",
      "type": "function"
    }
  ],
  "bytecode": {
    "object": "0x60e06040523480156200001157600080fd5b5060405162001a9f38038062001a9f8339810160408190526200003491620002bd565b338585856000620000468482620003fc565b506001620000558382620003fc565b5060ff81166080524660a0526200006b620000ef565b60c0525050600680546001600160a01b0319166001600160a01b0384169081179091556040519091506000907f8be0079c531659141344cd1fd0a4f28419497f9722a3daafe3b4186f6b6457e0908290a350600880546001600160a01b0319166001600160a01b038316179055620000e433836200018b565b50505050506200056e565b60007f8b73c3c69bb8fe3d512ecc4cf759cc79239f7b179b0ffacaa9a75d522b39400f6000604051620001239190620004c8565b6040805191829003822060208301939093528101919091527fc89efdaa54c0f20c7adf612882df0950f5a951637e0307cdcb4c672f298b8bc660608201524660808201523060a082015260c00160405160208183030381529060405280519060200120905090565b80600260008282546200019f919062000546565b90915550506001600160a01b0382166000818152600360209081526040808320805486019055518481527fddf252ad1be2c89b69c2b068fc378daa952ba7f163c4a11628f55a4df523b3ef910160405180910390a35050565b634e487b7160e01b600052604160045260246000fd5b600082601f8301126200022057600080fd5b81516001600160401b03808211156200023d576200023d620001f8565b604051601f8301601f19908116603f01168101908282118183101715620002685762000268620001f8565b816040528381526020925086838588010111156200028557600080fd5b600091505b83821015620002a957858201830151818301840152908201906200028a565b600093810190920192909252949350505050565b600080600080600060a08688031215620002d657600080fd5b85516001600160401b0380821115620002ee57600080fd5b620002fc89838a016200020e565b965060208801519150808211156200031357600080fd5b5062000322888289016200020e565b945050604086015160ff811681146200033a57600080fd5b6060870151608088015191945092506001600160a01b03811681146200035f57600080fd5b809150509295509295909350565b600181811c908216806200038257607f821691505b602082108103620003a357634e487b7160e01b600052602260045260246000fd5b50919050565b601f821115620003f757600081815260208120601f850160051c81016020861015620003d25750805b601f850160051c820191505b81811015620003f357828155600101620003de565b5050505b505050565b81516001600160401b03811115620004185762000418620001f8565b62000430816200042984546200036d565b84620003a9565b602080601f8311600181146200046857600084156200044f5750858301515b600019600386901b1c1916600185901b178555620003f3565b600085815260208120601f198616915b82811015620004995788860151825594840194600190910190840162000478565b5085821015620004b85787850151600019600388901b60f8161c191681555b5050505050600190811b01905550565b6000808354620004d8816200036d565b60018281168015620004f3576001811462000509576200053a565b60ff19841687528215158302870194506200053a565b8760005260208060002060005b85811015620005315781548a82015290840190820162000516565b50505082870194505b50929695505050505050565b808201808211156200056857634e487b7160e01b600052601160045260246000fd5b92915050565b60805160a05160c0516115016200059e6000396000610899015260006108640152600061028e01526115016000f3fe60806040526004361061014b5760003560e01c806370a08231116100b6578063a9059cbb1161006f578063a9059cbb146103cd578063af8c32d4146103ed578063ba9f712b1461040d578063d505accf1461042d578063dd62ed3e1461044d578063f2fde38b1461048557600080fd5b806370a082311461031757806378285810146103445780637ecebe00146103565780638da5cb5b14610383578063926c5c19146103a357806395d89b41146103b857600080fd5b806323b872dd1161010857806323b872dd146102245780632acf179b14610244578063313ce5671461027c5780633644e515146102c257806342966c68146102d7578063706a9802146102ea57600080fd5b80630133838a1461015057806306fdde0314610172578063095ea7b31461019d5780630df10da9146101cd57806318160ddd146101e05780631fb2709a14610204575b600080fd5b34801561015c57600080fd5b5061017061016b366004610fb5565b6104a5565b005b34801561017e57600080fd5b5061018761053f565b6040516101949190610fe8565b60405180910390f35b3480156101a957600080fd5b506101bd6101b8366004611036565b6105cd565b6040519015158152602001610194565b6101706101db366004611060565b61063a565b3480156101ec57600080fd5b506101f660025481565b604051908152602001610194565b34801561021057600080fd5b5061017061021f366004611079565b610734565b34801561023057600080fd5b506101bd61023f36600461109b565b610780565b34801561025057600080fd5b50600854610264906001600160a01b031681565b6040516001600160a01b039091168152602001610194565b34801561028857600080fd5b506102b07f000000000000000000000000000000000000000000000000000000000000000081565b60405160ff9091168152602001610194565b3480156102ce57600080fd5b506101f6610860565b6101706102e5366004611060565b6108bb565b3480156102f657600080fd5b5061030a6103053660046110ed565b6108e1565b60405161019491906111f6565b34801561032357600080fd5b506101f6610332366004611079565b60036020526000908152604090205481565b610170610352366004611209565b5050565b34801561036257600080fd5b506101f6610371366004611079565b60056020526000908152604090205481565b34801561038f57600080fd5b50600654610264906001600160a01b031681565b3480156103af57600080fd5b506101f6610999565b3480156103c457600080fd5b50610187610a70565b3480156103d957600080fd5b506101bd6103e8366004611036565b610a7d565b3480156103f957600080fd5b50610170610408366004611079565b610ae3565b34801561041957600080fd5b50610264610428366004611060565b610b5f565b34801561043957600080fd5b5061017061044836600461122c565b610b89565b34801561045957600080fd5b506101f6610468366004610fb5565b600460209081526000928352604080842090915290825290205481565b34801561049157600080fd5b506101706104a0366004611079565b610dcd565b6006546001600160a01b031633146104d85760405162461bcd60e51b81526004016104cf9061129f565b60405180910390fd5b60078054600181019091557fa66cc928b5edb82af9bd49922954155ab7b0942694bea4ce44661d9a8736c6880180546001600160a01b039384166001600160a01b031991821681179092556000918252600960205260409091208054929093169116179055565b6000805461054c906112c5565b80601f0160208091040260200160405190810160405280929190818152602001828054610578906112c5565b80156105c55780601f1061059a576101008083540402835291602001916105c5565b820191906000526020600020905b8154815290600101906020018083116105a857829003601f168201915b505050505081565b3360008181526004602090815260408083206001600160a01b038716808552925280832085905551919290917f8c5be1e5ebec7d5bd14f71427d1e84f3dd0314c0f7b2291e5b200ac8c7c3b925906106289086815260200190565b60405180910390a35060015b92915050565b60085460078054604080516020808402820181019092528281526001600160a01b039094169363e4ffaa4a93926106b1928491908301828280156106a757602002820191906000526020600020905b81546001600160a01b03168152600190910190602001808311610689575b50505050506108e1565b306040518463ffffffff1660e01b81526004016106d0939291906112f9565b602060405180830381865afa1580156106ed573d6000803e3d6000fd5b505050506040513d601f19601f820116820180604052508101906107119190611371565b61071b90826113a0565b34101561072757600080fd5b6107313382610e43565b50565b6006546001600160a01b0316331461075e5760405162461bcd60e51b81526004016104cf9061129f565b600880546001600160a01b0319166001600160a01b0392909216919091179055565b6001600160a01b038316600090815260046020908152604080832033845290915281205460001981146107dc576107b783826113b7565b6001600160a01b03861660009081526004602090815260408083203384529091529020555b6001600160a01b038516600090815260036020526040812080548592906108049084906113b7565b90915550506001600160a01b03808516600081815260036020526040908190208054870190555190918716906000805160206114ac8339815191529061084d9087815260200190565b60405180910390a3506001949350505050565b60007f0000000000000000000000000000000000000000000000000000000000000000461461089657610891610e9d565b905090565b507f000000000000000000000000000000000000000000000000000000000000000090565b336000908152600360205260409020548111156108d757600080fd5b6107313382610f37565b606060005b600183516108f491906113b7565b81101561099357600960008461090b8460016113ca565b8151811061091b5761091b6113dd565b60200260200101516001600160a01b03166001600160a01b0316815260200190815260200160002060009054906101000a90046001600160a01b0316828281518110610969576109696113dd565b6001600160a01b03909216602092830291909101909101528061098b816113f3565b9150506108e6565b50919050565b60085460078054604080516020808402820181019092528281526000946001600160a01b03169363e4ffaa4a939092610a10929184918301828280156106a7576020028201919060005260206000209081546001600160a01b031681526001909101906020018083116106895750505050506108e1565b306040518463ffffffff1660e01b8152600401610a2f939291906112f9565b602060405180830381865afa158015610a4c573d6000803e3d6000fd5b505050506040513d601f19601f820116820180604052508101906108919190611371565b6001805461054c906112c5565b33600090815260036020526040812080548391908390610a9e9084906113b7565b90915550506001600160a01b038316600081815260036020526040908190208054850190555133906000805160206114ac833981519152906106289086815260200190565b6006546001600160a01b03163314610b0d5760405162461bcd60e51b81526004016104cf9061129f565b600780546001810182556000919091527fa66cc928b5edb82af9bd49922954155ab7b0942694bea4ce44661d9a8736c6880180546001600160a01b0319166001600160a01b0392909216919091179055565b60078181548110610b6f57600080fd5b6000918252602090912001546001600160a01b0316905081565b42841015610bd95760405162461bcd60e51b815260206004820152601760248201527f5045524d49545f444541444c494e455f4558504952454400000000000000000060448201526064016104cf565b60006001610be5610860565b6001600160a01b038a811660008181526005602090815260409182902080546001810190915582517f6e71edae12b1b97f4d1f60370fef10105fa2faae0126114a169c64845d6126c98184015280840194909452938d166060840152608083018c905260a083019390935260c08083018b90528151808403909101815260e08301909152805192019190912061190160f01b6101008301526101028201929092526101228101919091526101420160408051601f198184030181528282528051602091820120600084529083018083525260ff871690820152606081018590526080810184905260a0016020604051602081039080840390855afa158015610cf1573d6000803e3d6000fd5b5050604051601f1901519150506001600160a01b03811615801590610d275750876001600160a01b0316816001600160a01b0316145b610d645760405162461bcd60e51b815260206004820152600e60248201526d24a72b20a624a22fa9a4a3a722a960911b60448201526064016104cf565b6001600160a01b0390811660009081526004602090815260408083208a8516808552908352928190208990555188815291928a16917f8c5be1e5ebec7d5bd14f71427d1e84f3dd0314c0f7b2291e5b200ac8c7c3b925910160405180910390a350505050505050565b6006546001600160a01b03163314610df75760405162461bcd60e51b81526004016104cf9061129f565b600680546001600160a01b0319166001600160a01b03831690811790915560405133907f8be0079c531659141344cd1fd0a4f28419497f9722a3daafe3b4186f6b6457e090600090a350565b8060026000828254610e5591906113ca565b90915550506001600160a01b0382166000818152600360209081526040808320805486019055518481526000805160206114ac83398151915291015b60405180910390a35050565b60007f8b73c3c69bb8fe3d512ecc4cf759cc79239f7b179b0ffacaa9a75d522b39400f6000604051610ecf919061140c565b6040805191829003822060208301939093528101919091527fc89efdaa54c0f20c7adf612882df0950f5a951637e0307cdcb4c672f298b8bc660608201524660808201523060a082015260c00160405160208183030381529060405280519060200120905090565b6001600160a01b03821660009081526003602052604081208054839290610f5f9084906113b7565b90915550506002805482900390556040518181526000906001600160a01b038416906000805160206114ac83398151915290602001610e91565b80356001600160a01b0381168114610fb057600080fd5b919050565b60008060408385031215610fc857600080fd5b610fd183610f99565b9150610fdf60208401610f99565b90509250929050565b600060208083528351808285015260005b8181101561101557858101830151858201604001528201610ff9565b506000604082860101526040601f19601f8301168501019250505092915050565b6000806040838503121561104957600080fd5b61105283610f99565b946020939093013593505050565b60006020828403121561107257600080fd5b5035919050565b60006020828403121561108b57600080fd5b61109482610f99565b9392505050565b6000806000606084860312156110b057600080fd5b6110b984610f99565b92506110c760208501610f99565b9150604084013590509250925092565b634e487b7160e01b600052604160045260246000fd5b6000602080838503121561110057600080fd5b823567ffffffffffffffff8082111561111857600080fd5b818501915085601f83011261112c57600080fd5b81358181111561113e5761113e6110d7565b8060051b604051601f19603f83011681018181108582111715611163576111636110d7565b60405291825284820192508381018501918883111561118157600080fd5b938501935b828510156111a65761119785610f99565b84529385019392850192611186565b98975050505050505050565b600081518084526020808501945080840160005b838110156111eb5781516001600160a01b0316875295820195908201906001016111c6565b509495945050505050565b60208152600061109460208301846111b2565b6000806040838503121561121c57600080fd5b82359150610fdf60208401610f99565b600080600080600080600060e0888a03121561124757600080fd5b61125088610f99565b965061125e60208901610f99565b95506040880135945060608801359350608088013560ff8116811461128257600080fd5b9699959850939692959460a0840135945060c09093013592915050565b6020808252600c908201526b15539055551213d49256915160a21b604082015260600190565b600181811c908216806112d957607f821691505b60208210810361099357634e487b7160e01b600052602260045260246000fd5b6000606082016060835280865480835260808501915087600052602092508260002060005b828110156113435781546001600160a01b03168452928401926001918201910161131e565b5050508381038285015261135781876111b2565b9250505060018060a01b0383166040830152949350505050565b60006020828403121561138357600080fd5b5051919050565b634e487b7160e01b600052601160045260246000fd5b80820281158282048414176106345761063461138a565b818103818111156106345761063461138a565b808201808211156106345761063461138a565b634e487b7160e01b600052603260045260246000fd5b6000600182016114055761140561138a565b5060010190565b600080835481600182811c91508083168061142857607f831692505b6020808410820361144757634e487b7160e01b86526022600452602486fd5b81801561145b57600181146114705761149d565b60ff198616895284151585028901965061149d565b60008a81526020902060005b868110156114955781548b82015290850190830161147c565b505084890196505b50949897505050505050505056feddf252ad1be2c89b69c2b068fc378daa952ba7f163c4a11628f55a4df523b3efa2646970667358221220211c9eab929ac8c80dc2c21f7fb82d86f1840909cccdad7dfe9a458818a21d7164736f6c63430008110033",
    "linkReferences": {}
  },
  "methodIdentifiers": {
    "DOMAIN_SEPARATOR()": "3644e515",
    "addETHPriceFeed(address)": "af8c32d4",
    "addTrackedPriceFeeds(address,address)": "0133838a",
    "allowance(address,address)": "dd62ed3e",
    "approve(address,uint256)": "095ea7b3",
    "balanceOf(address)": "70a08231",
    "burn(uint256)": "42966c68",
    "calcNav()": "2acf179b",
    "checkNAV()": "926c5c19",
    "constructArray(address[])": "706a9802",
    "decimals()": "313ce567",
    "mintWithEth(uint256)": "0df10da9",
    "mintWithRegisterToken(uint256,address)": "78285810",
    "name()": "06fdde03",
    "nonces(address)": "7ecebe00",
    "owner()": "8da5cb5b",
    "permit(address,address,uint256,uint256,uint8,bytes32,bytes32)": "d505accf",
    "symbol()": "95d89b41",
    "totalSupply()": "18160ddd",
    "trackedPriceFeeds(uint256)": "ba9f712b",
    "transfer(address,uint256)": "a9059cbb",
    "transferFrom(address,address,uint256)": "23b872dd",
    "transferOwnership(address)": "f2fde38b",
    "updateCalcNav(address)": "1fb2709a"
  },
  "id": 24
}