{
  "abi": [
    {
      "inputs": [
        {
          "internalType": "string",
          "name": "_name",
          "type": "string"
        },
        {
          "internalType": "string",
          "name": "_symbol",
          "type": "string"
        },
        {
          "internalType": "uint8",
          "name": "_decimals",
          "type": "uint8"
        },
        {
          "internalType": "uint256",
          "name": "_amount",
          "type": "uint256"
        },
        {
          "internalType": "uint256",
          "name": "_tokenId",
          "type": "uint256"
        },
        {
          "internalType": "address",
          "name": "_owner",
          "type": "address"
        },
        {
          "internalType": "address",
          "name": "_calcNav",
          "type": "address"
        }
      ],
      "stateMutability": "payable",
      "type": "constructor"
    },
    {
      "anonymous": false,
      "inputs": [
        {
          "indexed": true,
          "internalType": "address",
          "name": "owner",
          "type": "address"
        },
        {
          "indexed": true,
          "internalType": "address",
          "name": "spender",
          "type": "address"
        },
        {
          "indexed": false,
          "internalType": "uint256",
          "name": "amount",
          "type": "uint256"
        }
      ],
      "name": "Approval",
      "type": "event"
    },
    {
      "anonymous": false,
      "inputs": [
        {
          "indexed": true,
          "internalType": "address",
          "name": "user",
          "type": "address"
        },
        {
          "indexed": true,
          "internalType": "address",
          "name": "newOwner",
          "type": "address"
        }
      ],
      "name": "OwnershipTransferred",
      "type": "event"
    },
    {
      "anonymous": false,
      "inputs": [
        {
          "indexed": true,
          "internalType": "address",
          "name": "from",
          "type": "address"
        },
        {
          "indexed": true,
          "internalType": "address",
          "name": "to",
          "type": "address"
        },
        {
          "indexed": false,
          "internalType": "uint256",
          "name": "amount",
          "type": "uint256"
        }
      ],
      "name": "Transfer",
      "type": "event"
    },
    {
      "inputs": [],
      "name": "DOMAIN_SEPARATOR",
      "outputs": [
        {
          "internalType": "bytes32",
          "name": "",
          "type": "bytes32"
        }
      ],
      "stateMutability": "view",
      "type": "function"
    },
    {
      "inputs": [
        {
          "internalType": "address",
          "name": "priceFeed",
          "type": "address"
        }
      ],
      "name": "addETHPriceFeed",
      "outputs": [],
      "stateMutability": "nonpayable",
      "type": "function"
    },
    {
      "inputs": [
        {
          "internalType": "address",
          "name": "priceFeed",
          "type": "address"
        },
        {
          "internalType": "address",
          "name": "feedToken",
          "type": "address"
        }
      ],
      "name": "addTrackedPriceFeeds",
      "outputs": [],
      "stateMutability": "nonpayable",
      "type": "function"
    },
    {
      "inputs": [
        {
          "internalType": "address",
          "name": "",
          "type": "address"
        },
        {
          "internalType": "address",
          "name": "",
          "type": "address"
        }
      ],
      "name": "allowance",
      "outputs": [
        {
          "internalType": "uint256",
          "name": "",
          "type": "uint256"
        }
      ],
      "stateMutability": "view",
      "type": "function"
    },
    {
      "inputs": [
        {
          "internalType": "address",
          "name": "spender",
          "type": "address"
        },
        {
          "internalType": "uint256",
          "name": "amount",
          "type": "uint256"
        }
      ],
      "name": "approve",
      "outputs": [
        {
          "internalType": "bool",
          "name": "",
          "type": "bool"
        }
      ],
      "stateMutability": "nonpayable",
      "type": "function"
    },
    {
      "inputs": [
        {
          "internalType": "address",
          "name": "",
          "type": "address"
        }
      ],
      "name": "balanceOf",
      "outputs": [
        {
          "internalType": "uint256",
          "name": "",
          "type": "uint256"
        }
      ],
      "stateMutability": "view",
      "type": "function"
    },
    {
      "inputs": [
        {
          "internalType": "uint256",
          "name": "amount",
          "type": "uint256"
        }
      ],
      "name": "burn",
      "outputs": [],
      "stateMutability": "payable",
      "type": "function"
    },
    {
      "inputs": [],
      "name": "calcNav",
      "outputs": [
        {
          "internalType": "address",
          "name": "",
          "type": "address"
        }
      ],
      "stateMutability": "view",
      "type": "function"
    },
    {
      "inputs": [],
      "name": "checkNAV",
      "outputs": [
        {
          "internalType": "int256",
          "name": "",
          "type": "int256"
        }
      ],
      "stateMutability": "view",
      "type": "function"
    },
    {
      "inputs": [],
      "name": "decimals",
      "outputs": [
        {
          "internalType": "uint8",
          "name": "",
          "type": "uint8"
        }
      ],
      "stateMutability": "view",
      "type": "function"
    },
    {
      "inputs": [],
      "name": "hub",
      "outputs": [
        {
          "internalType": "address",
          "name": "",
          "type": "address"
        }
      ],
      "stateMutability": "view",
      "type": "function"
    },
    {
      "inputs": [
        {
          "internalType": "uint256",
          "name": "amount",
          "type": "uint256"
        }
      ],
      "name": "mintWithEth",
      "outputs": [],
      "stateMutability": "payable",
      "type": "function"
    },
    {
      "inputs": [
        {
          "internalType": "uint256",
          "name": "amount",
          "type": "uint256"
        },
        {
          "internalType": "address",
          "name": "token",
          "type": "address"
        }
      ],
      "name": "mintWithRegisteredToken",
      "outputs": [],
      "stateMutability": "payable",
      "type": "function"
    },
    {
      "inputs": [],
      "name": "name",
      "outputs": [
        {
          "internalType": "string",
          "name": "",
          "type": "string"
        }
      ],
      "stateMutability": "view",
      "type": "function"
    },
    {
      "inputs": [
        {
          "internalType": "address",
          "name": "",
          "type": "address"
        }
      ],
      "name": "nonces",
      "outputs": [
        {
          "internalType": "uint256",
          "name": "",
          "type": "uint256"
        }
      ],
      "stateMutability": "view",
      "type": "function"
    },
    {
      "inputs": [],
      "name": "owner",
      "outputs": [
        {
          "internalType": "address",
          "name": "",
          "type": "address"
        }
      ],
      "stateMutability": "view",
      "type": "function"
    },
    {
      "inputs": [
        {
          "internalType": "address",
          "name": "owner",
          "type": "address"
        },
        {
          "internalType": "address",
          "name": "spender",
          "type": "address"
        },
        {
          "internalType": "uint256",
          "name": "value",
          "type": "uint256"
        },
        {
          "internalType": "uint256",
          "name": "deadline",
          "type": "uint256"
        },
        {
          "internalType": "uint8",
          "name": "v",
          "type": "uint8"
        },
        {
          "internalType": "bytes32",
          "name": "r",
          "type": "bytes32"
        },
        {
          "internalType": "bytes32",
          "name": "s",
          "type": "bytes32"
        }
      ],
      "name": "permit",
      "outputs": [],
      "stateMutability": "nonpayable",
      "type": "function"
    },
    {
      "inputs": [],
      "name": "returnEth",
      "outputs": [],
      "stateMutability": "payable",
      "type": "function"
    },
    {
      "inputs": [
        {
          "internalType": "string",
          "name": "_name",
          "type": "string"
        }
      ],
      "name": "setName",
      "outputs": [],
      "stateMutability": "nonpayable",
      "type": "function"
    },
    {
      "inputs": [
        {
          "internalType": "address",
          "name": "newOwner",
          "type": "address"
        }
      ],
      "name": "setOwner",
      "outputs": [],
      "stateMutability": "nonpayable",
      "type": "function"
    },
    {
      "inputs": [
        {
          "internalType": "string",
          "name": "_tokenURI",
          "type": "string"
        }
      ],
      "name": "setTokenURI",
      "outputs": [],
      "stateMutability": "nonpayable",
      "type": "function"
    },
    {
      "inputs": [],
      "name": "symbol",
      "outputs": [
        {
          "internalType": "string",
          "name": "",
          "type": "string"
        }
      ],
      "stateMutability": "view",
      "type": "function"
    },
    {
      "inputs": [],
      "name": "tokenId",
      "outputs": [
        {
          "internalType": "uint256",
          "name": "",
          "type": "uint256"
        }
      ],
      "stateMutability": "view",
      "type": "function"
    },
    {
      "inputs": [],
      "name": "tokenURI",
      "outputs": [
        {
          "internalType": "string",
          "name": "",
          "type": "string"
        }
      ],
      "stateMutability": "view",
      "type": "function"
    },
    {
      "inputs": [
        {
          "internalType": "uint256",
          "name": "",
          "type": "uint256"
        }
      ],
      "name": "tokens",
      "outputs": [
        {
          "internalType": "address",
          "name": "",
          "type": "address"
        }
      ],
      "stateMutability": "view",
      "type": "function"
    },
    {
      "inputs": [],
      "name": "totalSupply",
      "outputs": [
        {
          "internalType": "uint256",
          "name": "",
          "type": "uint256"
        }
      ],
      "stateMutability": "view",
      "type": "function"
    },
    {
      "inputs": [
        {
          "internalType": "uint256",
          "name": "",
          "type": "uint256"
        }
      ],
      "name": "trackedPriceFeeds",
      "outputs": [
        {
          "internalType": "address",
          "name": "",
          "type": "address"
        }
      ],
      "stateMutability": "view",
      "type": "function"
    },
    {
      "inputs": [
        {
          "internalType": "address",
          "name": "to",
          "type": "address"
        },
        {
          "internalType": "uint256",
          "name": "amount",
          "type": "uint256"
        }
      ],
      "name": "transfer",
      "outputs": [
        {
          "internalType": "bool",
          "name": "",
          "type": "bool"
        }
      ],
      "stateMutability": "nonpayable",
      "type": "function"
    },
    {
      "inputs": [
        {
          "internalType": "address",
          "name": "from",
          "type": "address"
        },
        {
          "internalType": "address",
          "name": "to",
          "type": "address"
        },
        {
          "internalType": "uint256",
          "name": "amount",
          "type": "uint256"
        }
      ],
      "name": "transferFrom",
      "outputs": [
        {
          "internalType": "bool",
          "name": "",
          "type": "bool"
        }
      ],
      "stateMutability": "nonpayable",
      "type": "function"
    },
    {
      "inputs": [
        {
          "internalType": "address",
          "name": "newOwner",
          "type": "address"
        }
      ],
      "name": "transferOwnership",
      "outputs": [],
      "stateMutability": "nonpayable",
      "type": "function"
    },
    {
      "inputs": [
        {
          "internalType": "address",
          "name": "_calcNav",
          "type": "address"
        }
      ],
      "name": "updateCalcNav",
      "outputs": [],
      "stateMutability": "nonpayable",
      "type": "function"
    }
  ],
  "bytecode": {
    "object": "0x61010060405260405162001d8038038062001d8083398101604081905262000027916200038c565b81838189898960006200003b8482620004d8565b5060016200004a8382620004d8565b5060ff81166080524660a05262000060620001a1565b60c0525050600680546001600160a01b0319166001600160a01b0384169081179091556040519091506000907f8be0079c531659141344cd1fd0a4f28419497f9722a3daafe3b4186f6b6457e0908290a35060e05250600780546001600160a01b03191633179055346200011b5760405162461bcd60e51b815260206004820152601460248201527f526571756972656420746f2073656e642045746800000000000000000000000060448201526064015b60405180910390fd5b600084116200016d5760405162461bcd60e51b815260206004820152601760248201527f526571756972656420746f206d696e7420746f6b656e73000000000000000000604482015260640162000112565b600a80546001600160a01b0319166001600160a01b0383161790556200019482856200023d565b505050505050506200064a565b60007f8b73c3c69bb8fe3d512ecc4cf759cc79239f7b179b0ffacaa9a75d522b39400f6000604051620001d59190620005a4565b6040805191829003822060208301939093528101919091527fc89efdaa54c0f20c7adf612882df0950f5a951637e0307cdcb4c672f298b8bc660608201524660808201523060a082015260c00160405160208183030381529060405280519060200120905090565b806002600082825462000251919062000622565b90915550506001600160a01b0382166000818152600360209081526040808320805486019055518481527fddf252ad1be2c89b69c2b068fc378daa952ba7f163c4a11628f55a4df523b3ef910160405180910390a35050565b634e487b7160e01b600052604160045260246000fd5b600082601f830112620002d257600080fd5b81516001600160401b0380821115620002ef57620002ef620002aa565b604051601f8301601f19908116603f011681019082821181831017156200031a576200031a620002aa565b816040528381526020925086838588010111156200033757600080fd5b600091505b838210156200035b57858201830151818301840152908201906200033c565b600093810190920192909252949350505050565b80516001600160a01b03811681146200038757600080fd5b919050565b600080600080600080600060e0888a031215620003a857600080fd5b87516001600160401b0380821115620003c057600080fd5b620003ce8b838c01620002c0565b985060208a0151915080821115620003e557600080fd5b50620003f48a828b01620002c0565b965050604088015160ff811681146200040c57600080fd5b606089015160808a0151919650945092506200042b60a089016200036f565b91506200043b60c089016200036f565b905092959891949750929550565b600181811c908216806200045e57607f821691505b6020821081036200047f57634e487b7160e01b600052602260045260246000fd5b50919050565b601f821115620004d357600081815260208120601f850160051c81016020861015620004ae5750805b601f850160051c820191505b81811015620004cf57828155600101620004ba565b5050505b505050565b81516001600160401b03811115620004f457620004f4620002aa565b6200050c8162000505845462000449565b8462000485565b602080601f8311600181146200054457600084156200052b5750858301515b600019600386901b1c1916600185901b178555620004cf565b600085815260208120601f198616915b82811015620005755788860151825594840194600190910190840162000554565b5085821015620005945787850151600019600388901b60f8161c191681555b5050505050600190811b01905550565b6000808354620005b48162000449565b60018281168015620005cf5760018114620005e55762000616565b60ff198416875282151583028701945062000616565b8760005260208060002060005b858110156200060d5781548a820152908401908201620005f2565b50505082870194505b50929695505050505050565b808201808211156200064457634e487b7160e01b600052601160045260246000fd5b92915050565b60805160a05160c05160e0516116fc62000684600039600061029f01526000610a21015260006109ec0152600061036f01526116fc6000f3fe6080604052600436106101d85760003560e01c80634f64b2be11610102578063af8c32d411610095578063dd62ed3e11610064578063dd62ed3e14610576578063e0df5b6f146105ae578063e3f9ba0e146105ce578063f2fde38b146105d657600080fd5b8063af8c32d4146104f6578063ba9f712b14610516578063c47f002714610536578063d505accf1461055657600080fd5b80638da5cb5b116100d15780638da5cb5b1461048c578063926c5c19146104ac57806395d89b41146104c1578063a9059cbb146104d657600080fd5b80634f64b2be1461040057806370a08231146104205780637ecebe001461044d578063800334bb1461047a57600080fd5b80631fb2709a1161017a5780633644e515116101495780633644e515146103a3578063365a86fc146103b85780633c130d90146103d857806342966c68146103ed57600080fd5b80631fb2709a146102e557806323b872dd146103055780632acf179b14610325578063313ce5671461035d57600080fd5b80630df10da9116101b65780630df10da91461025a57806313af40351461026d57806317d70f7c1461028d57806318160ddd146102cf57600080fd5b80630133838a146101dd57806306fdde03146101ff578063095ea7b31461022a575b600080fd5b3480156101e957600080fd5b506101fd6101f836600461114f565b6105f6565b005b34801561020b57600080fd5b506102146106b1565b6040516102219190611182565b60405180910390f35b34801561023657600080fd5b5061024a6102453660046111d0565b61073f565b6040519015158152602001610221565b6101fd6102683660046111fa565b6107ac565b34801561027957600080fd5b506101fd610288366004611213565b610846565b34801561029957600080fd5b506102c17f000000000000000000000000000000000000000000000000000000000000000081565b604051908152602001610221565b3480156102db57600080fd5b506102c160025481565b3480156102f157600080fd5b506101fd610300366004611213565b6108bc565b34801561031157600080fd5b5061024a610320366004611235565b610908565b34801561033157600080fd5b50600a54610345906001600160a01b031681565b6040516001600160a01b039091168152602001610221565b34801561036957600080fd5b506103917f000000000000000000000000000000000000000000000000000000000000000081565b60405160ff9091168152602001610221565b3480156103af57600080fd5b506102c16109e8565b3480156103c457600080fd5b50600754610345906001600160a01b031681565b3480156103e457600080fd5b50610214610a43565b6101fd6103fb3660046111fa565b610a50565b34801561040c57600080fd5b5061034561041b3660046111fa565b610a76565b34801561042c57600080fd5b506102c161043b366004611213565b60036020526000908152604090205481565b34801561045957600080fd5b506102c1610468366004611213565b60056020526000908152604090205481565b6101fd610488366004611271565b5050565b34801561049857600080fd5b50600654610345906001600160a01b031681565b3480156104b857600080fd5b506102c1610aa0565b3480156104cd57600080fd5b50610214610b18565b3480156104e257600080fd5b5061024a6104f13660046111d0565b610b25565b34801561050257600080fd5b506101fd610511366004611213565b610b8b565b34801561052257600080fd5b506103456105313660046111fa565b610c07565b34801561054257600080fd5b506101fd6105513660046112aa565b610c17565b34801561056257600080fd5b506101fd61057136600461135b565b610c98565b34801561058257600080fd5b506102c161059136600461114f565b600460209081526000928352604080842090915290825290205481565b3480156105ba57600080fd5b506101fd6105c93660046112aa565b610edc565b6101fd610f5d565b3480156105e257600080fd5b506101fd6105f1366004611213565b610fb3565b6006546001600160a01b031633146106295760405162461bcd60e51b8152600401610620906113ce565b60405180910390fd5b6008805460018181019092557ff3f7a9fe364faab93b216da50a3214154f22a0a2b415b23a84c8169e8b636ee30180546001600160a01b039485166001600160a01b0319918216179091556009805492830181556000527f6e1540171b6c0c960b71a7020d9f60077f6af931a8bbf590da0223dacf75c7af9091018054929093169116179055565b600080546106be906113f4565b80601f01602080910402602001604051908101604052809291908181526020018280546106ea906113f4565b80156107375780601f1061070c57610100808354040283529160200191610737565b820191906000526020600020905b81548152906001019060200180831161071a57829003601f168201915b505050505081565b3360008181526004602090815260408083206001600160a01b038716808552925280832085905551919290917f8c5be1e5ebec7d5bd14f71427d1e84f3dd0314c0f7b2291e5b200ac8c7c3b9259061079a9086815260200190565b60405180910390a35060015b92915050565b600a5460405163727fd52560e11b81526001600160a01b039091169063e4ffaa4a906107e2906008906009903090600401611477565b602060405180830381865afa1580156107ff573d6000803e3d6000fd5b505050506040513d601f19601f8201168201806040525081019061082391906114b5565b61082d90826114e4565b34101561083957600080fd5b6108433382610fdd565b50565b6007546001600160a01b031633146108705760405162461bcd60e51b8152600401610620906113ce565b600680546001600160a01b0319166001600160a01b03831690811790915560405133907f8be0079c531659141344cd1fd0a4f28419497f9722a3daafe3b4186f6b6457e090600090a350565b6006546001600160a01b031633146108e65760405162461bcd60e51b8152600401610620906113ce565b600a80546001600160a01b0319166001600160a01b0392909216919091179055565b6001600160a01b038316600090815260046020908152604080832033845290915281205460001981146109645761093f83826114fb565b6001600160a01b03861660009081526004602090815260408083203384529091529020555b6001600160a01b0385166000908152600360205260408120805485929061098c9084906114fb565b90915550506001600160a01b03808516600081815260036020526040908190208054870190555190918716906000805160206116a7833981519152906109d59087815260200190565b60405180910390a3506001949350505050565b60007f00000000000000000000000000000000000000000000000000000000000000004614610a1e57610a19611037565b905090565b507f000000000000000000000000000000000000000000000000000000000000000090565b600b80546106be906113f4565b33600090815260036020526040902054811115610a6c57600080fd5b61084333826110d1565b60098181548110610a8657600080fd5b6000918252602090912001546001600160a01b0316905081565b600a5460405163727fd52560e11b81526000916001600160a01b03169063e4ffaa4a90610ad7906008906009903090600401611477565b602060405180830381865afa158015610af4573d6000803e3d6000fd5b505050506040513d601f19601f82011682018060405250810190610a1991906114b5565b600180546106be906113f4565b33600090815260036020526040812080548391908390610b469084906114fb565b90915550506001600160a01b038316600081815260036020526040908190208054850190555133906000805160206116a78339815191529061079a9086815260200190565b6006546001600160a01b03163314610bb55760405162461bcd60e51b8152600401610620906113ce565b600880546001810182556000919091527ff3f7a9fe364faab93b216da50a3214154f22a0a2b415b23a84c8169e8b636ee30180546001600160a01b0319166001600160a01b0392909216919091179055565b60088181548110610a8657600080fd5b6006546001600160a01b03163314610c415760405162461bcd60e51b8152600401610620906113ce565b6006546001600160a01b03163314610c8c5760405162461bcd60e51b815260206004820152600e60248201526d1393d517d055551213d49256915160921b6044820152606401610620565b6000610488828261155d565b42841015610ce85760405162461bcd60e51b815260206004820152601760248201527f5045524d49545f444541444c494e455f455850495245440000000000000000006044820152606401610620565b60006001610cf46109e8565b6001600160a01b038a811660008181526005602090815260409182902080546001810190915582517f6e71edae12b1b97f4d1f60370fef10105fa2faae0126114a169c64845d6126c98184015280840194909452938d166060840152608083018c905260a083019390935260c08083018b90528151808403909101815260e08301909152805192019190912061190160f01b6101008301526101028201929092526101228101919091526101420160408051601f198184030181528282528051602091820120600084529083018083525260ff871690820152606081018590526080810184905260a0016020604051602081039080840390855afa158015610e00573d6000803e3d6000fd5b5050604051601f1901519150506001600160a01b03811615801590610e365750876001600160a01b0316816001600160a01b0316145b610e735760405162461bcd60e51b815260206004820152600e60248201526d24a72b20a624a22fa9a4a3a722a960911b6044820152606401610620565b6001600160a01b0390811660009081526004602090815260408083208a8516808552908352928190208990555188815291928a16917f8c5be1e5ebec7d5bd14f71427d1e84f3dd0314c0f7b2291e5b200ac8c7c3b925910160405180910390a350505050505050565b6006546001600160a01b03163314610f065760405162461bcd60e51b8152600401610620906113ce565b6006546001600160a01b03163314610f515760405162461bcd60e51b815260206004820152600e60248201526d1393d517d055551213d49256915160921b6044820152606401610620565b600b610488828261155d565b6006546001600160a01b03163314610f875760405162461bcd60e51b8152600401610620906113ce565b60405133904780156108fc02916000818181858888f19350505050158015610843573d6000803e3d6000fd5b6006546001600160a01b031633146108705760405162461bcd60e51b8152600401610620906113ce565b8060026000828254610fef919061161d565b90915550506001600160a01b0382166000818152600360209081526040808320805486019055518481526000805160206116a783398151915291015b60405180910390a35050565b60007f8b73c3c69bb8fe3d512ecc4cf759cc79239f7b179b0ffacaa9a75d522b39400f60006040516110699190611630565b6040805191829003822060208301939093528101919091527fc89efdaa54c0f20c7adf612882df0950f5a951637e0307cdcb4c672f298b8bc660608201524660808201523060a082015260c00160405160208183030381529060405280519060200120905090565b6001600160a01b038216600090815260036020526040812080548392906110f99084906114fb565b90915550506002805482900390556040518181526000906001600160a01b038416906000805160206116a78339815191529060200161102b565b80356001600160a01b038116811461114a57600080fd5b919050565b6000806040838503121561116257600080fd5b61116b83611133565b915061117960208401611133565b90509250929050565b600060208083528351808285015260005b818110156111af57858101830151858201604001528201611193565b506000604082860101526040601f19601f8301168501019250505092915050565b600080604083850312156111e357600080fd5b6111ec83611133565b946020939093013593505050565b60006020828403121561120c57600080fd5b5035919050565b60006020828403121561122557600080fd5b61122e82611133565b9392505050565b60008060006060848603121561124a57600080fd5b61125384611133565b925061126160208501611133565b9150604084013590509250925092565b6000806040838503121561128457600080fd5b8235915061117960208401611133565b634e487b7160e01b600052604160045260246000fd5b6000602082840312156112bc57600080fd5b813567ffffffffffffffff808211156112d457600080fd5b818401915084601f8301126112e857600080fd5b8135818111156112fa576112fa611294565b604051601f8201601f19908116603f0116810190838211818310171561132257611322611294565b8160405282815287602084870101111561133b57600080fd5b826020860160208301376000928101602001929092525095945050505050565b600080600080600080600060e0888a03121561137657600080fd5b61137f88611133565b965061138d60208901611133565b95506040880135945060608801359350608088013560ff811681146113b157600080fd5b9699959850939692959460a0840135945060c09093013592915050565b6020808252600c908201526b15539055551213d49256915160a21b604082015260600190565b600181811c9082168061140857607f821691505b60208210810361142857634e487b7160e01b600052602260045260246000fd5b50919050565b6000815480845260208085019450836000528060002060005b8381101561146c5781546001600160a01b031687529582019560019182019101611447565b509495945050505050565b60608152600061148a606083018661142e565b828103602084015261149c818661142e565b91505060018060a01b0383166040830152949350505050565b6000602082840312156114c757600080fd5b5051919050565b634e487b7160e01b600052601160045260246000fd5b80820281158282048414176107a6576107a66114ce565b818103818111156107a6576107a66114ce565b601f82111561155857600081815260208120601f850160051c810160208610156115355750805b601f850160051c820191505b8181101561155457828155600101611541565b5050505b505050565b815167ffffffffffffffff81111561157757611577611294565b61158b8161158584546113f4565b8461150e565b602080601f8311600181146115c057600084156115a85750858301515b600019600386901b1c1916600185901b178555611554565b600085815260208120601f198616915b828110156115ef578886015182559484019460019091019084016115d0565b508582101561160d5787850151600019600388901b60f8161c191681555b5050505050600190811b01905550565b808201808211156107a6576107a66114ce565b600080835461163e816113f4565b60018281168015611656576001811461166b5761169a565b60ff198416875282151583028701945061169a565b8760005260208060002060005b858110156116915781548a820152908401908201611678565b50505082870194505b5092969550505050505056feddf252ad1be2c89b69c2b068fc378daa952ba7f163c4a11628f55a4df523b3efa2646970667358221220c52291b8c98a7c56624b578ad856db32c40a6ef526a57b92bce608ed5bf8304664736f6c63430008110033",
    "linkReferences": {}
  },
  "methodIdentifiers": {
    "DOMAIN_SEPARATOR()": "3644e515",
    "addETHPriceFeed(address)": "af8c32d4",
    "addTrackedPriceFeeds(address,address)": "0133838a",
    "allowance(address,address)": "dd62ed3e",
    "approve(address,uint256)": "095ea7b3",
    "balanceOf(address)": "70a08231",
    "burn(uint256)": "42966c68",
    "calcNav()": "2acf179b",
    "checkNAV()": "926c5c19",
    "decimals()": "313ce567",
    "hub()": "365a86fc",
    "mintWithEth(uint256)": "0df10da9",
    "mintWithRegisteredToken(uint256,address)": "800334bb",
    "name()": "06fdde03",
    "nonces(address)": "7ecebe00",
    "owner()": "8da5cb5b",
    "permit(address,address,uint256,uint256,uint8,bytes32,bytes32)": "d505accf",
    "returnEth()": "e3f9ba0e",
    "setName(string)": "c47f0027",
    "setOwner(address)": "13af4035",
    "setTokenURI(string)": "e0df5b6f",
    "symbol()": "95d89b41",
    "tokenId()": "17d70f7c",
    "tokenURI()": "3c130d90",
    "tokens(uint256)": "4f64b2be",
    "totalSupply()": "18160ddd",
    "trackedPriceFeeds(uint256)": "ba9f712b",
    "transfer(address,uint256)": "a9059cbb",
    "transferFrom(address,address,uint256)": "23b872dd",
    "transferOwnership(address)": "f2fde38b",
    "updateCalcNav(address)": "1fb2709a"
  },
  "id": 25
}