{
  "abi": [
    {
      "inputs": [
        {
          "internalType": "string",
          "name": "_name",
          "type": "string"
        },
        {
          "internalType": "string",
          "name": "_symbol",
          "type": "string"
        },
        {
          "internalType": "uint8",
          "name": "_decimals",
          "type": "uint8"
        },
        {
          "internalType": "uint256",
          "name": "amount",
          "type": "uint256"
        },
        {
          "internalType": "address",
          "name": "_calcNav",
          "type": "address"
        }
      ],
      "stateMutability": "nonpayable",
      "type": "constructor"
    },
    {
      "anonymous": false,
      "inputs": [
        {
          "indexed": true,
          "internalType": "address",
          "name": "owner",
          "type": "address"
        },
        {
          "indexed": true,
          "internalType": "address",
          "name": "spender",
          "type": "address"
        },
        {
          "indexed": false,
          "internalType": "uint256",
          "name": "amount",
          "type": "uint256"
        }
      ],
      "name": "Approval",
      "type": "event"
    },
    {
      "anonymous": false,
      "inputs": [
        {
          "indexed": true,
          "internalType": "address",
          "name": "user",
          "type": "address"
        },
        {
          "indexed": true,
          "internalType": "address",
          "name": "newOwner",
          "type": "address"
        }
      ],
      "name": "OwnershipTransferred",
      "type": "event"
    },
    {
      "anonymous": false,
      "inputs": [
        {
          "indexed": true,
          "internalType": "address",
          "name": "from",
          "type": "address"
        },
        {
          "indexed": true,
          "internalType": "address",
          "name": "to",
          "type": "address"
        },
        {
          "indexed": false,
          "internalType": "uint256",
          "name": "amount",
          "type": "uint256"
        }
      ],
      "name": "Transfer",
      "type": "event"
    },
    {
      "inputs": [],
      "name": "DOMAIN_SEPARATOR",
      "outputs": [
        {
          "internalType": "bytes32",
          "name": "",
          "type": "bytes32"
        }
      ],
      "stateMutability": "view",
      "type": "function"
    },
    {
      "inputs": [
        {
          "internalType": "address",
          "name": "priceFeed",
          "type": "address"
        }
      ],
      "name": "addETHPriceFeed",
      "outputs": [],
      "stateMutability": "nonpayable",
      "type": "function"
    },
    {
      "inputs": [
        {
          "internalType": "address",
          "name": "priceFeed",
          "type": "address"
        },
        {
          "internalType": "address",
          "name": "feedToken",
          "type": "address"
        }
      ],
      "name": "addTrackedPriceFeeds",
      "outputs": [],
      "stateMutability": "nonpayable",
      "type": "function"
    },
    {
      "inputs": [
        {
          "internalType": "address",
          "name": "",
          "type": "address"
        },
        {
          "internalType": "address",
          "name": "",
          "type": "address"
        }
      ],
      "name": "allowance",
      "outputs": [
        {
          "internalType": "uint256",
          "name": "",
          "type": "uint256"
        }
      ],
      "stateMutability": "view",
      "type": "function"
    },
    {
      "inputs": [
        {
          "internalType": "address",
          "name": "spender",
          "type": "address"
        },
        {
          "internalType": "uint256",
          "name": "amount",
          "type": "uint256"
        }
      ],
      "name": "approve",
      "outputs": [
        {
          "internalType": "bool",
          "name": "",
          "type": "bool"
        }
      ],
      "stateMutability": "nonpayable",
      "type": "function"
    },
    {
      "inputs": [
        {
          "internalType": "address",
          "name": "",
          "type": "address"
        }
      ],
      "name": "balanceOf",
      "outputs": [
        {
          "internalType": "uint256",
          "name": "",
          "type": "uint256"
        }
      ],
      "stateMutability": "view",
      "type": "function"
    },
    {
      "inputs": [
        {
          "internalType": "uint256",
          "name": "amount",
          "type": "uint256"
        }
      ],
      "name": "burn",
      "outputs": [],
      "stateMutability": "payable",
      "type": "function"
    },
    {
      "inputs": [],
      "name": "calcNav",
      "outputs": [
        {
          "internalType": "address",
          "name": "",
          "type": "address"
        }
      ],
      "stateMutability": "view",
      "type": "function"
    },
    {
      "inputs": [],
      "name": "checkNAV",
      "outputs": [
        {
          "internalType": "int256",
          "name": "",
          "type": "int256"
        }
      ],
      "stateMutability": "view",
      "type": "function"
    },
    {
      "inputs": [],
      "name": "decimals",
      "outputs": [
        {
          "internalType": "uint8",
          "name": "",
          "type": "uint8"
        }
      ],
      "stateMutability": "view",
      "type": "function"
    },
    {
      "inputs": [
        {
          "internalType": "uint256",
          "name": "amount",
          "type": "uint256"
        }
      ],
      "name": "mintWithEth",
      "outputs": [],
      "stateMutability": "payable",
      "type": "function"
    },
    {
      "inputs": [
        {
          "internalType": "uint256",
          "name": "amount",
          "type": "uint256"
        },
        {
          "internalType": "address",
          "name": "token",
          "type": "address"
        }
      ],
      "name": "mintWithRegisterToken",
      "outputs": [],
      "stateMutability": "payable",
      "type": "function"
    },
    {
      "inputs": [],
      "name": "name",
      "outputs": [
        {
          "internalType": "string",
          "name": "",
          "type": "string"
        }
      ],
      "stateMutability": "view",
      "type": "function"
    },
    {
      "inputs": [
        {
          "internalType": "address",
          "name": "",
          "type": "address"
        }
      ],
      "name": "nonces",
      "outputs": [
        {
          "internalType": "uint256",
          "name": "",
          "type": "uint256"
        }
      ],
      "stateMutability": "view",
      "type": "function"
    },
    {
      "inputs": [],
      "name": "owner",
      "outputs": [
        {
          "internalType": "address",
          "name": "",
          "type": "address"
        }
      ],
      "stateMutability": "view",
      "type": "function"
    },
    {
      "inputs": [
        {
          "internalType": "address",
          "name": "owner",
          "type": "address"
        },
        {
          "internalType": "address",
          "name": "spender",
          "type": "address"
        },
        {
          "internalType": "uint256",
          "name": "value",
          "type": "uint256"
        },
        {
          "internalType": "uint256",
          "name": "deadline",
          "type": "uint256"
        },
        {
          "internalType": "uint8",
          "name": "v",
          "type": "uint8"
        },
        {
          "internalType": "bytes32",
          "name": "r",
          "type": "bytes32"
        },
        {
          "internalType": "bytes32",
          "name": "s",
          "type": "bytes32"
        }
      ],
      "name": "permit",
      "outputs": [],
      "stateMutability": "nonpayable",
      "type": "function"
    },
    {
      "inputs": [],
      "name": "symbol",
      "outputs": [
        {
          "internalType": "string",
          "name": "",
          "type": "string"
        }
      ],
      "stateMutability": "view",
      "type": "function"
    },
    {
      "inputs": [
        {
          "internalType": "uint256",
          "name": "",
          "type": "uint256"
        }
      ],
      "name": "tokens",
      "outputs": [
        {
          "internalType": "address",
          "name": "",
          "type": "address"
        }
      ],
      "stateMutability": "view",
      "type": "function"
    },
    {
      "inputs": [],
      "name": "totalSupply",
      "outputs": [
        {
          "internalType": "uint256",
          "name": "",
          "type": "uint256"
        }
      ],
      "stateMutability": "view",
      "type": "function"
    },
    {
      "inputs": [
        {
          "internalType": "uint256",
          "name": "",
          "type": "uint256"
        }
      ],
      "name": "trackedPriceFeeds",
      "outputs": [
        {
          "internalType": "address",
          "name": "",
          "type": "address"
        }
      ],
      "stateMutability": "view",
      "type": "function"
    },
    {
      "inputs": [
        {
          "internalType": "address",
          "name": "to",
          "type": "address"
        },
        {
          "internalType": "uint256",
          "name": "amount",
          "type": "uint256"
        }
      ],
      "name": "transfer",
      "outputs": [
        {
          "internalType": "bool",
          "name": "",
          "type": "bool"
        }
      ],
      "stateMutability": "nonpayable",
      "type": "function"
    },
    {
      "inputs": [
        {
          "internalType": "address",
          "name": "from",
          "type": "address"
        },
        {
          "internalType": "address",
          "name": "to",
          "type": "address"
        },
        {
          "internalType": "uint256",
          "name": "amount",
          "type": "uint256"
        }
      ],
      "name": "transferFrom",
      "outputs": [
        {
          "internalType": "bool",
          "name": "",
          "type": "bool"
        }
      ],
      "stateMutability": "nonpayable",
      "type": "function"
    },
    {
      "inputs": [
        {
          "internalType": "address",
          "name": "newOwner",
          "type": "address"
        }
      ],
      "name": "transferOwnership",
      "outputs": [],
      "stateMutability": "nonpayable",
      "type": "function"
    },
    {
      "inputs": [
        {
          "internalType": "address",
          "name": "_calcNav",
          "type": "address"
        }
      ],
      "name": "updateCalcNav",
      "outputs": [],
      "stateMutability": "nonpayable",
      "type": "function"
    }
  ],
  "bytecode": {
    "object": "0x60e06040523480156200001157600080fd5b5060405162001800380380620018008339810160408190526200003491620002bd565b338585856000620000468482620003fc565b506001620000558382620003fc565b5060ff81166080524660a0526200006b620000ef565b60c0525050600680546001600160a01b0319166001600160a01b0384169081179091556040519091506000907f8be0079c531659141344cd1fd0a4f28419497f9722a3daafe3b4186f6b6457e0908290a350600980546001600160a01b0319166001600160a01b038316179055620000e433836200018b565b50505050506200056e565b60007f8b73c3c69bb8fe3d512ecc4cf759cc79239f7b179b0ffacaa9a75d522b39400f6000604051620001239190620004c8565b6040805191829003822060208301939093528101919091527fc89efdaa54c0f20c7adf612882df0950f5a951637e0307cdcb4c672f298b8bc660608201524660808201523060a082015260c00160405160208183030381529060405280519060200120905090565b80600260008282546200019f919062000546565b90915550506001600160a01b0382166000818152600360209081526040808320805486019055518481527fddf252ad1be2c89b69c2b068fc378daa952ba7f163c4a11628f55a4df523b3ef910160405180910390a35050565b634e487b7160e01b600052604160045260246000fd5b600082601f8301126200022057600080fd5b81516001600160401b03808211156200023d576200023d620001f8565b604051601f8301601f19908116603f01168101908282118183101715620002685762000268620001f8565b816040528381526020925086838588010111156200028557600080fd5b600091505b83821015620002a957858201830151818301840152908201906200028a565b600093810190920192909252949350505050565b600080600080600060a08688031215620002d657600080fd5b85516001600160401b0380821115620002ee57600080fd5b620002fc89838a016200020e565b965060208801519150808211156200031357600080fd5b5062000322888289016200020e565b945050604086015160ff811681146200033a57600080fd5b6060870151608088015191945092506001600160a01b03811681146200035f57600080fd5b809150509295509295909350565b600181811c908216806200038257607f821691505b602082108103620003a357634e487b7160e01b600052602260045260246000fd5b50919050565b601f821115620003f757600081815260208120601f850160051c81016020861015620003d25750805b601f850160051c820191505b81811015620003f357828155600101620003de565b5050505b505050565b81516001600160401b03811115620004185762000418620001f8565b62000430816200042984546200036d565b84620003a9565b602080601f8311600181146200046857600084156200044f5750858301515b600019600386901b1c1916600185901b178555620003f3565b600085815260208120601f198616915b82811015620004995788860151825594840194600190910190840162000478565b5085821015620004b85787850151600019600388901b60f8161c191681555b5050505050600190811b01905550565b6000808354620004d8816200036d565b60018281168015620004f3576001811462000509576200053a565b60ff19841687528215158302870194506200053a565b8760005260208060002060005b85811015620005315781548a82015290840190820162000516565b50505082870194505b50929695505050505050565b808201808211156200056857634e487b7160e01b600052601160045260246000fd5b92915050565b60805160a05160c0516112626200059e600039600061084d015260006108180152600061028e01526112626000f3fe60806040526004361061014b5760003560e01c806370a08231116100b6578063a9059cbb1161006f578063a9059cbb146103c0578063af8c32d4146103e0578063ba9f712b14610400578063d505accf14610420578063dd62ed3e14610440578063f2fde38b1461047857600080fd5b806370a082311461030a57806378285810146103375780637ecebe00146103495780638da5cb5b14610376578063926c5c191461039657806395d89b41146103ab57600080fd5b806323b872dd1161010857806323b872dd146102245780632acf179b14610244578063313ce5671461027c5780633644e515146102c257806342966c68146102d75780634f64b2be146102ea57600080fd5b80630133838a1461015057806306fdde0314610172578063095ea7b31461019d5780630df10da9146101cd57806318160ddd146101e05780631fb2709a14610204575b600080fd5b34801561015c57600080fd5b5061017061016b366004610e62565b610498565b005b34801561017e57600080fd5b50610187610553565b6040516101949190610e95565b60405180910390f35b3480156101a957600080fd5b506101bd6101b8366004610ee3565b6105e1565b6040519015158152602001610194565b6101706101db366004610f0d565b61064e565b3480156101ec57600080fd5b506101f660025481565b604051908152602001610194565b34801561021057600080fd5b5061017061021f366004610f26565b6106e8565b34801561023057600080fd5b506101bd61023f366004610f48565b610734565b34801561025057600080fd5b50600954610264906001600160a01b031681565b6040516001600160a01b039091168152602001610194565b34801561028857600080fd5b506102b07f000000000000000000000000000000000000000000000000000000000000000081565b60405160ff9091168152602001610194565b3480156102ce57600080fd5b506101f6610814565b6101706102e5366004610f0d565b61086f565b3480156102f657600080fd5b50610264610305366004610f0d565b610895565b34801561031657600080fd5b506101f6610325366004610f26565b60036020526000908152604090205481565b610170610345366004610f84565b5050565b34801561035557600080fd5b506101f6610364366004610f26565b60056020526000908152604090205481565b34801561038257600080fd5b50600654610264906001600160a01b031681565b3480156103a257600080fd5b506101f66108bf565b3480156103b757600080fd5b50610187610937565b3480156103cc57600080fd5b506101bd6103db366004610ee3565b610944565b3480156103ec57600080fd5b506101706103fb366004610f26565b6109aa565b34801561040c57600080fd5b5061026461041b366004610f0d565b610a26565b34801561042c57600080fd5b5061017061043b366004610fa7565b610a36565b34801561044c57600080fd5b506101f661045b366004610e62565b600460209081526000928352604080842090915290825290205481565b34801561048457600080fd5b50610170610493366004610f26565b610c7a565b6006546001600160a01b031633146104cb5760405162461bcd60e51b81526004016104c29061101a565b60405180910390fd5b6007805460018181019092557fa66cc928b5edb82af9bd49922954155ab7b0942694bea4ce44661d9a8736c6880180546001600160a01b039485166001600160a01b0319918216179091556008805492830181556000527ff3f7a9fe364faab93b216da50a3214154f22a0a2b415b23a84c8169e8b636ee39091018054929093169116179055565b6000805461056090611040565b80601f016020809104026020016040519081016040528092919081815260200182805461058c90611040565b80156105d95780601f106105ae576101008083540402835291602001916105d9565b820191906000526020600020905b8154815290600101906020018083116105bc57829003601f168201915b505050505081565b3360008181526004602090815260408083206001600160a01b038716808552925280832085905551919290917f8c5be1e5ebec7d5bd14f71427d1e84f3dd0314c0f7b2291e5b200ac8c7c3b9259061063c9086815260200190565b60405180910390a35060015b92915050565b60095460405163727fd52560e11b81526001600160a01b039091169063e4ffaa4a906106849060079060089030906004016110c3565b602060405180830381865afa1580156106a1573d6000803e3d6000fd5b505050506040513d601f19601f820116820180604052508101906106c59190611101565b6106cf9082611130565b3410156106db57600080fd5b6106e53382610cf0565b50565b6006546001600160a01b031633146107125760405162461bcd60e51b81526004016104c29061101a565b600980546001600160a01b0319166001600160a01b0392909216919091179055565b6001600160a01b038316600090815260046020908152604080832033845290915281205460001981146107905761076b8382611147565b6001600160a01b03861660009081526004602090815260408083203384529091529020555b6001600160a01b038516600090815260036020526040812080548592906107b8908490611147565b90915550506001600160a01b038085166000818152600360205260409081902080548701905551909187169060008051602061120d833981519152906108019087815260200190565b60405180910390a3506001949350505050565b60007f0000000000000000000000000000000000000000000000000000000000000000461461084a57610845610d4a565b905090565b507f000000000000000000000000000000000000000000000000000000000000000090565b3360009081526003602052604090205481111561088b57600080fd5b6106e53382610de4565b600881815481106108a557600080fd5b6000918252602090912001546001600160a01b0316905081565b60095460405163727fd52560e11b81526000916001600160a01b03169063e4ffaa4a906108f69060079060089030906004016110c3565b602060405180830381865afa158015610913573d6000803e3d6000fd5b505050506040513d601f19601f820116820180604052508101906108459190611101565b6001805461056090611040565b33600090815260036020526040812080548391908390610965908490611147565b90915550506001600160a01b0383166000818152600360205260409081902080548501905551339060008051602061120d8339815191529061063c9086815260200190565b6006546001600160a01b031633146109d45760405162461bcd60e51b81526004016104c29061101a565b600780546001810182556000919091527fa66cc928b5edb82af9bd49922954155ab7b0942694bea4ce44661d9a8736c6880180546001600160a01b0319166001600160a01b0392909216919091179055565b600781815481106108a557600080fd5b42841015610a865760405162461bcd60e51b815260206004820152601760248201527f5045524d49545f444541444c494e455f4558504952454400000000000000000060448201526064016104c2565b60006001610a92610814565b6001600160a01b038a811660008181526005602090815260409182902080546001810190915582517f6e71edae12b1b97f4d1f60370fef10105fa2faae0126114a169c64845d6126c98184015280840194909452938d166060840152608083018c905260a083019390935260c08083018b90528151808403909101815260e08301909152805192019190912061190160f01b6101008301526101028201929092526101228101919091526101420160408051601f198184030181528282528051602091820120600084529083018083525260ff871690820152606081018590526080810184905260a0016020604051602081039080840390855afa158015610b9e573d6000803e3d6000fd5b5050604051601f1901519150506001600160a01b03811615801590610bd45750876001600160a01b0316816001600160a01b0316145b610c115760405162461bcd60e51b815260206004820152600e60248201526d24a72b20a624a22fa9a4a3a722a960911b60448201526064016104c2565b6001600160a01b0390811660009081526004602090815260408083208a8516808552908352928190208990555188815291928a16917f8c5be1e5ebec7d5bd14f71427d1e84f3dd0314c0f7b2291e5b200ac8c7c3b925910160405180910390a350505050505050565b6006546001600160a01b03163314610ca45760405162461bcd60e51b81526004016104c29061101a565b600680546001600160a01b0319166001600160a01b03831690811790915560405133907f8be0079c531659141344cd1fd0a4f28419497f9722a3daafe3b4186f6b6457e090600090a350565b8060026000828254610d02919061115a565b90915550506001600160a01b03821660008181526003602090815260408083208054860190555184815260008051602061120d83398151915291015b60405180910390a35050565b60007f8b73c3c69bb8fe3d512ecc4cf759cc79239f7b179b0ffacaa9a75d522b39400f6000604051610d7c919061116d565b6040805191829003822060208301939093528101919091527fc89efdaa54c0f20c7adf612882df0950f5a951637e0307cdcb4c672f298b8bc660608201524660808201523060a082015260c00160405160208183030381529060405280519060200120905090565b6001600160a01b03821660009081526003602052604081208054839290610e0c908490611147565b90915550506002805482900390556040518181526000906001600160a01b0384169060008051602061120d83398151915290602001610d3e565b80356001600160a01b0381168114610e5d57600080fd5b919050565b60008060408385031215610e7557600080fd5b610e7e83610e46565b9150610e8c60208401610e46565b90509250929050565b600060208083528351808285015260005b81811015610ec257858101830151858201604001528201610ea6565b506000604082860101526040601f19601f8301168501019250505092915050565b60008060408385031215610ef657600080fd5b610eff83610e46565b946020939093013593505050565b600060208284031215610f1f57600080fd5b5035919050565b600060208284031215610f3857600080fd5b610f4182610e46565b9392505050565b600080600060608486031215610f5d57600080fd5b610f6684610e46565b9250610f7460208501610e46565b9150604084013590509250925092565b60008060408385031215610f9757600080fd5b82359150610e8c60208401610e46565b600080600080600080600060e0888a031215610fc257600080fd5b610fcb88610e46565b9650610fd960208901610e46565b95506040880135945060608801359350608088013560ff81168114610ffd57600080fd5b9699959850939692959460a0840135945060c09093013592915050565b6020808252600c908201526b15539055551213d49256915160a21b604082015260600190565b600181811c9082168061105457607f821691505b60208210810361107457634e487b7160e01b600052602260045260246000fd5b50919050565b6000815480845260208085019450836000528060002060005b838110156110b85781546001600160a01b031687529582019560019182019101611093565b509495945050505050565b6060815260006110d6606083018661107a565b82810360208401526110e8818661107a565b91505060018060a01b0383166040830152949350505050565b60006020828403121561111357600080fd5b5051919050565b634e487b7160e01b600052601160045260246000fd5b80820281158282048414176106485761064861111a565b818103818111156106485761064861111a565b808201808211156106485761064861111a565b600080835481600182811c91508083168061118957607f831692505b602080841082036111a857634e487b7160e01b86526022600452602486fd5b8180156111bc57600181146111d1576111fe565b60ff19861689528415158502890196506111fe565b60008a81526020902060005b868110156111f65781548b8201529085019083016111dd565b505084890196505b50949897505050505050505056feddf252ad1be2c89b69c2b068fc378daa952ba7f163c4a11628f55a4df523b3efa26469706673582212206c3535d7b13d0c109d5812bf663c5dce03c171ca5fb56defe6982f7f0f86108d64736f6c63430008110033",
    "linkReferences": {}
  },
  "methodIdentifiers": {
    "DOMAIN_SEPARATOR()": "3644e515",
    "addETHPriceFeed(address)": "af8c32d4",
    "addTrackedPriceFeeds(address,address)": "0133838a",
    "allowance(address,address)": "dd62ed3e",
    "approve(address,uint256)": "095ea7b3",
    "balanceOf(address)": "70a08231",
    "burn(uint256)": "42966c68",
    "calcNav()": "2acf179b",
    "checkNAV()": "926c5c19",
    "decimals()": "313ce567",
    "mintWithEth(uint256)": "0df10da9",
    "mintWithRegisterToken(uint256,address)": "78285810",
    "name()": "06fdde03",
    "nonces(address)": "7ecebe00",
    "owner()": "8da5cb5b",
    "permit(address,address,uint256,uint256,uint8,bytes32,bytes32)": "d505accf",
    "symbol()": "95d89b41",
    "tokens(uint256)": "4f64b2be",
    "totalSupply()": "18160ddd",
    "trackedPriceFeeds(uint256)": "ba9f712b",
    "transfer(address,uint256)": "a9059cbb",
    "transferFrom(address,address,uint256)": "23b872dd",
    "transferOwnership(address)": "f2fde38b",
    "updateCalcNav(address)": "1fb2709a"
  },
  "id": 22
}