{
  "abi": [
    {
      "inputs": [
        {
          "internalType": "string",
          "name": "_name",
          "type": "string"
        },
        {
          "internalType": "string",
          "name": "_symbol",
          "type": "string"
        },
        {
          "internalType": "uint8",
          "name": "_decimals",
          "type": "uint8"
        },
        {
          "internalType": "uint256",
          "name": "amount",
          "type": "uint256"
        },
        {
          "internalType": "address",
          "name": "_calcNav",
          "type": "address"
        }
      ],
      "stateMutability": "nonpayable",
      "type": "constructor"
    },
    {
      "anonymous": false,
      "inputs": [
        {
          "indexed": true,
          "internalType": "address",
          "name": "owner",
          "type": "address"
        },
        {
          "indexed": true,
          "internalType": "address",
          "name": "spender",
          "type": "address"
        },
        {
          "indexed": false,
          "internalType": "uint256",
          "name": "amount",
          "type": "uint256"
        }
      ],
      "name": "Approval",
      "type": "event"
    },
    {
      "anonymous": false,
      "inputs": [
        {
          "indexed": true,
          "internalType": "address",
          "name": "user",
          "type": "address"
        },
        {
          "indexed": true,
          "internalType": "address",
          "name": "newOwner",
          "type": "address"
        }
      ],
      "name": "OwnershipTransferred",
      "type": "event"
    },
    {
      "anonymous": false,
      "inputs": [
        {
          "indexed": true,
          "internalType": "address",
          "name": "from",
          "type": "address"
        },
        {
          "indexed": true,
          "internalType": "address",
          "name": "to",
          "type": "address"
        },
        {
          "indexed": false,
          "internalType": "uint256",
          "name": "amount",
          "type": "uint256"
        }
      ],
      "name": "Transfer",
      "type": "event"
    },
    {
      "inputs": [],
      "name": "DOMAIN_SEPARATOR",
      "outputs": [
        {
          "internalType": "bytes32",
          "name": "",
          "type": "bytes32"
        }
      ],
      "stateMutability": "view",
      "type": "function"
    },
    {
      "inputs": [
        {
          "internalType": "address",
          "name": "priceFeed",
          "type": "address"
        },
        {
          "internalType": "bool",
          "name": "isV3",
          "type": "bool"
        }
      ],
      "name": "addTrackedPriceFeeds",
      "outputs": [],
      "stateMutability": "nonpayable",
      "type": "function"
    },
    {
      "inputs": [
        {
          "internalType": "address",
          "name": "",
          "type": "address"
        },
        {
          "internalType": "address",
          "name": "",
          "type": "address"
        }
      ],
      "name": "allowance",
      "outputs": [
        {
          "internalType": "uint256",
          "name": "",
          "type": "uint256"
        }
      ],
      "stateMutability": "view",
      "type": "function"
    },
    {
      "inputs": [
        {
          "internalType": "address",
          "name": "spender",
          "type": "address"
        },
        {
          "internalType": "uint256",
          "name": "amount",
          "type": "uint256"
        }
      ],
      "name": "approve",
      "outputs": [
        {
          "internalType": "bool",
          "name": "",
          "type": "bool"
        }
      ],
      "stateMutability": "nonpayable",
      "type": "function"
    },
    {
      "inputs": [
        {
          "internalType": "address",
          "name": "",
          "type": "address"
        }
      ],
      "name": "balanceOf",
      "outputs": [
        {
          "internalType": "uint256",
          "name": "",
          "type": "uint256"
        }
      ],
      "stateMutability": "view",
      "type": "function"
    },
    {
      "inputs": [
        {
          "internalType": "uint256",
          "name": "amount",
          "type": "uint256"
        }
      ],
      "name": "burn",
      "outputs": [],
      "stateMutability": "payable",
      "type": "function"
    },
    {
      "inputs": [],
      "name": "calcNav",
      "outputs": [
        {
          "internalType": "address",
          "name": "",
          "type": "address"
        }
      ],
      "stateMutability": "view",
      "type": "function"
    },
    {
      "inputs": [],
      "name": "decimals",
      "outputs": [
        {
          "internalType": "uint8",
          "name": "",
          "type": "uint8"
        }
      ],
      "stateMutability": "view",
      "type": "function"
    },
    {
      "inputs": [
        {
          "internalType": "uint256",
          "name": "amount",
          "type": "uint256"
        }
      ],
      "name": "mint",
      "outputs": [],
      "stateMutability": "payable",
      "type": "function"
    },
    {
      "inputs": [],
      "name": "name",
      "outputs": [
        {
          "internalType": "string",
          "name": "",
          "type": "string"
        }
      ],
      "stateMutability": "view",
      "type": "function"
    },
    {
      "inputs": [
        {
          "internalType": "address",
          "name": "",
          "type": "address"
        }
      ],
      "name": "nonces",
      "outputs": [
        {
          "internalType": "uint256",
          "name": "",
          "type": "uint256"
        }
      ],
      "stateMutability": "view",
      "type": "function"
    },
    {
      "inputs": [],
      "name": "owner",
      "outputs": [
        {
          "internalType": "address",
          "name": "",
          "type": "address"
        }
      ],
      "stateMutability": "view",
      "type": "function"
    },
    {
      "inputs": [
        {
          "internalType": "address",
          "name": "owner",
          "type": "address"
        },
        {
          "internalType": "address",
          "name": "spender",
          "type": "address"
        },
        {
          "internalType": "uint256",
          "name": "value",
          "type": "uint256"
        },
        {
          "internalType": "uint256",
          "name": "deadline",
          "type": "uint256"
        },
        {
          "internalType": "uint8",
          "name": "v",
          "type": "uint8"
        },
        {
          "internalType": "bytes32",
          "name": "r",
          "type": "bytes32"
        },
        {
          "internalType": "bytes32",
          "name": "s",
          "type": "bytes32"
        }
      ],
      "name": "permit",
      "outputs": [],
      "stateMutability": "nonpayable",
      "type": "function"
    },
    {
      "inputs": [],
      "name": "symbol",
      "outputs": [
        {
          "internalType": "string",
          "name": "",
          "type": "string"
        }
      ],
      "stateMutability": "view",
      "type": "function"
    },
    {
      "inputs": [],
      "name": "totalSupply",
      "outputs": [
        {
          "internalType": "uint256",
          "name": "",
          "type": "uint256"
        }
      ],
      "stateMutability": "view",
      "type": "function"
    },
    {
      "inputs": [
        {
          "internalType": "uint256",
          "name": "",
          "type": "uint256"
        }
      ],
      "name": "trackedPriceFeeds",
      "outputs": [
        {
          "internalType": "address",
          "name": "",
          "type": "address"
        }
      ],
      "stateMutability": "view",
      "type": "function"
    },
    {
      "inputs": [
        {
          "internalType": "address",
          "name": "to",
          "type": "address"
        },
        {
          "internalType": "uint256",
          "name": "amount",
          "type": "uint256"
        }
      ],
      "name": "transfer",
      "outputs": [
        {
          "internalType": "bool",
          "name": "",
          "type": "bool"
        }
      ],
      "stateMutability": "nonpayable",
      "type": "function"
    },
    {
      "inputs": [
        {
          "internalType": "address",
          "name": "from",
          "type": "address"
        },
        {
          "internalType": "address",
          "name": "to",
          "type": "address"
        },
        {
          "internalType": "uint256",
          "name": "amount",
          "type": "uint256"
        }
      ],
      "name": "transferFrom",
      "outputs": [
        {
          "internalType": "bool",
          "name": "",
          "type": "bool"
        }
      ],
      "stateMutability": "nonpayable",
      "type": "function"
    },
    {
      "inputs": [
        {
          "internalType": "address",
          "name": "newOwner",
          "type": "address"
        }
      ],
      "name": "transferOwnership",
      "outputs": [],
      "stateMutability": "nonpayable",
      "type": "function"
    },
    {
      "inputs": [
        {
          "internalType": "address",
          "name": "_calcNav",
          "type": "address"
        }
      ],
      "name": "updateCalcNav",
      "outputs": [],
      "stateMutability": "nonpayable",
      "type": "function"
    }
  ],
  "bytecode": {
    "object": "0x60e06040523480156200001157600080fd5b5060405162001687380380620016878339810160408190526200003491620002bd565b338585856000620000468482620003fc565b506001620000558382620003fc565b5060ff81166080524660a0526200006b620000ef565b60c0525050600680546001600160a01b0319166001600160a01b0384169081179091556040519091506000907f8be0079c531659141344cd1fd0a4f28419497f9722a3daafe3b4186f6b6457e0908290a350600880546001600160a01b0319166001600160a01b038316179055620000e433836200018b565b50505050506200056e565b60007f8b73c3c69bb8fe3d512ecc4cf759cc79239f7b179b0ffacaa9a75d522b39400f6000604051620001239190620004c8565b6040805191829003822060208301939093528101919091527fc89efdaa54c0f20c7adf612882df0950f5a951637e0307cdcb4c672f298b8bc660608201524660808201523060a082015260c00160405160208183030381529060405280519060200120905090565b80600260008282546200019f919062000546565b90915550506001600160a01b0382166000818152600360209081526040808320805486019055518481527fddf252ad1be2c89b69c2b068fc378daa952ba7f163c4a11628f55a4df523b3ef910160405180910390a35050565b634e487b7160e01b600052604160045260246000fd5b600082601f8301126200022057600080fd5b81516001600160401b03808211156200023d576200023d620001f8565b604051601f8301601f19908116603f01168101908282118183101715620002685762000268620001f8565b816040528381526020925086838588010111156200028557600080fd5b600091505b83821015620002a957858201830151818301840152908201906200028a565b600093810190920192909252949350505050565b600080600080600060a08688031215620002d657600080fd5b85516001600160401b0380821115620002ee57600080fd5b620002fc89838a016200020e565b965060208801519150808211156200031357600080fd5b5062000322888289016200020e565b945050604086015160ff811681146200033a57600080fd5b6060870151608088015191945092506001600160a01b03811681146200035f57600080fd5b809150509295509295909350565b600181811c908216806200038257607f821691505b602082108103620003a357634e487b7160e01b600052602260045260246000fd5b50919050565b601f821115620003f757600081815260208120601f850160051c81016020861015620003d25750805b601f850160051c820191505b81811015620003f357828155600101620003de565b5050505b505050565b81516001600160401b03811115620004185762000418620001f8565b62000430816200042984546200036d565b84620003a9565b602080601f8311600181146200046857600084156200044f5750858301515b600019600386901b1c1916600185901b178555620003f3565b600085815260208120601f198616915b82811015620004995788860151825594840194600190910190840162000478565b5085821015620004b85787850151600019600388901b60f8161c191681555b5050505050600190811b01905550565b6000808354620004d8816200036d565b60018281168015620004f3576001811462000509576200053a565b60ff19841687528215158302870194506200053a565b8760005260208060002060005b85811015620005315781548a82015290840190820162000516565b50505082870194505b50929695505050505050565b808201808211156200056857634e487b7160e01b600052601160045260246000fd5b92915050565b60805160a05160c0516110e96200059e600039600061074a015260006107150152600061024f01526110e96000f3fe60806040526004361061011f5760003560e01c806370a08231116100a0578063a9059cbb11610064578063a9059cbb1461034d578063ba9f712b1461036d578063d505accf1461038d578063dd62ed3e146103ad578063f2fde38b146103e557600080fd5b806370a08231146102ab5780637ecebe00146102d85780638da5cb5b1461030557806395d89b4114610325578063a0712d681461033a57600080fd5b80632730264a116100e75780632730264a146101e55780632acf179b14610205578063313ce5671461023d5780633644e5151461028357806342966c681461029857600080fd5b806306fdde0314610124578063095ea7b31461014f57806318160ddd1461017f5780631fb2709a146101a357806323b872dd146101c5575b600080fd5b34801561013057600080fd5b50610139610405565b6040516101469190610cd6565b60405180910390f35b34801561015b57600080fd5b5061016f61016a366004610d40565b610493565b6040519015158152602001610146565b34801561018b57600080fd5b5061019560025481565b604051908152602001610146565b3480156101af57600080fd5b506101c36101be366004610d6a565b610500565b005b3480156101d157600080fd5b5061016f6101e0366004610d8c565b610555565b3480156101f157600080fd5b506101c3610200366004610dc8565b610635565b34801561021157600080fd5b50600854610225906001600160a01b031681565b6040516001600160a01b039091168152602001610146565b34801561024957600080fd5b506102717f000000000000000000000000000000000000000000000000000000000000000081565b60405160ff9091168152602001610146565b34801561028f57600080fd5b50610195610711565b6101c36102a6366004610e04565b61076c565b3480156102b757600080fd5b506101956102c6366004610d6a565b60036020526000908152604090205481565b3480156102e457600080fd5b506101956102f3366004610d6a565b60056020526000908152604090205481565b34801561031157600080fd5b50600654610225906001600160a01b031681565b34801561033157600080fd5b50610139610795565b6101c3610348366004610e04565b6107a2565b34801561035957600080fd5b5061016f610368366004610d40565b610836565b34801561037957600080fd5b50610225610388366004610e04565b61089c565b34801561039957600080fd5b506101c36103a8366004610e1d565b6108c6565b3480156103b957600080fd5b506101956103c8366004610e90565b600460209081526000928352604080842090915290825290205481565b3480156103f157600080fd5b506101c3610400366004610d6a565b610b0a565b6000805461041290610ec3565b80601f016020809104026020016040519081016040528092919081815260200182805461043e90610ec3565b801561048b5780601f106104605761010080835404028352916020019161048b565b820191906000526020600020905b81548152906001019060200180831161046e57829003601f168201915b505050505081565b3360008181526004602090815260408083206001600160a01b038716808552925280832085905551919290917f8c5be1e5ebec7d5bd14f71427d1e84f3dd0314c0f7b2291e5b200ac8c7c3b925906104ee9086815260200190565b60405180910390a35060015b92915050565b6006546001600160a01b031633146105335760405162461bcd60e51b815260040161052a90610efd565b60405180910390fd5b600880546001600160a01b0319166001600160a01b0392909216919091179055565b6001600160a01b038316600090815260046020908152604080832033845290915281205460001981146105b15761058c8382610f39565b6001600160a01b03861660009081526004602090815260408083203384529091529020555b6001600160a01b038516600090815260036020526040812080548592906105d9908490610f39565b90915550506001600160a01b0380851660008181526003602052604090819020805487019055519091871690600080516020611094833981519152906106229087815260200190565b60405180910390a3506001949350505050565b6006546001600160a01b0316331461065f5760405162461bcd60e51b815260040161052a90610efd565b600780546001810182556000919091527fa66cc928b5edb82af9bd49922954155ab7b0942694bea4ce44661d9a8736c6880180546001600160a01b0319166001600160a01b0384811691821790925560085460405163b52f665760e01b8152600481019290925283151560248301529091169063b52f665790604401600060405180830381600087803b1580156106f557600080fd5b505af1158015610709573d6000803e3d6000fd5b505050505050565b60007f0000000000000000000000000000000000000000000000000000000000000000461461074757610742610b80565b905090565b507f000000000000000000000000000000000000000000000000000000000000000090565b3360009081526003602052604090205481111561078857600080fd5b6107923382610c1a565b50565b6001805461041290610ec3565b60085460405163663f8f4f60e01b81526001600160a01b039091169063663f8f4f906107d5906007903090600401610f4c565b602060405180830381865afa1580156107f2573d6000803e3d6000fd5b505050506040513d601f19601f820116820180604052508101906108169190610fb1565b6108209082610fca565b34101561082c57600080fd5b6107923382610c84565b33600090815260036020526040812080548391908390610857908490610f39565b90915550506001600160a01b03831660008181526003602052604090819020805485019055513390600080516020611094833981519152906104ee9086815260200190565b600781815481106108ac57600080fd5b6000918252602090912001546001600160a01b0316905081565b428410156109165760405162461bcd60e51b815260206004820152601760248201527f5045524d49545f444541444c494e455f45585049524544000000000000000000604482015260640161052a565b60006001610922610711565b6001600160a01b038a811660008181526005602090815260409182902080546001810190915582517f6e71edae12b1b97f4d1f60370fef10105fa2faae0126114a169c64845d6126c98184015280840194909452938d166060840152608083018c905260a083019390935260c08083018b90528151808403909101815260e08301909152805192019190912061190160f01b6101008301526101028201929092526101228101919091526101420160408051601f198184030181528282528051602091820120600084529083018083525260ff871690820152606081018590526080810184905260a0016020604051602081039080840390855afa158015610a2e573d6000803e3d6000fd5b5050604051601f1901519150506001600160a01b03811615801590610a645750876001600160a01b0316816001600160a01b0316145b610aa15760405162461bcd60e51b815260206004820152600e60248201526d24a72b20a624a22fa9a4a3a722a960911b604482015260640161052a565b6001600160a01b0390811660009081526004602090815260408083208a8516808552908352928190208990555188815291928a16917f8c5be1e5ebec7d5bd14f71427d1e84f3dd0314c0f7b2291e5b200ac8c7c3b925910160405180910390a350505050505050565b6006546001600160a01b03163314610b345760405162461bcd60e51b815260040161052a90610efd565b600680546001600160a01b0319166001600160a01b03831690811790915560405133907f8be0079c531659141344cd1fd0a4f28419497f9722a3daafe3b4186f6b6457e090600090a350565b60007f8b73c3c69bb8fe3d512ecc4cf759cc79239f7b179b0ffacaa9a75d522b39400f6000604051610bb29190610fe1565b6040805191829003822060208301939093528101919091527fc89efdaa54c0f20c7adf612882df0950f5a951637e0307cdcb4c672f298b8bc660608201524660808201523060a082015260c00160405160208183030381529060405280519060200120905090565b6001600160a01b03821660009081526003602052604081208054839290610c42908490610f39565b90915550506002805482900390556040518181526000906001600160a01b03841690600080516020611094833981519152906020015b60405180910390a35050565b8060026000828254610c969190611080565b90915550506001600160a01b0382166000818152600360209081526040808320805486019055518481526000805160206110948339815191529101610c78565b600060208083528351808285015260005b81811015610d0357858101830151858201604001528201610ce7565b506000604082860101526040601f19601f8301168501019250505092915050565b80356001600160a01b0381168114610d3b57600080fd5b919050565b60008060408385031215610d5357600080fd5b610d5c83610d24565b946020939093013593505050565b600060208284031215610d7c57600080fd5b610d8582610d24565b9392505050565b600080600060608486031215610da157600080fd5b610daa84610d24565b9250610db860208501610d24565b9150604084013590509250925092565b60008060408385031215610ddb57600080fd5b610de483610d24565b915060208301358015158114610df957600080fd5b809150509250929050565b600060208284031215610e1657600080fd5b5035919050565b600080600080600080600060e0888a031215610e3857600080fd5b610e4188610d24565b9650610e4f60208901610d24565b95506040880135945060608801359350608088013560ff81168114610e7357600080fd5b9699959850939692959460a0840135945060c09093013592915050565b60008060408385031215610ea357600080fd5b610eac83610d24565b9150610eba60208401610d24565b90509250929050565b600181811c90821680610ed757607f821691505b602082108103610ef757634e487b7160e01b600052602260045260246000fd5b50919050565b6020808252600c908201526b15539055551213d49256915160a21b604082015260600190565b634e487b7160e01b600052601160045260246000fd5b818103818111156104fa576104fa610f23565b6000604082016040835280855480835260608501915086600052602092508260002060005b82811015610f965781546001600160a01b031684529284019260019182019101610f71565b5050506001600160a01b039490941692019190915250919050565b600060208284031215610fc357600080fd5b5051919050565b80820281158282048414176104fa576104fa610f23565b600080835481600182811c915080831680610ffd57607f831692505b6020808410820361101c57634e487b7160e01b86526022600452602486fd5b818015611030576001811461104557611072565b60ff1986168952841515850289019650611072565b60008a81526020902060005b8681101561106a5781548b820152908501908301611051565b505084890196505b509498975050505050505050565b808201808211156104fa576104fa610f2356feddf252ad1be2c89b69c2b068fc378daa952ba7f163c4a11628f55a4df523b3efa26469706673582212200663f78b1897bd7ec62d58df86b07edbe6f2a9a377b7e12b51a27abd16ca2e2464736f6c63430008110033",
    "linkReferences": {}
  },
  "methodIdentifiers": {
    "DOMAIN_SEPARATOR()": "3644e515",
    "addTrackedPriceFeeds(address,bool)": "2730264a",
    "allowance(address,address)": "dd62ed3e",
    "approve(address,uint256)": "095ea7b3",
    "balanceOf(address)": "70a08231",
    "burn(uint256)": "42966c68",
    "calcNav()": "2acf179b",
    "decimals()": "313ce567",
    "mint(uint256)": "a0712d68",
    "name()": "06fdde03",
    "nonces(address)": "7ecebe00",
    "owner()": "8da5cb5b",
    "permit(address,address,uint256,uint256,uint8,bytes32,bytes32)": "d505accf",
    "symbol()": "95d89b41",
    "totalSupply()": "18160ddd",
    "trackedPriceFeeds(uint256)": "ba9f712b",
    "transfer(address,uint256)": "a9059cbb",
    "transferFrom(address,address,uint256)": "23b872dd",
    "transferOwnership(address)": "f2fde38b",
    "updateCalcNav(address)": "1fb2709a"
  },
  "id": 24
}