{
  "abi": [
    {
      "inputs": [
        {
          "internalType": "string",
          "name": "_name",
          "type": "string"
        },
        {
          "internalType": "string",
          "name": "_symbol",
          "type": "string"
        }
      ],
      "stateMutability": "nonpayable",
      "type": "constructor"
    },
    {
      "anonymous": false,
      "inputs": [
        {
          "indexed": true,
          "internalType": "address",
          "name": "owner",
          "type": "address"
        },
        {
          "indexed": true,
          "internalType": "address",
          "name": "spender",
          "type": "address"
        },
        {
          "indexed": true,
          "internalType": "uint256",
          "name": "id",
          "type": "uint256"
        }
      ],
      "name": "Approval",
      "type": "event"
    },
    {
      "anonymous": false,
      "inputs": [
        {
          "indexed": true,
          "internalType": "address",
          "name": "owner",
          "type": "address"
        },
        {
          "indexed": true,
          "internalType": "address",
          "name": "operator",
          "type": "address"
        },
        {
          "indexed": false,
          "internalType": "bool",
          "name": "approved",
          "type": "bool"
        }
      ],
      "name": "ApprovalForAll",
      "type": "event"
    },
    {
      "anonymous": false,
      "inputs": [
        {
          "indexed": true,
          "internalType": "address",
          "name": "user",
          "type": "address"
        },
        {
          "indexed": true,
          "internalType": "address",
          "name": "newOwner",
          "type": "address"
        }
      ],
      "name": "OwnershipTransferred",
      "type": "event"
    },
    {
      "anonymous": false,
      "inputs": [
        {
          "indexed": true,
          "internalType": "address",
          "name": "from",
          "type": "address"
        },
        {
          "indexed": true,
          "internalType": "address",
          "name": "to",
          "type": "address"
        },
        {
          "indexed": true,
          "internalType": "uint256",
          "name": "id",
          "type": "uint256"
        }
      ],
      "name": "Transfer",
      "type": "event"
    },
    {
      "inputs": [
        {
          "internalType": "address",
          "name": "spender",
          "type": "address"
        },
        {
          "internalType": "uint256",
          "name": "id",
          "type": "uint256"
        }
      ],
      "name": "approve",
      "outputs": [],
      "stateMutability": "nonpayable",
      "type": "function"
    },
    {
      "inputs": [
        {
          "internalType": "address",
          "name": "owner",
          "type": "address"
        }
      ],
      "name": "balanceOf",
      "outputs": [
        {
          "internalType": "uint256",
          "name": "",
          "type": "uint256"
        }
      ],
      "stateMutability": "view",
      "type": "function"
    },
    {
      "inputs": [
        {
          "internalType": "uint256",
          "name": "",
          "type": "uint256"
        }
      ],
      "name": "getApproved",
      "outputs": [
        {
          "internalType": "address",
          "name": "",
          "type": "address"
        }
      ],
      "stateMutability": "view",
      "type": "function"
    },
    {
      "inputs": [
        {
          "internalType": "address",
          "name": "",
          "type": "address"
        },
        {
          "internalType": "address",
          "name": "",
          "type": "address"
        }
      ],
      "name": "isApprovedForAll",
      "outputs": [
        {
          "internalType": "bool",
          "name": "",
          "type": "bool"
        }
      ],
      "stateMutability": "view",
      "type": "function"
    },
    {
      "inputs": [],
      "name": "name",
      "outputs": [
        {
          "internalType": "string",
          "name": "",
          "type": "string"
        }
      ],
      "stateMutability": "view",
      "type": "function"
    },
    {
      "inputs": [],
      "name": "owner",
      "outputs": [
        {
          "internalType": "address",
          "name": "",
          "type": "address"
        }
      ],
      "stateMutability": "view",
      "type": "function"
    },
    {
      "inputs": [
        {
          "internalType": "uint256",
          "name": "id",
          "type": "uint256"
        }
      ],
      "name": "ownerOf",
      "outputs": [
        {
          "internalType": "address",
          "name": "owner",
          "type": "address"
        }
      ],
      "stateMutability": "view",
      "type": "function"
    },
    {
      "inputs": [
        {
          "internalType": "address",
          "name": "from",
          "type": "address"
        },
        {
          "internalType": "address",
          "name": "to",
          "type": "address"
        },
        {
          "internalType": "uint256",
          "name": "id",
          "type": "uint256"
        }
      ],
      "name": "safeTransferFrom",
      "outputs": [],
      "stateMutability": "nonpayable",
      "type": "function"
    },
    {
      "inputs": [
        {
          "internalType": "address",
          "name": "from",
          "type": "address"
        },
        {
          "internalType": "address",
          "name": "to",
          "type": "address"
        },
        {
          "internalType": "uint256",
          "name": "id",
          "type": "uint256"
        },
        {
          "internalType": "bytes",
          "name": "data",
          "type": "bytes"
        }
      ],
      "name": "safeTransferFrom",
      "outputs": [],
      "stateMutability": "nonpayable",
      "type": "function"
    },
    {
      "inputs": [
        {
          "internalType": "address",
          "name": "operator",
          "type": "address"
        },
        {
          "internalType": "bool",
          "name": "approved",
          "type": "bool"
        }
      ],
      "name": "setApprovalForAll",
      "outputs": [],
      "stateMutability": "nonpayable",
      "type": "function"
    },
    {
      "inputs": [
        {
          "internalType": "bytes4",
          "name": "interfaceId",
          "type": "bytes4"
        }
      ],
      "name": "supportsInterface",
      "outputs": [
        {
          "internalType": "bool",
          "name": "",
          "type": "bool"
        }
      ],
      "stateMutability": "view",
      "type": "function"
    },
    {
      "inputs": [],
      "name": "symbol",
      "outputs": [
        {
          "internalType": "string",
          "name": "",
          "type": "string"
        }
      ],
      "stateMutability": "view",
      "type": "function"
    },
    {
      "inputs": [
        {
          "internalType": "uint256",
          "name": "id",
          "type": "uint256"
        }
      ],
      "name": "tokenURI",
      "outputs": [
        {
          "internalType": "string",
          "name": "",
          "type": "string"
        }
      ],
      "stateMutability": "view",
      "type": "function"
    },
    {
      "inputs": [
        {
          "internalType": "address",
          "name": "from",
          "type": "address"
        },
        {
          "internalType": "address",
          "name": "to",
          "type": "address"
        },
        {
          "internalType": "uint256",
          "name": "id",
          "type": "uint256"
        }
      ],
      "name": "transferFrom",
      "outputs": [],
      "stateMutability": "nonpayable",
      "type": "function"
    },
    {
      "inputs": [
        {
          "internalType": "address",
          "name": "newOwner",
          "type": "address"
        }
      ],
      "name": "transferOwnership",
      "outputs": [],
      "stateMutability": "nonpayable",
      "type": "function"
    }
  ],
  "bytecode": {
    "object": "0x60806040523480156200001157600080fd5b506040516200101f3803806200101f833981016040819052620000349162000170565b338282600062000045838262000269565b50600162000054828262000269565b5050600680546001600160a01b0319166001600160a01b0384169081179091556040519091506000907f8be0079c531659141344cd1fd0a4f28419497f9722a3daafe3b4186f6b6457e0908290a350505062000335565b634e487b7160e01b600052604160045260246000fd5b600082601f830112620000d357600080fd5b81516001600160401b0380821115620000f057620000f0620000ab565b604051601f8301601f19908116603f011681019082821181831017156200011b576200011b620000ab565b816040528381526020925086838588010111156200013857600080fd5b600091505b838210156200015c57858201830151818301840152908201906200013d565b600093810190920192909252949350505050565b600080604083850312156200018457600080fd5b82516001600160401b03808211156200019c57600080fd5b620001aa86838701620000c1565b93506020850151915080821115620001c157600080fd5b50620001d085828601620000c1565b9150509250929050565b600181811c90821680620001ef57607f821691505b6020821081036200021057634e487b7160e01b600052602260045260246000fd5b50919050565b601f8211156200026457600081815260208120601f850160051c810160208610156200023f5750805b601f850160051c820191505b8181101562000260578281556001016200024b565b5050505b505050565b81516001600160401b03811115620002855762000285620000ab565b6200029d81620002968454620001da565b8462000216565b602080601f831160018114620002d55760008415620002bc5750858301515b600019600386901b1c1916600185901b17855562000260565b600085815260208120601f198616915b828110156200030657888601518255948401946001909101908401620002e5565b5085821015620003255787850151600019600388901b60f8161c191681555b5050505050600190811b01905550565b610cda80620003456000396000f3fe608060405234801561001057600080fd5b50600436106100f55760003560e01c806370a0823111610097578063b88d4fde11610066578063b88d4fde14610215578063c87b56dd14610228578063e985e9c51461023c578063f2fde38b1461026a57600080fd5b806370a08231146101c65780638da5cb5b146101e757806395d89b41146101fa578063a22cb4651461020257600080fd5b8063095ea7b3116100d3578063095ea7b31461017857806323b872dd1461018d57806342842e0e146101a05780636352211e146101b357600080fd5b806301ffc9a7146100fa57806306fdde0314610122578063081812fc14610137575b600080fd5b61010d6101083660046109cc565b61027d565b60405190151581526020015b60405180910390f35b61012a6102cf565b60405161011991906109f0565b610160610145366004610a3e565b6004602052600090815260409020546001600160a01b031681565b6040516001600160a01b039091168152602001610119565b61018b610186366004610a6e565b61035d565b005b61018b61019b366004610a98565b610444565b61018b6101ae366004610a98565b61060b565b6101606101c1366004610a3e565b610703565b6101d96101d4366004610ad4565b61075a565b604051908152602001610119565b600654610160906001600160a01b031681565b61012a6107bd565b61018b610210366004610aef565b6107ca565b61018b610223366004610b2b565b610836565b61012a610236366004610a3e565b50606090565b61010d61024a366004610bc6565b600560209081526000928352604080842090915290825290205460ff1681565b61018b610278366004610ad4565b61091e565b60006301ffc9a760e01b6001600160e01b0319831614806102ae57506380ac58cd60e01b6001600160e01b03198316145b806102c95750635b5e139f60e01b6001600160e01b03198316145b92915050565b600080546102dc90610bf9565b80601f016020809104026020016040519081016040528092919081815260200182805461030890610bf9565b80156103555780601f1061032a57610100808354040283529160200191610355565b820191906000526020600020905b81548152906001019060200180831161033857829003601f168201915b505050505081565b6000818152600260205260409020546001600160a01b0316338114806103a657506001600160a01b038116600090815260056020908152604080832033845290915290205460ff165b6103e85760405162461bcd60e51b815260206004820152600e60248201526d1393d517d055551213d49256915160921b60448201526064015b60405180910390fd5b60008281526004602052604080822080546001600160a01b0319166001600160a01b0387811691821790925591518593918516917f8c5be1e5ebec7d5bd14f71427d1e84f3dd0314c0f7b2291e5b200ac8c7c3b92591a4505050565b6000818152600260205260409020546001600160a01b0384811691161461049a5760405162461bcd60e51b815260206004820152600a60248201526957524f4e475f46524f4d60b01b60448201526064016103df565b6001600160a01b0382166104e45760405162461bcd60e51b81526020600482015260116024820152701253959053125117d49150d25412515395607a1b60448201526064016103df565b336001600160a01b038416148061051e57506001600160a01b038316600090815260056020908152604080832033845290915290205460ff165b8061053f57506000818152600460205260409020546001600160a01b031633145b61057c5760405162461bcd60e51b815260206004820152600e60248201526d1393d517d055551213d49256915160921b60448201526064016103df565b6001600160a01b0380841660008181526003602090815260408083208054600019019055938616808352848320805460010190558583526002825284832080546001600160a01b03199081168317909155600490925284832080549092169091559251849392917fddf252ad1be2c89b69c2b068fc378daa952ba7f163c4a11628f55a4df523b3ef91a4505050565b610616838383610444565b6001600160a01b0382163b15806106bf5750604051630a85bd0160e11b8082523360048301526001600160a01b03858116602484015260448301849052608060648401526000608484015290919084169063150b7a029060a4016020604051808303816000875af115801561068f573d6000803e3d6000fd5b505050506040513d601f19601f820116820180604052508101906106b39190610c33565b6001600160e01b031916145b6106fe5760405162461bcd60e51b815260206004820152601060248201526f155394d0519157d49150d2541251539560821b60448201526064016103df565b505050565b6000818152600260205260409020546001600160a01b0316806107555760405162461bcd60e51b815260206004820152600a6024820152691393d517d3525395115160b21b60448201526064016103df565b919050565b60006001600160a01b0382166107a15760405162461bcd60e51b815260206004820152600c60248201526b5a45524f5f4144445245535360a01b60448201526064016103df565b506001600160a01b031660009081526003602052604090205490565b600180546102dc90610bf9565b3360008181526005602090815260408083206001600160a01b03871680855290835292819020805460ff191686151590811790915590519081529192917f17307eab39ab6107e8899845ad3d59bd9653f200f220920489ca2b5937696c31910160405180910390a35050565b610841858585610444565b6001600160a01b0384163b15806108d85750604051630a85bd0160e11b808252906001600160a01b0386169063150b7a02906108899033908a90899089908990600401610c50565b6020604051808303816000875af11580156108a8573d6000803e3d6000fd5b505050506040513d601f19601f820116820180604052508101906108cc9190610c33565b6001600160e01b031916145b6109175760405162461bcd60e51b815260206004820152601060248201526f155394d0519157d49150d2541251539560821b60448201526064016103df565b5050505050565b6006546001600160a01b031633146109675760405162461bcd60e51b815260206004820152600c60248201526b15539055551213d49256915160a21b60448201526064016103df565b600680546001600160a01b0319166001600160a01b03831690811790915560405133907f8be0079c531659141344cd1fd0a4f28419497f9722a3daafe3b4186f6b6457e090600090a350565b6001600160e01b0319811681146109c957600080fd5b50565b6000602082840312156109de57600080fd5b81356109e9816109b3565b9392505050565b600060208083528351808285015260005b81811015610a1d57858101830151858201604001528201610a01565b506000604082860101526040601f19601f8301168501019250505092915050565b600060208284031215610a5057600080fd5b5035919050565b80356001600160a01b038116811461075557600080fd5b60008060408385031215610a8157600080fd5b610a8a83610a57565b946020939093013593505050565b600080600060608486031215610aad57600080fd5b610ab684610a57565b9250610ac460208501610a57565b9150604084013590509250925092565b600060208284031215610ae657600080fd5b6109e982610a57565b60008060408385031215610b0257600080fd5b610b0b83610a57565b915060208301358015158114610b2057600080fd5b809150509250929050565b600080600080600060808688031215610b4357600080fd5b610b4c86610a57565b9450610b5a60208701610a57565b935060408601359250606086013567ffffffffffffffff80821115610b7e57600080fd5b818801915088601f830112610b9257600080fd5b813581811115610ba157600080fd5b896020828501011115610bb357600080fd5b9699959850939650602001949392505050565b60008060408385031215610bd957600080fd5b610be283610a57565b9150610bf060208401610a57565b90509250929050565b600181811c90821680610c0d57607f821691505b602082108103610c2d57634e487b7160e01b600052602260045260246000fd5b50919050565b600060208284031215610c4557600080fd5b81516109e9816109b3565b6001600160a01b038681168252851660208201526040810184905260806060820181905281018290526000828460a0840137600060a0848401015260a0601f19601f8501168301019050969550505050505056fea2646970667358221220d3d36d0cc7fb939a1b08ed8eed56c6fbef4f4214ecaaa255e100fecc3fc1d75064736f6c63430008110033",
    "linkReferences": {}
  },
  "methodIdentifiers": {
    "approve(address,uint256)": "095ea7b3",
    "balanceOf(address)": "70a08231",
    "getApproved(uint256)": "081812fc",
    "isApprovedForAll(address,address)": "e985e9c5",
    "name()": "06fdde03",
    "owner()": "8da5cb5b",
    "ownerOf(uint256)": "6352211e",
    "safeTransferFrom(address,address,uint256)": "42842e0e",
    "safeTransferFrom(address,address,uint256,bytes)": "b88d4fde",
    "setApprovalForAll(address,bool)": "a22cb465",
    "supportsInterface(bytes4)": "01ffc9a7",
    "symbol()": "95d89b41",
    "tokenURI(uint256)": "c87b56dd",
    "transferFrom(address,address,uint256)": "23b872dd",
    "transferOwnership(address)": "f2fde38b"
  },
  "id": 3
}