{
  "abi": [
    {
      "inputs": [
        {
          "internalType": "string",
          "name": "_name",
          "type": "string"
        },
        {
          "internalType": "string",
          "name": "_symbol",
          "type": "string"
        },
        {
          "internalType": "uint8",
          "name": "_decimals",
          "type": "uint8"
        }
      ],
      "stateMutability": "nonpayable",
      "type": "constructor"
    },
    {
      "anonymous": false,
      "inputs": [
        {
          "indexed": true,
          "internalType": "address",
          "name": "owner",
          "type": "address"
        },
        {
          "indexed": true,
          "internalType": "address",
          "name": "spender",
          "type": "address"
        },
        {
          "indexed": false,
          "internalType": "uint256",
          "name": "amount",
          "type": "uint256"
        }
      ],
      "name": "Approval",
      "type": "event"
    },
    {
      "anonymous": false,
      "inputs": [
        {
          "indexed": false,
          "internalType": "address",
          "name": "account",
          "type": "address"
        }
      ],
      "name": "Paused",
      "type": "event"
    },
    {
      "anonymous": false,
      "inputs": [
        {
          "indexed": true,
          "internalType": "address",
          "name": "from",
          "type": "address"
        },
        {
          "indexed": true,
          "internalType": "address",
          "name": "to",
          "type": "address"
        },
        {
          "indexed": false,
          "internalType": "uint256",
          "name": "amount",
          "type": "uint256"
        }
      ],
      "name": "Transfer",
      "type": "event"
    },
    {
      "anonymous": false,
      "inputs": [
        {
          "indexed": false,
          "internalType": "address",
          "name": "account",
          "type": "address"
        }
      ],
      "name": "Unpaused",
      "type": "event"
    },
    {
      "inputs": [],
      "name": "DOMAIN_SEPARATOR",
      "outputs": [
        {
          "internalType": "bytes32",
          "name": "",
          "type": "bytes32"
        }
      ],
      "stateMutability": "view",
      "type": "function"
    },
    {
      "inputs": [
        {
          "internalType": "address",
          "name": "",
          "type": "address"
        },
        {
          "internalType": "address",
          "name": "",
          "type": "address"
        }
      ],
      "name": "allowance",
      "outputs": [
        {
          "internalType": "uint256",
          "name": "",
          "type": "uint256"
        }
      ],
      "stateMutability": "view",
      "type": "function"
    },
    {
      "inputs": [
        {
          "internalType": "address",
          "name": "spender",
          "type": "address"
        },
        {
          "internalType": "uint256",
          "name": "amount",
          "type": "uint256"
        }
      ],
      "name": "approve",
      "outputs": [
        {
          "internalType": "bool",
          "name": "",
          "type": "bool"
        }
      ],
      "stateMutability": "nonpayable",
      "type": "function"
    },
    {
      "inputs": [
        {
          "internalType": "address",
          "name": "",
          "type": "address"
        }
      ],
      "name": "balanceOf",
      "outputs": [
        {
          "internalType": "uint256",
          "name": "",
          "type": "uint256"
        }
      ],
      "stateMutability": "view",
      "type": "function"
    },
    {
      "inputs": [],
      "name": "decimals",
      "outputs": [
        {
          "internalType": "uint8",
          "name": "",
          "type": "uint8"
        }
      ],
      "stateMutability": "view",
      "type": "function"
    },
    {
      "inputs": [],
      "name": "name",
      "outputs": [
        {
          "internalType": "string",
          "name": "",
          "type": "string"
        }
      ],
      "stateMutability": "view",
      "type": "function"
    },
    {
      "inputs": [],
      "name": "nameLength",
      "outputs": [
        {
          "internalType": "uint256",
          "name": "",
          "type": "uint256"
        }
      ],
      "stateMutability": "view",
      "type": "function"
    },
    {
      "inputs": [
        {
          "internalType": "address",
          "name": "",
          "type": "address"
        }
      ],
      "name": "nonces",
      "outputs": [
        {
          "internalType": "uint256",
          "name": "",
          "type": "uint256"
        }
      ],
      "stateMutability": "view",
      "type": "function"
    },
    {
      "inputs": [],
      "name": "paused",
      "outputs": [
        {
          "internalType": "bool",
          "name": "",
          "type": "bool"
        }
      ],
      "stateMutability": "view",
      "type": "function"
    },
    {
      "inputs": [
        {
          "internalType": "address",
          "name": "owner",
          "type": "address"
        },
        {
          "internalType": "address",
          "name": "spender",
          "type": "address"
        },
        {
          "internalType": "uint256",
          "name": "value",
          "type": "uint256"
        },
        {
          "internalType": "uint256",
          "name": "deadline",
          "type": "uint256"
        },
        {
          "internalType": "uint8",
          "name": "v",
          "type": "uint8"
        },
        {
          "internalType": "bytes32",
          "name": "r",
          "type": "bytes32"
        },
        {
          "internalType": "bytes32",
          "name": "s",
          "type": "bytes32"
        }
      ],
      "name": "permit",
      "outputs": [],
      "stateMutability": "nonpayable",
      "type": "function"
    },
    {
      "inputs": [],
      "name": "symbol",
      "outputs": [
        {
          "internalType": "string",
          "name": "",
          "type": "string"
        }
      ],
      "stateMutability": "view",
      "type": "function"
    },
    {
      "inputs": [],
      "name": "totalSupply",
      "outputs": [
        {
          "internalType": "uint256",
          "name": "",
          "type": "uint256"
        }
      ],
      "stateMutability": "view",
      "type": "function"
    },
    {
      "inputs": [
        {
          "internalType": "address",
          "name": "to",
          "type": "address"
        },
        {
          "internalType": "uint256",
          "name": "amount",
          "type": "uint256"
        }
      ],
      "name": "transfer",
      "outputs": [
        {
          "internalType": "bool",
          "name": "",
          "type": "bool"
        }
      ],
      "stateMutability": "nonpayable",
      "type": "function"
    },
    {
      "inputs": [
        {
          "internalType": "address",
          "name": "from",
          "type": "address"
        },
        {
          "internalType": "address",
          "name": "to",
          "type": "address"
        },
        {
          "internalType": "uint256",
          "name": "amount",
          "type": "uint256"
        }
      ],
      "name": "transferFrom",
      "outputs": [
        {
          "internalType": "bool",
          "name": "",
          "type": "bool"
        }
      ],
      "stateMutability": "nonpayable",
      "type": "function"
    }
  ],
  "bytecode": {
    "object": "0x60e060405260016006553480156200001657600080fd5b506040516200105d3803806200105d8339810160408190526200003991620002d7565b82828260006200004a8482620003eb565b506001620000598382620003eb565b5060ff81166080524660a0526200006f62000098565b60c05250506007805460ff19169055506200008a8362000134565b600855506200056b92505050565b60007f8b73c3c69bb8fe3d512ecc4cf759cc79239f7b179b0ffacaa9a75d522b39400f6000604051620000cc9190620004b7565b6040805191829003822060208301939093528101919091527fc89efdaa54c0f20c7adf612882df0950f5a951637e0307cdcb4c672f298b8bc660608201524660808201523060a082015260c00160405160208183030381529060405280519060200120905090565b606060006006546001146200017d5760405162461bcd60e51b815260206004820152600a6024820152695245454e5452414e435960b01b60448201526064015b60405180910390fd5b60026006556200018c620001c0565b826040516020016200019f919062000535565b60408051808303601f19018152919052805160016006559094909350915050565b60075460ff1615620002085760405162461bcd60e51b815260206004820152601060248201526f14185d5cd8589b194e881c185d5cd95960821b604482015260640162000174565b565b634e487b7160e01b600052604160045260246000fd5b60005b838110156200023d57818101518382015260200162000223565b50506000910152565b600082601f8301126200025857600080fd5b81516001600160401b03808211156200027557620002756200020a565b604051601f8301601f19908116603f01168101908282118183101715620002a057620002a06200020a565b81604052838152866020858801011115620002ba57600080fd5b620002cd84602083016020890162000220565b9695505050505050565b600080600060608486031215620002ed57600080fd5b83516001600160401b03808211156200030557600080fd5b620003138783880162000246565b945060208601519150808211156200032a57600080fd5b50620003398682870162000246565b925050604084015160ff811681146200035157600080fd5b809150509250925092565b600181811c908216806200037157607f821691505b6020821081036200039257634e487b7160e01b600052602260045260246000fd5b50919050565b601f821115620003e657600081815260208120601f850160051c81016020861015620003c15750805b601f850160051c820191505b81811015620003e257828155600101620003cd565b5050505b505050565b81516001600160401b038111156200040757620004076200020a565b6200041f816200041884546200035c565b8462000398565b602080601f8311600181146200045757600084156200043e5750858301515b600019600386901b1c1916600185901b178555620003e2565b600085815260208120601f198616915b82811015620004885788860151825594840194600190910190840162000467565b5085821015620004a75787850151600019600388901b60f8161c191681555b5050505050600190811b01905550565b6000808354620004c7816200035c565b60018281168015620004e25760018114620004f85762000529565b60ff198416875282151583028701945062000529565b8760005260208060002060005b85811015620005205781548a82015290840190820162000505565b50505082870194505b50929695505050505050565b600082516200054981846020870162000220565b6f10333937b69022aa24102232b73b32b960811b920191825250601001919050565b60805160a05160c051610ac26200059b60003960006104700152600061043b015260006101680152610ac26000f3fe608060405234801561001057600080fd5b50600436106100ea5760003560e01c80635c975abb1161008c57806395d89b411161006657806395d89b41146101ef578063a9059cbb146101f7578063d505accf1461020a578063dd62ed3e1461021f57600080fd5b80635c975abb146101a457806370a08231146101af5780637ecebe00146101cf57600080fd5b806323b872dd116100c857806323b872dd146101475780632f5d3a041461015a578063313ce567146101635780633644e5151461019c57600080fd5b806306fdde03146100ef578063095ea7b31461010d57806318160ddd14610130575b600080fd5b6100f761024a565b60405161010491906107fa565b60405180910390f35b61012061011b366004610864565b6102d8565b6040519015158152602001610104565b61013960025481565b604051908152602001610104565b61012061015536600461088e565b610345565b61013960085481565b61018a7f000000000000000000000000000000000000000000000000000000000000000081565b60405160ff9091168152602001610104565b610139610437565b60075460ff16610120565b6101396101bd3660046108ca565b60036020526000908152604090205481565b6101396101dd3660046108ca565b60056020526000908152604090205481565b6100f7610492565b610120610205366004610864565b61049f565b61021d6102183660046108ec565b610517565b005b61013961022d36600461095f565b600460209081526000928352604080842090915290825290205481565b6000805461025790610992565b80601f016020809104026020016040519081016040528092919081815260200182805461028390610992565b80156102d05780601f106102a5576101008083540402835291602001916102d0565b820191906000526020600020905b8154815290600101906020018083116102b357829003601f168201915b505050505081565b3360008181526004602090815260408083206001600160a01b038716808552925280832085905551919290917f8c5be1e5ebec7d5bd14f71427d1e84f3dd0314c0f7b2291e5b200ac8c7c3b925906103339086815260200190565b60405180910390a35060015b92915050565b6001600160a01b038316600090815260046020908152604080832033845290915281205460001981146103a15761037c83826109cc565b6001600160a01b03861660009081526004602090815260408083203384529091529020555b6001600160a01b038516600090815260036020526040812080548592906103c99084906109cc565b90915550506001600160a01b03808516600081815260036020526040908190208054870190555190918716907fddf252ad1be2c89b69c2b068fc378daa952ba7f163c4a11628f55a4df523b3ef906104249087815260200190565b60405180910390a3506001949350505050565b60007f0000000000000000000000000000000000000000000000000000000000000000461461046d57610468610760565b905090565b507f000000000000000000000000000000000000000000000000000000000000000090565b6001805461025790610992565b336000908152600360205260408120805483919083906104c09084906109cc565b90915550506001600160a01b038316600081815260036020526040908190208054850190555133907fddf252ad1be2c89b69c2b068fc378daa952ba7f163c4a11628f55a4df523b3ef906103339086815260200190565b4284101561056c5760405162461bcd60e51b815260206004820152601760248201527f5045524d49545f444541444c494e455f4558504952454400000000000000000060448201526064015b60405180910390fd5b60006001610578610437565b6001600160a01b038a811660008181526005602090815260409182902080546001810190915582517f6e71edae12b1b97f4d1f60370fef10105fa2faae0126114a169c64845d6126c98184015280840194909452938d166060840152608083018c905260a083019390935260c08083018b90528151808403909101815260e08301909152805192019190912061190160f01b6101008301526101028201929092526101228101919091526101420160408051601f198184030181528282528051602091820120600084529083018083525260ff871690820152606081018590526080810184905260a0016020604051602081039080840390855afa158015610684573d6000803e3d6000fd5b5050604051601f1901519150506001600160a01b038116158015906106ba5750876001600160a01b0316816001600160a01b0316145b6106f75760405162461bcd60e51b815260206004820152600e60248201526d24a72b20a624a22fa9a4a3a722a960911b6044820152606401610563565b6001600160a01b0390811660009081526004602090815260408083208a8516808552908352928190208990555188815291928a16917f8c5be1e5ebec7d5bd14f71427d1e84f3dd0314c0f7b2291e5b200ac8c7c3b925910160405180910390a350505050505050565b60007f8b73c3c69bb8fe3d512ecc4cf759cc79239f7b179b0ffacaa9a75d522b39400f600060405161079291906109ed565b6040805191829003822060208301939093528101919091527fc89efdaa54c0f20c7adf612882df0950f5a951637e0307cdcb4c672f298b8bc660608201524660808201523060a082015260c00160405160208183030381529060405280519060200120905090565b600060208083528351808285015260005b818110156108275785810183015185820160400152820161080b565b506000604082860101526040601f19601f8301168501019250505092915050565b80356001600160a01b038116811461085f57600080fd5b919050565b6000806040838503121561087757600080fd5b61088083610848565b946020939093013593505050565b6000806000606084860312156108a357600080fd5b6108ac84610848565b92506108ba60208501610848565b9150604084013590509250925092565b6000602082840312156108dc57600080fd5b6108e582610848565b9392505050565b600080600080600080600060e0888a03121561090757600080fd5b61091088610848565b965061091e60208901610848565b95506040880135945060608801359350608088013560ff8116811461094257600080fd5b9699959850939692959460a0840135945060c09093013592915050565b6000806040838503121561097257600080fd5b61097b83610848565b915061098960208401610848565b90509250929050565b600181811c908216806109a657607f821691505b6020821081036109c657634e487b7160e01b600052602260045260246000fd5b50919050565b8181038181111561033f57634e487b7160e01b600052601160045260246000fd5b600080835481600182811c915080831680610a0957607f831692505b60208084108203610a2857634e487b7160e01b86526022600452602486fd5b818015610a3c5760018114610a5157610a7e565b60ff1986168952841515850289019650610a7e565b60008a81526020902060005b86811015610a765781548b820152908501908301610a5d565b505084890196505b50949897505050505050505056fea2646970667358221220641bb154ab51c6e7cff77863a60ae05dc3b9a3da49facc8359fd810014093a0564736f6c63430008110033",
    "linkReferences": {}
  },
  "methodIdentifiers": {
    "DOMAIN_SEPARATOR()": "3644e515",
    "allowance(address,address)": "dd62ed3e",
    "approve(address,uint256)": "095ea7b3",
    "balanceOf(address)": "70a08231",
    "decimals()": "313ce567",
    "name()": "06fdde03",
    "nameLength()": "2f5d3a04",
    "nonces(address)": "7ecebe00",
    "paused()": "5c975abb",
    "permit(address,address,uint256,uint256,uint8,bytes32,bytes32)": "d505accf",
    "symbol()": "95d89b41",
    "totalSupply()": "18160ddd",
    "transfer(address,uint256)": "a9059cbb",
    "transferFrom(address,address,uint256)": "23b872dd"
  },
  "id": 10
}