{
  "abi": [
    {
      "inputs": [],
      "stateMutability": "nonpayable",
      "type": "constructor"
    },
    {
      "anonymous": false,
      "inputs": [
        {
          "indexed": true,
          "internalType": "address",
          "name": "previousOwner",
          "type": "address"
        },
        {
          "indexed": true,
          "internalType": "address",
          "name": "newOwner",
          "type": "address"
        }
      ],
      "name": "OwnershipTransferred",
      "type": "event"
    },
    {
      "anonymous": false,
      "inputs": [
        {
          "indexed": false,
          "internalType": "uint256",
          "name": "supply",
          "type": "uint256"
        }
      ],
      "name": "SupplyChange",
      "type": "event"
    },
    {
      "anonymous": false,
      "inputs": [
        {
          "indexed": false,
          "internalType": "address",
          "name": "recipient",
          "type": "address"
        },
        {
          "indexed": false,
          "internalType": "uint256",
          "name": "amount",
          "type": "uint256"
        }
      ],
      "name": "Transfer",
      "type": "event"
    },
    {
      "inputs": [],
      "name": "getSupply",
      "outputs": [
        {
          "internalType": "uint256",
          "name": "",
          "type": "uint256"
        }
      ],
      "stateMutability": "view",
      "type": "function"
    },
    {
      "inputs": [],
      "name": "increaseTotalSupply",
      "outputs": [],
      "stateMutability": "nonpayable",
      "type": "function"
    },
    {
      "inputs": [],
      "name": "owner",
      "outputs": [
        {
          "internalType": "address",
          "name": "",
          "type": "address"
        }
      ],
      "stateMutability": "view",
      "type": "function"
    },
    {
      "inputs": [],
      "name": "renounceOwnership",
      "outputs": [],
      "stateMutability": "nonpayable",
      "type": "function"
    },
    {
      "inputs": [
        {
          "internalType": "uint256",
          "name": "_amount",
          "type": "uint256"
        },
        {
          "internalType": "address",
          "name": "recipient",
          "type": "address"
        }
      ],
      "name": "transfer",
      "outputs": [],
      "stateMutability": "nonpayable",
      "type": "function"
    },
    {
      "inputs": [
        {
          "internalType": "address",
          "name": "newOwner",
          "type": "address"
        }
      ],
      "name": "transferOwnership",
      "outputs": [],
      "stateMutability": "nonpayable",
      "type": "function"
    }
  ],
  "bytecode": {
    "object": "0x608060405261271060015534801561001657600080fd5b5061002033610038565b60015433600090815260026020526040902055610088565b600080546001600160a01b038381166001600160a01b0319831681178455604051919092169283917f8be0079c531659141344cd1fd0a4f28419497f9722a3daafe3b4186f6b6457e09190a35050565b610371806100976000396000f3fe608060405234801561001057600080fd5b50600436106100625760003560e01c80636c9c2faf14610067578063715018a61461007d5780638da5cb5b14610087578063b7760c8f146100a2578063de0f2be1146100b5578063f2fde38b146100bd575b600080fd5b6001546040519081526020015b60405180910390f35b6100856100d0565b005b6000546040516001600160a01b039091168152602001610074565b6100856100b03660046102c7565b6100e4565b61008561012a565b6100856100cb3660046102f3565b610183565b6100d8610201565b6100e2600061025b565b565b604080516001600160a01b0383168152602081018490527f69ca02dd4edd7bf0a4abb9ed3b7af3f14778db5d61921c7dc7cd545266326de2910160405180910390a15050565b610132610201565b6103e8600160008282546101469190610315565b90915550506001546040519081527fa7c4659c01b6333277cda1f0cba85839c3bce5bad5a027f5f8d49be390e2ff2f9060200160405180910390a1565b61018b610201565b6001600160a01b0381166101f55760405162461bcd60e51b815260206004820152602660248201527f4f776e61626c653a206e6577206f776e657220697320746865207a65726f206160448201526564647265737360d01b60648201526084015b60405180910390fd5b6101fe8161025b565b50565b6000546001600160a01b031633146100e25760405162461bcd60e51b815260206004820181905260248201527f4f776e61626c653a2063616c6c6572206973206e6f7420746865206f776e657260448201526064016101ec565b600080546001600160a01b038381166001600160a01b0319831681178455604051919092169283917f8be0079c531659141344cd1fd0a4f28419497f9722a3daafe3b4186f6b6457e09190a35050565b80356001600160a01b03811681146102c257600080fd5b919050565b600080604083850312156102da57600080fd5b823591506102ea602084016102ab565b90509250929050565b60006020828403121561030557600080fd5b61030e826102ab565b9392505050565b6000821982111561033657634e487b7160e01b600052601160045260246000fd5b50019056fea26469706673582212202c118582124ea4f9be919206e3190e751e1793030a9d9a6035c302acfe50f9b664736f6c634300080d0033",
    "linkReferences": {}
  }
}