{
  "abi": [
    {
      "inputs": [
        {
          "internalType": "address",
          "name": "_oracle",
          "type": "address"
        },
        {
          "internalType": "address",
          "name": "_lottery",
          "type": "address"
        }
      ],
      "stateMutability": "nonpayable",
      "type": "constructor"
    },
    {
      "stateMutability": "payable",
      "type": "fallback"
    },
    {
      "inputs": [],
      "name": "chainPayout",
      "outputs": [],
      "stateMutability": "nonpayable",
      "type": "function"
    },
    {
      "inputs": [],
      "name": "eg",
      "outputs": [
        {
          "internalType": "contract Lottery",
          "name": "",
          "type": "address"
        }
      ],
      "stateMutability": "view",
      "type": "function"
    },
    {
      "inputs": [],
      "name": "ek",
      "outputs": [
        {
          "internalType": "contract Oracle",
          "name": "",
          "type": "address"
        }
      ],
      "stateMutability": "view",
      "type": "function"
    },
    {
      "inputs": [],
      "name": "reentrancyAttack",
      "outputs": [],
      "stateMutability": "nonpayable",
      "type": "function"
    },
    {
      "inputs": [
        {
          "internalType": "address",
          "name": "_address",
          "type": "address"
        }
      ],
      "name": "registerLottery",
      "outputs": [],
      "stateMutability": "payable",
      "type": "function"
    },
    {
      "inputs": [],
      "name": "standardPayout",
      "outputs": [],
      "stateMutability": "nonpayable",
      "type": "function"
    },
    {
      "stateMutability": "payable",
      "type": "receive"
    }
  ],
  "bytecode": {
    "object": "0x608060405234801561001057600080fd5b506040516108b83803806108b883398101604081905261002f91610063565b600080546001600160a01b039283166001600160a01b031991821617909155600180549390921692169190911790556100b4565b60008060408385031215610075578182fd5b82516100808161009c565b60208401519092506100918161009c565b809150509250929050565b6001600160a01b03811681146100b157600080fd5b50565b6107f5806100c36000396000f3fe6080604052600436106100595760003560e01c8063027e0109146100e9578063396b4bdb146101145780635cececef146101295780639a78897214610140578063c72972ef14610155578063cbe53e841461016857610060565b3661006057005b600054600254604051631cba05a160e11b81526001600160a01b03928316926339740b429261009492911690600401610748565b602060405180830381600087803b1580156100ae57600080fd5b505af11580156100c2573d6000803e3d6000fd5b505050506040513d601f19601f820116820180604052506100e691908101906106d7565b50005b3480156100f557600080fd5b506100fe61017d565b60405161010b9190610748565b60405180910390f35b34801561012057600080fd5b506100fe61018c565b34801561013557600080fd5b5061013e61019b565b005b34801561014c57600080fd5b5061013e6102cb565b61013e6101633660046106a9565b610451565b34801561017457600080fd5b5061013e6104df565b6000546001600160a01b031681565b6001546001600160a01b031681565b6000546002546040516060926001600160a01b03908116926101c292911690602401610748565b60408051601f198184030181529181526020820180516001600160e01b0316631c67bb3760e01b179052516101f7919061070f565b6000604051808303816000865af19150503d8060008114610234576040519150601f19603f3d011682016040523d82523d6000602084013e610239565b606091505b506000549092506001600160a01b031690506339740b42610259836106a2565b6040518263ffffffff1660e01b81526004016102759190610748565b602060405180830381600087803b15801561028f57600080fd5b505af11580156102a3573d6000803e3d6000fd5b505050506040513d601f19601f820116820180604052506102c791908101906106d7565b5050565b6000546002546001546040805163dbdff2c160e01b815290516001600160a01b03948516946382257ad394811693169163dbdff2c1916004808301926020929190829003018186803b15801561032057600080fd5b505afa158015610334573d6000803e3d6000fd5b505050506040513d601f19601f8201168201806040525061035891908101906106f7565b6040518363ffffffff1660e01b81526004016103759291906107a6565b602060405180830381600087803b15801561038f57600080fd5b505af11580156103a3573d6000803e3d6000fd5b505050506040513d601f19601f820116820180604052506103c791908101906106d7565b50600054600254604051631cba05a160e11b81526001600160a01b03928316926339740b42926103fc92911690600401610748565b602060405180830381600087803b15801561041657600080fd5b505af115801561042a573d6000803e3d6000fd5b505050506040513d601f19601f8201168201806040525061044e91908101906106d7565b50565b34633b9aca001461046157600080fd5b600280546001600160a01b0319166001600160a01b03838116919091179091556000546040516345c1dbc560e11b8152911690638b83b78a9034906104aa90859060040161075c565b6000604051808303818588803b1580156104c357600080fd5b505af11580156104d7573d6000803e3d6000fd5b505050505050565b6001546040805163dbdff2c160e01b815290516000926001600160a01b03169163dbdff2c1916004808301926020929190829003018186803b15801561052457600080fd5b505afa158015610538573d6000803e3d6000fd5b505050506040513d601f19601f8201168201806040525061055c91908101906106f7565b6002549091506001600160a01b031660005b600054671bc16d674ec800006001600160a01b03909116311061069b576000546040516382257ad360e01b81526001600160a01b03909116906382257ad3906105bd90859087906004016107a6565b602060405180830381600087803b1580156105d757600080fd5b505af11580156105eb573d6000803e3d6000fd5b505050506040513d601f19601f8201168201806040525061060f91908101906106d7565b50600054604051631cba05a160e11b81526001600160a01b03909116906339740b4290610640908590600401610748565b602060405180830381600087803b15801561065a57600080fd5b505af115801561066e573d6000803e3d6000fd5b505050506040513d601f19601f8201168201806040525061069291908101906106d7565b5060010161056e565b6003555050565b6014015190565b6000602082840312156106ba578081fd5b81356001600160a01b03811681146106d0578182fd5b9392505050565b6000602082840312156106e8578081fd5b815180151581146106d0578182fd5b600060208284031215610708578081fd5b5051919050565b60008251815b8181101561072f5760208186018101518583015201610715565b8181111561073d5782828501525b509190910192915050565b6001600160a01b0391909116815260200190565b6001600160a01b03919091168152606060208201819052600f908201526e105d1d1858dac810dbdb9d1c9858dd608a1b608082015260a06040820181905260009082015260c00190565b6001600160a01b0392909216825260208201526040019056fea26469706673582212208c85e1246e9da0c291d85cc7a76f1b8055308b757dd000927738367199060b8f64736f6c63430006000033",
    "linkReferences": {}
  }
}