{
  "abi": [
    {
      "inputs": [
        {
          "internalType": "address",
          "name": "_oracle",
          "type": "address"
        },
        {
          "internalType": "address",
          "name": "_lottery",
          "type": "address"
        }
      ],
      "stateMutability": "nonpayable",
      "type": "constructor"
    },
    {
      "stateMutability": "payable",
      "type": "fallback"
    },
    {
      "inputs": [],
      "name": "eg",
      "outputs": [
        {
          "internalType": "contract Lottery",
          "name": "",
          "type": "address"
        }
      ],
      "stateMutability": "view",
      "type": "function"
    },
    {
      "inputs": [],
      "name": "ek",
      "outputs": [
        {
          "internalType": "contract Oracle",
          "name": "",
          "type": "address"
        }
      ],
      "stateMutability": "view",
      "type": "function"
    },
    {
      "inputs": [],
      "name": "getAddress",
      "outputs": [
        {
          "internalType": "bytes",
          "name": "",
          "type": "bytes"
        }
      ],
      "stateMutability": "nonpayable",
      "type": "function"
    },
    {
      "inputs": [],
      "name": "reentrancyAttack",
      "outputs": [],
      "stateMutability": "view",
      "type": "function"
    },
    {
      "inputs": [
        {
          "internalType": "address",
          "name": "_address",
          "type": "address"
        }
      ],
      "name": "registerLottery",
      "outputs": [],
      "stateMutability": "payable",
      "type": "function"
    },
    {
      "inputs": [],
      "name": "standardPayout",
      "outputs": [],
      "stateMutability": "nonpayable",
      "type": "function"
    },
    {
      "inputs": [],
      "name": "winner",
      "outputs": [
        {
          "internalType": "address",
          "name": "",
          "type": "address"
        }
      ],
      "stateMutability": "view",
      "type": "function"
    },
    {
      "stateMutability": "payable",
      "type": "receive"
    }
  ],
  "bytecode": {
    "object": "0x608060405234801561001057600080fd5b5060405161074338038061074383398101604081905261002f91610063565b600080546001600160a01b039283166001600160a01b031991821617909155600180549390921692169190911790556100b4565b60008060408385031215610075578182fd5b82516100808161009c565b60208401519092506100918161009c565b809150509250929050565b6001600160a01b03811681146100b157600080fd5b50565b610680806100c36000396000f3fe6080604052600436106100745760003560e01c80635cececef1161004e5780635cececef146101ad5780639a788972146101c2578063c72972ef146101d7578063dfbf53ae146101ea5761010d565b8063027e01091461014b57806338cc483114610176578063396b4bdb146101985761010d565b3661010d57619c405a111561010b57600054600254604051631cba05a160e11b81526001600160a01b03928316926339740b42926100b792911690600401610570565b602060405180830381600087803b1580156100d157600080fd5b505af11580156100e5573d6000803e3d6000fd5b505050506040513d601f19601f82011682018060405250610109919081019061051c565b505b005b619c405a111561010b57600054600254604051631cba05a160e11b81526001600160a01b03928316926339740b42926100b792911690600401610570565b34801561015757600080fd5b506101606101ff565b60405161016d9190610570565b60405180910390f35b34801561018257600080fd5b5061018b61020e565b60405161016d91906105e7565b3480156101a457600080fd5b506101606102ba565b3480156101b957600080fd5b5061010b6102c9565b3480156101ce57600080fd5b5061010b6102cb565b61010b6101e53660046104ee565b610451565b3480156101f657600080fd5b506101606104df565b6000546001600160a01b031681565b60005460025460405160609283926001600160a01b03918216926102389290911690602401610570565b60408051601f198184030181529181526020820180516001600160e01b03166001628c802760e01b0319179052516102709190610554565b6000604051808303816000865af19150503d80600081146102ad576040519150601f19603f3d011682016040523d82523d6000602084013e6102b2565b606091505b509250505090565b6001546001600160a01b031681565b565b6000546002546001546040805163dbdff2c160e01b815290516001600160a01b03948516946382257ad394811693169163dbdff2c1916004808301926020929190829003018186803b15801561032057600080fd5b505afa158015610334573d6000803e3d6000fd5b505050506040513d601f19601f82011682018060405250610358919081019061053c565b6040518363ffffffff1660e01b81526004016103759291906105ce565b602060405180830381600087803b15801561038f57600080fd5b505af11580156103a3573d6000803e3d6000fd5b505050506040513d601f19601f820116820180604052506103c7919081019061051c565b50600054600254604051631cba05a160e11b81526001600160a01b03928316926339740b42926103fc92911690600401610570565b602060405180830381600087803b15801561041657600080fd5b505af115801561042a573d6000803e3d6000fd5b505050506040513d601f19601f8201168201806040525061044e919081019061051c565b50565b34633b9aca001461046157600080fd5b600280546001600160a01b0319166001600160a01b03838116919091179091556000546040516345c1dbc560e11b8152911690638b83b78a9034906104aa908590600401610584565b6000604051808303818588803b1580156104c357600080fd5b505af11580156104d7573d6000803e3d6000fd5b505050505050565b6002546001600160a01b031681565b6000602082840312156104ff578081fd5b81356001600160a01b0381168114610515578182fd5b9392505050565b60006020828403121561052d578081fd5b81518015158114610515578182fd5b60006020828403121561054d578081fd5b5051919050565b6000825161056681846020870161061a565b9190910192915050565b6001600160a01b0391909116815260200190565b6001600160a01b03919091168152606060208201819052600f908201526e105d1d1858dac810dbdb9d1c9858dd608a1b608082015260a06040820181905260009082015260c00190565b6001600160a01b03929092168252602082015260400190565b600060208252825180602084015261060681604085016020870161061a565b601f01601f19169190910160400192915050565b60005b8381101561063557818101518382015260200161061d565b83811115610644576000848401525b5050505056fea26469706673582212205c846bf067a626ffeceb1c2c2926466c451ecf789d5907b1cdb5f3633407f01764736f6c63430006000033",
    "linkReferences": {}
  },
  "methodIdentifiers": {
    "eg()": "027e0109",
    "ek()": "396b4bdb",
    "getAddress()": "38cc4831",
    "reentrancyAttack()": "5cececef",
    "registerLottery(address)": "c72972ef",
    "standardPayout()": "9a788972",
    "winner()": "dfbf53ae"
  },
  "id": 0
}