{
  "abi": [
    {
      "inputs": [
        {
          "internalType": "address",
          "name": "_owner",
          "type": "address"
        },
        {
          "internalType": "uint256",
          "name": "_tokenId",
          "type": "uint256"
        }
      ],
      "stateMutability": "nonpayable",
      "type": "constructor"
    },
    {
      "anonymous": false,
      "inputs": [
        {
          "indexed": true,
          "internalType": "address",
          "name": "user",
          "type": "address"
        },
        {
          "indexed": true,
          "internalType": "address",
          "name": "newOwner",
          "type": "address"
        }
      ],
      "name": "OwnershipTransferred",
      "type": "event"
    },
    {
      "inputs": [],
      "name": "hub",
      "outputs": [
        {
          "internalType": "address",
          "name": "",
          "type": "address"
        }
      ],
      "stateMutability": "view",
      "type": "function"
    },
    {
      "inputs": [],
      "name": "owner",
      "outputs": [
        {
          "internalType": "address",
          "name": "",
          "type": "address"
        }
      ],
      "stateMutability": "view",
      "type": "function"
    },
    {
      "inputs": [
        {
          "internalType": "address",
          "name": "newOwner",
          "type": "address"
        }
      ],
      "name": "setOwner",
      "outputs": [],
      "stateMutability": "nonpayable",
      "type": "function"
    },
    {
      "inputs": [],
      "name": "tokenId",
      "outputs": [
        {
          "internalType": "uint256",
          "name": "",
          "type": "uint256"
        }
      ],
      "stateMutability": "view",
      "type": "function"
    },
    {
      "inputs": [
        {
          "internalType": "address",
          "name": "newOwner",
          "type": "address"
        }
      ],
      "name": "transferOwnership",
      "outputs": [],
      "stateMutability": "nonpayable",
      "type": "function"
    }
  ],
  "bytecode": {
    "object": "0x60a060405234801561001057600080fd5b5060405161032b38038061032b83398101604081905261002f91610093565b600080546001600160a01b0319166001600160a01b03841690811782556040518492907f8be0079c531659141344cd1fd0a4f28419497f9722a3daafe3b4186f6b6457e0908290a35060805250600180546001600160a01b031916331790556100cd565b600080604083850312156100a657600080fd5b82516001600160a01b03811681146100bd57600080fd5b6020939093015192949293505050565b6080516102446100e76000396000607601526102446000f3fe608060405234801561001057600080fd5b50600436106100575760003560e01c806313af40351461005c57806317d70f7c14610071578063365a86fc146100ab5780638da5cb5b146100d6578063f2fde38b146100e9575b600080fd5b61006f61006a3660046101de565b6100fc565b005b6100987f000000000000000000000000000000000000000000000000000000000000000081565b6040519081526020015b60405180910390f35b6001546100be906001600160a01b031681565b6040516001600160a01b0390911681526020016100a2565b6000546100be906001600160a01b031681565b61006f6100f73660046101de565b610195565b6001546001600160a01b0316331461014a5760405162461bcd60e51b815260206004820152600c60248201526b15539055551213d49256915160a21b60448201526064015b60405180910390fd5b600080546001600160a01b0319166001600160a01b0383169081178255604051909133917f8be0079c531659141344cd1fd0a4f28419497f9722a3daafe3b4186f6b6457e09190a350565b6000546001600160a01b0316331461014a5760405162461bcd60e51b815260206004820152600c60248201526b15539055551213d49256915160a21b6044820152606401610141565b6000602082840312156101f057600080fd5b81356001600160a01b038116811461020757600080fd5b939250505056fea2646970667358221220b44a704f8ca177567ebfe3fc1744c0d0227aeb422cc02867deddac8962c1d74364736f6c63430008110033",
    "linkReferences": {}
  },
  "methodIdentifiers": {
    "hub()": "365a86fc",
    "owner()": "8da5cb5b",
    "setOwner(address)": "13af4035",
    "tokenId()": "17d70f7c",
    "transferOwnership(address)": "f2fde38b"
  },
  "id": 32
}