{
  "abi": [
    {
      "inputs": [
        {
          "internalType": "address",
          "name": "token1",
          "type": "address"
        },
        {
          "internalType": "address",
          "name": "token2",
          "type": "address"
        },
        {
          "internalType": "address",
          "name": "router",
          "type": "address"
        },
        {
          "internalType": "uint256",
          "name": "amount",
          "type": "uint256"
        }
      ],
      "name": "makeASingleSwap",
      "outputs": [
        {
          "internalType": "uint256",
          "name": "",
          "type": "uint256"
        }
      ],
      "stateMutability": "nonpayable",
      "type": "function"
    }
  ],
  "bytecode": {
    "object": "0x608060405234801561001057600080fd5b5061026e806100206000396000f3fe608060405234801561001057600080fd5b506004361061002b5760003560e01c80634ab39e5a14610030575b600080fd5b61004361003e3660046101b2565b610055565b60405190815260200160405180910390f35b6000826001600160a01b031663414bf389604051806101000160405280886001600160a01b03168152602001876001600160a01b03168152602001610bb862ffffff168152602001336001600160a01b031681526020016305f5e0ff8152602001858152602001600a866100c991906101fd565b815260006020918201526040805160e085811b6001600160e01b031916825284516001600160a01b03908116600484015293850151841660248301529184015162ffffff1660448201526060840151831660648201526080840151608482015260a084015160a482015260c084015160c48201529201511660e4820152610104016020604051808303816000875af1158015610169573d6000803e3d6000fd5b505050506040513d601f19601f8201168201806040525081019061018d919061021f565b95945050505050565b80356001600160a01b03811681146101ad57600080fd5b919050565b600080600080608085870312156101c857600080fd5b6101d185610196565b93506101df60208601610196565b92506101ed60408601610196565b9396929550929360600135925050565b60008261021a57634e487b7160e01b600052601260045260246000fd5b500490565b60006020828403121561023157600080fd5b505191905056fea26469706673582212209bdf447e3e3d545d4df41833bfb0257ddaf3f0a05d0e1eedff655dc0ecb821aa64736f6c634300080d0033",
    "linkReferences": {}
  },
  "methodIdentifiers": {
    "makeASingleSwap(address,address,address,uint256)": "4ab39e5a"
  },
  "id": 20
}