{
  "abi": [
    {
      "inputs": [
        {
          "internalType": "address",
          "name": "token1",
          "type": "address"
        },
        {
          "internalType": "address",
          "name": "token2",
          "type": "address"
        },
        {
          "internalType": "address",
          "name": "pool",
          "type": "address"
        },
        {
          "internalType": "address",
          "name": "router",
          "type": "address"
        },
        {
          "internalType": "uint256",
          "name": "amount",
          "type": "uint256"
        }
      ],
      "name": "makeASingleSwap",
      "outputs": [
        {
          "internalType": "uint256",
          "name": "",
          "type": "uint256"
        }
      ],
      "stateMutability": "nonpayable",
      "type": "function"
    }
  ],
  "bytecode": {
    "object": "0x608060405234801561001057600080fd5b506103ad806100206000396000f3fe608060405234801561001057600080fd5b506004361061002b5760003560e01c80635f729dd114610030575b600080fd5b61004361003e36600461021d565b610055565b60405190815260200160405180910390f35b600080846001600160a01b0316633850c7bd6040518163ffffffff1660e01b815260040160e060405180830381865afa158015610096573d6000803e3d6000fd5b505050506040513d601f19601f820116820180604052508101906100ba9190610298565b5050505050509050836001600160a01b031663414bf3896040518061010001604052808a6001600160a01b03168152602001896001600160a01b03168152602001610bb862ffffff168152602001336001600160a01b031681526020016305f5e0ff8152602001868152602001600a87610134919061033c565b81526001600160a01b038581166020928301526040805160e086811b6001600160e01b031916825285518416600483015293850151831660248201529084015162ffffff1660448201526060840151821660648201526080840151608482015260a084015160a482015260c084015160c482015292909101511660e4820152610104016020604051808303816000875af11580156101d6573d6000803e3d6000fd5b505050506040513d601f19601f820116820180604052508101906101fa919061035e565b979650505050505050565b6001600160a01b038116811461021a57600080fd5b50565b600080600080600060a0868803121561023557600080fd5b853561024081610205565b9450602086013561025081610205565b9350604086013561026081610205565b9250606086013561027081610205565b949793965091946080013592915050565b805161ffff8116811461029357600080fd5b919050565b600080600080600080600060e0888a0312156102b357600080fd5b87516102be81610205565b8097505060208801518060020b81146102d657600080fd5b95506102e460408901610281565b94506102f260608901610281565b935061030060808901610281565b925060a088015160ff8116811461031657600080fd5b60c0890151909250801515811461032c57600080fd5b8091505092959891949750929550565b60008261035957634e487b7160e01b600052601260045260246000fd5b500490565b60006020828403121561037057600080fd5b505191905056fea2646970667358221220996783cae254e7f2e4271ae53f96ae46fdce899ac2887c9c54f30063be1240aa64736f6c634300080d0033",
    "linkReferences": {}
  },
  "methodIdentifiers": {
    "makeASingleSwap(address,address,address,address,uint256)": "5f729dd1"
  },
  "id": 20
}