{
  "abi": [
    {
      "inputs": [],
      "name": "getMaxUint256",
      "outputs": [
        {
          "internalType": "uint256",
          "name": "",
          "type": "uint256"
        }
      ],
      "stateMutability": "pure",
      "type": "function"
    },
    {
      "inputs": [
        {
          "internalType": "address",
          "name": "token1",
          "type": "address"
        },
        {
          "internalType": "address",
          "name": "token2",
          "type": "address"
        },
        {
          "internalType": "address",
          "name": "router",
          "type": "address"
        },
        {
          "internalType": "uint256",
          "name": "amount",
          "type": "uint256"
        },
        {
          "internalType": "uint24",
          "name": "fee",
          "type": "uint24"
        }
      ],
      "name": "makeASingleSwap",
      "outputs": [
        {
          "internalType": "uint256",
          "name": "",
          "type": "uint256"
        }
      ],
      "stateMutability": "nonpayable",
      "type": "function"
    }
  ],
  "bytecode": {
    "object": "0x608060405234801561001057600080fd5b5061027d806100206000396000f3fe608060405234801561001057600080fd5b50600436106100365760003560e01c8063acaaec3a1461003b578063d3c60c7a14610060575b600080fd5b61004e6100493660046101c4565b610068565b60405190815260200160405180910390f35b60001961004e565b6000836001600160a01b031663414bf389604051806101000160405280896001600160a01b03168152602001886001600160a01b031681526020018562ffffff168152602001336001600160a01b031681526020016100c660001990565b8152602080820188905260006040808401829052606093840191909152805160e086811b6001600160e01b031916825285516001600160a01b03908116600484015293860151841660248301529185015162ffffff16604482015292840151821660648401526080840151608484015260a084015160a484015260c084015160c4840152929092015190911660e4820152610104016020604051808303816000875af115801561017a573d6000803e3d6000fd5b505050506040513d601f19601f8201168201806040525081019061019e919061022e565b9695505050505050565b80356001600160a01b03811681146101bf57600080fd5b919050565b600080600080600060a086880312156101dc57600080fd5b6101e5866101a8565b94506101f3602087016101a8565b9350610201604087016101a8565b925060608601359150608086013562ffffff8116811461022057600080fd5b809150509295509295909350565b60006020828403121561024057600080fd5b505191905056fea26469706673582212209d01aff111d265e1f51dd44af33be143cf52ed5e4625cad44737adc29dc1753864736f6c63430008110033",
    "linkReferences": {}
  },
  "methodIdentifiers": {
    "getMaxUint256()": "d3c60c7a",
    "makeASingleSwap(address,address,address,uint256,uint24)": "acaaec3a"
  },
  "id": 20
}