{
  "abi": [
    {
      "inputs": [],
      "name": "getMaxUint256",
      "outputs": [
        {
          "internalType": "uint256",
          "name": "",
          "type": "uint256"
        }
      ],
      "stateMutability": "pure",
      "type": "function"
    },
    {
      "inputs": [
        {
          "internalType": "address",
          "name": "token1",
          "type": "address"
        },
        {
          "internalType": "address",
          "name": "token2",
          "type": "address"
        },
        {
          "internalType": "address",
          "name": "router",
          "type": "address"
        },
        {
          "internalType": "uint256",
          "name": "amount",
          "type": "uint256"
        },
        {
          "internalType": "uint24",
          "name": "fee",
          "type": "uint24"
        }
      ],
      "name": "makeASingleSwap",
      "outputs": [
        {
          "internalType": "uint256",
          "name": "",
          "type": "uint256"
        }
      ],
      "stateMutability": "nonpayable",
      "type": "function"
    },
    {
      "inputs": [],
      "name": "zero",
      "outputs": [
        {
          "internalType": "uint256",
          "name": "",
          "type": "uint256"
        }
      ],
      "stateMutability": "view",
      "type": "function"
    }
  ],
  "bytecode": {
    "object": "0x608060405234801561001057600080fd5b50610291806100206000396000f3fe608060405234801561001057600080fd5b50600436106100415760003560e01c8063acaaec3a14610046578063bc1b392d1461006b578063d3c60c7a14610074575b600080fd5b6100596100543660046101d8565b61007c565b60405190815260200160405180910390f35b61005960005481565b600019610059565b6000836001600160a01b031663414bf389604051806101000160405280896001600160a01b03168152602001886001600160a01b031681526020018562ffffff168152602001336001600160a01b031681526020016100da60001990565b8152602080820188905260006040808401829052606093840191909152805160e086811b6001600160e01b031916825285516001600160a01b03908116600484015293860151841660248301529185015162ffffff16604482015292840151821660648401526080840151608484015260a084015160a484015260c084015160c4840152929092015190911660e4820152610104016020604051808303816000875af115801561018e573d6000803e3d6000fd5b505050506040513d601f19601f820116820180604052508101906101b29190610242565b9695505050505050565b80356001600160a01b03811681146101d357600080fd5b919050565b600080600080600060a086880312156101f057600080fd5b6101f9866101bc565b9450610207602087016101bc565b9350610215604087016101bc565b925060608601359150608086013562ffffff8116811461023457600080fd5b809150509295509295909350565b60006020828403121561025457600080fd5b505191905056fea264697066735822122012ebd108917e0ff9b36ca3f1e77f4b30b6c4a6f9dbf81152d29fb2e2e0888b6a64736f6c634300080d0033",
    "linkReferences": {}
  },
  "methodIdentifiers": {
    "getMaxUint256()": "d3c60c7a",
    "makeASingleSwap(address,address,address,uint256,uint24)": "acaaec3a",
    "zero()": "bc1b392d"
  },
  "id": 20
}