{
  "abi": [
    {
      "inputs": [
        {
          "internalType": "string",
          "name": "_name",
          "type": "string"
        },
        {
          "internalType": "string",
          "name": "_symbol",
          "type": "string"
        }
      ],
      "stateMutability": "nonpayable",
      "type": "constructor"
    },
    {
      "anonymous": false,
      "inputs": [
        {
          "indexed": true,
          "internalType": "address",
          "name": "owner",
          "type": "address"
        },
        {
          "indexed": true,
          "internalType": "address",
          "name": "approved",
          "type": "address"
        },
        {
          "indexed": true,
          "internalType": "uint256",
          "name": "tokenId",
          "type": "uint256"
        }
      ],
      "name": "Approval",
      "type": "event"
    },
    {
      "anonymous": false,
      "inputs": [
        {
          "indexed": true,
          "internalType": "address",
          "name": "owner",
          "type": "address"
        },
        {
          "indexed": true,
          "internalType": "address",
          "name": "operator",
          "type": "address"
        },
        {
          "indexed": false,
          "internalType": "bool",
          "name": "approved",
          "type": "bool"
        }
      ],
      "name": "ApprovalForAll",
      "type": "event"
    },
    {
      "anonymous": false,
      "inputs": [
        {
          "indexed": true,
          "internalType": "address",
          "name": "previousOwner",
          "type": "address"
        },
        {
          "indexed": true,
          "internalType": "address",
          "name": "newOwner",
          "type": "address"
        }
      ],
      "name": "OwnershipTransferred",
      "type": "event"
    },
    {
      "anonymous": false,
      "inputs": [
        {
          "indexed": true,
          "internalType": "address",
          "name": "from",
          "type": "address"
        },
        {
          "indexed": true,
          "internalType": "address",
          "name": "to",
          "type": "address"
        },
        {
          "indexed": true,
          "internalType": "uint256",
          "name": "tokenId",
          "type": "uint256"
        }
      ],
      "name": "Transfer",
      "type": "event"
    },
    {
      "inputs": [
        {
          "internalType": "address",
          "name": "to",
          "type": "address"
        },
        {
          "internalType": "uint256",
          "name": "tokenId",
          "type": "uint256"
        }
      ],
      "name": "approve",
      "outputs": [],
      "stateMutability": "nonpayable",
      "type": "function"
    },
    {
      "inputs": [
        {
          "internalType": "address",
          "name": "owner",
          "type": "address"
        }
      ],
      "name": "balanceOf",
      "outputs": [
        {
          "internalType": "uint256",
          "name": "",
          "type": "uint256"
        }
      ],
      "stateMutability": "view",
      "type": "function"
    },
    {
      "inputs": [
        {
          "internalType": "uint256",
          "name": "tokenId",
          "type": "uint256"
        }
      ],
      "name": "getApproved",
      "outputs": [
        {
          "internalType": "address",
          "name": "",
          "type": "address"
        }
      ],
      "stateMutability": "view",
      "type": "function"
    },
    {
      "inputs": [
        {
          "internalType": "address",
          "name": "owner",
          "type": "address"
        },
        {
          "internalType": "address",
          "name": "operator",
          "type": "address"
        }
      ],
      "name": "isApprovedForAll",
      "outputs": [
        {
          "internalType": "bool",
          "name": "",
          "type": "bool"
        }
      ],
      "stateMutability": "view",
      "type": "function"
    },
    {
      "inputs": [],
      "name": "mintAFeesh",
      "outputs": [],
      "stateMutability": "nonpayable",
      "type": "function"
    },
    {
      "inputs": [],
      "name": "name",
      "outputs": [
        {
          "internalType": "string",
          "name": "",
          "type": "string"
        }
      ],
      "stateMutability": "view",
      "type": "function"
    },
    {
      "inputs": [],
      "name": "owner",
      "outputs": [
        {
          "internalType": "address",
          "name": "",
          "type": "address"
        }
      ],
      "stateMutability": "view",
      "type": "function"
    },
    {
      "inputs": [
        {
          "internalType": "uint256",
          "name": "tokenId",
          "type": "uint256"
        }
      ],
      "name": "ownerOf",
      "outputs": [
        {
          "internalType": "address",
          "name": "",
          "type": "address"
        }
      ],
      "stateMutability": "view",
      "type": "function"
    },
    {
      "inputs": [],
      "name": "renounceOwnership",
      "outputs": [],
      "stateMutability": "nonpayable",
      "type": "function"
    },
    {
      "inputs": [
        {
          "internalType": "address",
          "name": "from",
          "type": "address"
        },
        {
          "internalType": "address",
          "name": "to",
          "type": "address"
        },
        {
          "internalType": "uint256",
          "name": "tokenId",
          "type": "uint256"
        }
      ],
      "name": "safeTransferFrom",
      "outputs": [],
      "stateMutability": "nonpayable",
      "type": "function"
    },
    {
      "inputs": [
        {
          "internalType": "address",
          "name": "from",
          "type": "address"
        },
        {
          "internalType": "address",
          "name": "to",
          "type": "address"
        },
        {
          "internalType": "uint256",
          "name": "tokenId",
          "type": "uint256"
        },
        {
          "internalType": "bytes",
          "name": "data",
          "type": "bytes"
        }
      ],
      "name": "safeTransferFrom",
      "outputs": [],
      "stateMutability": "nonpayable",
      "type": "function"
    },
    {
      "inputs": [
        {
          "internalType": "address",
          "name": "operator",
          "type": "address"
        },
        {
          "internalType": "bool",
          "name": "approved",
          "type": "bool"
        }
      ],
      "name": "setApprovalForAll",
      "outputs": [],
      "stateMutability": "nonpayable",
      "type": "function"
    },
    {
      "inputs": [
        {
          "internalType": "bytes4",
          "name": "interfaceId",
          "type": "bytes4"
        }
      ],
      "name": "supportsInterface",
      "outputs": [
        {
          "internalType": "bool",
          "name": "",
          "type": "bool"
        }
      ],
      "stateMutability": "view",
      "type": "function"
    },
    {
      "inputs": [],
      "name": "symbol",
      "outputs": [
        {
          "internalType": "string",
          "name": "",
          "type": "string"
        }
      ],
      "stateMutability": "view",
      "type": "function"
    },
    {
      "inputs": [
        {
          "internalType": "uint256",
          "name": "tokenId",
          "type": "uint256"
        }
      ],
      "name": "tokenURI",
      "outputs": [
        {
          "internalType": "string",
          "name": "",
          "type": "string"
        }
      ],
      "stateMutability": "view",
      "type": "function"
    },
    {
      "inputs": [
        {
          "internalType": "address",
          "name": "from",
          "type": "address"
        },
        {
          "internalType": "address",
          "name": "to",
          "type": "address"
        },
        {
          "internalType": "uint256",
          "name": "tokenId",
          "type": "uint256"
        }
      ],
      "name": "transferFrom",
      "outputs": [],
      "stateMutability": "nonpayable",
      "type": "function"
    },
    {
      "inputs": [
        {
          "internalType": "address",
          "name": "newOwner",
          "type": "address"
        }
      ],
      "name": "transferOwnership",
      "outputs": [],
      "stateMutability": "nonpayable",
      "type": "function"
    }
  ],
  "bytecode": {
    "object": "0x60806040523480156200001157600080fd5b5060405162001be838038062001be8833981016040819052620000349162000251565b8151829082906200004d906000906020850190620000de565b50805162000063906001906020840190620000de565b505050620000806200007a6200008860201b60201c565b6200008c565b5050620002f7565b3390565b600780546001600160a01b038381166001600160a01b0319831681179093556040519116919082907f8be0079c531659141344cd1fd0a4f28419497f9722a3daafe3b4186f6b6457e090600090a35050565b828054620000ec90620002bb565b90600052602060002090601f0160209004810192826200011057600085556200015b565b82601f106200012b57805160ff19168380011785556200015b565b828001600101855582156200015b579182015b828111156200015b5782518255916020019190600101906200013e565b50620001699291506200016d565b5090565b5b808211156200016957600081556001016200016e565b634e487b7160e01b600052604160045260246000fd5b600082601f830112620001ac57600080fd5b81516001600160401b0380821115620001c957620001c962000184565b604051601f8301601f19908116603f01168101908282118183101715620001f457620001f462000184565b816040528381526020925086838588010111156200021157600080fd5b600091505b8382101562000235578582018301518183018401529082019062000216565b83821115620002475760008385830101525b9695505050505050565b600080604083850312156200026557600080fd5b82516001600160401b03808211156200027d57600080fd5b6200028b868387016200019a565b93506020850151915080821115620002a257600080fd5b50620002b1858286016200019a565b9150509250929050565b600181811c90821680620002d057607f821691505b602082108103620002f157634e487b7160e01b600052602260045260246000fd5b50919050565b6118e180620003076000396000f3fe608060405234801561001057600080fd5b506004361061010b5760003560e01c806370a08231116100a2578063a22cb46511610071578063a22cb46514610210578063b88d4fde14610223578063c87b56dd14610236578063e985e9c514610249578063f2fde38b1461028557600080fd5b806370a08231146101ce578063715018a6146101ef5780638da5cb5b146101f757806395d89b411461020857600080fd5b806323b872dd116100de57806323b872dd1461018d57806342842e0e146101a057806360fbe521146101b35780636352211e146101bb57600080fd5b806301ffc9a71461011057806306fdde0314610138578063081812fc1461014d578063095ea7b314610178575b600080fd5b61012361011e3660046113d2565b610298565b60405190151581526020015b60405180910390f35b6101406102ea565b60405161012f9190611443565b61016061015b366004611456565b61037c565b6040516001600160a01b03909116815260200161012f565b61018b61018636600461148b565b6103a3565b005b61018b61019b3660046114b5565b6104bd565b61018b6101ae3660046114b5565b6104ee565b61018b610509565b6101606101c9366004611456565b610543565b6101e16101dc3660046114f1565b6105a3565b60405190815260200161012f565b61018b610629565b6007546001600160a01b0316610160565b61014061063d565b61018b61021e36600461150c565b61064c565b61018b61023136600461155e565b61065b565b610140610244366004611456565b610693565b61012361025736600461163a565b6001600160a01b03918216600090815260056020908152604080832093909416825291909152205460ff1690565b61018b6102933660046114f1565b6108d5565b60006001600160e01b031982166380ac58cd60e01b14806102c957506001600160e01b03198216635b5e139f60e01b145b806102e457506301ffc9a760e01b6001600160e01b03198316145b92915050565b6060600080546102f99061166d565b80601f01602080910402602001604051908101604052809291908181526020018280546103259061166d565b80156103725780601f1061034757610100808354040283529160200191610372565b820191906000526020600020905b81548152906001019060200180831161035557829003601f168201915b5050505050905090565b60006103878261094b565b506000908152600460205260409020546001600160a01b031690565b60006103ae82610543565b9050806001600160a01b0316836001600160a01b0316036104205760405162461bcd60e51b815260206004820152602160248201527f4552433732313a20617070726f76616c20746f2063757272656e74206f776e656044820152603960f91b60648201526084015b60405180910390fd5b336001600160a01b038216148061043c575061043c8133610257565b6104ae5760405162461bcd60e51b815260206004820152603d60248201527f4552433732313a20617070726f76652063616c6c6572206973206e6f7420746f60448201527f6b656e206f776e6572206f7220617070726f76656420666f7220616c6c0000006064820152608401610417565b6104b883836109aa565b505050565b6104c73382610a18565b6104e35760405162461bcd60e51b8152600401610417906116a7565b6104b8838383610a97565b6104b88383836040518060200160405280600081525061065b565b600061051460085490565b90506105203382610c08565b6105328161052d83610693565b610c22565b610540600880546001019055565b50565b6000818152600260205260408120546001600160a01b0316806102e45760405162461bcd60e51b8152602060048201526018602482015277115490cdcc8c4e881a5b9d985b1a59081d1bdad95b88125160421b6044820152606401610417565b60006001600160a01b03821661060d5760405162461bcd60e51b815260206004820152602960248201527f4552433732313a2061646472657373207a65726f206973206e6f7420612076616044820152683634b21037bbb732b960b91b6064820152608401610417565b506001600160a01b031660009081526003602052604090205490565b610631610cbc565b61063b6000610d16565b565b6060600180546102f99061166d565b610657338383610d68565b5050565b6106653383610a18565b6106815760405162461bcd60e51b8152600401610417906116a7565b61068d84848484610e36565b50505050565b606061069e8261094b565b6102e46040516020016108c1907f7b226465736372697074696f6e223a202254686520706f67676573742066656581527f73682061726f756e64222c2265787465726e616c5f75726c223a20226970667360208201527f3a2f2f6261666b726569636c7a627a6d796b7a6c69673536643671776670696860408201527f776c7367723464787833346933666370643766627468677a626133343534222c60608201527f22696d6167655f75726c223a202268747470733a2f2f6261666b726569636c7a60808201527f627a6d796b7a6c696735366436717766706968776c736772346478783334693360a08201527f666370643766627468677a6261333435342e697066732e6e667473746f72616760c08201527f652e6c696e6b2f222c226e616d65223a20224e656d75506f67222c226174747260e08201527f696275746573223a205b7b2274726169745f74797065223a2022546f706e65736101008201527f73222c2276616c7565223a20223130227d2c7b2274726169745f74797065223a6101208201527f2022506572736f6e616c697479222c2276616c7565223a2022546f6d626f79226101408201527f7d2c7b2274726169745f74797065223a2022416e696d616c222c2276616c75656101608201527f223a20224665657368227d2c7b2274726169745f74797065223a2022506f6767610180820152746e657373222c2276616c7565223a202239227d5d7d60581b6101a08201526101b50190565b604051602081830303815290604052610e69565b6108dd610cbc565b6001600160a01b0381166109425760405162461bcd60e51b815260206004820152602660248201527f4f776e61626c653a206e6577206f776e657220697320746865207a65726f206160448201526564647265737360d01b6064820152608401610417565b61054081610d16565b6000818152600260205260409020546001600160a01b03166105405760405162461bcd60e51b8152602060048201526018602482015277115490cdcc8c4e881a5b9d985b1a59081d1bdad95b88125160421b6044820152606401610417565b600081815260046020526040902080546001600160a01b0319166001600160a01b03841690811790915581906109df82610543565b6001600160a01b03167f8c5be1e5ebec7d5bd14f71427d1e84f3dd0314c0f7b2291e5b200ac8c7c3b92560405160405180910390a45050565b600080610a2483610543565b9050806001600160a01b0316846001600160a01b03161480610a6b57506001600160a01b0380821660009081526005602090815260408083209388168352929052205460ff165b80610a8f5750836001600160a01b0316610a848461037c565b6001600160a01b0316145b949350505050565b826001600160a01b0316610aaa82610543565b6001600160a01b031614610ad05760405162461bcd60e51b8152600401610417906116f4565b6001600160a01b038216610b325760405162461bcd60e51b8152602060048201526024808201527f4552433732313a207472616e7366657220746f20746865207a65726f206164646044820152637265737360e01b6064820152608401610417565b610b3f8383836001610fce565b826001600160a01b0316610b5282610543565b6001600160a01b031614610b785760405162461bcd60e51b8152600401610417906116f4565b600081815260046020908152604080832080546001600160a01b03199081169091556001600160a01b0387811680865260038552838620805460001901905590871680865283862080546001019055868652600290945282852080549092168417909155905184937fddf252ad1be2c89b69c2b068fc378daa952ba7f163c4a11628f55a4df523b3ef91a4505050565b610657828260405180602001604052806000815250611056565b6000828152600260205260409020546001600160a01b0316610c9d5760405162461bcd60e51b815260206004820152602e60248201527f45524337323155524953746f726167653a2055524920736574206f66206e6f6e60448201526d32bc34b9ba32b73a103a37b5b2b760911b6064820152608401610417565b600082815260066020908152604090912082516104b892840190611323565b6007546001600160a01b0316331461063b5760405162461bcd60e51b815260206004820181905260248201527f4f776e61626c653a2063616c6c6572206973206e6f7420746865206f776e65726044820152606401610417565b600780546001600160a01b038381166001600160a01b0319831681179093556040519116919082907f8be0079c531659141344cd1fd0a4f28419497f9722a3daafe3b4186f6b6457e090600090a35050565b816001600160a01b0316836001600160a01b031603610dc95760405162461bcd60e51b815260206004820152601960248201527f4552433732313a20617070726f766520746f2063616c6c6572000000000000006044820152606401610417565b6001600160a01b03838116600081815260056020908152604080832094871680845294825291829020805460ff191686151590811790915591519182527f17307eab39ab6107e8899845ad3d59bd9653f200f220920489ca2b5937696c31910160405180910390a3505050565b610e41848484610a97565b610e4d84848484611089565b61068d5760405162461bcd60e51b815260040161041790611739565b60608151600003610e8857505060408051602081019091526000815290565b600060405180606001604052806040815260200161186c6040913990506000600384516002610eb791906117a1565b610ec191906117b9565b610ecc9060046117db565b90506000610edb8260206117a1565b67ffffffffffffffff811115610ef357610ef3611548565b6040519080825280601f01601f191660200182016040528015610f1d576020820181803683370190505b509050818152600183018586518101602084015b81831015610f89576003830192508251603f8160121c168501518253600182019150603f81600c1c168501518253600182019150603f8160061c168501518253600182019150603f8116850151825350600101610f31565b600389510660018114610fa35760028114610fb457610fc0565b613d3d60f01b600119830152610fc0565b603d60f81b6000198301525b509398975050505050505050565b600181111561068d576001600160a01b03841615611014576001600160a01b0384166000908152600360205260408120805483929061100e9084906117fa565b90915550505b6001600160a01b0383161561068d576001600160a01b0383166000908152600360205260408120805483929061104b9084906117a1565b909155505050505050565b611060838361118a565b61106d6000848484611089565b6104b85760405162461bcd60e51b815260040161041790611739565b60006001600160a01b0384163b1561117f57604051630a85bd0160e11b81526001600160a01b0385169063150b7a02906110cd903390899088908890600401611811565b6020604051808303816000875af1925050508015611108575060408051601f3d908101601f191682019092526111059181019061184e565b60015b611165573d808015611136576040519150601f19603f3d011682016040523d82523d6000602084013e61113b565b606091505b50805160000361115d5760405162461bcd60e51b815260040161041790611739565b805181602001fd5b6001600160e01b031916630a85bd0160e11b149050610a8f565b506001949350505050565b6001600160a01b0382166111e05760405162461bcd60e51b815260206004820181905260248201527f4552433732313a206d696e7420746f20746865207a65726f20616464726573736044820152606401610417565b6000818152600260205260409020546001600160a01b0316156112455760405162461bcd60e51b815260206004820152601c60248201527f4552433732313a20746f6b656e20616c7265616479206d696e746564000000006044820152606401610417565b611253600083836001610fce565b6000818152600260205260409020546001600160a01b0316156112b85760405162461bcd60e51b815260206004820152601c60248201527f4552433732313a20746f6b656e20616c7265616479206d696e746564000000006044820152606401610417565b6001600160a01b038216600081815260036020908152604080832080546001019055848352600290915280822080546001600160a01b0319168417905551839291907fddf252ad1be2c89b69c2b068fc378daa952ba7f163c4a11628f55a4df523b3ef908290a45050565b82805461132f9061166d565b90600052602060002090601f0160209004810192826113515760008555611397565b82601f1061136a57805160ff1916838001178555611397565b82800160010185558215611397579182015b8281111561139757825182559160200191906001019061137c565b506113a39291506113a7565b5090565b5b808211156113a357600081556001016113a8565b6001600160e01b03198116811461054057600080fd5b6000602082840312156113e457600080fd5b81356113ef816113bc565b9392505050565b6000815180845260005b8181101561141c57602081850181015186830182015201611400565b8181111561142e576000602083870101525b50601f01601f19169290920160200192915050565b6020815260006113ef60208301846113f6565b60006020828403121561146857600080fd5b5035919050565b80356001600160a01b038116811461148657600080fd5b919050565b6000806040838503121561149e57600080fd5b6114a78361146f565b946020939093013593505050565b6000806000606084860312156114ca57600080fd5b6114d38461146f565b92506114e16020850161146f565b9150604084013590509250925092565b60006020828403121561150357600080fd5b6113ef8261146f565b6000806040838503121561151f57600080fd5b6115288361146f565b91506020830135801515811461153d57600080fd5b809150509250929050565b634e487b7160e01b600052604160045260246000fd5b6000806000806080858703121561157457600080fd5b61157d8561146f565b935061158b6020860161146f565b925060408501359150606085013567ffffffffffffffff808211156115af57600080fd5b818701915087601f8301126115c357600080fd5b8135818111156115d5576115d5611548565b604051601f8201601f19908116603f011681019083821181831017156115fd576115fd611548565b816040528281528a602084870101111561161657600080fd5b82602086016020830137600060208483010152809550505050505092959194509250565b6000806040838503121561164d57600080fd5b6116568361146f565b91506116646020840161146f565b90509250929050565b600181811c9082168061168157607f821691505b6020821081036116a157634e487b7160e01b600052602260045260246000fd5b50919050565b6020808252602d908201527f4552433732313a2063616c6c6572206973206e6f7420746f6b656e206f776e6560408201526c1c881bdc88185c1c1c9bdd9959609a1b606082015260800190565b60208082526025908201527f4552433732313a207472616e736665722066726f6d20696e636f72726563742060408201526437bbb732b960d91b606082015260800190565b60208082526032908201527f4552433732313a207472616e7366657220746f206e6f6e20455243373231526560408201527131b2b4bb32b91034b6b83632b6b2b73a32b960711b606082015260800190565b634e487b7160e01b600052601160045260246000fd5b600082198211156117b4576117b461178b565b500190565b6000826117d657634e487b7160e01b600052601260045260246000fd5b500490565b60008160001904831182151516156117f5576117f561178b565b500290565b60008282101561180c5761180c61178b565b500390565b6001600160a01b0385811682528416602082015260408101839052608060608201819052600090611844908301846113f6565b9695505050505050565b60006020828403121561186057600080fd5b81516113ef816113bc56fe4142434445464748494a4b4c4d4e4f505152535455565758595a6162636465666768696a6b6c6d6e6f707172737475767778797a303132333435363738392b2fa2646970667358221220e5ff7acd115d6420cd0b839c8eaf9608dfe8614e546cf1372ad1fbb97f60b07e64736f6c634300080d0033",
    "linkReferences": {}
  }
}