{
  "abi": [
    {
      "inputs": [
        {
          "internalType": "address",
          "name": "_owner",
          "type": "address"
        },
        {
          "internalType": "uint256",
          "name": "_tokenId",
          "type": "uint256"
        }
      ],
      "stateMutability": "nonpayable",
      "type": "constructor"
    },
    {
      "inputs": [
        {
          "internalType": "address",
          "name": "spender",
          "type": "address"
        },
        {
          "internalType": "uint256",
          "name": "id",
          "type": "uint256"
        }
      ],
      "name": "approve",
      "outputs": [],
      "stateMutability": "nonpayable",
      "type": "function"
    },
    {
      "inputs": [
        {
          "internalType": "address",
          "name": "owner",
          "type": "address"
        }
      ],
      "name": "balanceOf",
      "outputs": [
        {
          "internalType": "uint256",
          "name": "",
          "type": "uint256"
        }
      ],
      "stateMutability": "view",
      "type": "function"
    },
    {
      "inputs": [],
      "name": "factory",
      "outputs": [
        {
          "internalType": "contract IFactory",
          "name": "",
          "type": "address"
        }
      ],
      "stateMutability": "view",
      "type": "function"
    },
    {
      "inputs": [],
      "name": "garbage",
      "outputs": [
        {
          "internalType": "string",
          "name": "",
          "type": "string"
        }
      ],
      "stateMutability": "view",
      "type": "function"
    },
    {
      "inputs": [],
      "name": "generateSvg",
      "outputs": [
        {
          "internalType": "string",
          "name": "",
          "type": "string"
        }
      ],
      "stateMutability": "view",
      "type": "function"
    },
    {
      "inputs": [],
      "name": "getApproved",
      "outputs": [
        {
          "internalType": "address",
          "name": "",
          "type": "address"
        }
      ],
      "stateMutability": "view",
      "type": "function"
    },
    {
      "inputs": [
        {
          "internalType": "uint256",
          "name": "x",
          "type": "uint256"
        },
        {
          "internalType": "uint256",
          "name": "y",
          "type": "uint256"
        }
      ],
      "name": "getPixelFromCoords",
      "outputs": [
        {
          "internalType": "uint8[4]",
          "name": "",
          "type": "uint8[4]"
        }
      ],
      "stateMutability": "view",
      "type": "function"
    },
    {
      "inputs": [],
      "name": "name",
      "outputs": [
        {
          "internalType": "string",
          "name": "",
          "type": "string"
        }
      ],
      "stateMutability": "view",
      "type": "function"
    },
    {
      "inputs": [],
      "name": "ownerOf",
      "outputs": [
        {
          "internalType": "address",
          "name": "",
          "type": "address"
        }
      ],
      "stateMutability": "view",
      "type": "function"
    },
    {
      "inputs": [
        {
          "internalType": "uint256",
          "name": "",
          "type": "uint256"
        }
      ],
      "name": "pixels",
      "outputs": [
        {
          "internalType": "uint8",
          "name": "",
          "type": "uint8"
        }
      ],
      "stateMutability": "view",
      "type": "function"
    },
    {
      "inputs": [
        {
          "internalType": "address",
          "name": "_operator",
          "type": "address"
        },
        {
          "internalType": "bool",
          "name": "_approved",
          "type": "bool"
        }
      ],
      "name": "setApprovalForAll",
      "outputs": [],
      "stateMutability": "nonpayable",
      "type": "function"
    },
    {
      "inputs": [
        {
          "internalType": "uint8[2304]",
          "name": "_pixels",
          "type": "uint8[2304]"
        }
      ],
      "name": "setPixels",
      "outputs": [],
      "stateMutability": "nonpayable",
      "type": "function"
    },
    {
      "inputs": [
        {
          "internalType": "uint8[2304]",
          "name": "_pixels",
          "type": "uint8[2304]"
        }
      ],
      "name": "setPixels2",
      "outputs": [],
      "stateMutability": "nonpayable",
      "type": "function"
    },
    {
      "inputs": [
        {
          "internalType": "uint8[2304]",
          "name": "",
          "type": "uint8[2304]"
        }
      ],
      "name": "setPixelsAssembly",
      "outputs": [],
      "stateMutability": "nonpayable",
      "type": "function"
    },
    {
      "inputs": [
        {
          "internalType": "uint8[2304]",
          "name": "",
          "type": "uint8[2304]"
        }
      ],
      "name": "setPixelsAssembly2",
      "outputs": [],
      "stateMutability": "nonpayable",
      "type": "function"
    },
    {
      "inputs": [
        {
          "internalType": "bytes4",
          "name": "interfaceId",
          "type": "bytes4"
        }
      ],
      "name": "supportsInterface",
      "outputs": [
        {
          "internalType": "bool",
          "name": "",
          "type": "bool"
        }
      ],
      "stateMutability": "view",
      "type": "function"
    },
    {
      "inputs": [],
      "name": "symbol",
      "outputs": [
        {
          "internalType": "string",
          "name": "",
          "type": "string"
        }
      ],
      "stateMutability": "view",
      "type": "function"
    },
    {
      "inputs": [],
      "name": "tokenId",
      "outputs": [
        {
          "internalType": "uint256",
          "name": "",
          "type": "uint256"
        }
      ],
      "stateMutability": "view",
      "type": "function"
    },
    {
      "inputs": [],
      "name": "tokenURI",
      "outputs": [
        {
          "internalType": "string",
          "name": "",
          "type": "string"
        }
      ],
      "stateMutability": "view",
      "type": "function"
    },
    {
      "inputs": [
        {
          "internalType": "address",
          "name": "from",
          "type": "address"
        },
        {
          "internalType": "address",
          "name": "to",
          "type": "address"
        },
        {
          "internalType": "uint256",
          "name": "id",
          "type": "uint256"
        }
      ],
      "name": "transferFrom",
      "outputs": [],
      "stateMutability": "nonpayable",
      "type": "function"
    }
  ],
  "bytecode": {
    "object": "0x60a06040523480156200001157600080fd5b5060405162001533380380620015338339810160408190526200003491620000fa565b600180546001600160a01b03199081166001600160a01b038516179091556080829052600080543392169190911790556200007b81620000b5602090811b62000a2617901c565b6040516020016200008d919062000136565b60405160208183030381529060405260039081620000ac919062000220565b505050620002ec565b606060a06040510180604052602081039150506000815280825b600183039250600a81066030018353600a900480620000cf5750819003601f19909101908152919050565b600080604083850312156200010e57600080fd5b82516001600160a01b03811681146200012657600080fd5b6020939093015192949293505050565b6743616e766173202360c01b81526000825160005b818110156200016a57602081860181015160088684010152016200014b565b506000920160080191825250919050565b634e487b7160e01b600052604160045260246000fd5b600181811c90821680620001a657607f821691505b602082108103620001c757634e487b7160e01b600052602260045260246000fd5b50919050565b601f8211156200021b57600081815260208120601f850160051c81016020861015620001f65750805b601f850160051c820191505b81811015620002175782815560010162000202565b5050505b505050565b81516001600160401b038111156200023c576200023c6200017b565b62000254816200024d845462000191565b84620001cd565b602080601f8311600181146200028c5760008415620002735750858301515b600019600386901b1c1916600185901b17855562000217565b600085815260208120601f198616915b82811015620002bd578886015182559484019460019091019084016200029c565b5085821015620002dc5787850151600019600388901b60f8161c191681555b5050505050600190811b01905550565b6080516112246200030f600039600081816101c6015261055801526112246000f3fe608060405234801561001057600080fd5b506004361061012c5760003560e01c806370a08231116100ad578063a22cb46511610071578063a22cb465146102ae578063c45a0155146102c1578063d07b77b5146102d4578063d1e8b8cc146102e7578063fd38b21a146102ef57600080fd5b806370a082311461025b5780637e8cb7fe1461022857806382dc97ab1461026e5780638da7f2321461028157806395d89b41146102a657600080fd5b806317d70f7c116100f457806317d70f7c146101c157806323b872dd146101f65780633c130d90146102095780634fa01134146102285780635849dbf81461023b57600080fd5b806301ffc9a71461013157806305bddeb8146101595780630605062f1461016e57806306fdde0314610199578063095ea7b3146101ae575b600080fd5b61014461013f366004610d17565b6102f7565b60405190151581526020015b60405180910390f35b61016c610167366004610d48565b610349565b005b600154610181906001600160a01b031681565b6040516001600160a01b039091168152602001610150565b6101a16103d0565b6040516101509190610d98565b61016c6101bc366004610de7565b61045e565b6101e87f000000000000000000000000000000000000000000000000000000000000000081565b604051908152602001610150565b61016c610204366004610e11565b61050c565b60408051808201909152600381526207769760ec1b60208201526101a1565b61016c610236366004610d48565b6105e0565b61024e610249366004610e4d565b61061c565b6040516101509190610e6f565b6101e8610269366004610ea3565b6106df565b61016c61027c366004610d48565b61074c565b61029461028f366004610ebe565b6107c5565b60405160ff9091168152602001610150565b6101a16107f0565b61016c6102bc366004610ee8565b6107fd565b600054610181906001600160a01b031681565b600254610181906001600160a01b031681565b6101a16108aa565b6101a1610a15565b60006301ffc9a760e01b6001600160e01b03198316148061032857506380ac58cd60e01b6001600160e01b03198316145b806103435750635b5e139f60e01b6001600160e01b03198316145b92915050565b6001546001600160a01b0316331461037c5760405162461bcd60e51b815260040161037390610f1f565b60405180910390fd5b6000805b60488110156103cb57600060405260005b60208110156103ba57604080516004602086020135600884021b01905260019283019201610391565b506040516005820155600101610380565b505050565b600380546103dd90610f42565b80601f016020809104026020016040519081016040528092919081815260200182805461040990610f42565b80156104565780601f1061042b57610100808354040283529160200191610456565b820191906000526020600020905b81548152906001019060200180831161043957829003601f168201915b505050505081565b6000546001600160a01b031633146104e95761047933610a6a565b61048257600080fd5b60005460405163095ea7b360e01b81526001600160a01b038481166004830152602482018490529091169063095ea7b390604401600060405180830381600087803b1580156104d057600080fd5b505af11580156104e4573d6000803e3d6000fd5b505050505b50600280546001600160a01b0319166001600160a01b0392909216919091179055565b61051533610a6a565b61051e57600080fd5b600280546001600160a01b03191690556000546040516323b872dd60e01b81526001600160a01b03858116600483015284811660248301527f00000000000000000000000000000000000000000000000000000000000000006044830152909116906323b872dd90606401600060405180830381600087803b1580156105a357600080fd5b505af11580156105b7573d6000803e3d6000fd5b5050600180546001600160a01b0319166001600160a01b03959095169490941790935550505050565b6001546001600160a01b0316331461060a5760405162461bcd60e51b815260040161037390610f1f565b610618600582610900610c4e565b5050565b610624610ce4565b61062c610ce4565b6000610639600486610f92565b6004610646601887610f92565b6106509190610f92565b61065a9190610fa9565b905060005b60048160ff1610156106d557600561067a60ff831684610fa9565b610900811061068b5761068b610fbc565b602091828204019190069054906101000a900460ff16838260ff16600481106106b6576106b6610fbc565b60ff9092166020929092020152806106cd81610fd2565b91505061065f565b5090949350505050565b600080546040516370a0823160e01b81523360048201526001600160a01b03909116906370a0823190602401602060405180830381865afa158015610728573d6000803e3d6000fd5b505050506040513d601f19601f820116820180604052508101906103439190610ff1565b6001546001600160a01b031633146107765760405162461bcd60e51b815260040161037390610f1f565b6000805b60488110156103cb57600060405260005b60208110156107b457604080516020850260040135600884021b0190526001928301920161078b565b50604051600582015560010161077a565b60058161090081106107d657600080fd5b60209182820401919006915054906101000a900460ff1681565b600480546103dd90610f42565b60008054604080516001600160a01b03868116602483015285151560448084019190915283518084039091018152606490920183526020820180516001600160e01b031663a22cb46560e01b1790529151919092169161085c9161100a565b600060405180830381855af49150503d8060008114610897576040519150601f19603f3d011682016040523d82523d6000602084013e61089c565b606091505b50509050806103cb57600080fd5b606060006040518060800160405280604c81526020016111a3604c9139905060005b60108160ff1610156109ed5760005b60108160ff1610156109e4576040805180820190915260098152683c7265637420783d2760b81b6020820152839061091f610917600885611026565b60ff16610a26565b6040805180820190915260058152642720793d2760d81b6020820152610949610917600888611026565b6040518060400160405280601d81526020017f272077696474683d273827206865696768743d2738272066696c6c3d270000008152506109976109928860ff168a60ff1661061c565b610b13565b6040518060400160405280600381526020016213979f60e91b8152506040516020016109ca989796959493929190611049565b60408051601f1981840301815291905292506001016108db565b506001016108cc565b50806040516020016109ff91906110ee565b60408051601f1981840301815291905292915050565b6060610a2160ff610b73565b905090565b606060a06040510180604052602081039150506000815280825b600183039250600a81066030018353600a900480610a405750819003601f19909101908152919050565b6001546000906001600160a01b0316331480610af9575060005460015460405163e985e9c560e01b81526001600160a01b039182166004820152848216602482015291169063e985e9c590604401602060405180830381865afa158015610ad5573d6000803e3d6000fd5b505050506040513d601f19601f82011682018060405250810190610af99190611118565b806103435750506002546001600160a01b03163314919050565b6060610b298260005b602002015160ff16610b73565b610b34836001610b1c565b610b3f846002610b1c565b610b4a856003610b1c565b604051602001610b5d9493929190611135565b6040516020818303038152906040529050919050565b604080516002808252818301909252606091600091906020820181803683370190505090506f181899199a1a9b1b9c1cb0b131b232b360811b83600f1660108110610bc057610bc0610fbc565b1a60f81b81600181518110610bd757610bd7610fbc565b60200101906001600160f81b031916908160001a9053506f181899199a1a9b1b9c1cb0b131b232b360811b600484901c600f1660108110610c1a57610c1a610fbc565b1a60f81b81600081518110610c3157610c31610fbc565b60200101906001600160f81b031916908160001a90535092915050565b604883019183908215610cd45791602002820160005b83821115610ca557833560ff1683826101000a81548160ff021916908360ff1602179055509260200192600101602081600001049283019260010302610c64565b8015610cd25782816101000a81549060ff0219169055600101602081600001049283019260010302610ca5565b505b50610ce0929150610d02565b5090565b60405180608001604052806004906020820280368337509192915050565b5b80821115610ce05760008155600101610d03565b600060208284031215610d2957600080fd5b81356001600160e01b031981168114610d4157600080fd5b9392505050565b600062012000808385031215610d5d57600080fd5b838184011115610d6c57600080fd5b509092915050565b60005b83811015610d8f578181015183820152602001610d77565b50506000910152565b6020815260008251806020840152610db7816040850160208701610d74565b601f01601f19169190910160400192915050565b80356001600160a01b0381168114610de257600080fd5b919050565b60008060408385031215610dfa57600080fd5b610e0383610dcb565b946020939093013593505050565b600080600060608486031215610e2657600080fd5b610e2f84610dcb565b9250610e3d60208501610dcb565b9150604084013590509250925092565b60008060408385031215610e6057600080fd5b50508035926020909101359150565b60808101818360005b6004811015610e9a57815160ff16835260209283019290910190600101610e78565b50505092915050565b600060208284031215610eb557600080fd5b610d4182610dcb565b600060208284031215610ed057600080fd5b5035919050565b8015158114610ee557600080fd5b50565b60008060408385031215610efb57600080fd5b610f0483610dcb565b91506020830135610f1481610ed7565b809150509250929050565b6020808252600990820152682727aa2fa7aba722a960b91b604082015260600190565b600181811c90821680610f5657607f821691505b602082108103610f7657634e487b7160e01b600052602260045260246000fd5b50919050565b634e487b7160e01b600052601160045260246000fd5b808202811582820484141761034357610343610f7c565b8082018082111561034357610343610f7c565b634e487b7160e01b600052603260045260246000fd5b600060ff821660ff8103610fe857610fe8610f7c565b60010192915050565b60006020828403121561100357600080fd5b5051919050565b6000825161101c818460208701610d74565b9190910192915050565b60ff818116838216029081169081811461104257611042610f7c565b5092915050565b60008951602061105c8285838f01610d74565b8a519184019161106f8184848f01610d74565b8a519201916110818184848e01610d74565b89519201916110938184848d01610d74565b88519201916110a58184848c01610d74565b87519201916110b78184848b01610d74565b86519201916110c98184848a01610d74565b85519201916110db8184848901610d74565b919091019b9a5050505050505050505050565b60008251611100818460208701610d74565b651e17b9bb339f60d11b920191825250600601919050565b60006020828403121561112a57600080fd5b8151610d4181610ed7565b602360f81b815260008551611151816001850160208a01610d74565b855190830190611168816001840160208a01610d74565b855191019061117e816001840160208901610d74565b8451910190611194816001840160208801610d74565b01600101969550505050505056fe3c73766720786d6c6e733d22687474703a2f2f7777772e77332e6f72672f323030302f737667222076657273696f6e3d22312e32222076696577426f783d223020302031323820313238223ea2646970667358221220968062df073fc71cf560ea2ad563239a6df7d884b50b24e1534ab2cf5bb16c1c64736f6c63430008110033",
    "linkReferences": {}
  },
  "methodIdentifiers": {
    "approve(address,uint256)": "095ea7b3",
    "balanceOf(address)": "70a08231",
    "factory()": "c45a0155",
    "garbage()": "fd38b21a",
    "generateSvg()": "d1e8b8cc",
    "getApproved()": "d07b77b5",
    "getPixelFromCoords(uint256,uint256)": "5849dbf8",
    "name()": "06fdde03",
    "ownerOf()": "0605062f",
    "pixels(uint256)": "8da7f232",
    "setApprovalForAll(address,bool)": "a22cb465",
    "setPixels(uint8[2304])": "4fa01134",
    "setPixels2(uint8[2304])": "7e8cb7fe",
    "setPixelsAssembly(uint8[2304])": "82dc97ab",
    "setPixelsAssembly2(uint8[2304])": "05bddeb8",
    "supportsInterface(bytes4)": "01ffc9a7",
    "symbol()": "95d89b41",
    "tokenId()": "17d70f7c",
    "tokenURI()": "3c130d90",
    "transferFrom(address,address,uint256)": "23b872dd"
  },
  "id": 45
}