{
  "abi": [
    {
      "inputs": [],
      "stateMutability": "nonpayable",
      "type": "constructor"
    },
    {
      "anonymous": false,
      "inputs": [
        {
          "indexed": false,
          "internalType": "uint256",
          "name": "",
          "type": "uint256"
        }
      ],
      "name": "SupplyChange",
      "type": "event"
    },
    {
      "inputs": [],
      "name": "getSupply",
      "outputs": [
        {
          "internalType": "uint256",
          "name": "",
          "type": "uint256"
        }
      ],
      "stateMutability": "view",
      "type": "function"
    },
    {
      "inputs": [],
      "name": "increaseTotalSupply",
      "outputs": [],
      "stateMutability": "nonpayable",
      "type": "function"
    }
  ],
  "bytecode": {
    "object": "0x608060405261271060005534801561001657600080fd5b50600180546001600160a01b03191633179055610113806100386000396000f3fe6080604052348015600f57600080fd5b506004361060325760003560e01c80636c9c2faf146037578063de0f2be114604c575b600080fd5b60005460405190815260200160405180910390f35b60526054565b005b6001546001600160a01b03163314606a57600080fd5b6103e8600080828254607b919060b8565b90915550506000546040519081527fa7c4659c01b6333277cda1f0cba85839c3bce5bad5a027f5f8d49be390e2ff2f9060200160405180910390a1565b6000821982111560d857634e487b7160e01b600052601160045260246000fd5b50019056fea26469706673582212207f4a28392579bb685c466170c7c09810f1c5882924a9079b270022a8b4e8584a64736f6c634300080d0033",
    "linkReferences": {}
  }
}