{
  "abi": [
    {
      "inputs": [],
      "stateMutability": "nonpayable",
      "type": "constructor"
    },
    {
      "anonymous": false,
      "inputs": [
        {
          "indexed": false,
          "internalType": "uint256",
          "name": "supply",
          "type": "uint256"
        }
      ],
      "name": "SupplyChange",
      "type": "event"
    },
    {
      "anonymous": false,
      "inputs": [
        {
          "indexed": false,
          "internalType": "address",
          "name": "recipient",
          "type": "address"
        },
        {
          "indexed": false,
          "internalType": "uint256",
          "name": "amount",
          "type": "uint256"
        }
      ],
      "name": "Transfer",
      "type": "event"
    },
    {
      "inputs": [],
      "name": "getSupply",
      "outputs": [
        {
          "internalType": "uint256",
          "name": "",
          "type": "uint256"
        }
      ],
      "stateMutability": "view",
      "type": "function"
    },
    {
      "inputs": [],
      "name": "increaseTotalSupply",
      "outputs": [],
      "stateMutability": "nonpayable",
      "type": "function"
    },
    {
      "inputs": [
        {
          "internalType": "uint256",
          "name": "_amount",
          "type": "uint256"
        },
        {
          "internalType": "address",
          "name": "recipient",
          "type": "address"
        }
      ],
      "name": "transfer",
      "outputs": [],
      "stateMutability": "nonpayable",
      "type": "function"
    }
  ],
  "bytecode": {
    "object": "0x608060405261271060005534801561001657600080fd5b50600180546001600160a01b0319163390811790915560008054918152600260205260409020556101bd8061004c6000396000f3fe608060405234801561001057600080fd5b50600436106100415760003560e01c80636c9c2faf14610046578063b7760c8f1461005b578063de0f2be114610070575b600080fd5b60005460405190815260200160405180910390f35b61006e610069366004610125565b610078565b005b61006e6100be565b604080516001600160a01b0383168152602081018490527f69ca02dd4edd7bf0a4abb9ed3b7af3f14778db5d61921c7dc7cd545266326de2910160405180910390a15050565b6001546001600160a01b031633146100d557600080fd5b6103e86000808282546100e89190610161565b90915550506000546040519081527fa7c4659c01b6333277cda1f0cba85839c3bce5bad5a027f5f8d49be390e2ff2f9060200160405180910390a1565b6000806040838503121561013857600080fd5b8235915060208301356001600160a01b038116811461015657600080fd5b809150509250929050565b6000821982111561018257634e487b7160e01b600052601160045260246000fd5b50019056fea2646970667358221220f68567ef3b7ef4d2c99e234ec046247d366c019cccc0296b202a072a812f15e864736f6c634300080d0033",
    "linkReferences": {}
  }
}