{
  "abi": [
    {
      "inputs": [
        {
          "internalType": "address",
          "name": "_address",
          "type": "address"
        }
      ],
      "stateMutability": "nonpayable",
      "type": "constructor"
    },
    {
      "anonymous": false,
      "inputs": [
        {
          "indexed": false,
          "internalType": "address",
          "name": "sender",
          "type": "address"
        },
        {
          "indexed": false,
          "internalType": "uint256",
          "name": "amount",
          "type": "uint256"
        }
      ],
      "name": "LogAddressPaid",
      "type": "event"
    },
    {
      "anonymous": false,
      "inputs": [
        {
          "indexed": false,
          "internalType": "address",
          "name": "_address",
          "type": "address"
        }
      ],
      "name": "LogPayoutFailed",
      "type": "event"
    },
    {
      "anonymous": false,
      "inputs": [
        {
          "indexed": false,
          "internalType": "address",
          "name": "_address",
          "type": "address"
        }
      ],
      "name": "LogPayoutFailedLowBalance",
      "type": "event"
    },
    {
      "anonymous": false,
      "inputs": [
        {
          "indexed": false,
          "internalType": "address",
          "name": "_address",
          "type": "address"
        }
      ],
      "name": "LogPayoutWinningTeam",
      "type": "event"
    },
    {
      "anonymous": false,
      "inputs": [
        {
          "indexed": false,
          "internalType": "address",
          "name": "_address",
          "type": "address"
        }
      ],
      "name": "LogSetOracle",
      "type": "event"
    },
    {
      "anonymous": false,
      "inputs": [
        {
          "indexed": false,
          "internalType": "address",
          "name": "_address",
          "type": "address"
        },
        {
          "indexed": false,
          "internalType": "string",
          "name": "name",
          "type": "string"
        }
      ],
      "name": "LogTeamCorrectGuess",
      "type": "event"
    },
    {
      "anonymous": false,
      "inputs": [
        {
          "indexed": false,
          "internalType": "address",
          "name": "_address",
          "type": "address"
        }
      ],
      "name": "LogTeamNotRegistered",
      "type": "event"
    },
    {
      "anonymous": false,
      "inputs": [
        {
          "indexed": false,
          "internalType": "address",
          "name": "_address",
          "type": "address"
        },
        {
          "indexed": false,
          "internalType": "string",
          "name": "name",
          "type": "string"
        }
      ],
      "name": "LogTeamRegistered",
      "type": "event"
    },
    {
      "anonymous": false,
      "inputs": [
        {
          "indexed": false,
          "internalType": "address",
          "name": "teamAddress",
          "type": "address"
        },
        {
          "indexed": false,
          "internalType": "uint256",
          "name": "amount",
          "type": "uint256"
        }
      ],
      "name": "LogTeamWrongGuess",
      "type": "event"
    },
    {
      "inputs": [
        {
          "internalType": "address",
          "name": "_adminAddress",
          "type": "address"
        }
      ],
      "name": "addAdmin",
      "outputs": [],
      "stateMutability": "nonpayable",
      "type": "function"
    },
    {
      "inputs": [
        {
          "internalType": "address",
          "name": "",
          "type": "address"
        }
      ],
      "name": "admins",
      "outputs": [
        {
          "internalType": "bool",
          "name": "",
          "type": "bool"
        }
      ],
      "stateMutability": "view",
      "type": "function"
    },
    {
      "inputs": [
        {
          "internalType": "address",
          "name": "_address",
          "type": "address"
        }
      ],
      "name": "changeOracle",
      "outputs": [],
      "stateMutability": "nonpayable",
      "type": "function"
    },
    {
      "inputs": [],
      "name": "getTeamDetails",
      "outputs": [
        {
          "components": [
            {
              "internalType": "uint256",
              "name": "index",
              "type": "uint256"
            },
            {
              "internalType": "address",
              "name": "teamAddress",
              "type": "address"
            },
            {
              "internalType": "string",
              "name": "name",
              "type": "string"
            },
            {
              "internalType": "uint256",
              "name": "points",
              "type": "uint256"
            }
          ],
          "internalType": "struct Lottery.Team[]",
          "name": "",
          "type": "tuple[]"
        }
      ],
      "stateMutability": "view",
      "type": "function"
    },
    {
      "inputs": [
        {
          "internalType": "uint8",
          "name": "seed",
          "type": "uint8"
        }
      ],
      "name": "initialiseLottery",
      "outputs": [],
      "stateMutability": "nonpayable",
      "type": "function"
    },
    {
      "inputs": [
        {
          "internalType": "address",
          "name": "_team",
          "type": "address"
        },
        {
          "internalType": "uint256",
          "name": "_guess",
          "type": "uint256"
        }
      ],
      "name": "makeAGuess",
      "outputs": [
        {
          "internalType": "bool",
          "name": "",
          "type": "bool"
        }
      ],
      "stateMutability": "nonpayable",
      "type": "function"
    },
    {
      "inputs": [
        {
          "internalType": "uint256",
          "name": "",
          "type": "uint256"
        }
      ],
      "name": "passwords",
      "outputs": [
        {
          "internalType": "string",
          "name": "",
          "type": "string"
        }
      ],
      "stateMutability": "view",
      "type": "function"
    },
    {
      "inputs": [
        {
          "internalType": "address",
          "name": "_team",
          "type": "address"
        }
      ],
      "name": "payoutWinningTeam",
      "outputs": [
        {
          "internalType": "bool",
          "name": "",
          "type": "bool"
        }
      ],
      "stateMutability": "nonpayable",
      "type": "function"
    },
    {
      "inputs": [
        {
          "internalType": "address",
          "name": "_walletAddress",
          "type": "address"
        },
        {
          "internalType": "string",
          "name": "_teamName",
          "type": "string"
        },
        {
          "internalType": "string",
          "name": "_password",
          "type": "string"
        }
      ],
      "name": "registerTeam",
      "outputs": [],
      "stateMutability": "payable",
      "type": "function"
    },
    {
      "inputs": [
        {
          "internalType": "address",
          "name": "",
          "type": "address"
        }
      ],
      "name": "registeredTeams",
      "outputs": [
        {
          "internalType": "bool",
          "name": "",
          "type": "bool"
        }
      ],
      "stateMutability": "view",
      "type": "function"
    },
    {
      "inputs": [
        {
          "internalType": "uint8",
          "name": "_newSeed",
          "type": "uint8"
        }
      ],
      "name": "reset",
      "outputs": [],
      "stateMutability": "nonpayable",
      "type": "function"
    },
    {
      "inputs": [],
      "name": "teamCounter",
      "outputs": [
        {
          "internalType": "uint256",
          "name": "",
          "type": "uint256"
        }
      ],
      "stateMutability": "view",
      "type": "function"
    },
    {
      "inputs": [
        {
          "internalType": "uint256",
          "name": "",
          "type": "uint256"
        }
      ],
      "name": "teamDetails",
      "outputs": [
        {
          "internalType": "uint256",
          "name": "index",
          "type": "uint256"
        },
        {
          "internalType": "address",
          "name": "teamAddress",
          "type": "address"
        },
        {
          "internalType": "string",
          "name": "name",
          "type": "string"
        },
        {
          "internalType": "uint256",
          "name": "points",
          "type": "uint256"
        }
      ],
      "stateMutability": "view",
      "type": "function"
    },
    {
      "inputs": [],
      "name": "thisLottery",
      "outputs": [
        {
          "internalType": "uint256",
          "name": "endTime",
          "type": "uint256"
        },
        {
          "internalType": "uint256",
          "name": "seed",
          "type": "uint256"
        }
      ],
      "stateMutability": "view",
      "type": "function"
    },
    {
      "stateMutability": "payable",
      "type": "receive"
    }
  ],
  "bytecode": {
    "object": "0x608060405234801561001057600080fd5b506040516116bd3803806116bd83398101604081905261002f91610162565b336000908152600560205260408082208054600160ff1991821681179092557f64eea37f0939cf82c2bc2f27d191049b987eb13b57ef041294948bff6af52b7680548216831790557f70eb7ccbefc3402ce42822dace23ce244b069ee40e3064e2070c2b4cfdfb1d2280548216831790557f990d3feab445147fede19da4ba0a947e68bca47b29d192e332df05df6e5250a380548216831790557352facd14353e4f9926e0cf6eeac71bc6770267b89093527ff0f4af78662d9bf21fc76a4970cab2165e445167e39c9c046e4748193f6192398054909316811790925581546001600160a01b0319166001600160a01b03841617909155517fad675642c3cba5442815383698d42cd28889533d9671a6d32cffea58ef0874da90610154908390610190565b60405180910390a1506101a4565b600060208284031215610173578081fd5b81516001600160a01b0381168114610189578182fd5b9392505050565b6001600160a01b0391909116815260200190565b61150a806101b36000396000f3fe6080604052600436106100e15760003560e01c80638b83b78a1161007f578063b6cc259411610059578063b6cc259414610282578063ca2890d9146102a2578063d314cbc3146102c5578063dbc897ad146102e557610121565b80638b83b78a1461022057806395be797514610233578063a04e318c1461025557610121565b8063464362da116100bb578063464362da1461019e57806347c421b5146101c057806370480275146101e057806382257ad31461020057610121565b806335eb2be21461012657806339740b4214610151578063429b62e51461017e57610121565b36610121577fd9fca726a61094de2cbd4efee08a13d9ad87e7f89ad0a9bd0baca38287b139473334604051610117929190611272565b60405180910390a1005b600080fd5b34801561013257600080fd5b5061013b610315565b6040516101489190611476565b60405180910390f35b34801561015d57600080fd5b5061017161016c3660046110de565b61031b565b60405161014891906113fc565b34801561018a57600080fd5b506101716101993660046110de565b6104e3565b3480156101aa57600080fd5b506101be6101b93660046111e5565b6104f8565b005b3480156101cc57600080fd5b506101be6101db3660046110de565b61077e565b3480156101ec57600080fd5b506101be6101fb3660046110de565b610803565b34801561020c57600080fd5b5061017161021b36600461118b565b610856565b6101be61022e366004611100565b610a68565b34801561023f57600080fd5b50610248610c06565b6040516101489190611369565b34801561026157600080fd5b506102756102703660046111b5565b610d1e565b6040516101489190611407565b34801561028e57600080fd5b5061017161029d3660046110de565b610db9565b3480156102ae57600080fd5b506102b7610dce565b6040516101489291906114ba565b3480156102d157600080fd5b506101be6102e03660046111e5565b610dd7565b3480156102f157600080fd5b506103056103003660046111b5565b610e02565b604051610148949392919061147f565b60005481565b6000805b6004548110156104a557826001600160a01b03166004828154811061034057fe5b60009182526020909120600160049092020101546001600160a01b0316148015610389575060646004828154811061037457fe5b90600052602060002090600402016003015410155b1561049d576000836001600160a01b031663773594006040516103ab90610d1b565b60006040518083038185875af1925050503d80600081146103e8576040519150601f19603f3d011682016040523d82523d6000602084013e6103ed565b606091505b50509050801561045b5760006004838154811061040657fe5b9060005260206000209060040201600301819055507f7ab8a41479b9640f423a65650cee11b7ae7d4d101ede8a9cf4c33bf3482595cd8460405161044a919061125e565b60405180910390a191506104de9050565b7f9d2f7930ee340bb7bf97e4f35eff46fe71f9c20c1d02c7722b5eb220707dede08460405161048a919061125e565b60405180910390a16000925050506104de565b60010161031f565b507f798e400c926a719f3f659f7ae82df250f176959e7815cbd1dcf0ad3839fdb0ca826040516104d5919061125e565b60405180910390a15b919050565b60056020526000908152604090205460ff1681565b3360009081526005602052604090205460ff166105305760405162461bcd60e51b815260040161052790611451565b60405180910390fd5b600454156105d65760005b6000548110156105c45760006004828154811061055457fe5b6000918252602080832060016004909302019190910154604080518084018083528582528786526006909452932092516001600160a01b03909116935061059c929190610ed0565b506001600160a01b03166000908152600760205260409020805460ff1916905560010161053b565b506105d160046000610f4e565b600080555b6040805180820182524262093a800180825260ff84166020928301819052600291909155600355815160808101835260008054825281830181815284518086018652600c81526b44656661756c74205465616d60a01b8186015294830194855260056060840152600480546001810182559281905283517f8a35acfbc15ff81a39ae7d344fd709f28e8600b4aa8c65c6b64bfe7fe36bd19b9390910292830190815590517f8a35acfbc15ff81a39ae7d344fd709f28e8600b4aa8c65c6b64bfe7fe36bd19c830180546001600160a01b0319166001600160a01b03909216919091179055935180519294936106f2937f8a35acfbc15ff81a39ae7d344fd709f28e8600b4aa8c65c6b64bfe7fe36bd19d90930192910190610ed0565b5060609190910151600390910155604080518082018252600881526714185cdcdddbdc9960c21b6020808301918252600080548152600690915292909220905161073c9290610ed0565b5050600080805260076020527f6d5257204ebe7d88fd91ae87941cb2dd9d8062b64ae5a2bd2d28ec40b9fbf6df805460ff191660019081179091558154019055565b3360009081526005602052604090205460ff166107ad5760405162461bcd60e51b815260040161052790611451565b600180546001600160a01b0319166001600160a01b0383161790556040517fad675642c3cba5442815383698d42cd28889533d9671a6d32cffea58ef0874da906107f890839061125e565b60405180910390a150565b3360009081526005602052604090205460ff166108325760405162461bcd60e51b815260040161052790611451565b6001600160a01b03166000908152600560205260409020805460ff19166001179055565b600080600160009054906101000a90046001600160a01b03166001600160a01b031663dbdff2c16040518163ffffffff1660e01b815260040160206040518083038186803b1580156108a757600080fd5b505afa1580156108bb573d6000803e3d6000fd5b505050506040513d601f19601f820116820180604052506108df91908101906111cd565b905060005b600454811015610a5f57600481815481106108fb57fe5b60009182526020909120600160049092020101546001600160a01b0386811691161415610a2057838214156109af5760646004828154811061093957fe5b9060005260206000209060040201600301819055507f1c43d8c42b1c510cb5bcd29fb934103cc70c4a82548dfefe0f50e6620b0932c0856004838154811061097d57fe5b906000526020600020906004020160020160405161099c9291906112cb565b60405180910390a1600192505050610a62565b6001600482815481106109be57fe5b9060005260206000209060040201600301600082825403925050819055507ff9a5f3da9782d777831e6403c012379863d2560a8221f5fbcb1b8d40fb94da6a8585604051610a0d929190611272565b60405180910390a1600092505050610a62565b7fdf993becf4efbf935dd6e1175655f07fea55fc057ac1a603e97b80b65a26795285604051610a4f919061125e565b60405180910390a16001016108e4565b50505b92915050565b34633b9aca0014610a7857600080fd5b6001600160a01b03851660009081526007602052604090205460ff1615610ab15760405162461bcd60e51b81526004016105279061141a565b600460405180608001604052806000548152602001876001600160a01b0316815260200186868080601f016020809104026020016040519081016040528093929190818152602001838380828437600092018290525093855250506005602093840152508354600180820186559482529082902083516004909202019081558282015193810180546001600160a01b0319166001600160a01b039095169490941790935560408201518051929392610b6f9260028501920190610ed0565b5060609190910151600390910155600080548152600660205260409020610b97908383610f72565b506001600160a01b038516600090815260076020526040808220805460ff19166001908117909155825401909155517f1cd7f8e4683b448022ba582f8797b651b900d6276914618adcc5b3f3e995ded990610bf79087908790879061128b565b60405180910390a15050505050565b60606004805480602002602001604051908101604052809291908181526020016000905b82821015610d145760008481526020908190206040805160808101825260048602909201805483526001808201546001600160a01b0316848601526002808301805485516101009482161594909402600019011691909104601f8101879004870283018701855280835294959294938601939192909190830182828015610cf25780601f10610cc757610100808354040283529160200191610cf2565b820191906000526020600020905b815481529060010190602001808311610cd557829003601f168201915b5050505050815260200160038201548152505081526020019060010190610c2a565b5050505090505b90565b60066020908152600091825260409182902080548351601f600260001961010060018616150201909316929092049182018490048402810184019094528084529091830182828015610db15780601f10610d8657610100808354040283529160200191610db1565b820191906000526020600020905b815481529060010190602001808311610d9457829003601f168201915b505050505081565b60076020526000908152604090205460ff1681565b60025460035482565b6040805180820190915262093a80420180825260ff9092166020909101819052600291909155600355565b60048181548110610e0f57fe5b6000918252602091829020600491909102018054600180830154600280850180546040805161010096831615969096026000190190911692909204601f81018890048802850188019092528184529396506001600160a01b0390911694919291830182828015610ec05780601f10610e9557610100808354040283529160200191610ec0565b820191906000526020600020905b815481529060010190602001808311610ea357829003601f168201915b5050505050908060030154905084565b828054600181600116156101000203166002900490600052602060002090601f016020900481019282601f10610f1157805160ff1916838001178555610f3e565b82800160010185558215610f3e579182015b82811115610f3e578251825591602001919060010190610f23565b50610f4a929150610fe0565b5090565b5080546000825560040290600052602060002090810190610f6f9190610ffa565b50565b828054600181600116156101000203166002900490600052602060002090601f016020900481019282601f10610fb35782800160ff19823516178555610f3e565b82800160010185558215610f3e579182015b82811115610f3e578235825591602001919060010190610fc5565b610d1b91905b80821115610f4a5760008155600101610fe6565b610d1b91905b80821115610f4a5760008082556001820180546001600160a01b031916905561102c600283018261103c565b5060006003820155600401611000565b50805460018160011615610100020316600290046000825580601f106110625750610f6f565b601f016020900490600052602060002090810190610f6f9190610fe0565b80356001600160a01b0381168114610a6257600080fd5b60008083601f8401126110a8578182fd5b50813567ffffffffffffffff8111156110bf578182fd5b6020830191508360208285010111156110d757600080fd5b9250929050565b6000602082840312156110ef578081fd5b6110f98383611080565b9392505050565b600080600080600060608688031215611117578081fd5b85356001600160a01b038116811461112d578182fd5b9450602086013567ffffffffffffffff80821115611149578283fd5b61115589838a01611097565b9096509450604088013591508082111561116d578283fd5b5061117a88828901611097565b969995985093965092949392505050565b6000806040838503121561119d578182fd5b6111a78484611080565b946020939093013593505050565b6000602082840312156111c6578081fd5b5035919050565b6000602082840312156111de578081fd5b5051919050565b6000602082840312156111f6578081fd5b813560ff811681146110f9578182fd5b6001600160a01b03169052565b60008151808452815b818110156112385760208185018101518683018201520161121c565b818111156112495782602083870101525b50601f01601f19169290920160200192915050565b6001600160a01b0391909116815260200190565b6001600160a01b03929092168252602082015260400190565b6001600160a01b03841681526040602082018190528101829052600082846060840137818301606090810191909152601f909201601f1916010192915050565b6001600160a01b038316815260406020820181905282546000918301908290600181168015611301576001811461131f5761135d565b60028204607f16845260ff198216606087015260808601925061135d565b6002820461132d8186611476565b611336896114c8565b875b8381101561135457815483820152600190910190602001611338565b91909101945050505b50909695505050505050565b6000602080830181845280855180835260408601915060408482028701019250838701855b828110156113ef57878503603f19018452815180518652868101516113b588880182611206565b506040810151608060408801526113cf6080880182611213565b60609283015197909201969096529450928501929085019060010161138e565b5092979650505050505050565b901515815260200190565b6000602082526110f96020830184611213565b60208082526017908201527f5465616d20616c72656164792072656769737465726564000000000000000000604082015260600190565b6020808252600b908201526a4f6e6c792061646d696e7360a81b604082015260600190565b90815260200190565b8481526001600160a01b03841660208201526080604082018190526000906114a990830185611213565b905082606083015295945050505050565b918252602082015260400190565b6000908152602090209056fea26469706673582212206fda916a133604abd9a284e90aa2806c88f4a262b096bb6004e40531d4f905ff64736f6c63430006000033",
    "linkReferences": {}
  },
  "methodIdentifiers": {
    "addAdmin(address)": "70480275",
    "admins(address)": "429b62e5",
    "changeOracle(address)": "47c421b5",
    "getTeamDetails()": "95be7975",
    "initialiseLottery(uint8)": "464362da",
    "makeAGuess(address,uint256)": "82257ad3",
    "passwords(uint256)": "a04e318c",
    "payoutWinningTeam(address)": "39740b42",
    "registerTeam(address,string,string)": "8b83b78a",
    "registeredTeams(address)": "b6cc2594",
    "reset(uint8)": "d314cbc3",
    "teamCounter()": "35eb2be2",
    "teamDetails(uint256)": "dbc897ad",
    "thisLottery()": "ca2890d9"
  },
  "id": 1
}